:020000040000FA
:06000000020D4702039F00
:03002B00020B774E
:03003300020903BC
:03004300020A139B
:030053000202D0D6
:03006B000208DDAB
:100083000203340101FF01010503010F10FEFFCD3F
:1000930015CD15CD15CD1589148314CD15F022007A
:1000A300000000B423000000000C0000000C00015D
:1000B300FFFF010102007F05000000F2056400025A
:1000C3000200080000050207051E02051E020A0AB7
:1000D30003B80B02803E0102FFFF14965118003152
:1000E30032333435020206120D66700418181822D2
:1000F300120D93700D74FFF61819F61819F61819E6
:10010300F622E7548066F6120DDC700F120DD270E2
:10011300F014F608F608F608F680D1120DD2700C2A
:10012300F608F608768008E6447F80EC120CD2705D
:100133000C120CE460BFE65480F6E480BB120CE4BE
:10014300700519191980A5E869700C763F18768037
:1001530018F618F6E8F922E6CDC0E018ECC0E0E6A0
:1001630033CD33CDD313F6E719FCE7191933CC3369
:10017300C3947F400ECD9D502408E65480F6E418C6
:10018300F6800FF4043D14501408E6447FF6187605
:1001930080E418F618F6D0E0FCD0E0FD22CCD313AF
:1001A300CCFD18E4C6CBC0E018E4C6CAC0E008081A
:1001B300ED08C633E613F618E433C675F003C3CA75
:1001C30097CA09CB97CB199C40047D08802EBD00AC
:1001D3000302029316B6FF050606081618C3CA33B0
:1001E300CACB33CB33CA27CA09CB37CB193CC37D20
:1001F30008803E187D0820E75CC633C6CA33CACBE5
:1002030033CB33DDF1D5F0EB30E77BCA97CA09CBAB
:10021300974ACB199C406F4B7025E620E0218066FE
:10022300187D08C3CA97CA09CB97CB199CD3C63389
:10023300C6CA33CACB33CB3350C9DDE7D5F0E1D3DC
:10024300E4C636C608C636C608C636C608C636C6A7
:100253001818188031C3CA97CA09CB97CB199CB316
:100263004097C633C6CA33CACB33CB33DD34D5F05C
:100273002EC6A2E0C640C8CA27CA09CB37194A709E
:10028300BECB3CB480B90808E63308E633601F18D8
:100293001818D0E0FAD0E0FBD0E0FCD0E0FD221843
:1002A3007D08CA27CA09CB37CB193CD3808013F604
:1002B30018E4B67F11F618B6FF0EF618C60470D20E
:1002C3000808768080CAF618F618F680C5C0E07470
:1002D300F2120647A2AFE433FED2AFE5A7FFE5A1D2
:1002E300F5085F54106006121D8975A1EFE5085FDC
:1002F30054086008121D8F75A1F7802BEFA2E0C090
:10030300D0E508A2E092F0120CAC158182F05017F0
:10031300906198E0F8900AD6E0C398A2D265D033F2
:100323005002E8F075A1FEEEA2E092AF7F01020752
:100333005BC0E074F2120647A2AFE433FED2AF9083
:1003430061A4E0F8759B00E5915854086008759125
:10035300F7121DD7802AE59158541060087591EF64
:10036300121DDD801BE8A2E0C0D0E591A2E092F06F
:10037300120CAC158182F05007E0C2E0F0121F218D
:100383009061A3E0F8E5E9585404600E121EF77576
:10039300E9FB906193E0A2E640F2808BC0E074F247
:1003A300120647A2AFE433FED2AF9061A5E0F8E5B1
:1003B300BF585404600675BFFB121F3902032AC3DA
:1003C300E498F8E499F91204038026C3E49AFAE462
:1003D3009BFBE920E7E9120403E498F8E499F92286
:1003E300C3E498F8E499F9120403E498F8E499F95A
:1003F300C3E49AFAE49BFB22EB20E7CFE920E7E092
:10040300B90010BB0008E88AF084F8AAF022E4FBE4
:10041300C8FA22EB70227B10C833C8C933C93350E2
:1004230007C39AC3DBF280069A50012ADBEAC8337A
:10043300F4C8C933F4C9FA2275F008E4C833C8C94B
:1004430033C933C99AC99B5004C92AC93BD5F0ECB7
:10045300FBC833F4C8E4C9FA2212049C20F0143018
:10046300E72B74FFFCFBFA747F8022E4FCFBFA7435
:1004730080801AB48008BC00F2BB00EF800F50EB01
:10048300F9E4C39AFAE49BFBE49CFCE499C6CC1818
:10049300C6CB18C6CA18C6F922E4C9C608CAC60814
:1004A300CBC6D3330308CCC63392F0C3947F402E1C
:1004B30094184019C9B90704CACBCC225025C309E3
:1004C300CA33CACB33CBCC33CC33D9F422F4600D4B
:1004D300C9CCC313CB13CBCA13CAD9F6CC22E4FCC1
:1004E300FBFA2214FCFBFA22080808EAC0E0EBC07E
:1004F300E086F0E7A4FA180986F0E7A42AFA1809B7
:1005030086F0E7A42AFA180986F0E7A42AFA1986DE
:10051300F0E7A4FBE5F02AFA190886F0E7A42BFB21
:10052300E5F03AFA190886F0E7A42BFBE5F03AFA6E
:1005330018180986F0E7A4C5F02BFBE43AFA19086A
:10054300E7C5F0C6A426F6E5F03BFBE43AFA1886C5
:10055300F0E7A4F6E5F00826F6E43B08F6E43A08EB
:10056300F6D0E0FBD0E0FA22E4CFC0E0E4CEC0E076
:10057300E4CDC0E0E4CCC0E075F020C3E633F60878
:10058300E633F608E633F608E633F6181818EC33C4
:10059300FCED33FDEE33FEEF33FFC3EC9709ED972C
:1005A30009EE9709EF97191919400FFFEC97FC090A
:1005B300ED97FD09EE97FE191906D5F0BEECF70984
:1005C300EDF709EEF709EFF7191919D0E0FCD0E0C0
:1005D300FDD0E0FED0E0FF222518C582C0E0E5197A
:1005E30034FFC583C0E0E518C3958224F810AF0833
:1005F3008583198582188008858319858218D2AF6F
:10060300CEF0A3E520F0A37808E608F0A3DEFAEF26
:10061300F0A3E58124FAF8E608F0A3E608F0A3E6E0
:1006230008F0A30808E608F0A3E608F0A31581156F
:1006330081D0E0FED0E0F8158115811581E8C0E096
:10064300EEC0E022C0D02518C582C0E0E51934FF12
:10065300C583C0E0E518C3958224F310AF088583F2
:10066300198582188008858319858218D2AFC8F04E
:10067300A3E9F0A3EAF0A3EBF0A37908E709F0A359
:10068300D8FAECF0A3EDF0A3EEF0A3EFF0A3D0E0E3
:10069300F0A3D0E0F0A3D0E0F0A3E520F0A3E5F0D1
:1006A300F0A322E9799EC608CAC608CBC608CCC601
:1006B300C370207996CACBCC7019798ECBCC7013CA
:1006C3007986CC700EF9802ACA33CACB33CBCC33AC
:1006D300CC331930E7F2CCCBCA3350147004EA3070
:1006E300E00DE4CA3ACACB3BCBCC3CCC500209C3A5
:1006F300E913C6CC182313C6CB18C6CA18C6F922E9
:10070300120DC7B90003020745E4900301789D79F0
:100713000E8002F0A3D8FCD9FA90109DAA82AB8375
:10072300900086786579018015E493A3AC82AD834C
:100733008A828B83F0A3AA82AB838C828D83D8E9D0
:10074300D9E775824A7583E27403120AD67582F774
:100753007583217400120AD6851983851882E0C037
:10076300E0A3E0F9A3E0FAA3E0FBA37808E0F6082E
:10077300A3DFFAE0FCA3E0FDA3E0FEA3E0FFA3E018
:10078300C0E0A3E0C0E0A3E0F5D0A3E0F520A3E040
:10079300A3F5F010AF088583198582188008858337
:1007A30019858218D2AFD082D083D0E0F8D0E0325E
:1007B3000975F0108E1A8F1B85821F85831E85187D
:1007C30082851983E0CEA3E0CF851F82851E83EB4C
:1007D300C9EAC8EDCBECCAC3E833C8E933C9EA3385
:1007E300CAEB33CBC3EA9EF51DEB9FF51CB3500454
:1007F300AB1CAA1DEC33CCED33CDD5F0DAAE1AAF7A
:100803001B22D083D082ECC0E0EDC0E0E493A3FCD4
:10081300E493A3FDED4C600D120921EC24FFFCEDE4
:1008230034FFFD80EFE493A3FCE493A3FDED4C6060
:100833000D1209BEEC24FFFCED34FFFD80EFD0E088
:10084300FDD0E0FCE493A3C0E0E493C0E02285196B
:1008530083851882E0A3FEE0A3F5207808E0A3F6E1
:1008630008DFFAE0A3FFE0A3C0E0E0A3C0E0E0A359
:10087300C0E0E0A3C0E0E0A3C0E010AF08858218A9
:100883008583198008858218858319D2AFD083D0D8
:1008930082020ADCD083D082E9C0E0E493A3C3865A
:1008A300F0C5F095F0F908E493A386F0C5F095F050
:1008B300700BE493A3C3994005E9048002A3E47594
:1008C300F002A42582F582E5F03583F583D0E0F9C3
:1008D300E493A3C0E0E493C0E022C0E074F2120604
:1008E30047A2AFE433FED2AFE589A2E15003121C65
:1008F30045758900C2C5EEA2E092AF7F0102075B96
:10090300C0E074F2120647A2AFE433FED2AFE58B28
:10091300A2E05003121C45758B00C2E880D8C0E0EA
:10092300C3E49396087401939618400FE49366709A
:100933000808740193661870007019A3A3C3E493A5
:1009430096087401939618A3A3400DD0E0D0E0D08D
:10095300E0020841A3A3A3A3A3A3D0E022740480CD
:100963000474028000CCC0E0EDC0E0E518C39CCC69
:10097300AD1950011D10AF068C188D1980068C1807
:100983008D19D2AF120A58D0E0FDD0E0FC227402D8
:100993008000CCC0E0EDC0E0E518C39CCCAD19509D
:1009A300011D10AF068C188D1980068C188D19D275
:1009B300AF120A36D0E0FDD0E0FC22C0E0C0F088E0
:1009C300F0E4936670080874019366187000A8F049
:1009D300A3A3700BD0F0D0E0D0E0D0E0020841A395
:1009E300A3D0F0D0E022D083D082CCC0E0E493A3A4
:1009F3006006120A791470FAE493A36006120BBE20
:100A03001470FAD0E0FCE493A3C0E0E493C0E022C6
:100A1300C0E074F2120647A2AFE433FED2AFC2C005
:100A2300E5D1A2E45003121CBDEEA2E092AF7F0118
:100A330002075BCAC0E0E493A3C582CCC582C58329
:100A4300CDC583F0A3C582CCC582C583CDC583DA6A
:100A5300E5D0E0CA22CAC0E0E0A3C582CCC582C506
:100A630083CDC583F0A3C582CCC582C583CDC583A1
:100A7300DAE6D0E0CA22C0E0E493A3D39C5010E4AA
:100A830093A3C39C400AD0E0D0E0D0E0020A06A3BF
:100A9300A3A3D0E022C008C3E096F50808A3E0961C
:100AA300420808A3E096420808A3E09645087001AF
:100AB300D3D008227009080808226016181818C62F
:100AC300C333C608C633C608C633C608C633C6D53D
:100AD300E0EA22C09FF59FE473D09F22D083D082A7
:100AE300C09FE493C0E0740193C0E0740293F59F48
:100AF300227404800A74038006740280027401C0A5
:100B0300E0F404120B0FD0E0120DA2222518F58297
:100B130010AF08F518400215198008F518400215A2
:100B230019D2AF85198322BB0102E722C082C08399
:100B330089828A83BB0003E08002E493D083D0825E
:100B430022C0D0251810AF08F518500205198008E7
:100B5300F51850020519D2AFD0D022601608080844
:100B6300C6C313C618C613C618C613C618C613C6FB
:100B7300D5E0EA22C0E0C0D0E8C0E0E5A8D2AFC229
:100B8300C7A2E792AFD0E0F8D0D0D0E032C3E0C63E
:100B930096F608A3E0C696F608A3E0C696F608A361
:100BA300E0C696F622251810AF08F518400215196D
:100BB3008008F51840021519D2AF22C0E0E493A3D0
:100BC3006C7009D0E0D0E0D0E0020A06A3A3D0E025
:100BD30022C3E09608A3E09608A3E09608A3E09654
:100BE300A2D265D03322E066701008A3E066700AD3
:100BF30008A3E066700408A3E06622E766701008A5
:100C030009E766700A0809E76670040809E76622BF
:100C1300C3E096F008A3E096F008A3E096F008A3DB
:100C2300E096F022E026F008A3E036F008A3E036D1
:100C3300F008A3E036F022E026F608A3E036F60833
:100C4300A3E036F608A3E036F622E056F008A3E068
:100C530056F008A3E056F008A3E056F022E647F664
:100C63000809E647F60809E647F60809E647F622C3
:100C7300E657F60809E657F60809E657F60809E6BF
:100C830057F622E627F60809E637F60809E637F6A7
:100C93000809E637F622700422600D18C6C333C66E
:100CA30008C633C6D5E0F41822C0E0E8C0E0E58109
:100CB30024FCF8E6A2E7D0E0F8D0E022E056F608FC
:100CC300A3E056F608A3E056F608A3E056F622E79B
:100CD300094709700AE709C3337005E733F42209AA
:100CE30022E6084608700AE608C3337005E633F4C3
:100CF300220822E4C396F608E496F608E496F6087A
:100D0300E496F622C3E7960809E7960809E79608EA
:100D130009E79622C6F4C608C6F4C608C6F4C60890
:100D2300C6F4C622C3E09608A3E09608A3E096089B
:100D3300A3E09622600D08C6A2E713C618C613C621
:100D4300D5E0F32275D0007581407518017519033C
:100D530000020703E6F008A3E6F008A3E6F008A301
:100D6300E6F022E6084608C3134608336002E6337A
:100D7300F422600C08C6C313C618C613C6D5E0F424
:100D830022E0F608A3E0F608A3E0F608A3E0F622C3
:100D9300E7094709C3134709336002E733F422CA5B
:100DA300C0E0E6F0A308DAFAD0E0FA22EAF0A3EB17
:100DB300F0A3ECF0A3EDF022E0FAA3E0FBA3E0FC48
:100DC300A3E0FD22E5C754F84401F5C7790122E702
:100DD300C33319471947194722E6C3331846184640
:100DE3001846222518F582E43519F58322C2AF751A
:100DF300D69F02000022120ADFC92600120ADF531F
:100E03002700120ADFF72700120ADF4B2800120A15
:100E1300DF642800120ADF8A2800120ADFC52800CF
:100E2300120ADF092900120ADF302900120ADF81C2
:100E33002900120ADF312A00120ADFE92A00120A06
:100E4300DFB12B00120ADF712C00120ADFB52C0070
:100E5300120ADFDA2C00120ADF1D2D00120ADF6AE4
:100E63002D00120ADFC22E00120ADF482F00120AD9
:100E7300DF662F00120ADF902F00120ADFAA2F006D
:100E8300120ADFB92F00120ADFC42F00120ADF840F
:100E93003000120ADFDD3000120ADF9F3100120A30
:100EA300DFA73100120ADF6B3200120ADFD73200EC
:100EB300120ADF023400120ADF273400120ADF9D10
:100EC3003400120ADF2F3500120ADFEF3500120A51
:100ED300DF0E3600120ADF1D3700120ADF2F37003C
:100EE300120ADF9F3700120ADFC93700120ADF57E1
:100EF3003800120ADF903800120ADFDC3800120AC9
:100F0300DFF83900120ADF413C00120ADF4C3C00D3
:100F1300120ADF573C00120ADF623C00120ADF6C40
:100F23003C00120ADF773C00120ADF913C00120AF0
:100F3300DF9B3C00120ADFA53C00120ADFB03C0035
:100F4300120ADFD83C00120ADF333D00120ADF3DEC
:100F53003D00120ADF613D00120ADF853D00120ADF
:100F6300DFE33D00120ADF273E00120ADF433E00A3
:100F7300120ADFBA3E00120ADFF23E00120ADF3E17
:100F83003F00120ADF9B3F00120ADF554000120A9E
:100F9300DF394200120ADF924200120ADFC2430025
:100FA300120ADFE84300120ADF714500120ADFED7F
:100FB3004800120ADFBF4A00120ADF884C00120AF7
:100FC300DF354D00120ADFA04E00120ADF3F4F004B
:100FD300120ADF844F00120ADFEE4F00120ADFFD10
:100FE3004F00120ADF845200120ADF365400120A3D
:100FF300DFA35400120ADF825500120ADF9B56005A
:10100300120ADF185800120ADF375800120ADF8C61
:101013005800120ADF915900120ADFB95900120A67
:10102300DF115A00120ADFF05A00120ADF345B00A4
:10103300120ADF7F5B00120ADFEA5B00120ADF2B72
:101043005D00120ADF8F5D00120ADFDD5E00120A07
:10105300DF3D6100120ADF6E6100120ADF266300C2
:10106300120ADF7B6300120ADF7F6400120ADF1CAF
:101073006500120ADF756500120ADF286600120A8E
:10108300DFCA6600120ADF6A6700120ADF0F680010
:10109300120ADF888001120ADFC78001120ADF0EFD
:1010A3008301120ADF588301120ADF738401120AD3
:1010B300DFDB8401120ADF108501120ADF84860157
:1010C300120ADF078901120ADF308A01120ADFC61A
:1010D3008A01120ADFCE9301120ADF639401120A16
:1010E300DF4A9701120ADF3D9801120ADFAB98012C
:1010F300120ADFF19901120ADFD39A01120ADFB84B
:101103009C01120ADFC99E01120ADF339F01120AF2
:10111300DF05A001120ADF33A001120ADFF0A001EC
:10112300120ADFC7A101120ADF8EA201120ADF32FF
:10113300A301120ADF5BA301120ADF7DA301120AD6
:10114300DFD3A501120ADFABA601120ADFEFA60166
:10115300120ADF57A701120ADF0FA801120ADF41A3
:10116300A801120ADF85A801120ADFBBA801120A2F
:10117300DF07A901120ADF5CA901120ADF61A901D5
:10118300120ADFB4A901120ADFD9A901120ADFE8A2
:10119300AA01120ADF4CAB01120ADFBCAB01120A2F
:1011A300DF48AC01120ADF15AF01120ADFF9AF0104
:1011B300120ADF7CB101120ADFB2B301120ADF6047
:1011C300B401120ADF10B501120ADF51B701120A86
:1011D300DFF4B701120ADF3BB801120ADFE7B901F6
:1011E300120ADFFBB901120ADF05BA01120ADF2D69
:1011F300BA01120ADF39BA01120ADF58BA01120A18
:10120300DF78BC01120ADFC7BD01120ADF0BBE0182
:10121300120ADFB3BE01120ADF96BF01120ADF41D1
:10122300C001120ADF8DC101120ADF8BC201120A4B
:10123300DF31C301120ADFC1C301120ADFD8C301C0
:10124300120ADF0FC401120ADF19C401120ADF24D4
:10125300C401120ADF42C401120ADF86C401120A62
:10126300DFE3C401120ADF08C501120ADF22C50148
:10127300120ADFAEC501120ADFCBC601120ADF383C
:10128300C701120ADF1FC801120ADF46C801120A8A
:10129300DFBAC801120ADF35C901120ADF39CA01F0
:1012A300120ADF2FCB01120ADFDECB01120ADFF1B4
:1012B300CC01120ADF8DCD01120ADF1ACE01120A08
:1012C300DFF8CE01120ADF30CF01120ADF88CF0127
:1012D300120ADF51D001120ADF72D001120ADFF9BC
:1012E300D001120ADF1DD101120ADF3FD101120A18
:1012F300DF88D101120ADF9ED301120ADF85D401F0
:10130300120ADF36D501120ADF6CD701120ADFBCDD
:10131300D701120ADFFCD701120ADF3ED801120AF5
:10132300DF9AD801120ADFC8D801120ADFECD8010C
:10133300120ADF3FD901120ADF6DD901120ADFA6B3
:10134300D901120ADFFBD901120ADF61DA01120A9D
:10135300DFB5DB01120ADFD8DD01120ADF45DE014A
:10136300120ADF6EDE01120ADFF9DE01120ADF6004
:10137300DF01120ADFABDF01120ADFCFDF01120A3E
:10138300DFF3DF01120ADF4EE001120ADF69E00139
:10139300120ADF22E101120ADFE1F303120ADF205E
:1013A300F403120ADF788002120ADFBE8002120AF7
:1013B300DF9E8102120ADFA08202120ADFA38302E8
:1013C300120ADF2F8502120ADF8D8502120ADF4A15
:1013D3008602120ADF688702120ADFD98702120A1D
:1013E300DF158802120ADF638802120ADF6D8802A2
:1013F300120ADFB18802120ADF0D8902120ADFA87E
:101403008902120ADF258A02120ADFF48A02120A0B
:10141300DF8D8B02120ADFAD8B02120ADFE38B0230
:10142300120ADF148C02120ADFD58C02120ADFE5DE
:101433008C02120ADF398D02120ADF548D02120A5E
:10144300DF668D02120ADF6F8D02120ADFC98D0279
:10145300120ADF258E02120ADF718E02120ADF8C56
:101463008E02120ADFBD8E02120ADFDA8E02120A20
:10147300DFE68E02120ADF5A9002120ADF7390022D
:10148300120ADFDA9002120ADFED9002120ADFFB82
:101493009002120ADFAF9102120ADF939202120A3C
:1014A300DF999302120ADF239402120ADF2D9402BA
:1014B300120ADF9A9402120ADFB19402120ADFE3DE
:1014C3009402120ADF1C9502120ADF469502120AE1
:1014D300DFA79502120ADFC79502120ADFE595021C
:1014E300120ADF2B9602120ADF519702120ADF9EBD
:1014F3009702120ADFCD9702120ADF439802120AFB
:10150300DF6B9802120ADFA49802120ADFB2980274
:10151300120ADF0A9902120ADF599902120ADF98A6
:101523009902120ADFC89902120ADFF49902120A19
:10153300DFFF9902120ADF1D9A02120ADFDF9A0205
:10154300120ADFE99A02120ADF2A9B02120ADF7FDC
:101553009B02120ADF939B02120ADFA19C02120A6A
:10156300DFB49C02120ADFC99C02120ADF6B9D02E0
:10157300120ADFEE9D02120ADFAC9E02120ADFB7E7
:101583009E02120ADFE39F02120ADFFF9F02120A82
:10159300DF51A002120ADF90A002120ADFA5A00207
:1015A300120ADF07A102120ADF96A102120ADFE183
:1015B300A102120ADF32A402120ADFB0A402120A45
:1015C300DF25A502120ADF47A702120ADF5FA7027F
:1015D300120ADF62A702120ADF6EA702120ADF8273
:1015E300A702120ADF8AA702120ADFBDA702120AA4
:1015F300DF6DA802120ADFE3A802120ADF56A9026E
:10160300120ADF0AAA02120ADFBFAA02120ADFDEE7
:10161300AA02120ADF84AB02120ADFAFAB02120A7C
:10162300DFB2AB02120ADF1CAC02120ADF44AD02C6
:10163300120ADF1CAE02120ADFA7AE02120ADFC0D3
:10164300AF02120ADF7DB002120ADFB6B002120A3D
:10165300DFE7B002120ADFA5B102120ADFD5B10239
:10166300120ADFB0B202120ADF49B302120ADFD450
:10167300B302120ADF85B402120ADF08B502120AA6
:10168300DF3AB502120ADF7BB502120ADF05F50263
:10169300120ADF6AF502120ADFA7F502120ADFF661
:1016A300F502120ADF0CF802120ADFEFF902120A3E
:1016B300DF59FD02120ADF94FD02120ADFB6FD02B2
:1016C300120ADF19FE02120ADF4DFE02120ADF7050
:1016D300FE02120ADF9DFE02120ADFF9FE02120A5F
:1016E300DF278D03120ADFA58D03120ADFDB8D03CB
:1016F300120ADF478E03120ADFBA8F03120ADFD6FC
:101703008F03120ADF1B9003120ADFA99003120A48
:10171300DF029103120ADF2F9203120ADF419303C0
:10172300120ADF9E9303120ADFAEDE02120ADF6B98
:101733009403120ADFAC9403120ADF599503120AC9
:10174300DF6B9603120ADF969603120ADFE1960314
:10175300120ADF289703120ADFBA9703120ADF750A
:101763009803120ADF2DE003120ADF5DE003120A79
:10177300DFB2E003120ADF95D103120ADF10D203AE
:10178300120ADF1BD203120ADF3CD203120ADF6CF8
:10179300A903120ADF682600120ADF26AA03120A27
:1017A300DF47AA03120ADFF7AA03120ADF00AB031B
:1017B300120ADF53AB03120ADF7CAB03120ADFE327
:1017C300AB03120ADF74AC03120ADFB6AC03120ACE
:1017D300DF00AD03120ADF5FAD03120ADF8BAD0337
:1017E300120ADF1CAE03120ADF5BAE03120ADF9A92
:1017F300AE03120ADFCFAE03120ADFE1AE03120A11
:10180300DFF3AE03120ADF12AF03120ADF1BAF03CB
:10181300120ADFD1AF03120ADF11B003120ADF4F3E
:10182300F003120ADFF4DD03120ADF2ADE03120AD1
:10183300DF73DE03120ADFC3DF03120ADF5B680014
:10184300120ADF9A6900120ADFD66900120ADF95CD
:101853006B00120ADFBE6B00120ADF516E00120A20
:10186300DF956E00120ADF1E7000120ADFB67000E9
:10187300120ADF1E7100120ADFBF7100120ADF01B4
:101883007200120ADF417200120ADFCC7300120ADF
:10189300DF3C7500120ADF617700120ADF8F7700E1
:1018A300120ADFB67700120ADFBF7700120ADF469B
:1018B3007800120ADF647B00120ADFF9F403120ACC
:1018C300DF0FF503120ADF96F303120ADF30CE03AC
:1018D300120ADF43CE03120ADFE0CE03120ADF1B34
:1018E300CF03120ADF36CF03120ADF5BCF03120ADC
:1018F300DFA0CF03120ADFD1CF03120ADF02D00326
:10190300120ADF88D103120ADFEDF103120ADF2383
:10191300F203120ADF3FF203120ADF81F203120A13
:10192300DF91F203120ADF9BF203120ADF2FB503E2
:10193300120ADFEBB503120ADFBEB603120ADFFC9D
:10194300B603120ADF07B803120ADF87B803120AC5
:10195300DFF2B803120ADF008003120ADF558003A7
:10196300120ADF3E8103120ADFD78103120ADF2145
:101973008203120ADF7E8203120ADF928203120AB3
:10198300DFC48203120ADFC28303120ADF06840361
:10199300120ADF218403120ADF708403120ADF862E
:1019A3008403120ADF938403120ADFC78403120A33
:1019B300DFE08403120ADFAA8503120ADF04860329
:1019C300120ADF528603120ADF748603120ADFEB60
:1019D3008803120ADF208903120ADFB08903120A7F
:1019E300DF258A03120ADF2A8A03120ADF668A03C3
:1019F300120ADFBC8A03120ADF808B03120ADFA5F7
:101A03008B03120ADFAF8B03120ADFB28B03120AB6
:101A1300DF3B8C03120ADF568C03120ADF698C0347
:101A2300120ADFA48C03120ADFA78C03120ADFB2A7
:101A33008C03120ADFEE8C03120ADF49F303120A46
:101A4300DF61F303120ADF28A203120ADF77A2037E
:101A5300120ADF19A403120ADFD5A503120ADF1D38
:101A6300A603120ADF05A703120ADF36A803120A28
:101A7300DF58A803120ADFB4A803120ADF38A90348
:101A8300120ADF5CE101120ADF7DE101120ADFFACB
:101A9300E101120ADF7FE201120ADFFBE201120A0F
:101AA300DF64E301120ADFB0E301120ADF2FE4016E
:101AB300120ADFC1E401120ADF4DE501120ADF8FCA
:101AC300E501120ADFD8E901120ADF58EB01120A15
:101AD300DF2EEC01120ADF5DEC01120ADF48EE0192
:101AE300120ADFC8F001120ADF81F101120ADF9E38
:101AF300F201120ADFF5F501120ADF05F601120AF7
:101B0300DF66F701120ADFF2F701120ADF1BF901A0
:101B1300120ADF0CFA01120ADF8EFA01120ADF8AB7
:101B2300E602120ADF44E702120ADFB6E702120AEC
:101B3300DF52E802120ADFC2E802120ADF7BEB027D
:101B4300120ADF52EC02120ADFBFEC02120ADF3C78
:101B5300EE02120ADF06EF02120ADF76EF02120A22
:101B6300DF3FF102120ADF52F202120ADFEBF20246
:101B7300120ADFB1F302120ADF8CC303120ADFE099
:101B8300C303120ADF38C403120ADF83C403120A31
:101B9300DFE5C403120ADF51C503120ADF04C603DB
:101BA300120ADF45C603120ADF5BC603120ADFB758
:101BB300C603120ADFF5C603120ADF55E403120A4D
:101BC300DF86E403120ADF40E503120ADFA6E5031A
:101BD300120ADFC9E203120ADF22F103120ADF331A
:101BE300F103120ADFD3F103120ADF2FE603120A0D
:101BF300DF3DE603120ADFEA7F00120ADFB3F203D6
:101C0300120ADFC3F203120ADFDEF203120ADF3F16
:101C1300F303120ADF4DEF03120ADFD2EF03120AB6
:101C2300DF36F003120ADFE7E703120ADF09E803EE
:101C3300120ADF6FE803120ADF8FE803120ADFD507
:101C4300E803120ADF30E903120ADFFBEB03120A8F
:101C5300DF10EC03120ADF84EC03120ADF9EEC03AD
:101C6300120ADFB1EC03120ADFBFEC03120ADFD959
:101C7300EC03120ADFF9EC03120ADF26C703120A88
:101C8300DF34C703120ADFAEC703120ADF92C803A9
:101C9300120ADF4BCA03120ADFD7F403120ADF3A30
:101CA300B003120ADFA6B003120ADF65B103120AFA
:101CB300DF6FB203120ADFC8B303120ADF23B403D0
:101CC300120ADF78B403120ADF81B403120ADF9326
:101CD300B403120ADFFDB403120ADF11B503120ABB
:101CE300DF1BB503120ADFB4DB03120ADFC0DB0319
:101CF300120ADFDEDB03120ADFEFDB03120ADF0D5A
:101D0300DC03120ADF16DC03120ADF39DC03120AD2
:101D1300DF6DDC03120ADF20DD03120ADF3ADD0385
:101D2300120ADF76DD03120ADF0EBA03120ADF633B
:101D3300BA03120ADF5FBC03120ADF91BC03120A63
:101D4300DFB3BC03120ADFCCBC03120ADFE5BC031A
:101D5300120ADFEFBD03120ADF8ABE03120ADF672E
:101D6300E903120ADF8BE903120ADFA4E903120A6B
:101D7300DFD7E903120ADF08EA03120ADF36EA03B0
:101D8300120ADF98EA03120ADFA7EA03120ADFB195
:101D9300EA03120ADFBEEA03120ADF61D403120A5E
:101DA300DF87D403120ADFC4D403120ADFD3D403B8
:101DB300120ADFF2D403120ADF5AD503120ADF63D1
:101DC300D503120ADFC2D503120ADFE6D503120ACE
:101DD300DFA5D603120ADFB2D603120ADFC3D60386
:101DE300120ADF6EF403120ADF8BF403120ADF0117
:101DF300BF03120ADF5FC003120ADF6CC003120ABB
:101E0300DF7FC003120ADF9EC003120ADFB4C003E0
:101E1300120ADFC8C003120ADF3DC103120ADFA2A0
:101E2300C103120ADF52C203120ADF27C303120AD5
:101E3300DF37C303120ADF46C303120ADF4CFF0274
:101E4300120ADF70FF02120ADF98FF02120ADFC0D4
:101E5300FF02120ADFF1D603120ADF18D703120AB0
:101E6300DF39D703120ADF9ED703120ADF57D903DC
:101E7300120ADF70D903120ADF7CD903120ADF903A
:101E8300D903120ADFAED903120ADFB8D903120A43
:101E9300DFC2D903120ADFD5D903120ADF28DA0316
:101EA300120ADF61DA03120ADF90DA03120ADFDEB5
:101EB300DA03120ADF2DDB03120ADF48DB03120AFF
:101EC300DF52DB03120ADF63DB03120ADFA9DB0342
:101ED300120ADF997F00120ADFEC9803120ADF1659
:101EE3009903120ADF329903120ADF459903120A92
:101EF300DF5B9903120ADFB89903120ADFEB990338
:101F0300120ADF279E03120ADF4D9F03120ADF80A6
:101F13009F03120ADFCC9F03120ADFF8A003120A01
:101F2300DF20A103120ADF35A103120ADF45A10353
:101F3300120ADF89A103120ADFEAA103120ADFFAF8
:101F4300A103120ADFC8EA03120ADFE3EA03120A53
:101F5300DF0CEB03120ADF26EB03120ADF4BEB0362
:101F6300120ADF6AEB03120ADF82EB03120ADFB005
:101F7300EB03120ADFCAEB03120ADF2AF403120A85
:101F8300DFB0CA03120ADFB7CA03120ADFC3CB03E7
:101F9300120ADFF3CB03120ADF19CC03120ADF3C68
:101FA300CC03120ADF5ECC03120ADF98CC03120AB9
:101FB300DFFECC03120ADF37CD03120ADF83CD0322
:101FC300120ADFB0CD03120ADFD0CD03120ADF41BC
:101FD300EE03120ADF59EE03120ADF47EF03120A78
:101FE300DF4AEF03120ADF2EED03120ADFA0ED032F
:101FF300120ADFDEED03120ADF1FEE03120ADFE52A
:102003007B00120ADF047C00120ADF537C00120AF1
:10201300DF6F7C00120ADFA07C00120ADFAD7C00B8
:10202300120ADFBA7C00120ADFA67D00120ADFE47F
:102033007D00120ADFF47E00120ADFFF7E00120A1F
:10204300DF117F00120ADF1A7F00120ADF247F00EC
:10205300120ADF26FB01120ADF6BFF01120ADF7986
:10206300FF01120ADFAAF403120ADFFCDD02120ADF
:10207300DF6EDD02120ADF61DD02120ADF5BDA02C4
:10208300120ADFBDD702120ADF86D602120ADFDA8E
:10209300D502120ADF20D402120ADFD0D102120ABB
:1020A300DF162600120ADF042600120ADF57D102C8
:1020B300120ADFFED002120ADF63E602120ADF45CC
:1020C300E602120ADF8ED002120ADF65D002120A7C
:1020D300DF45CE02120ADF11CE02120ADFDECD0285
:1020E300120ADFC2CD02120ADFDBCC02120ADF932F
:1020F300CC02120ADFDECA02120ADF5ECA02120A29
:10210300DF5BCA02120ADF58C902120ADF26C902BC
:10211300120ADF63C802120ADF8EC602120ADF1F29
:10212300C602120ADFFEE402120ADF5BE402120AAD
:10213300DF0EE302120ADFB9E002120ADFD7DF0281
:10214300120ADFF1C502120ADFEEC502120ADFDB53
:10215300C502120ADF86C502120ADFBBDF02120ABA
:10216300DF75C502120ADF67C402120ADF31C40237
:10217300120ADFDFC302120ADF3FDF02120ADFB8EF
:10218300A903120ADF80C302120ADF4FC302120A35
:10219300DF17C002120ADFD7BF02120ADFCBBF026A
:1021A300120ADF2BBF02120ADF6BBE02120ADFED37
:1021B300BB02120ADF7EB902120ADF3CB902120A1D
:1021C300DF10B802120ADFC5B702120ADF04B70232
:1021D300120ADFD7B602120ADF1AB602120ADFB0FA
:1021E300B502120ADFEAB502120ADFF6DE02120AAC
:1021F300DF0A940300000080FBE47300013636011C
:1022030001000102010001030100010401060605AA
:10221300020000070100340801000F090401010D49
:102223000100FF0E08000017020000190100FF1A49
:102233000100011B0100FE1C0100081D0200001F1C
:1022430001000120010001210200002301000F24ED
:102253000200002601000127010008280200FF2ACE
:102263000100072B0102402C0100002D0100012E6B
:102273000100012F0100FF30010B1C310800003A5F
:102283000100083B01000F2F01000003027102301F
:1022930001600211027002010202020202800210B6
:1022A3000261023A00410063027302720262024356
:1022B30002000213023800000200020402120200AC
:1022C3000200020002000204020402370037003C4D
:1022D30002440200023900000200026502000235D6
:1022E30002810200020502820283020002030071DE
:1022F300003001600011007000310220035004809F
:10230300001000610000001400630073007200629B
:102313000043000000130006000000000004001248
:102323000000000000000000000400040037003734
:10233300003C0244000000000000000000650000B3
:102343000035008100000005000000830000000349
:102353000471040204600411047004020402040101
:10236300040204100461040004140463047304727B
:102373000462044304000413040604000400040478
:102383000412040004000400040004510464000067
:102393000400040004440400040004000400046571
:1023A300040004350481046400050400048304006C
:1023B3000401037103010301030103010301032268
:1023C30003020301031003000300030003000300DF
:1023D3000300030003420300032403060300030076
:1023E3000304031203250323032503230304030424
:1023F300030003000300034403000300032303005B
:102403000365032100350381030003050300030073
:1024130003000301017101010101011101010131F6
:1024230001010101018001100161013B00140063FE
:102433000173017201620143010001130106013DB1
:102443000135000401120100010001000100010433
:10245300010401330133013C014401320136000020
:1024630001000165010001350081010001050182C0
:10247300018301000136000100060000000F000087
:10248300000000000000000000000003FFFF000048
:102493000403FFFF0000FFFF0FF4010005C4040362
:1024A30020000100000B00000000000000000301F9
:1024B3000F0000371B1300D71A0100371B0200A1BE
:1024C3001A0300A71A0400AD1A0500B31A0600BFC9
:1024D3001AFFFF000001DB10060B110805110B1793
:1024E3001110571002E11005F91007E7100CBD1089
:1024F3000DCF10FF000003EAF5E5D5D5C5B5A595C9
:102503009585857575656555554545353525251578
:102513001505E3141315E914EF140D150115FB1438
:1025230019151F1525153115F514DD14D7140016CB
:102533000F00000B150B020002220F32000006CD24
:1025430015DF15E515AD14EB15A714B314E713E167
:10255300131D1423141714CF13271645164B162DCA
:102563001639163316303016181920231A1C1E304C
:102573000C0E020B040B0A0708000F00383C3E3612
:102583003B3B352B432C303017181921301B1D1FB3
:1025930030000119161816161523030000034948C5
:1025A300424D18172505021B16F115F7150316FDE5
:1025B3001507152B153F1637153D150204020101AA
:1025C30001010902F313F913ED13291400000000AC
:1025D3000000FF13111400BE040A0E0015000400CE
:1025E3007F00E8030C002800000000000308100C23
:1025F3000A03080900040001FF1E1E0C05040F1046
:1026030008C082C0838A828B83E0D2E7F0121A0566
:1026130002377BC082C0837900122AD01257E7C0E9
:1026230082C08390033412456DD083D082C3E09C73
:10263300A3E09D500C125EBBFAA3E0122647600193
:102643000902377BFBEA75F00BA4FAA8F075F00BCF
:10265300EBA428FB900336E02AF8A3E03B8882F53D
:1026630083E0540F2274F71205DB8908122AD01273
:102673002B76ACF075F00BE9A42CF9900336E02827
:10268300FEA3E039FF7401650860067402650870F3
:10269300208A828B83122B62123849740265087078
:1026A3001B122A21122BA970138E828F83E4F080D0
:1026B3000BEA2403FCEB122B44122B50EEFAEFFB34
:1026C3001220A70237B374F41205DB1267E2790014
:1026D3008E828F83E06076890A890B8065E50A75AF
:1026E300F00BA4FAA8F075F00BE50B122654704614
:1026F300E50A75F00BA4F8AAF075F00BE50B122BA5
:10270300888E828F83E0850882850983122C6A85EF
:102713000882850983A3123849EE2403FCEF122BA8
:102723004D123782125261AA08AB091220A7790110
:10273300900334124C76E50A2401F50AE50B3400C4
:10274300F50B122A29E50A9AE50B9B40900239F30F
:1027530074F51205DBEAFEEBFF740B120DE612377C
:1027630087750A01EC4D602BEC1267FEED1257E7FB
:102773001238417901121795E5084509606F8508FC
:1027830082850983A31267EC7902AA08AB091217A1
:1027930095805AE5084509602B1257EB123EB51296
:1027A3003783122B93700CEEFAEFFB120DF9E9F558
:1027B3000A80CBEE2403FA122ACB70317903EEFAA6
:1027C300EFFB80CA8E828F83A3E064FE7003A3E0D5
:1027D300F4700BEE24030A0A0A122ACB700CEEFAE9
:1027E300EFFB120DF9E9F50A8003750A00A90A7FC8
:1027F3000302085174F71205DB9003341237C3EA5E
:102803004B602FEA75F00BA4FAA8F075F00BEBA45C
:1028130028FBEAFEEBFF1218319003361237C39000
:102823000336124ABB6012EEFCEFFD790012179BD0
:102833008007900336E4F0A3F00237B39003341219
:102843004225C3EE98EF9922C082C083EC4D600508
:10285300121FF980097C087D00790012179B02374B
:102863007B74F61205DB7900EA4B60187800880860
:10287300125B2EEB125EB760047901780808E8C397
:10288300940840EA02385274F71205DB74F3120B12
:10289300A8ECFEEDFF851882851983E4F004120D80
:1028A300E6EAF0A3EB124FE77403120DE6AC82AD38
:1028B30083EEFAEFFB120E0BEEFAEFFB120E110290
:1028C30037AE74F71205DB74F3120BA8ECFEEDFFC1
:1028D300851882851983E4F0EAFCEBFD7403120D7D
:1028E300E6122C637401120DE612383D8E828F833B
:1028F30012384974FE68700374FF696004790180BB
:102903000279000237AE74F71205DBEAFEEBFF1221
:10291300296770141229728E828F83E0F4F88A82F9
:102923008B83E058F01220A7A9080237B374F7127B
:1029330005DBEAFEEBFF7508008E828F83E06022E1
:10294300122967701D1229728A828B83E08F838E0E
:1029530082F8E058700CE0F88A828B83E048F0122A
:1029630020A780C41220A1E9F5087401650822128A
:1029730067F7122B7A122ABCFAA3E039FB2274F40C
:102983001205DB8A088B097C007D00122A21122B99
:1029930050122AE11267E97900850882850983A329
:1029A300E064FE7003A3E0F460717E007F00806248
:1029B300EEFAEF1226476057EEFAEFFBEA75F00BDB
:1029C300A4FAA8F075F00BEBA428FB900336E02AD9
:1029D300F50AA3E03BF50B850882850983A3124F13
:1029E30035850A82850B83A3E06A7003A3E06B70CD
:1029F3001EE50A2403FAE50B122ACC700AE50A2421
:102A030003FCE50B122B4D122AD579011257FD1247
:102A130033C0122A29EE9AEF9B40950239F3EA2438
:102A2300030A0A0AEB229003341253D4C32274F329
:102A33001205DB8A088B098A828B83A31267EC1247
:102A43002AD01267E9750C00122A21122ACC70547D
:102A53007E007F008049122AAEFAA3E0398A82F50C
:102A630083E0540F6036122AAEF50AA3E039F50B62
:102A7300E50A2403FCE50B122B573400FB121FF36A
:102A8300E964017017850A82850B83A3125495A309
:102A9300123849122AD5750C011257FD1233C01290
:102AA300283F40B2A90C7F05020851EEF8EFF9E880
:102AB30075F00BA4F8122ABC22AAF075F00BE9A456
:102AC3002AF9900336E02822EF122BA3221267FD86
:102AD300EB22122AE11257F8EEF0A3EFF022E508F9
:102AE3001267FEE5092274F51205DBEAFEEBFF8EA1
:102AF300828F83A31267EC7C007D00EE24030A0A15
:102B03000AEF122B50EEFAEFFB1220A1E9F50A743B
:102B130001650A70291267F7122B76AAF075F00B7C
:102B2300E9122B88850882F583122B62122B93708E
:102B33000DE5082403FCE509122B44122B50022750
:102B4300F03400FDEE2403FAEF22122B573400FB7E
:102B5300120E0B223400FDE5082403FAE50922A333
:102B6300122B6722122B6B22E0F8A3E0F98E828FDF
:102B730083A322122B7A223400F583124229E875AB
:102B8300F00BA4F822122AC2F508A3E039F50922B2
:102B9300E8F0A3E9F0E5082403FAE509122BA322E0
:102BA300122BA96401223400FB120E11E92274F3E3
:102BB3001205DB74E6120BA81267E2750C017508A7
:102BC30000750900750A00750B0085188285198345
:102BD300E4F0EE2403FCEF3400FD7403120DE6125F
:102BE3002C63E964017023740B120DE612384174EF
:102BF30001120DE6124F397003A3E0696051851885
:102C030082851983858208858309740D120DE6E494
:102C1300122C6A740E120DE6123849740D120DE669
:102C2300AA82AB83120E2FE96401700B740D120D8F
:102C3300E685820A85830B780A120AFCAC08AD0983
:102C4300EEFAEFFB120DFF7402120B44E9F50CEEE2
:102C5300FAEFFB120E29A90C741A120B44022AA9CB
:102C6300122F36120E35221237BE12422522C0828F
:102C7300C083780079008003122D61122A29E89A13
:102C8300E99B5029E8FAE9FBEA75F00BA4FAACF0EA
:102C930075F00BEBA42CFB900336E02AFCA3E03B7E
:102CA3008C82F583E0540F70CF79008002790102A2
:102CB300377BC082C0839025DF12427BEC75F01214
:102CC300A4FCA8F075F012EDA428FD79FF7A457BEA
:102CD3000B12179B02377B74F71205DBE9FEEAFF41
:102CE3007A007B00780079008028E8FCE9FDEC7528
:102CF300F012A4FC85F00875F012EDA4250812313A
:102D030076C39E400AE0FCEFC39C40031232951247
:102D13002D6112316A40D30237B3C082C083780079
:102D230079008003122D61122D55501F12317AF450
:102D330070F2E875F012A4F8AAF075F012E9A42A6B
:102D4300F9744528FA740B39FB80047A007B00027E
:102D5300377B9025DF12322BC3E89AE99B22E824C4
:102D63000108E93400F92274F01205DB74F3120B45
:102D7300A88A0A8B0B8C0C8D0D8908EC450D601607
:102D8300AA0CAB0D120E838A0E8B0FAE0EAF0FEE95
:102D93004F6003022E28120E598A0E8B0FA80EA91C
:102DA3000FE8FEE9FFE849607C9025ED122E8A606A
:102DB300227403650860067404650870167A047942
:102DC30003120E539025ED122EA140077A007B00CB
:102DD300022E879025EB122E8A601B740165086012
:102DE3000674026508700F7A027901120E5390255A
:102DF300EB122EA150D68518828519837401F01227
:102E03000DE6125261AC0CAD0D7403120DE6122FD8
:102E13002F740B120DE612378F123C29E41252491C
:102E23001213278004EE4F604A780074FF2508C30D
:102E33009404500278048E828F831252618E828FA3
:102E430083A3A3A3A3E508F0E88E828F83A3A3A3A0
:102E5300A3A31252691203FB1232428E828F83A301
:102E6300A3A3A3A3A3A3F0123239120DBB1257E1FC
:102E7300120DAF122E8F40059010A1E4F012120133
:102E8300EEFAEFFB02422F12538349227A047900B0
:102E9300120E539025DF125E9DEA98EB9922122EB3
:102EA300BA7583257582DFE493C398F8A3E49399F5
:102EB300F9C3EA98EB9922E493F8740193F9227425
:102EC300F21205DB74F3120BA88A088B09ECFEEDF2
:102ED300FF750A00EEFAEFFB120E838A0C8B0DA826
:102EE3000CA90DE849603E88828983E06508700477
:102EF300A3E06509602F88828983A3A3A3A3E0C30A
:102F03009405502112568F8518828519837401F018
:102F1300120DE6125693EEFCEFFD7403120DE6124A
:102F23002F2F750A01A90A740D024D2D122F361287
:102F33000E4122AA82AB83120E0B85188285198358
:102F4300AA82AB832274F61205DB122F84600FA3CF
:102F5300A3A3A3E014C3940450047901800279006D
:102F630002385274F61205DB122F84600FA3A3A359
:102F7300A3E014C39402500479018002790002385B
:102F830052120E7D8A828B83E58245832274F61268
:102F930005DB122F84600BA3A3A3A3E070047901C4
:102FA30080027900023852C082C083EAFCEBFD7ACA
:102FB300007B00023778C082C0837C007D0002372B
:102FC3007874F41205DB74F3120BA8EAFEEBFF8CA2
:102FD3000A8D0BC3EC94F8ED94FF4007EE4F70039A
:102FE30002307D750800750900802E8518828519C9
:102FF300837401F01233E8120DE61233F660137492
:1030030003120DE6AC82AD83EEFAEFFB121FF3E978
:103013007049E50824011232169025DFE412538B20
:10302300E50898E509995052E50875F012A4F8AA45
:10303300F075F012E509A42AF9125ED060D4EE4FC0
:1030430070A974FF650A700474FF650B60C41233C2
:10305300D8650A7004A3E0650B70B7E50875F01234
:10306300A4F508A8F075F012E509A428F50974453C
:103073002508FA740B3509FB80047A007B000239BA
:10308300EE74F41205DB74F3120BA8750800120E2C
:10309300838A0A8B0BAE0AAF0BEE4F602A85188228
:1030A30085198374011237B8F8A3E0F9740B120D74
:1030B300E61238CC120E237C127D0079FFEEFAEF74
:1030C300FB12179B750801122E8F50099010A174E3
:1030D30001F0121201A9080239EE74F71205DBE9B7
:1030E300FE74FE6A700374FF6B78007900700580CC
:1030F30052122D6112316A504AE8FCE9FDEC75F079
:1031030012A4FCAFF075F012EDA42F123176F46027
:10311300E0E8FCE9FDEC75F012A4FC75F012EDA4F7
:103123002FFD74452CF582740B3DF583E06A700323
:10313300A3E06B70BC800912317A14C39404401766
:10314300122D61122D555018EE70EC12317A640174
:103153006005E0640370E91233C9FAA3E0FB80045D
:103163007AFE7BFF0237B39025DF12427FC3E89CD0
:10317300E99D221232CA22E8FAE9FBEA75F012A4A9
:10318300FAACF075F012EBA42CFB74492AF58274A7
:103193000B3BF583E022120E9502377BC082C0837E
:1031A300790180F274F01205DB8A0A8B0B7A0479B9
:1031B30001120E538A0C8B0DEA450D603EEAC333B0
:1031C300FAEB33FB1218318A088B09AE08AF09EE0C
:1031D3004F60237AFE7BFF120E9B74FE6A700374AA
:1031E300FF6B601B8508828509831237C3E50824BA
:1031F3000212321680E1750C0080047E007F008588
:103203000A82850B83E50CF0EEFAEFFB024234E50C
:10321300082407F508E5093400F509229025DF1293
:10322300427FC3EA9CEB9D22E493FA740193FB2251
:1032330012178F7403221257F2E4F090806C22E885
:103243008E828F83A3A3A3A3A3A3A3A31232647425
:1032530001123264A3F0EE24101257F5E4F0A3F048
:1032630022123C35A3A3A322C082C0837A007B0031
:1032730080041912329512321F50101232B4C394C3
:103283000550F0E970EC12329E80047A007B000254
:10329300377BEA24010AEB3400FB22EA75F012A41F
:1032A300FA75F012EBA428FB74452AFA740B3BFB66
:1032B30022EAFCEBFDEC75F012A4FCA8F075F01209
:1032C300EDA4281232CA22FD74492CF582740B3DF9
:1032D300F583E02274F71205DB74F3120BA87E006A
:1032E3007F0002337CE50875F017A4F8A9F012619A
:1032F30031FAA3E0FBEEF8EFF9E875F012A4F8ACAD
:10330300F075F012E9A42C1233D76A7003A3E06BB3
:10331300603FE50875F017A4F8AAF0EA126130F8E7
:10332300A3E0F97401120DE6E0687003A3E069609D
:1033330020E50875F017A4F8EAF974C128FC740CA9
:1033430039FD7403120DE6AA82AB83121FF3E96001
:1033530014E50875F017A4F8A9F074BF28FA740CE3
:1033630039FB12133305089025F1E493F8E508C3FC
:103373009850030232E81233C09025DF126477506D
:1033830039EEF8EFF91233C9F47003A3E0F460E601
:103393008518828519837401F0EEF8EFF9E875F06A
:1033A30012A4F875F012E9A42AF91233E8120DE613
:1033B3001233F660C175080080AD0237AEEE24010A
:1033C3000EEF3400FF22E875F012A4F8AAF075F0AE
:1033D30012E9A42AF91233DC22744528F582740B0E
:1033E30039F583E022744728F582740B391242239E
:1033F300740B22E8F0A3E91238D4120E3BE922C081
:1034030082C08390033D74F3F0A37410F090033FE4
:1034130074EDF0A37410F0900343740DF0A3740FD4
:10342300F002377B74F71205DBEAFEEBFF900377BC
:10343300E06408601BE0640460168E828F83E054AE
:103443000364017048123782123D2AE06406703D1E
:103453008E828F83A3A3E064FE7003A3E0F4602D48
:103463008E828F83A3A312383D900368E0687003B4
:10347300A3E069700BEE2415F582EF125EB76008C6
:103483001211A1E9F50880081211A780F67508C288
:10349300EEFAEFFB12183702292B74F41205DB8ABC
:1034A300088B098A828B83E0F8A3E0FAE82AFAE41E
:1034B3003400FB1218318A0A8B0BAE0AAF0BEE4FA6
:1034C3006063850882850983E0FC7D00790012171B
:1034D3009B8E828F83A3A31267EC1211E38E828FDC
:1034E30083A3A3A3A31237C3850882850983E0F8C6
:1034F300EE28F8EF3400123845850882850983A346
:10350300E0C0E0EE240D1257E4D0E0F01211F5EE26
:10351300240E1257E4E9124E96E0C0E0EE24111295
:1035230057E4D0E0F0EEFAEFFB0239F374F612053C
:10353300DB74EB120BA8EAFEEBFF124AB86003023E
:1035430035D37A077B001218319003391237C3122F
:103553004AB860788E828F83120DBB90033A123D76
:103563002D120DAF1266B0C0E01235DFD0E0F0EEE1
:103573002405FAEF3400FB8A088B098A82F583E07D
:10358300C0E01235DAD0E01239EAE0C0E01235DAF1
:10359300A3D0E012382F120DBB8518828519831230
:1035A3000DAF88828983E0C0E07405120DE6D0E098
:1035B300F0850882850983E0C0E07404120DE6D02B
:1035C300E0F07407120DE6123715800679108002B9
:1035D3007901741502384F1235DFA322900339E0C5
:1035E300FAA3E0F5838A82A3A3A3A322C082C083A4
:1035F300124AB8600D9003391253C2900339E4F0B4
:10360300A3F01211111212D302377B74F01205DBEF
:1036130074EB120BA8ECFEEDFF89087425120DE67E
:10362300780C120D847429120DE6E0F9742A120D38
:10363300E6E0FC742B120DE6E0FD740F697005746F
:103643000F6C60129010E7E06402700579C10237D5
:1036530010E9C39C40F6900378780C120D57E508E7
:1036630090037EF0E990037CF0ECA3F0ED90037FF0
:10367300F074FF6A700374FF6B701D9010F2E0F436
:103683007003A3E0F470051217A7800C9010F212D8
:103693003798E8F0A3E98007900375EAF0A3EBF00D
:1036A300EE4F6017EEFAEFFB121393E96401700B10
:1036B300EEFCEFFD7A897B03121FF9900368E4F0B7
:1036C300A3F090036BF0A3F0900388F09010E7E071
:1036D3006402700890037C740FF0A3F09003777476
:1036E30005F014120DE6E4F0900378120DBB851873
:1036F30082851983120DAF90037EE0C0E07405123A
:103703000DE6D0E0F07407120DE6123715741502BA
:103713004231E41238D412202322C082C0839003A2
:1037230038E07003121AD1120EDD804CC082C083C0
:10373300900338E09010A07004E4F0802D7401F041
:10374300900338E0F460237C41E0C394415002E0ED
:10375300FCECF8E0C398F0EC75F0E8A4CCA8F075A5
:10376300F003A428FD7A801242877AA07B10794166
:103773001220118003120E89D083D082020ADCEE5C
:103783001257F322E0F508A3E0F50922123793223A
:10379300122B6BA3221242259003752274F7120594
:1037A300DBEB90037FF01210FF8005740D120B44C6
:1037B3007F010208511237BEA3E02212382FA32241
:1037C300EAF0A3EBF02274F71205DB74F8120BA8EE
:1037D300EAFEEBFF7900900377E0640870448518F4
:1037E3008285198374FDF0A374FFF01211DD740256
:1037F300120DE61237C37405120DE6E41237BEE06C
:10380300C0E07404120DE6D0E012382AC0E074065A
:10381300120DE6D0E0F07407120DE6E41238D01270
:10382300121F74080237B012382FE022F08E828FF5
:103833008322F08518828519832212422522E0F81B
:10384300A3E0F91257F2E8F0A3E9F022120B447F48
:1038530002020851C082C083900349749DF0A3748F
:103863000FF09003EF7479F0A37412F090034D748A
:10387300D3F0A3740FF090034F749DF0A3740FF073
:1038830090035174D9F0A3740FF002377B74F412D0
:1038930005DB74F9120BA88A088B098C0A8D0B853A
:1038A30018828519837808120D577404120DE6E9FE
:1038B300F07405120DE6E4F07406120DE6E4123816
:1038C300D0120EC574070239F0E8F0A3E91238D418
:1038D30022123835AA82AB832274F41205DB8A08DC
:1038E3008B098A828B83125800EE4F70030239E8EA
:1038F300900312124ABB60158A828B83A3A3E0F95B
:10390300EEFAEFFB900313123D2D1221FC8E828FF2
:1039130083A3A3A3A3A3A3A3A3A3E0640270748EAE
:10392300828F83A3A3A3A3A3A3E05402700302394A
:10393300BA850882850983A3A3E064E960798E824E
:103943008F83A3A3A3A3A3A3A3A3A3A3E070149010
:1039530010EAE0048E828F83A3A3A3A3A3A3A3A34C
:10396300A3A3F08E828F83A3A3A3A3A3A3A3A3A341
:10397300A3E0141239EAA3A3A37404F09010EB128A
:10398300523BE8F0A3E91263148B0BEA450B700377
:10399300125CF28E828F83A3A3A3A3A3A3A3A3A3E7
:1039A300E0640260128E828F83A3A3A3A3A3A3A3C5
:1039B300A3A3E06406702E8E828F83A3A3A3A3A385
:1039C300A3E0A2E0501F850882850983A3A3E0F941
:1039D300EEFAEFFB1220DD8E828F83A3A3A3A3A3B2
:1039E300A3E054FEF08009123C3122740D120B4403
:1039F3007F0402085174EC1205DB74DD120BA8EA94
:103A0300FEEBFF8C088D097437120DE6780C120D4E
:103A130084750A007405120DE6AC82AD831221375A
:103A23007412120DE6E070087415120DE6E06020C2
:103A33007405120DE6E0A2E6501E8E828F83A3A3C7
:103A4300A3A3A3A3A3A3A3124F35121255E960089E
:103A53007903121FE1023C177405120DE6E0540CC2
:103A630064047005750B018003750B00E0A2E5503B
:103A730035750A01E50BA2E0402C1211E38A108B85
:103A830011A810A911123782E0687003A3E06960DE
:103A9300157405120DE61267F3124F311220E9E98E
:103AA3006004790480AC7405120DE6E0A2E65022AE
:103AB3007406120DE6E0540370187405120DE6E067
:103AC300540C640C600CE0540C6408600575100120
:103AD30080037510007405120DE6E05403F87402B8
:103AE30068700C1267F3124F31122125023C1774D0
:103AF3000168703AE510A2E05003123C1F740512EE
:103B03000DE6A882A9837403120DE6E8F0A3E91277
:103B13004219851882851983123C29E0C0E074029A
:103B2300120DE6D0E01238D01221CD023C17E86026
:103B330003023C1790035FE0640170108E828F8351
:103B4300A3A3A3A3A3A3E07003023AA57422120DB7
:103B5300E67402124219741A120DE6123849E5107E
:103B6300A2E050087405120DE6123C1FE50BA2E01B
:103B7300506AEE240FF582EF125EB7C0E07417129D
:103B83000DE6D0E0F0900314124ABB7003023C1719
:103B93001211E38A128B13A812A913741A120DE6D9
:103BA300E0687003A3E069706B780C120AF4780A7A
:103BB300120B007808120AFCA910740C120DE6AC63
:103BC30082AD837421120DE6AA82AB839003141293
:103BD3003D2A1221FC7407120B448038780C120A18
:103BE300F4780A120B007808120AFC900375120984
:103BF30064EE2412F582EF125BE57423120DE6AC3A
:103C030082AD83740E120DE6AA82AB831220D174A7
:103C130009120B447423120B440262DF1267F3127E
:103C230053D012213122E8F0A3E9123C3122123C95
:103C33003522F08E828F83A3A3A3A3A3A32274F7B9
:103C43001205DB1219BD0237B374F71205DB121923
:103C5300C30237B374F71205DB1219CF0237B3C0AF
:103C630082C0831219C902377B74F71205DB12195C
:103C7300D50237B374F71205DB7409120DE6E0F5CC
:103C8300087808120B001219E174010237B0C082E0
:103C9300C0831219ED02377BC082C0831219F3026D
:103CA300377B74F71205DB1219F90237B374F71275
:103CB30005DBEAFEEBFF89087401650870147900DF
:103CC3001210159025FCE493FC7900EEFAEFFB1239
:103CD3000F8B0237B374F41205DB74F9120BA8E9E6
:103CE300FE8A088B098C0A8D0B7413120DE6124F92
:103CF300359005B2124ABB6027EE85188285198379
:103D0300F07401120DE67808120D57EAF8EBF97416
:103D130005120DE61238CC9005B2123D2A1221FC91
:103D23000238C7FB90034BE0F8A3E0F583888222B7
:103D3300C082C083121A2902377B74F71205DB9005
:103D430010A3E0F97E00800B125EA3540D64017092
:103D530001190E123F375003E970ED0237B374F7C0
:103D63001205DB9010A4E0F97E00800B125EA354D1
:103D73008D64817001190E123F375003E970ED0213
:103D830037B374F21205DB890BE975F006A4240C32
:103D9300F508E5F012321A8A0CE508250CFAE50954
:103DA3003400FB1218318A0C8B0DAE0CAF0DEE4FA5
:103DB3006027AC08AD09790012179B123782E50B17
:103DC300F0EE2508F8EF3509F98E828F83A3A3A3BC
:103DD300A3A3A3A3A3A3123849EEFAEFFB024D302A
:103DE30074F61205DBEAFEEBFF120F679010A2E0F8
:103DF300F8E9C3984009900345124F35120F6DEE51
:103E03002402F8EF1255459003471253FF900347DE
:103E1300E004F0EEFAEFFB120F7385088285098345
:103E2300E00259FBC082C0837900900345800109F9
:103E3300124F358A828B83E582458370F202377B8A
:103E430074F71205DBEAFEEBFFEE4F605690034575
:103E5300124ABB604E888289837A007B00EE6582BA
:103E63007003EF6583600FAA82AB83123EA9E582DC
:103E73004583602F80E7900345123EB5687002EFDB
:103E8300698E828F83700812383D90034580031238
:103E930062F1123849EEFAEFFB12219DEEFAEFFBC5
:103EA3001218370237B3123EAD2212422988828993
:103EB3008322124225EE22C082C0839003458004F0
:103EC30088828983124ABB600B8882898312456D7D
:103ED300EC4D70EC8A828B83E4F0A3F0E849600632
:103EE3008882898380039003451237C302377B742A
:103EF300F71205DB90034580048A828B83123F32DD
:103F03004B60257E0080010E123F3750ECEE75F0BA
:103F130006A4FCADF0EA2CFCEB3DFDEC2410F5828D
:103F2300ED123F8770E180047A007B000237B31201
:103F330053D4EA22123F90EEC3982274F71205DBA2
:103F43007D0080010D123F8CEDC3985034ED75F068
:103F530006A4FEA8F0E8FFEA2EFEEB3FFFEE2410D6
:103F6300F582EF123F8770DCED75F006A4FEE8FFE3
:103F7300EA2EFAEB3FFBEA2411F582EB125EB74C13
:103F8300F00237B3125EC36922123F90221267FD1B
:103F9300EB3400F583E0F82274F61205DB12108D82
:103FA3007A007B008025EAF8EBF9E875F006A4F8BF
:103FB300ACF075F006E9A42C1253A91266BEA3E473
:103FC30012549FF0A31266C412683B9025E7122E89
:103FD3009940D37A007B00801C8A088B097403788C
:103FE30008120C99124E5DA374FEF0A30412527FC3
:103FF300A3E412683B9025F012403A40DC7A007B40
:1040030000801D8A088B0974037808120C9974E7E1
:10401300125B2F740F12637674FEF0A30412683BD5
:104023009025F612403A40DB9025FAE4939003532F
:10403300F0124044023852E493F8C3EA98EB940038
:10404300227CE87D037A107B009003C2E0F912180A
:10405300EB2274F01205DB74F5120BA88A088B09A6
:10406300890A8C0BE9A2E050147508FC7509FFA2BC
:10407300E15005D2E4024117D2E3024117124D1C6D
:104083007003A3E069700579000241E4AC0A790288
:10409300AA08AB09121069E960EDE50AF50C780C82
:1040A300120B0079027CFE7DFFAA08AB09124A9726
:1040B300120B44E960030241E2E50AC2E5F50A9006
:1040C30003B5E07051E50AA2E6404B7403120DE616
:1040D300AC82AD83AA08AB09120E17E97032124302
:1040E300B88A0C8B0DA80CA90DE8FEE9FFE849601E
:1040F30025EE24020A0AEF122BA9601AEE2402FC11
:10410300EF3400FD7403120DE6AA82AB83121FF98C
:10411300E50AD2E5F50A900348E0F50C900368E060
:10412300F50EA3E0F50F780E120AFC7D017C0090DA
:104133000348E0F9AA0EAB0F1210217402120B44CC
:10414300E9F8900348E004F0E860030241E2E50A7D
:10415300A2E55004740E80027406C0E07401120DCF
:10416300E6D0E01258118A0E8B0FAE0EAF0FEE4F52
:104173006069124202124219888289837401F074C1
:1041830078550AA3126803E50C126803A3E508F047
:10419300E5091241F1E4F0E50AA2E5500F740312B8
:1041A3000DE6AC82AD83E824061241E88E828F834C
:1041B300A3A374FDF0A374FFF0E50B60159025FD38
:1041C300E493F8E50BC3985009EE24131257E4E582
:1041D3000BF0EEFAEFFB120EB9800679108002792C
:1041E300C7740B8049FAE93400FB121FF922888255
:1041F3008983A3A3A3A31241FD22125578A322EE20
:1042030024171257F57401F01211DDEE241A125718
:10421300F5EAF0A3EB22F01267F7340012422322EF
:10422300F58312422922E0F8A3E0F922740D120B60
:10423300447F0802085174F61205DB7A007B1012E2
:104243005CFF60089003D47401F08029900653E06A
:1042530064019010E87006E0FC79018004E0FC79C9
:10426300037A007B00120F8B9025E512427B7A00C4
:104273007B1012428902385212427F22E493FC746B
:104283000193FD227B009003C2E0F91218E522742A
:10429300EC1205DB8A088B098C0C8D0D890E7414C6
:1042A300120DE6124C767416120DE6E0F510A3E03B
:1042B300F511121255E960077AFF7BFF0243B590AF
:1042C30010E7E0640260030243A87900AA08AB097F
:1042D30012106FA90E1210638A128B13AE12AF1352
:1042E300EE4F70030243908E828F83A3A3A3A3A3F5
:1042F300E064018E828F83A3A37069124F358E828F
:104303008F83A3A3A3A3A3A3E0541860439025FB27
:10431300E4938E828F83A3A3A3A3F0EA650C7003B7
:10432300EB650D6014EA650A7003EB650B600AEA3E
:1043330065107003EB6511701F7810120AFCAC0A4C
:10434300AD0BAA0CAB0D1213517402120B4480086F
:10435300900367125CE9A3F074FE6A700374FF6B49
:10436300601D804EA3A3A3E0640360298E828F8324
:10437300A3A3A3A3A3E0640470057AFE0242BD8E47
:10438300828F83A3A3A3A3A3E0640270089003B462
:10439300E0640270101243B88B0BEA450B6006AA67
:1043A30008AB09800DAA08AB09900349123D2A12F4
:1043B30021FC0262DF900375124A9D1213152274C9
:1043C300F71205DBEAFEEBFF120E6BE9700AEEFA59
:1043D300EFFB120E77E96006EEFAEFFB80047AFE3C
:1043E3007BFF0237B374F01205DB8A0A8B0B8C0E4A
:1043F3008D0F8909750800121255E97900600302CF
:10440300455FAA0AAB0B12106FA9091210638A0C3D
:104413008B0DAE0CAF0DEE4F60198E828F83A3A36D
:10442300A3A3A3E0640270559003B4E06402700395
:1044330002455DAA0AAB0B90034F123D2A1221FCE1
:10444300120E7D8A0C8B0DA80CA90DE8497003028E
:10445300455D88828983A3A3A3A3A3E0A2E04003CD
:1044630002455D750C01A2E150687901AC0AAD0B00
:10447300AA0EAB0F120FBBE9706402455D8E828FEB
:1044830083A3A3A3A3A3E064037005750C02805266
:104493008E828F83A3A3A3A3A3E0640160030245D9
:1044A3005D90037512456D8E828F831248C28A0C0C
:1044B3008B0DA80CA90DE84960D19025F4E493FA7B
:1044C30088828983E0C39A50C2A3E0600302455DFA
:1044D30080B988828983A3A3A3A3A3D2E1F0EE4F7B
:1044E300603A8E828F83A3A3A3A3A3A3E05418608F
:1044F3002B7508018E828F83A3A3120964750CFEAA
:10450300750DFF780C120AFC7900AC0AAD0BAA0EEC
:10451300AB0F1210817404120B44803E900368E0C9
:10452300650E7004A3E0650F70149025FCE493FC02
:10453300A909AA0AAB0B120F8B750801801CA90CE1
:10454300AC0AAD0BAA0EAB0F120FBBE9700C7508CA
:1045530001A909AA0AAB0B121015A908024234E5F6
:104563000C2415F582E50D1257F81252552274EA00
:104573001205DB74F0120BA88A0C8B0D8C088D09C5
:104583007426120DE6E0F514A3E0F51575120690F6
:1045930003F5124ABB602390037512456DAA08AB5D
:1045A3000912133F8A108B11EA4511600D8A828B21
:1045B30083A3E0700579000248AAE50C241DF50EDB
:1045C300E50D3400F50F850E82124AA7F513888294
:1045D3008983A3A3A3E0FA88828983A3A3A3A3E087
:1045E300F9EA2400FEE439FFAA08AB0912101B857F
:1045F3000E82850F831248E5E029F50BE50AA2E553
:10460300500375120E7487550A70177418550A648F
:1046130018600FE50C2417F582E50D125EB76512DD
:1046230060077901121FE1808C530A78C3EE94F876
:10463300EF94FF501D7900EEFAEFFB1248B46012BD
:1046430088828983A3A3A3A3A3A3E05418600302CE
:1046530045B87808120AFC7D001248D8120B44E9C9
:10466300F874036870030245B8E8600302472374D3
:1046730018550A70030247D8E50AD2E0F50AA2E406
:104683005004D2E1F50AA90A124F2E1248B460531E
:1046930088828983A3A3A3A3A3A3E05418604488B7
:1046A300828983A3A3A3A3A3E064017036E5104525
:1046B30011603090037512456D888289831248C258
:1046C3008A0E8B0FA80EA90FE84960178882898389
:1046D300A3E0600F851082851183A3125A0650034D
:1046E3000245B8E50AF50E780E120B001248CB12FC
:1046F3000B44E9702B7C007D00851482851583743F
:10470300FFF0A3F0850C82850D83A3A3A3A3A3A32A
:10471300A3A3E06003124562A90B124F2E1219E7FF
:10472300851482851583E0F47003A3E0F460399067
:1047330003B4E0640270030245B8124C67E0FAA3C5
:10474300E0123D261221FCEA65087003EB6509605F
:10475300030245B8EEFAEF123D261221FC851482BE
:10476300851583EAF0A3EBF07808120AFC7D0112A9
:1047730048D8120B44A90AEEFAEFFB12106F8A080D
:104783008B09A808A909900368E0687003A3E0698E
:10479300600302489BEEFAEFFB120E7D8A088B0939
:1047A300A808A909E849606E88828983A3A3A3A303
:1047B300E06401600D88828983A3A3A3A3E064025C
:1047C3007054851882851983AC82AD83EEFAEFFBB2
:1047D300120E178055900361E0600FE50AF50E781D
:1047E3000E120B001248CB120B44E50AF50E780E9D
:1047F300120B0079027CFE7DFFEEFAEFFB124A9763
:10480300120B44E9600302472385148285158374E0
:10481300FFF0A302476A1211DDEAFCEBFD85188263
:10482300851983AA82AB83121FF9850C82850D83B8
:10483300A3A3A3A3A3A3A3A3E06401700F124562E0
:104843007408120DE6AA82AB83121FF9124A711281
:10485300567D4430F5087808120B007401120DE6FA
:104863008582088583097808120AFC740B120DE609
:104873008582088583097808120AFCE513F5087810
:1048830008120B007900EEFCEFFD124F2E120FB54C
:104893007406120B440245B8124A711257E71248C4
:1048A300E5E50BF01211F57410120B447F0E0208AC
:1048B300511210638A0E8B0FA80EA90FE84922A389
:1048C300A31253D412133F227901AC08AD0912533A
:1048D300C9124A9722AC0BA9131253C9121021749F
:1048E3000222125685A3A3A3A32274F01205DB743C
:1048F300F0120BA88A0C8B0DECFAEDFB750F0890E8
:1049030003F5124ABB60141259FF8A828B83E58236
:1049130045836007A3E07003024A6C124A713400B6
:10492300124AA7F50B88828983124A7AE0FBEC24AA
:1049330000FEE43BFF88828983A3A3124A7AA3A3E0
:10494300E0FBECF508E43BF50988828983A3A3A384
:10495300A3A3A3A3E0F50EE50AA2E45003750F1089
:10496300A2E550067408250FF50F748F550A700FD2
:10497300E50C2417F582E50D125EB7650F60087923
:1049830001121FE1024A6C530A707800E50AA2E49F
:104993005022124A71125EB72408FCA3E03400FDD2
:1049A3007408120DE6AA82AB83121FF97808E50A90
:1049B300C2E4F50AE50AA2E55028124A71125EB76D
:1049C30028F8A3E03400F9E82408FCE93400FD8565
:1049D3001882851983AA82AB83121FF9E50AC2E5FF
:1049E300F50AAC0EA90BEEFAEFFB121027E9F874E7
:1049F30003686075900368E06E7003A3E06F605E08
:104A0300E87054E50AF50F780F120B00124A88126A
:104A13000B44E97054780A120B007401120DE685F9
:104A2300820C85830D780C120AFC740B120DE6853B
:104A3300820C85830D780C120AFCE50BF50A780AC3
:104A4300120B00A90EAC08AD09EEFAEFFB120FB57D
:104A53007406120B448012740468700D80B7780AD0
:104A6300120B00124A88120B447410024231E50CF7
:104A7300241DF582E50D22A3A3A3E0FC888289838C
:104A8300A3A3A3A3227901124C6E1257F8124A9DD5
:104A9300124A9722120FDF740122E0FCA3E0FDAA61
:104AA30008AB0922F583123EADA3E0F50A8882899B
:104AB30083A3A3E0229003391254302274E8120531
:104AC300DB74F5120BA8EAFEEBFF8C088D09891441
:104AD3007423120DE6E0F50F7424120DE6E0F512CF
:104AE300A3E0F5137426120DE6E0F516A3E0F5171F
:104AF3007428120DE6E0F50EA90F12102D8A108B03
:104B0300117401120DE67408F0E50EA2E45003746B
:104B130010F0E50EA2E55004E02408F08518828524
:104B23001983AA82AB8312123D8A0C8B0DEA450DC1
:104B33007003024C4EEA2417F582EB124C601211FB
:104B4300DDE50C241AF582E50D1257E71237C3741D
:104B530003120DE6AC82AD83AA10AB11120E17E956
:104B6300601D124C587403120DE6A882A983E50C4C
:104B73002418F582E50D1257E7E8F0A3E98024E550
:104B83000EA2E4501FE5106E7003E5116F7015124D
:104B93004C58E50C2418F582E50D1257E7E512F0A1
:104BA300A3E513F0124C67124C76850A82F58374E1
:104BB30002F0A3E50E124C7EE50FF0EE850A828526
:104BC3000B83A3A3A3F0EF850A82850B83A3A3A37F
:104BD300A3124C7EA3A3A3E508F0E509850A828509
:104BE3000B83A3A3A3A3A3A3F0AA10AB1112101BBF
:104BF300E92514850A82850B83A3A3A3A3A3A3A3F7
:104C0300F0750800E50EA2E45011AC12AD13E50AED
:104C13002408FAE50B1241EA750808E50EA2E550EF
:104C230014AC16AD17E50A2508F8E50B3400F9E8CE
:104C330024081241E8850C82850D83A3A3E510F0B7
:104C4300A3E511F0AA0CAB0D120EB9740B120B44B1
:104C53007F10020851E50C2416F582E50D1257F872
:104C63007401F022124C6E1257F822E50C1267FE03
:104C7300E50D22E0F50AA3E0F50B22F0850A828513
:104C83000B83A3A32274F21205DB8A088B09ECFEC3
:104C9300EDFF890A7900124D1C7003A3E0697004CB
:104CA30079018073750B01900368E065087004A3B4
:104CB300E06509601F750B00780B120B00A90AEE63
:104CC300FCEFFDAA08AB091212917401120B44E91F
:104CD300F50B80417900EEFAEFFB121063EA4B60AB
:104CE3002B8A828B83A3A3A3A3A3A3E05418601CE2
:104CF3007508FE7509FF7808120AFC8A828B83A364
:104D0300A3120964126613120B4480097901EEFAA7
:104D1300EFFB120F3DA90B801412106F8A0C8B0D41
:104D2300A80CA90D900368E06822120B447F0602C9
:104D3300085174F41205DB75082F75090E7A1012E9
:104D4300631B8B0BEA450B7003124044900353E043
:104D530014F0700C9025FAE493900353F012107B37
:104D63007E007F00806C850882850983A3A3A3A3AB
:104D7300E06059F46056E5082404F582E509125C05
:104D8300E37049850882850983A3A3A3A3A3E064F1
:104D9300037019790285088285098312456D850898
:104DA30082850983A3A3124F35120FBB8508828521
:104DB3000983A3A3A3A3A3E06401601085088285EC
:104DC300098374FEF0A304124E8FE4F01233C01271
:104DD30032129025E9126477408C7E007F0080397F
:104DE3001211838E088F0974037808120C9974A723
:104DF3002508FC740F3509FD7AC77B0F121171EA80
:104E03004B70DD8E088F0974037808120C99124ECB
:104E13005D1266BEE4F01233C09025F0E493F8C34C
:104E2300EE98EF9400501B8E088F097403780812D4
:104E33000C99124E65E82407F582E9125CE370D6FB
:104E430080A17E007F00800A124E70600214F0126F
:104E530033C012647440F10239F3124E65888289BB
:104E6300832274A72508F8740F3509F922EEF8EFA9
:104E7300F9E875F006A4F8AAF075F006E9A42AF992
:104E8300744728F582740F39F583E022124E96A3F6
:104E9300A3A322F0850882850983A3A32274F712B2
:104EA30005DB74E1120BA8ECFEEDFF750800EE4F75
:104EB30060728A828B83E0241C125D14124ABB60E9
:104EC300638A828B83124F35851882851983AC825E
:104ED300AD83EA241BF582EB125BE5EA241CF58221
:104EE300EB124F311211C5740B120DE6124F3970CC
:104EF30003A3E069702E7402120DE6E064017024CE
:104F0300741D120DE6123D2AE064017017741D1220
:104F13000DE6123D2CA3A3E0F88E828F83E0687028
:104F230003750801A908741F0237B0124C6E3400D0
:104F3300F5831253D422122B67E0682274F412050E
:104F4300DBE97024790090034D123D2A1221FC8A7B
:104F53000A8B0BAE0AAF0B74FE6E700374FF6F7097
:104F63001A9025F7E4936013790190034D123D2ABB
:104F73001221FC8A0A8B0BAE0AAF0B121201023507
:104F83002874F61205DB74F3120BA81217A78A080C
:104F93008B09AE08AF09900368E06E7003A3E06F5E
:104FA30060E91211E9EA6E7002EB6F60DEEEFAEF70
:104FB300FB121255E970D4EE4F60D0851882851923
:104FC30083E4F004120DE6EEF0A3EF124FE7E9706D
:104FD300BA74FE6E700374FF6F60B0EEFAEFFB7489
:104FE3000D02384F1238D4120E2F22C082C0831202
:104FF300120102377B7F0A02085174F21205DBEAC1
:10500300FEEBFF8C0A8D0B8908740E120DE6E0F59A
:105013000974FC6E700374FF6F70057900024D30E4
:10502300790012106F8A0C8B0DAE0CAF0D900368D4
:10503300E06E7003A3E06F7006E509A2E650DCA9F9
:1050430009126501706179007AFE7BFF12650170B8
:10505300567418550970030251347800790080039F
:10506300122D619025E9122D584003025134E8FABC
:10507300E9FBEA75F007A4FAACF075F007EBA42C92
:10508300FB74352AF582740E3BF583E0541870D017
:10509300E875F007A4F8AAF075F007E9A42AF974F3
:1050A3002F28F8740E39F988828983A3A3A3A3A3B5
:1050B300A3E05418600974185509700302501E8840
:1050C300828983EEF0A3EFF074FE650A700474FF27
:1050D300650B600312525B88828983A3A3A3A3A3F6
:1050E300A3E509F0A2E0500D88828983A3A3A3A3BB
:1050F300A3A3D2E2F07401650888828983A3A3A3E2
:10510300A3A37038740112527FE0541860289025CD
:10511300FBE49388828983A3A3A3A31252491213A6
:105123003F8B0DEA450D600302501E780079008025
:10513300397902025020900367E080D7E064017060
:105143000302501E88828983A3A3A3A3A3A3E054CD
:105153001860079025FBE4938004900366E01241F6
:10516300F1E508F002501E122D619025F1E493FA47
:10517300C3E89AE99400400302501E7A007B008042
:105183004BEAFCEBFDEC75F007A4FCAEF075F00701
:10519300EDA42EFD74312CF582740E3DF583125867
:1051A30000E8FCE9FDEC75F017A4FC85F00975F047
:1051B30017EDA42509FD74BF2CF582740C3DF5830E
:1051C300E06E7003A3E06F609E1232959025E912A2
:1051D300322240AD12427BEC6A7002ED6B7088E8BC
:1051E30075F017A4F8AAF075F017E9A42AF974BFAB
:1051F30028FE740C39FF7C177D007900EEFAEFFB73
:1052030012179B8E828F8312526190037512523B49
:10521300A3A3A3A3A3A3E8F0A3E91252417401F04B
:10522300EE240E1257E474011252691203FBEE24AA
:105233000D1257E4E8025166123793A3A322F0EE4E
:10524300240F1257F522F0125252AA0AAB0B2290E6
:105253000375E0FCA3E0FD2288828983A3A3E50A0A
:10526300F0A3E50BF022F012526E229025F4E493A2
:105273002401F8E43400F97A027B00221241FDA3F1
:105283002274ED1205DB8A088B09890E1253B24092
:10529300057905025380121A2FAA08AB0912548408
:1052A3009025E7125383650A7003E9650B70077A4B
:1052B300FE7BFF1254849025E7E412538BE50A9892
:1052C300E50B99400302537E12538F6012E50A7572
:1052D300F006A4F875F006E50B1253DA121837E559
:1052E3000E6018E50A75F006A4F8AAF075F006E555
:1052F3000B125406701A7901025380E50A75F00601
:10530300A4F8AAF075F006E50B1253E7E4F0A3F056
:10531300E50A75F006A4F8AAF075F006E50B12533A
:10532300A7A312569388828983A3AA82AB831253BD
:10533300F58A828B83E0603F12538F603A8E108F21
:10534300117512007810120AF8E50EC333FCE4332A
:10535300FDE50A75F006A4F50AA8F075F006E50B5D
:10536300A428F50B744B250AF582740F350B124FE5
:1053730033123233120B4479008002790702651726
:10538300122EBAE8229025DF125E9E22E50A75F0FE
:1053930006A4F8AAF075F006E50B1253E2F8A3E0B1
:1053A300F9E84922A42A12553B88828983A322EC77
:1053B300FEEDFF9025F2E493F8E9C39822F58312FA
:1053C30053D412183722E50C1267FEE50D3400F5AD
:1053D30083E0FAA3E0FB221253E2FAA3E0FB2212DA
:1053E30053E7E022A42AF9744B28F582740F39F5A8
:1053F3008322E50EF09010E91253FF22E0888289A0
:1054030083F02212555FF50CE93400F50DE50EC368
:1054130033FAE433FB121831850C82850D83EAF0ED
:10542300A3EBF0850C82850D83125430221242299E
:10543300E8492274F41205DBECFEEDFF740C120D47
:10544300E612383D88088909125484AC0AAD0BEC86
:10545300F8EDF99025E712548C5021E875F006A475
:10546300F8AAF075F006E91253A7E08E828F831233
:10547300549F1254951238497900800279040239F5
:10548300F3120FF18A0A8B0B2212322BC3EC9AED23
:105493009B22124225850882850983221255742294
:1054A30074F61205DB7E007F008028EEF8EFF9E842
:1054B30075F006A4F8ACF075F006E9A42CF974496C
:1054C30028F582740F1261226A7003A3E06B6057A0
:1054D3001233C012647440D312646F7002E96F70A8
:1054E3004674FE6A700374FF6B703C7E007F00801D
:1054F300031233C0126474502E124E7070F3EEF820
:10550300EFF9E875F006A4F81255311255666017E5
:1055130012554DF8E912554588821253C085088209
:10552300850983E4F0A3F0EEFAEFFB02385275F03D
:1055330006E912553922A42AF9744728F8740F3959
:10554300F9223400F98808890922EEF8EFF9E875A1
:10555300F006A4F875F006E912555F22125539E8F2
:10556300240422A3A374FE12557112543022F0A313
:105573000412557822F088828983A3A3A3A32274FB
:10558300F61205DBEA241DF582EB12567DF9604B1A
:10559300EA241DF582EB125EB72402FCA3E034007B
:1055A300FD1253B64003025670780080298C828D19
:1055B30083E0F508A3E0FFE5082400E43FF509E8EC
:1055C30033FEE433FF748F2EF582740F3FF583129D
:1055D300569312567308E8C39940D28A828B83A3E9
:1055E300A3A3A3A3A3A3A3A312456D900368E06C95
:1055F3007003A3E06D700F7C8F7D0F122AD0124FC2
:1056030031120FE58067EA2411F582EB125EB76071
:105613005CFC74FF2CF07508017808120B00750808
:105623008F75090F7808120AFCE9F5087808120B40
:1056330000EA2412F582EB125EB7F5087808120B24
:1056430000EA2415F582EB1257E7120964ECF9120C
:105653002AD012456A8A828B83A3A3A3A3A3A3A3FD
:10566300A3A3124F35120FFD7407120B44023852D5
:10567300EC24020C0CED3400FD221257F81256856F
:10568300E022E0F8A3E0F5838882A322888289835D
:10569300E508F0A3E509F02274EA1205DB74FD12B4
:1056A3000BA88A148B158C0E8D0F890D7419120D8E
:1056B300E6125800741B120DE6E0F511741C120D6E
:1056C300E6E0F50C741D120DE6124C76741F120DF4
:1056D300E6E0F5106008E50CC3332404800274028D
:1056E300C0E07401120DE6D0E01258118A088B094C
:1056F300EA450970030257DC8A828B83A3A3E5146E
:10570300F0A3E51512630AE50EF0A3E50FF0EA2412
:1057130013F582EB1257E7E50DF0EA2414F582EB5B
:105723001257E7E511F0EA2417F582EB125EB7642E
:105733000170401211E38A0E8B0FA80EA90F850882
:1057430082850983A3A3A3A3E0687003A3E0696030
:1057530022EE4F6011E508241AF582E5091257E796
:10576300EEF0A3EF800CE5082417F582E509125744
:10577300E7E4F01257EB1258008E828F837405F022
:10578300A3E5107004E50C80487401250C12580A37
:105793007A008028850A82850B83E0125806850AE1
:1057A30082850B83A3E08E828F83F0E50A2402F5C2
:1057B3000AE50B3400F50BA30EAF830AEAC3950C7D
:1057C30040D21211E3EA1258061211E3EB8E828FD4
:1057D30083F0AA08AB09120EB974030248ACEE2495
:1057E3000CF582EF1257F822122AE11257F822EE33
:1057F300240BF582EF3400F58322900334E0FEA3FB
:10580300E0FF228E828F83F0A3AE82AF8322123811
:10581300D412123D22C082C083E9C333FCE433FDBA
:10582300EA2CFAEB3DFBEA24FEF582EB34FF124F40
:105833003302377B74F21205DB89098A0A1253B2E9
:1058430040047900804075080080020508E508C31C
:105853009509502AE508C333F8E433F9EE28F582B5
:10586300EF39F583C082C0831211E38A0C8B0DD00C
:1058730083D082E0650C7004A3E0650D70CDE50A6A
:10588300650870BE7901024D3074F01205DB74F3C4
:10589300120BA88A088B098C0A8D0B890C750D00D5
:1058A300121255E97900600302598EAA08AB091256
:1058B300106FA90C1210638A0E8B0FAE0EAF0FEE92
:1058C3004F700302598C8E828F83A3A3A3A3A3A338
:1058D300E0A2E2400302598C1211E3EA650A700365
:1058E300EB650B7011780D120B00E4F50EF50F78D4
:1058F3000E120AFC8044AA0AAB0B120E71E9640172
:1059030070688518828519837404F07401120DE69A
:10591300125261851882851983AA82AB83120E2FD6
:10592300E964017045750D01780D120B00E4F50E65
:10593300F50F780E120AFC750D00780D120B007826
:105943000D120B007408120DE685820E85830F7805
:105953000E120AFC9025FDE493F9AC0AAD0BAA08DC
:10596300AB09120FFD7407120B448E828F83A3A31E
:10597300A3A3A3A3E0A2E1400D8E828F83A3A3A3DD
:10598300A3A3A3C2E2F0750D01A90D02422F74F681
:105993001205DBE9FE790012106FEEF91210638A2B
:1059A300088B09A808A909E8496006126845F98027
:1059B30002790402385274F61205DB7E0790035C09
:1059C300E070341259FF8A088B09A808A909E8492D
:1059D3006025900361E0640188828983A3A3700B2F
:1059E300125A06888289835001A3A3E0F912135D3A
:1059F300E9FEEE70027E07EEF9023852125252129D
:105A0300133F22E0FA88828983A3E0C39A2274EECB
:105A13001205DBEAFEEBFF890A8C0C8D0B74121264
:105A23000DE6123787125ADB1253B95051890E759E
:105A33000F007403780E120C9974AD250EF5827461
:105A43000F350FF583E0F8E50CC398502DE50B6097
:105A53002475110074037810120C9974A72510F89B
:105A6300740F3511F988828983A3A3A3A3A3A3E5A4
:105A73000C125AE5F07900024FF8790380F97900A6
:105A83007AFE7BFF125ADBE493651070047902807F
:105A9300E6E50B60E0890E750F007403780E120CB7
:105AA3009974A7250EF8740F350FF988828983A39B
:105AB300EEF0A3EF125AE512527FE50C1241F9748E
:105AC300FF1266C4E50AF0900366E088828983A327
:105AD300A3A3A3A3A3A3809C12105DE9F5109025B3
:105AE300F022126807A3E508F0A3E5092274F61271
:105AF30005DBECFF12105D9025F01253B950278996
:105B03000875090074037808120C9974AC125B2FA2
:105B1300740F126376E0F8EFC3985006EFF0790044
:105B23008006790380027904023852EA2508F58257
