:020000040000FA
:06000000020A4B0201B4EC
:03002B0002088642
:0300330002062B97
:0300430002073B76
:030053000200E5C3
:03006B0002060585
:100083000201490101FF01010503010F10FEFFD524
:1000930012D512D512D51291118B11D5129A2000B7
:1000A3000000003820000000000C0000000C0001DC
:1000B300FFFF010102006805000000DB0564000288
:1000C3000200080000050207051E02051E020A0AB7
:1000D30003B80B02803E0102341214965118000239
:1000E3000206C0E074F21203CDA2AFE433FED2AF36
:1000F300E5A7FFE5A1F5085F54106006121A3775EE
:10010300A1EFE5085F54086008121A3D75A1F78056
:100113002BEFA2E0C0D0E508A2E092F01209881507
:100123008182F05017906198E0F8900AB9E0C39883
:10013300A2D265D0335002E8F075A1FEEEA2E092A0
:10014300AF7F0102042CC0E074F21203CDA2AFE42E
:1001530033FED2AF9061A4E0F8759B00E59158544B
:100163000860087591F7121A85802AE59158541092
:1001730060087591EF121A8B801BE8A2E0C0D0E5EE
:1001830091A2E092F0120988158182F05007E0C233
:10019300E0F0121BDB9061A3E0F8E5E9585404603A
:1001A3000E121BB175E9FB906193E0A2E640F28069
:1001B3008BC0E074F21203CDA2AFE433FED2AF9052
:1001C30061A5E0F8E5BF585404600675BFFB121B38
:1001D300F302013FC3E498F8E499F9120218802668
:1001E300C3E49AFAE49BFBE920E7E9120218E498D6
:1001F300F8E499F922C3E498F8E499F9120218E4AF
:1002030098F8E499F9C3E49AFAE49BFB22EB20E71C
:10021300CFE920E7E0B90010BB0008E88AF084F8D2
:10022300AAF022E4FBC8FA22EB70227B10C833C881
:10023300C933C9335007C39AC3DBF280069A50010E
:100243002ADBEAC833F4C8C933F4C9FA2275F008C3
:10025300E4C833C8C933C933C99AC99B5004C92AEE
:10026300C93BD5F0ECFBC833F4C8E4C9FA2208084B
:1002730008EAC0E0EBC0E086F0E7A4FA180986F0CC
:10028300E7A42AFA180986F0E7A42AFA180986F0DF
:10029300E7A42AFA1986F0E7A4FBE5F02AFA19087D
:1002A30086F0E7A42BFBE5F03AFA190886F0E7A4F9
:1002B3002BFBE5F03AFA18180986F0E7A4C5F02BF2
:1002C300FBE43AFA1908E7C5F0C6A426F6E5F03BC5
:1002D300FBE43AFA1886F0E7A4F6E5F00826F6E41C
:1002E3003B08F6E43A08F6D0E0FBD0E0FA22E4CF8C
:1002F300C0E0E4CEC0E0E4CDC0E0E4CCC0E075F003
:1003030020C3E633F608E633F608E633F608E633A9
:10031300F6181818EC33FCED33FDEE33FEEF33FF24
:10032300C3EC9709ED9709EE9709EF97191919404F
:100333000FFFEC97FC09ED97FD09EE97FE191906DF
:10034300D5F0BEECF709EDF709EEF709EFF7191948
:1003530019D0E0FCD0E0FDD0E0FED0E0FF2225186C
:10036300C582C0E0E51934FFC583C0E0E518C39535
:100373008224F810AF088583198582188008858345
:1003830019858218D2AFCEF0A3E520F0A37808E652
:1003930008F0A3DEFAEFF0A3E58124FAF8E608F00B
:1003A300A3E608F0A3E608F0A30808E608F0A3E62E
:1003B30008F0A315811581D0E0FED0E0F815811572
:1003C300811581E8C0E0EEC0E022C0D02518C582C7
:1003D300C0E0E51934FFC583C0E0E518C395822466
:1003E300F310AF08858319858218800885831985E2
:1003F3008218D2AFC8F0A3E9F0A3EAF0A3EBF0A30D
:100403007908E709F0A3D8FAECF0A3EDF0A3EEF036
:10041300A3EFF0A3D0E0F0A3D0E0F0A3D0E0F0A3EB
:10042300E520F0A3E5F0F0A322851983851882E087
:10043300C0E0A3E0F9A3E0FAA3E0FBA37808E0F6A9
:1004430008A3DFFAE0FCA3E0FDA3E0FEA3E0FFA323
:10045300E0C0E0A3E0C0E0A3E0F5D0A3E0F520A373
:10046300E0A3F5F010AF088583198582188008850D
:100473008319858218D2AFD082D083D0E0F8D0E040
:1004830032120AADB900030204C6E4900301788175
:10049300790E8002F0A3D8FCD9FA901081AA82AB1E
:1004A30083900086786079018015E493A3AC82ADD4
:1004B300838A828B83F0A3AA82AB838C828D83D8B9
:1004C300E9D9E77582BF7583DC74031207FE758271
:1004D3007B75831E74001207FE75F0108E1A8F1B36
:1004E30085821F85831E851882851983E0CEA3E04C
:1004F300CF851F82851E83EBC9EAC8EDCBECCAC347
:10050300E833C8E933C9EA33CAEB33CBC3EA9EF510
:100513001DEB9FF51CB35004AB1CAA1DEC33CCEDB3
:1005230033CDD5F0DAAE1AAF1B22D083D082ECC024
:10053300E0EDC0E0E493A3FCE493A3FDED4C600D78
:10054300120649EC24FFFCED34FFFD80EFE493A396
:10055300FCE493A3FDED4C600D1206E6EC24FFFCD6
:10056300ED34FFFD80EFD0E0FDD0E0FCE493A3C0C9
:10057300E0E493C0E022851983851882E0A3FEE0BE
:10058300A3F5207808E0A3F608DFFAE0A3FFE0A3D1
:10059300C0E0E0A3C0E0E0A3C0E0E0A3C0E0E0A3CC
:1005A300C0E010AF088582188583198008858218FA
:1005B300858319D2AFD083D082020804D083D0823E
:1005C300E9C0E0E493A3C386F0C5F095F0F908E42D
:1005D30093A386F0C5F095F0700BE493A3C3994001
:1005E30005E9048002A3E475F002A42582F582E5FF
:1005F300F03583F583D0E0F9E493A3C0E0E493C03E
:10060300E022C0E074F21203CDA2AFE433FED2AF16
:10061300E589A2E15003121935758900C2C5EEA21E
:10062300E092AF7F0102042CC0E074F21203CDA26A
:10063300AFE433FED2AFE58BA2E050031219357558
:100643008B00C2E880D8C0E0C3E49396087401939A
:100653009618400FE4936670080874019366187047
:10066300007019A3A3C3E49396087401939618A387
:10067300A3400DD0E0D0E0D0E0020569A3A3A3A37B
:10068300A3A3D0E0227404800474028000CCC0E0F1
:10069300EDC0E0E518C39CCCAD1950011D10AF06A9
:1006A3008C188D1980068C188D19D2AF120780D043
:1006B300E0FDD0E0FC2274028000CCC0E0EDC0E09D
:1006C300E518C39CCCAD1950011D10AF068C188DD5
:1006D3001980068C188D19D2AF12075ED0E0FDD0B9
:1006E300E0FC22C0E0C0F088F0E493667008087470
:1006F300019366187000A8F0A3A3700BD0F0D0E0AC
:10070300D0E0D0E0020569A3A3D0F0D0E022D083EB
:10071300D082CCC0E0E493A360061207C01470FA41
:10072300E493A360061208D01470FAD0E0FCE493BB
:10073300A3C0E0E493C0E022C0E074F21203CDA2B0
:10074300AFE433FED2AFC2C0E5D1A2E45003121925
:10075300ADEEA2E092AF7F0102042CCAC0E0E493A5
:10076300A3C582CCC582C583CDC583F0A3C582CC86
:10077300C582C583CDC583DAE5D0E0CA22CAC0E00D
:10078300E0A3C582CCC582C583CDC583F0A3C58252
:10079300CCC582C583CDC583DAE6D0E0CA22700911
:1007A300080808226016181818C6C333C608C633CB
:1007B300C608C633C608C633C6D5E0EA22C0E0E49D
:1007C30093A3D39C5010E493A3C39C400AD0E0D0DE
:1007D300E0D0E002072EA3A3A3D0E022C008C3E029
:1007E30096F50808A3E096420808A3E09642080895
:1007F300A3E09645087001D3D00822C09FF59FE47B
:1008030073D09F22D083D082C09FE493C0E0740151
:1008130093C0E0740293F59F227404800A740380EA
:1008230006740280027401C0E0F404120837D0E0B9
:10083300120A88222518F58210AF08F51840021510
:10084300198008F51840021519D2AF85198322BB08
:100853000102E722C082C08389828A83BB0003E04E
:100863008002E493D083D08222C0D0251810AF0831
:10087300F518500205198008F51850020519D2AF72
:10088300D0D022C0E0C0D0E8C0E0E5A8D2AFC2C754
:10089300A2E792AFD0E0F8D0D0D0E03260160808DB
:1008A30008C6C313C618C613C618C613C618C6137C
:1008B300C6D5E0EA22C3E0C696F608A3E0C696F6DC
:1008C30008A3E0C696F608A3E0C696F622C0E0E4C5
:1008D30093A36C7009D0E0D0E0D0E002072EA3A36D
:1008E300D0E022251810AF08F5184002151980082A
:1008F300F51840021519D2AF22C3E09608A3E0967B
:1009030008A3E09608A3E096A2D265D03322E0665E
:10091300701008A3E066700A08A3E066700408A3D9
:10092300E06622E76670100809E766700A0809E7BF
:100933006670040809E76622C3E096F008A3E09610
:10094300F008A3E096F008A3E096F022E026F00872
:10095300A3E036F008A3E036F008A3E036F022E681
:1009630027F60809E637F60809E637F60809E637F1
:10097300F622E026F608A3E036F608A3E036F608EA
:10098300A3E036F622C0E0E8C0E0E58124FCF8E607
:10099300A2E7D0E0F8D0E022700422600D18C6C3AD
:1009A30033C608C633C6D5E0F41822E657F608095D
:1009B300E657F60809E657F60809E657F622E05621
:1009C300F608A3E056F608A3E056F608A3E056F6A9
:1009D30022E056F008A3E056F008A3E056F008A37F
:1009E300E056F022E647F60809E647F60809E64727
:1009F300F60809E647F622E4C396F608E496F608F5
:100A0300E496F608E496F622C3E7960809E7960803
:100A130009E7960809E79622C6F4C608C6F4C6088D
:100A2300C6F4C608C6F4C622600D08C6A2E713C6FC
:100A330018C613C6D5E0F322C3E09608A3E09608D0
:100A4300A3E09608A3E0962275D00075814075183F
:100A53000175190300020484E0F608A3E0F608A375
:100A6300E0F608A3E0F622600C08C6C313C618C656
:100A730013C6D5E0F422E6F008A3E6F008A3E6F0F7
:100A830008A3E6F022CAC0E0E6F0A308DAFAD0E051
:100A9300FA22E0FAA3E0FBA3E0FCA3E0FD22EAF0E4
:100AA300A3EBF0A3ECF0A3EDF022E5C754F8440167
:100AB300F5C77901222518F582E43519F58322C299
:100AC300AF75D69F02000022120807B9E002120890
:100AD300070EE3021208075BE402120807FEE402B2
:100AE30012080745E60212080763E6021208077EAA
:100AF3002200120807902200120807E222001208BF
:100B030007432300120807CD2300120807712400AE
:100B1300120807C52400120807DE24001208070480
:100B230025001208073F2500120807832500120835
:100B330007AA2500120807FB2500120807AB2600A9
:100B43001208076327001208072B2800120807EB77
:100B530028001208072F2900120807542900120839
:100B630007972900120807E429001208073C2B0005
:100B7300120807C22B00120807E02B001208070A0D
:100B83002C00120807242C00120807332C0012082B
:100B9300073E2C00120807FE2C00120807572D00F1
:100BA300120807192E00120807212E00120807E564
:100BB3002E00120807512F001208077C300012087C
:100BC30007A13000120807173100120807A93100E6
:100BD30012080769320012080788320012080797C3
:100BE3003300120807A9330012080719340012084A
:100BF30007433400120807D134001208070A3500EE
:100C0300120807563500120807723600120807BB90
:100C13003800120807C63800120807D13800120836
:100C230007DC3800120807E63800120807F138001D
:100C33001208070B39001208071539001208071F9D
:100C430039001208072A390012080752390012081E
:100C530007AD3900120807B73900120807DB39005E
:100C6300120807FF39001208075D3A00120807A1AE
:100C73003A00120807BD3A00120807343B00120875
:100C8300076C3B00120807B83B00120807153C002D
:100C9300120807CF3C00120807B33E001208070CE6
:100CA3003F001208073C4000120807624000120888
:100CB30007EB410012080767450012080739470090
:100CC300120807024900120807AF49001208071A61
:100CD3004B00120807B94B00120807FE4B0012081D
:100CE30007684C00120807774C00120807FE4E00F5
:100CF300120807B050001208071D5100120807FC24
:100D030051001208071553001208079254001208E5
:100D130007B154001208070655001208070B5600C6
:100D23001208073356001208078B56001208076A89
:100D33005700120807AE5700120807F957001208A8
:100D430007645800120807A55900120807095A003A
:100D5300120807575B00120807B75D00120807E87F
:100D63005D00120807A05F00120807F55F00120874
:100D730007F96000120807966100120807EF610087
:100D8300120807A26200120807446300120807E46E
:100D930063001208078964001208078F8001120894
:100DA30007CE80011208071583011208075F83012C
:100DB3001208077A8401120807E284011208071750
:100DC30085011208078B86011208070E8901120894
:100DD30007378A01120807CD8A01120807D5930144
:100DE3001208076A94011208075197011208074471
:100DF3009801120807B29801120807F8990112081E
:100E030007DA9A01120807BF9C01120807D09E0156
:100E13001208073A9F011208070CA0011208073AAB
:100E2300A001120807F7A001120807CEA1011208BA
:100E33000795A20112080739A30112080762A3014B
:100E430012080784A301120807DAA501120807B2E2
:100E5300A601120807F6A6011208075EA7011208E9
:100E63000716A80112080748A8011208078CA80151
:100E7300120807C2A8011208070EA9011208076386
:100E8300A90112080768A901120807BBA9011208E2
:100E930007E0A901120807EFAA0112080753AB01E3
:100EA300120807C3AB011208074FAC011208071C55
:100EB300AF0112080700B00112080783B10112083D
:100EC30007B9B30112080767B40112080717B50180
:100ED30012080758B701120807FBB70112080742A7
:100EE300B801120807EEB90112080702BA01120885
:100EF300070CBA0112080734BA0112080740BA01F5
:100F03001208075FBA011208077FBC01120807CE57
:100F1300BD0112080712BE01120807BABE0112086A
:100F2300079DBF0112080748C00112080794C101B9
:100F330012080792C20112080738C301120807C832
:100F4300C301120807DFC30112080716C401120800
:100F53000720C4011208072BC40112080749C40162
:100F63001208078DC401120807EAC4011208070F0B
:100F7300C50112080729C501120807B5C5011208E2
:100F830007D2C6011208073FC70112080726C80186
:100F93001208074DC801120807C1C8011208073C0F
:100FA300C90112080740CA0112080736CB0112080B
:100FB30007E5CB01120807F8CC0112080794CD010D
:100FC30012080721CE01120807FFCE0112080737C6
:100FD300CF011208078FCF0112080758D00112085A
:100FE3000779D00112080700D10112080724D101A3
:100FF30012080746D1011208078FD101120807A56D
:10100300D3011208078CD4011208073DD501120839
:101013000773D701120807C3D70112080703D801C2
:1010230012080745D801120807A1D801120807CFF3
:10103300D801120807F3D80112080746D90112088C
:101043000774D901120807ADD90112080702DA01A2
:1010530012080768DA01120807BCDB01120807DF70
:10106300DD011208074CDE0112080775DE011208C4
:101073000700DF0112080767DF01120807B2DF016B
:10108300120807D6DF01120807FADF011208075515
:10109300E00112080770E00112080729E1011208B4
:1010A3000767EB03120807A6EB0312080778800211
:1010B300120807BE80021208079E8102120807A0C9
:1010C3008202120807A383021208072F850212085F
:1010D300078D85021208074A8602120807688702ED
:1010E300120807D987021208071588021208076336
:1010F30088021208076D8802120807B188021208D5
:10110300070D8902120807A88902120807258A0217
:10111300120807F48A021208078D8B02120807AD22
:101123008B02120807E38B02120807148C021208C1
:1011330007D58C02120807E58C02120807398D02C5
:10114300120807548D02120807668D021208076FF2
:101153008D02120807C98D02120807258E02120894
:1011630007718E021208078C8E02120807BD8E02C9
:10117300120807DA8E02120807E68E021208075ACF
:101183009002120807739002120807DA90021208FD
:1011930007ED9002120807FB9002120807AF9102B5
:1011A3001208079392021208079993021208072361
:1011B30094021208072D94021208079A9402120847
:1011C30007B19402120807E394021208071C950260
:1011D300120807469502120807A79502120807C7C7
:1011E3009502120807E595021208072B96021208CA
:1011F300075197021208079E9702120807CD97021C
:101203001208074398021208076B9802120807A4F2
:101213009802120807B298021208070A99021208E4
:1012230007599902120807989902120807C89902E8
:10123300120807F49902120807FF99021208071D02
:101243009A02120807DF9A02120807E99A021208A3
:10125300072A9B021208077F9B02120807939B022F
:10126300120807A19C02120807B49C02120807C9BE
:101273009C021208076B9D02120807EE9D021208DA
:1012830007AC9E02120807B79E02120807E39F02EB
:10129300120807FF9F0212080751A00212080790C5
:1012A300A002120807A5A00212080707A10212084C
:1012B3000796A102120807E1A10212080732A4024D
:1012C300120807B0A40212080725A502120807474F
:1012D300A7021208075FA70212080762A7021208F3
:1012E300076EA70212080782A7021208078AA7023D
:1012F300120807BDA7021208076DA802120807E328
:10130300A80212080756A9021208070AAA0212081D
:1013130007BFAA02120807DEAA0212080784AB025B
:10132300120807AFAB02120807B2AB021208071C80
:10133300AC0212080744AD021208071CAE021208E1
:1013430007A7AE02120807C0AF021208077DB0025A
:10135300120807B6B002120807E7B002120807A581
:10136300B102120807D5B102120807B0B20212087F
:101373000749B302120807D4B30212080785B4025F
:1013830012080708B5021208073AB5021208077BCC
:10139300B502120807EDF40112080752F50112080D
:1013A300078FF501120807DEF501120807F4F701AC
:1013B300120807D7F90112080741FD011208077C3B
:1013C300FD011208079EFD0112080701FE01120824
:1013D3000735FE0112080758FE0112080785FE01B2
:1013E300120807E1FE01120807278D03120807BD43
:1013F300D702120807DB8D03120807478E03120872
:1014030007BA8F03120807D68F031208071B90032E
:10141300120807A990031208070291031208072F65
:1014230092031208074193031208079E93031208BD
:10143300070A94031208076B9403120807AC94037A
:101443001208075995031208076B9603120807D76A
:10145300DF02120807E19603120807289703120810
:1014630007BA970312080775980312080750D003A9
:10147300120807CBD003120807D6D003120807F7C8
:10148300D00312080730A0031208077CA003120838
:1014930007EAA0031208070BA103120807BBA10365
:1014A300120807C4A10312080717A2031208074072
:1014B300A203120807A7A20312080738A3031208FE
:1014C300077AA303120807C4A30312080723A4037C
:1014D3001208074FA403120807E0A4031208071F0A
:1014E300A5031208075EA50312080793A5031208B4
:1014F30007A5A503120807B7A503120807D6A50376
:10150300120807DFA50312080795A603120807D5DB
:10151300A6031208072DFF011208078DDA0312082C
:1015230007C3DA031208070CDB031208075CDC03AA
:1015330012080763E101120807A2E201120807DE9D
:10154300E2011208079DE401120807C6E40112082C
:101553000759E7011208079DE70112080726E90169
:10156300120807BEE90112080726EA01120807C795
:10157300EA0112080709EB0112080749EB011208F7
:1015830007D4EC0112080744EE0112080769F001C1
:1015930012080797F001120807BEF001120807C7E7
:1015A300F0011208074EF1011208076CF40112084A
:1015B300077FEC0312080795EC031208071CEB03E3
:1015C300120807EBCC03120807FECC031208079B93
:1015D300CD03120807D6CD03120807F1CD03120875
:1015E3000716CE031208075BCE031208078CCE033F
:1015F300120807BDCE0312080743D0031208077071
:10160300E803120807A6E803120807C2E803120852
:101613000704E90312080714E9031208071BBA03B6
:10162300120807FEBA0312080702BC031208074098
:10163300BC0312080756BD03120807C2BD031208F4
:101643000732BE0312080700800312080755800300
:101653001208073E8103120807D7810312080721E6
:1016630082031208077E820312080792820312087C
:1016730007C48203120807C2830312080706840300
:1016830012080721840312080770840312080786CF
:101693008403120807938403120807C784031208FC
:1016A30007E08403120807AA8503120807048603C8
:1016B300120807528603120807748603120807EB01
:1016C3008803120807208903120807B08903120848
:1016D30007258A031208072A8A03120807668A0362
:1016E300120807BC8A03120807808B03120807A598
:1016F3008B03120807AF8B03120807B28B03120880
:10170300073B8C03120807568C03120807698C03E6
:10171300120807A48C03120807A78C03120807B248
:101723008C03120807EE8C03120807CFEA03120892
:1017330007E7EA03120807EC98031208073B99032B
:10174300120807DD9A03120807999C03120807E1A0
:101753009C03120807C99D03120807FA9E03120887
:10176300071C9F03120807789F03120807FC9F03B7
:10177300120807D56400120807F6640012080773FD
:101783006500120807F8650012080774660012085E
:1017930007DD6600120807296700120807A867001B
:1017A3001208073A6800120807C6680012080708FB
:1017B3006900120807516D00120807D16E00120864
:1017C30007A76F00120807D66F00120807C1710040
:1017D300120807417400120807FA74001208071769
:1017E30076001208076E79001208077E7900120846
:1017F30007DF7A001208076B7B00120807947C004E
:10180300120807857D00120807077E001208078A61
:10181300E60212080744E702120807B6E7021208B5
:101823000752E802120807C2E8021208077BEB021C
:1018330012080752EC02120807BFEC021208073C19
:10184300EE0212080706EF0212080776EF021208EB
:10185300073FF10212080752F202120807EBF202E5
:10186300120807B1F30212080747C2031208079BC5
:10187300C203120807F3C2031208073EC303120888
:1018830007A0C3031208070CC403120807BFC4034D
:1018930012080700C50312080716C50312080772CA
:1018A300C503120807B0C503120807C4DE031208F4
:1018B30007F5DE03120807AFDF0312080715E0037D
:1018C30012080738DD03120807A5E703120807B655
:1018D300E70312080756E8031208075CFE02120822
:1018E300076AFE02120807E8FF02120807BEE903AF
:1018F300120807CEE903120807E9E9031208074AA9
:10190300EA03120807A3E60312080728E7031208ED
:10191300078CE7031208079EE003120807C0E003E1
:1019230012080726E10312080746E1031208078C91
:10193300E103120807E7E1031208071EE203120896
:101943000733E203120807A7E203120807C1E20301
:10195300120807D4E203120807E2E203120807FCA5
:10196300E2031208071CE303120807E1C503120888
:1019730007EFC50312080769C6031208074DC7031B
:1019830012080706C9031208075DEC03120807FED5
:10199300A6031208076AA70312080729A803120857
:1019A3000733A9031208078CAA03120807E7AA033F
:1019B3001208073CAB0312080745AB03120807578D
:1019C300AB03120807C1AB03120807D5AB03120818
:1019D30007DFAB03120807B0B00312080705B10312
:1019E30012080701B30312080733B303120807559C
:1019F300B3031208076EB30312080787B303120871
:101A03000791B4031208072CB5031208079F7E0041
:101A1300120807C37E00120807DC7E001208070FB6
:101A23007F00120807407F001208076E7F0012082C
:101A330007D07F00120807DF7F00120807E97F0045
:101A4300120807F67F001208071CD3031208074287
:101A5300D3031208077FD3031208078ED303120898
:101A630007ADD30312080715D4031208071ED403C6
:101A73001208077DD403120807A1D40312080760D4
:101A8300D5031208076DD5031208077ED503120884
:101A930007F4EB0312080711EC03120807A3B503BD
:101AA300120807FBB60312080708B7031208071B3F
:101AB300B7031208073AB70312080750B70312080F
:101AC3000764B703120807D9B7031208073EB80320
:101AD300120807EEB803120807C3B903120807D3A5
:101AE300B903120807E2B90312080725E90312082C
:101AF3000749E90312080771E90312080799E90383
:101B03001208072ED80312080755D80312080776C0
:101B1300D803120807DBD803120807ACD503120851
:101B230007C5D503120807D1D503120807E5D50366
:101B330012080703D6031208070DD6031208071766
:101B4300D6031208072AD6031208078CD6031208F5
:101B530007C5D603120807F4D60312080742D703B2
:101B630012080791D703120807ACD703120807B668
:101B7300D703120807DDD70312080723D803120877
:101B83000754EA0312080770EA031208079FEC03DD
:101B930012080705F5021208072FF5021208074B72
:101BA300F5021208075EF50212080774F50212081F
:101BB30007D1F50212080704F60212080745FA02D4
:101BC3001208076BFB021208079EFB02120807EAC2
:101BD300FB021208072CFD0212080754FD0212082B
:101BE3000769FD0212080779FD02120807BDFD020D
:101BF3001208071EFE021208072EFE0212080751E2
:101C0300E3031208076CE30312080795E3031208C2
:101C130007AFE303120807D4E303120807F3E30350
:101C23001208070BE40312080739E40312080753E9
:101C3300E403120807B0EB031208076BC903120889
:101C43000772C9031208077ECA03120807AECA0344
:101C5300120807D4CA03120807F7CA0312080719A0
:101C6300CB0312080753CB03120807B9CB0312089F
:101C730007F2CB031208073ECC031208076BCC0311
:101C83001208078BCC0312080797E503120807AF66
:101C9300E5031208079DE603120807A0E6031208EE
:101CA3000784E403120807F6E40312080734E50384
:101CB30012080775E50312080786BE03120807A575
:101CC300BE03120807F4BE0312080710BF0312086D
:101CD3000741BF031208074EBF031208075BBF0388
:101CE30012080747C00312080785C00312080795A7
:101CF300C103120807A0C103120807B2C1031208E7
:101D030007BBC103120807C5C103120807F3AB03DE
:101D130012080738B00312080746B0031208073049
:101D2300EC0312080786D602120807DAD502120856
:101D33000720D402120807D0D10212080757D10294
:101D4300120807FED0021208078ED0021208076598
:101D5300D00212080745CE0212080711CE0212085C
:101D630007DECD02120807C2CD02120807DBCC0240
:101D730012080793CC02120807DECA021208075E94
:101D8300CA021208075BCA0212080758C9021208DE
:101D93000726C90212080763C8021208078EC60283
:101DA3001208071FC602120807BBDF021208073F0B
:101DB300DF02120807F6DE02120807AEDE0212087F
:101DC30007FCDD02120807F1C502120807EEC5027F
:101DD300120807DBC50212080786C5021208076E40
:101DE300DD0212080775C50212080767C40212084C
:101DF3000731C402120807DFC30212080761DD02BC
:101E030012080796960312080780C3021208074FA9
:101E1300C30212080717C002120807D7BF0212082D
:101E230007CBBF021208072BBF021208076BBE02C3
:101E3300120807EDBB021208077EB9021208073C1D
:101E4300B90212080710B802120807C5B702120830
:101E53000704B702120807D7B6021208071AB60218
:101E6300120807B0B502120807EAB5021208075BA9
:101E7300DA02120807A58D0300000080FBE473005B
:101E830001363601010001020100010301000104D2
:101E930001060605020000070100340801000F09CE
:101EA3000401010D0100FF0E0800001702000019D4
:101EB3000100FF1A0100011B0100FE1C0100081DA7
:101EC3000200001F01000120010001210200002384
:101ED30001000F2402000026010001270100082849
:101EE3000200FF2A0100072B0102402C0100002DF4
:101EF3000100012E0100012F0100FF30010B1C31F5
:101F03000800003A0100083B01000F2F0100000107
:101F130001710101010101110101013101010101FE
:101F2300018001100161013B001400630173017220
:101F330001620143010001130106013D0135000463
:101F43000112010001000100010001040104013339
:101F53000133013C014401320136000001000165F7
:101F630001000135008101000105018201830100A7
:101F730001030471040204600411047004020402E6
:101F830004010402041004610400041404630473D0
:101F930004720462044304000413040604000400EE
:101FA3000404041204000400040004000451046443
:101FB30000000400040004440400040004000400BE
:101FC30004650400043504810464000504000483EB
:101FD3000400040302710230016002110270020165
:101FE30002020202028002100261023A004100630F
:101FF30002730272026202430200021302380000FB
:1020030002000204021202000200020002000204A3
:10201300020402370037003C024402000239000088
:1020230002000265020002350281020002050282FB
:10203300028302000201037103010301030103018F
:10204300030103220302030103100300030003003F
:1020530003000300030003000342030003240306F9
:1020630003000300030403120325032303250323AF
:1020730003040304030003000300034403000300F9
:1020830003230300036503210035038103000305D4
:10209300030003000300030300710030016000111B
:1020A3000070003102200350048000100061000022
:1020B3000014006300730072006200430000001309
:1020C30000060000000000040012000000000000F1
:1020D30000000004000400370037003C0244000005
:1020E30000000000000000650000003500810000D2
:1020F3000005000000830000003600010006000018
:10210300000F0000000000000000000000000003BA
:10211300FFFF00000403FFFF0000FFFF0FF40100B7
:1021230005C4040320000100140B0000000000009C
:10213300000003010F000027181300C71701002731
:1021430018020091170300971704009D170500A3B9
:10215300170600AF17FFFF000001E30D06130E087B
:102163000D0E0B1F0E105F0D02E90D05010E07EF9B
:102173000D0CC50D0DD70DFF0000EB111B12F11156
:10218300F711151209120312211227122D123912F7
:10219300FD11E511DF1100160F00000B150B0200F6
:1021A30002220F32000006D512E712ED12B511F329
:1021B30012AF11BB11140AE5D5C5B5A5A595858543
:1021C30075652F134D135313351341133B13EF1041
:1021D300E91025112B111F11D7100001191618161C
:1021E30016152303000C0E020B040B0A0708000F3D
:1021F300303017181921301B1D1F30000349484286
:102203004D1817250502303016181920231A1C1EE5
:102213003000383C3E363B3B352B432C0F123312F8
:1022230047133F1245122313F912FF120B13051321
:10223300020402010101010902FB100111F5103131
:102243001100000000000000BE040A071119111557
:1022530000FA06B82104007F00E8030C000E0028F2
:102263000000000000090108100C0A03080900041B
:10227300000CFF1E1E05080403100FC082C0838AD2
:10228300828B83E0D2E7F01216F50233F5C082C0E9
:1022930083790012274A125461C082C083900334A9
:1022A3001241E7D083D082C3E09CA3E09D500C127F
:1022B3005B35FAA3E01222C16001090233F5FBEAA0
:1022C30075F00BA4FAA8F075F00BEBA428FB9003B0
:1022D30036E02AF8A3E03B8882F583E0540F2274AA
:1022E300F7120361890812274A1227F0ACF075F040
:1022F3000BE9A42CF9900336E028FEA3E039FF7420
:1023030001650860067402650870208A828B831257
:1023130027DC1234C374026508701B12269B122833
:102323002370138E828F83E4F0800BEA2403FCEB8B
:102333001227BE1227CAEEFAEFFB120AEF02342D60
:1023430074F412036112645C79008E828F83E060FF
:1023530076890A890B8065E50A75F00BA4FAA8F063
:1023630075F00BE50B1222CE7046E50A75F00BA44F
:10237300F8AAF075F00BE50B1228028E828F83E02A
:102383008508828509831228E4850882850983A349
:102393001234C3EE2403FCEF1227C71233FC124E90
:1023A300DBAA08AB09120AEF79019003341248F053
:1023B300E50A2401F50AE50B3400F50B1226A3E523
:1023C3000A9AE50B9B409002366D74F5120361EA9D
:1023D300FEEBFF740B120AB8123401750A01EC4DBF
:1023E300602BEC126478ED1254611234BB79011244
:1023F3000AFBE5084509606F850882850983A312F6
:1024030064667902AA08AB09120AFB805AE50845FB
:1024130009602B125465123B2F1233FD12280D70E5
:102423000CEEFAEFFB120B01E9F50A80CBEE240365
:10243300FA12274570317903EEFAEFFB80CA8E82D8
:102443008F83A3E064FE7003A3E0F4700BEE240318
:102453000A0A0A122745700CEEFAEFFB120B01E988
:10246300F50A8003750A00A90A7F0302057974F748
:1024730012036190033412343DEA4B602FEA75F086
:102483000BA4FAA8F075F00BEBA428FBEAFEEBFF14
:1024930012152790033612343D90033612473560E8
:1024A30012EEFCEFFD79001214918007900336E4DD
:1024B300F0A3F002342D900334123E9FC3EE98EF45
:1024C3009922C082C083EC4D6005121CB380097C45
:1024D300087D0079001214910233F574F61203613A
:1024E3007900EA4B6018780088081257A8EB125B52
:1024F3003160047901780808E8C3940840EA02349B
:10250300CC74F712036174F31208E6ECFEEDFF8559
:102513001882851983E4F004120AB8EAF0A3EB12D7
:102523004C617403120AB8AC82AD83EEFAEFFB126E
:102533000B13EEFAEFFB120B1902342874F7120394
:102543006174F31208E6ECFEEDFF851882851983AA
:10255300E4F0EAFCEBFD7403120AB81228DD7401FF
:10256300120AB81234B78E828F831234C374FE6892
:10257300700374FF696004790180027900023428D2
:1025830074F7120361EAFEEBFF1225E170141225C2
:10259300EC8E828F83E0F4F88A828B83E058F0120A
:1025A3000AEFA90802342D74F7120361EAFEEBFF68
:1025B3007508008E828F83E060221225E1701D1260
:1025C30025EC8A828B83E08F838E82F8E058700C2F
:1025D300E0F88A828B83E048F0120AEF80C4120A83
:1025E300F5E9F50874016508221264711227F412E3
:1025F3002736FAA3E039FB2274F41203618A088BAD
:10260300097C007D0012269B1227CA12275B1264E5
:10261300637900850882850983A3E064FE7003A3C0
:10262300E0F460717E007F008062EEFAEF1222C157
:102633006057EEFAEFFBEA75F00BA4FAA8F075F019
:102643000BEBA428FB900336E02AF50AA3E03BF545
:102653000B850882850983A3124BAF850A82850BFC
:1026630083A3E06A7003A3E06B701EE50A2403FAF8
:10267300E50B122746700AE50A2403FCE50B122733
:10268300C712274F790112547712303A1226A3EE5C
:102693009AEF9B409502366DEA24030A0A0AEB225D
:1026A30090033412504EC32274F31203618A088BD1
:1026B300098A828B83A312646612274A12646375A4
:1026C3000C0012269B12274670547E007F0080491F
:1026D300122728FAA3E0398A82F583E0540F603683
:1026E300122728F50AA3E039F50BE50A2403FCE5D4
:1026F3000B1227D13400FB121CADE964017017855E
:102703000A82850B83A312510FA31234C312274FDE
:10271300750C0112547712303A1224B940B2A90C45
:102723007F05020579EEF8EFF9E875F00BA4F812CE
:10273300273622AAF075F00BE9A42AF9900336E0B4
:102743002822EF12281D22126477EB2212275B1234
:102753005472EEF0A3EFF022E508126478E5092243
:1027630074F5120361EAFEEBFF8E828F83A312647A
:10277300667C007D00EE24030A0A0AEF1227CAEEE4
:10278300FAEFFB120AF5E9F50A7401650A702912DA
:1027930064711227F0AAF075F00BE912280285087C
:1027A30082F5831227DC12280D700DE5082403FC43
:1027B300E5091227BE1227CA02246A3400FDEE245B
:1027C30003FAEF221227D13400FB120B1322340039
:1027D300FDE5082403FAE50922A31227E1221227C3
:1027E300E522E0F8A3E0F98E828F83A3221227F477
:1027F300223400F583123EA3E875F00BA4F82212ED
:10280300273CF508A3E039F50922E8F0A3E9F0E550
:10281300082403FAE50912281D2212282364012241
:102823003400FB120B19E92274F312036174E612EC
:1028330008E612645C750C01750800750900750AD9
:1028430000750B00851882851983E4F0EE2403FCE0
:10285300EF3400FD7403120AB81228DDE964017035
:1028630023740B120AB81234BB7401120AB8124B48
:10287300B37003A3E069605185188285198385824B
:1028830008858309740D120AB8E41228E4740E1241
:102893000AB81234C3740D120AB8AA82AB83120B9E
:1028A30037E96401700B740D120AB885820A8583B7
:1028B3000B780A120824AC08AD09EEFAEFFB120BF1
:1028C30007740212086CE9F50CEEFAEFFB120B31F8
:1028D300A90C741A12086C022723122BB0120B3D99
:1028E30022123438123E9F22C082C08378007900BE
:1028F30080031229DB1226A3E89AE99B5029E8FA00
:10290300E9FBEA75F00BA4FAACF075F00BEBA42C21
:10291300FB900336E02AFCA3E03B8C82F583E05472
:102923000F70CF7900800279010233F5C082C08332
:10293300902252123EF5EC75F012A4FCA8F075F04B
:1029430012EDA428FD79FF7A297B0B12149102332F
:10295300F574F7120361E9FEEAFF7A007B00780061
:1029630079008028E8FCE9FDEC75F012A4FC85F001
:102973000875F012EDA42508122DF0C39E400AE05D
:10298300FCEFC39C4003122F0F1229DB122DE440EE
:10299300D302342DC082C0837800790080031229CA
:1029A300DB1229CF501F122DF4F470F2E875F012E8
:1029B300A4F8AAF075F012E9A42AF9742928FA7484
:1029C3000B39FB80047A007B000233F5902252120C
:1029D3002EA5C3E89AE99B22E8240108E93400F90B
:1029E3002274F012036174F31208E68A0A8B0B8CCB
:1029F3000C8D0D8908EC450D6016AA0CAB0D120B5E
:102A03008B8A0E8B0FAE0EAF0FEE4F6003022AA21E
:102A1300120B618A0E8B0FA80EA90FE8FEE9FFE8DF
:102A230049607C902266122B04602274036508605F
:102A3300067404650870167A047903120B5B9022FE
:102A430066122B1B40077A007B00022B0190226445
:102A5300122B04601B74016508600674026508701C
:102A63000F7A027901120B5B902264122B1B50D652
:102A73008518828519837401F0120AB8124EDBACF3
:102A83000CAD0D7403120AB8122BA9740B120AB8F9
:102A93001234091238A3E4124EC312102F8004EE2D
:102AA3004F604A780074FF2508C3940450027804E9
:102AB3008E828F83124EDB8E828F83A3A3A3A3E523
:102AC30008F0E88E828F83A3A3A3A3A3124EE3127D
:102AD3000210122EBC8E828F83A3A3A3A3A3A3A34E
:102AE300F0122EB3120A9512545B120AA1122B098B
:102AF3004005901085E4F0120F09EEFAEFFB023E59
:102B0300A9124FFD49227A047900120B5B902252DD
:102B1300125B17EA98EB9922122B34758322758284
:102B230052E493C398F8A3E49399F9C3EA98EB9911
:102B330022E493F8740193F92274F212036174F39B
:102B43001208E68A088B09ECFEEDFF750A00EEFA1F
:102B5300EFFB120B8B8A0C8B0DA80CA90DE84960B7
:102B63003E88828983E065087004A3E06509602FCD
:102B730088828983A3A3A3A3E0C39405502112539E
:102B8300098518828519837401F0120AB812530D4E
:102B9300EEFCEFFD7403120AB8122BA9750A01A902
:102BA3000A740D0249A7122BB0120B4922AA82AB59
:102BB30083120B13851882851983AA82AB8322742F
:102BC300F6120361122BFE600FA3A3A3A3E014C3A9
:102BD300940450047901800279000234CC74F61213
:102BE3000361122BFE600FA3A3A3A3E014C39402FB
:102BF30050047901800279000234CC120B858A8259
:102C03008B83E58245832274F6120361122BFE60E7
:102C13000BA3A3A3A3E0700479018002790002341B
:102C2300CCC082C083EAFCEBFD7A007B000233F266
:102C3300C082C0837C007D000233F274F41203610E
:102C430074F31208E6EAFEEBFF8C0A8D0BC3EC94D7
:102C5300F8ED94FF4007EE4F7003022CF775080060
:102C6300750900802E8518828519837401F012304E
:102C730062120AB812307060137403120AB8AC827D
:102C8300AD83EEFAEFFB121CADE97049E5082401B0
:102C9300122E90902252E4125005E50898E5099906
:102CA3005052E50875F012A4F8AAF075F012E50980
:102CB300A42AF9125B4A60D4EE4F70A974FF650A27
:102CC300700474FF650B60C4123052650A7004A36C
:102CD300E0650B70B7E50875F012A4F508A8F07568
:102CE300F012E509A428F50974292508FA740B35AF
:102CF30009FB80047A007B0002366874F4120361D6
:102D030074F31208E6750800120B8B8A0A8B0BAE5C
:102D13000AAF0BEE4F602A8518828519837401125E
:102D23003432F8A3E0F9740B120AB8123546120BC9
:102D33002B7C127D0079FFEEFAEFFB1214917508DC
:102D430001122B0950099010857401F0120F09A983
:102D53000802366874F7120361E9FE74FE6A7003B1
:102D630074FF6B78007900700580521229DB122DF5
:102D7300E4504AE8FCE9FDEC75F012A4FCAFF075F1
:102D8300F012EDA42F122DF0F460E0E8FCE9FDEC65
:102D930075F012A4FC75F012EDA42FFD74292CF527
:102DA30082740B3DF583E06A7003A3E06B70BC8013
:102DB30009122DF414C3940440171229DB1229CFEE
:102DC3005018EE70EC122DF464016005E06403709A
:102DD300E9123043FAA3E0FB80047AFE7BFF02345E
:102DE3002D902252123EF9C3E89CE99D22122F44F2
:102DF30022E8FAE9FBEA75F012A4FAACF075F012D6
:102E0300EBA42CFB742D2AF582740B3BF583E02293
:102E1300120B9D0233F5C082C083790180F274F0F6
:102E23001203618A0A8B0B7A047901120B5B8A0CF9
:102E33008B0DEA450D603EEAC333FAEB33FB121503
:102E4300278A088B09AE08AF09EE4F60237AFE7B11
:102E5300FF120BA374FE6A700374FF6B601B85087B
:102E63008285098312343DE5082402122E9080E105
:102E7300750C0080047E007F00850A82850B83E544
:102E83000CF0EEFAEFFB023EAEE5082407F508E589
:102E9300093400F50922902252123EF9C3EA9CEB51
:102EA3009D22E493FA740193FB2212148574032286
:102EB30012546CE4F090806822E88E828F83A3A37F
:102EC300A3A3A3A3A3A3122EDE7401122EDEA3F0E9
:102ED300EE241012546FE4F0A3F0221238AFA3A330
:102EE300A322C082C0837A007B00800419122F0FB3
:102EF300122E995010122F2EC3940550F0E970EC46
:102F0300122F1880047A007B000233F5EA24010AA9
:102F1300EB3400FB22EA75F012A4FA75F012EBA46D
:102F230028FB74292AFA740B3BFB22EAFCEBFDEC29
:102F330075F012A4FCA8F075F012EDA428122F442A
:102F430022FD742D2CF582740B3DF583E02274F77A
:102F530012036174F31208E67E007F00022FF6E588
:102F63000875F017A4F8A9F0125DABFAA3E0FBEE25
:102F7300F8EFF9E875F012A4F8ACF075F012E9A4D3
:102F83002C1230516A7003A3E06B603FE50875F0C3
:102F930017A4F8AAF0EA125DAAF8A3E0F9740112E3
:102FA3000AB8E0687003A3E0696020E50875F017CC
:102FB300A4F8EAF974A528FC740C39FD7403120A09
:102FC300B8AA82AB83121CADE96014E50875F0174B
:102FD300A4F8A9F074A328FA740C39FB12103B056A
:102FE3000890226BE493F8E508C3985003022F621C
:102FF30012303A9022521260F15039EEF8EFF91282
:103003003043F47003A3E0F460E6851882851983E6
:103013007401F0EEF8EFF9E875F012A4F875F01208
:10302300E9A42AF9123062120AB812307060C1752D
:10303300080080AD023428EE24010EEF3400FF2295
:10304300E875F012A4F8AAF075F012E9A42AF912AF
:10305300305622742928F582740B39F583E02274E3
:103063002B28F582740B39123E9D740B22E8F0A3D2
:10307300E912354E120B43E922C082C08390033D0F
:1030830074FBF0A3740DF090033F74F5F0A3740D7B
:10309300F09003437415F0A3740CF00233F574F746
:1030A300120361EAFEEBFF900377E06408601BE024
:1030B300640460168E828F83E054036401704812A7
:1030C30033FC1239A4E06406703D8E828F83A3A380
:1030D300E064FE7003A3E0F4602D8E828F83A3A3CC
:1030E3001234B7900368E0687003A3E069700BEED5
:1030F3002415F582EF125B316008120EA9E9F50879
:103103008008120EAF80F67508C2EEFAEFFB1215B7
:103113002D0225A574F41203618A088B098A828B18
:1031230083E0F8A3E0FAE82AFAE43400FB12152757
:103133008A0A8B0BAE0AAF0BEE4F6063850882855C
:103143000983E0FC7D0079001214918E828F83A3A2
:10315300A3126466120EEB8E828F83A3A3A3A31222
:10316300343D850882850983E0F8EE28F8EF3400C2
:103173001234BF850882850983A3E0C0E0EE240DE5
:1031830012545ED0E0F0120EFDEE240E12545EE9EE
:10319300124B10E0C0E0EE241112545ED0E0F0EECA
:1031A300FAEFFB02366D74F612036174EB1208E654
:1031B300EAFEEBFF124732600302324D7A077B00CF
:1031C30012152790033912343D12473260788E82EC
:1031D3008F83120A9590033A1239A7120AA1126338
:1031E3002AC0E0123259D0E0F0EE2405FAEF3400A1
:1031F300FB8A088B098A82F583E0C0E0123254D03F
:10320300E0123664E0C0E0123254A3D0E01234A9D5
:10321300120A95851882851983120AA188828983E7
:10322300E0C0E07405120AB8D0E0F0850882850991
:1032330083E0C0E07404120AB8D0E0F07407120A05
:10324300B812338F80067910800279017415023425
:10325300C9123259A322900339E0FAA3E0F5838A15
:1032630082A3A3A3A322C082C083124732600D901E
:10327300033912503C900339E4F0A3F0120E1912F3
:103283000FDB0233F574F012036174EB1208E6EC02
:10329300FEEDFF89087425120AB8780C120A5B74D4
:1032A30029120AB8E0F9742A120AB8E0FC742B1246
:1032B3000AB8E0FD740F697005740F6C601290100A
:1032C300CBE06402700579C102338AE9C39C40F6FE
:1032D300900378780C120A79E50890037EF0E99060
:1032E300037CF0ECA3F0ED90037FF074FF6A7003AE
:1032F30074FF6B701D9010D6E0F47003A3E0F470BC
:103303000512149D800C9010D6123412E8F0A3E934
:103313008007900375EAF0A3EBF0EE4F6017EEFA27
:10332300EFFB12109BE96401700BEEFCEFFD7A8951
:103333007B03121CB3900368E4F0A3F090036BF0DB
:10334300A3F0900388F09010CBE064027008900320
:103353007C740FF0A3F09003777405F014120AB88D
:10336300E4F0900378120A95851882851983120A6E
:10337300A190037EE0C0E07405120AB8D0E0F074B7
:1033830007120AB812338F7415023EABE412354E9E
:10339300121CDD22C082C083900338E07003121731
:1033A300C1120BE5804CC082C083900338E09010BB
:1033B300847004E4F0802D7401F0900338E0F4602D
:1033C300237C41E0C394415002E0FCECF8E0C39855
:1033D300F0EC75F0E8A4CCA8F075F003A428FD7A0E
:1033E30080123F017A847B107941121CCB80031237
:1033F3000B91D083D082020804EE12546D22E0F5C3
:1034030008A3E0F5092212340D221227E5A32212A4
:103413003E9F9003752274F7120361EB90037FF0D4
:10342300120E078005740D12086C7F0102057912D4
:103433003438A3E0221234A9A322EAF0A3EBF0224A
:1034430074F712036174F81208E6EAFEEBFF7900E1
:10345300900377E06408704485188285198374FDAE
:10346300F0A374FFF0120EE57402120AB812343D91
:103473007405120AB8E4123438E0C0E07404120A86
:10348300B8D0E01234A4C0E07406120AB8D0E0F059
:103493007407120AB8E412354A120F27740802346B
:1034A3002A1234A9E022F08E828F8322F0851882BB
:1034B30085198322123E9F22E0F8A3E0F912546C8F
:1034C300E8F0A3E9F02212086C7F02020579C082BA
:1034D300C08390034974A5F0A3740CF09003EF74B8
:1034E30081F0A3740FF090034D74DBF0A3740CF020
:1034F30090034F74A5F0A3740CF090035174E1F0A2
:10350300A3740CF00233F574F412036174F9120816
:10351300E68A088B098C0A8D0B85188285198378B6
:1035230008120A797404120AB8E9F07405120AB889
:10353300E4F07406120AB8E412354A120BCD74078C
:1035430002366AE8F0A3E912354E221234AFAA829A
:10355300AB832274F41203618A088B098A828B83FA
:1035630012547AEE4F7003023662900312124735FB
:1035730060158A828B83A3A3E0F9EEFAEFFB900335
:10358300131239A7121E808E828F83A3A3A3A3A332
:10359300A3A3A3A3E0640270748E828F83A3A3A367
:1035A300A3A3A3E05402700302363485088285097D
:1035B30083A3A3E064E960798E828F83A3A3A3A38B
:1035C300A3A3A3A3A3A3E070149010CEE0048E8260
:1035D3008F83A3A3A3A3A3A3A3A3A3A3F08E828FE9
:1035E30083A3A3A3A3A3A3A3A3A3A3E01412366457
:1035F300A3A3A37404F09010CF124EB5E8F0A3E98F
:10360300125F8E8B0BEA450B700312596C8E828FFF
:1036130083A3A3A3A3A3A3A3A3A3E0640260128E23
:10362300828F83A3A3A3A3A3A3A3A3A3E06406708E
:103633002E8E828F83A3A3A3A3A3A3E0A2E0501F94
:10364300850882850983A3A3E0F9EEFAEFFB121D37
:10365300618E828F83A3A3A3A3A3A3E054FEF08070
:10366300091238AB22740D12086C7F0402057974B9
:10367300EC12036174DD1208E6EAFEEBFF8C088DA1
:10368300097437120AB8780C120A5B750A007405BC
:10369300120AB8AC82AD83120ACB7412120AB8E0D4
:1036A30070087415120AB8E060207405120AB8E0B5
:1036B300A2E6501E8E828F83A3A3A3A3A3A3A3A3D7
:1036C300A3124BAF120F5DE960087903121C9B0232
:1036D30038917405120AB8E0540C64047005750B34
:1036E300018003750B00E0A2E55035750A01E50B77
:1036F300A2E0402C120EEB8A108B11A810A9111214
:1037030033FCE0687003A3E06960157405120AB81E
:1037130012646D124BAB121D6DE96004790480AC29
:103723007405120AB8E0A2E650227406120AB8E041
:10373300540370187405120AB8E0540C640C600C3E
:10374300E0540C6408600575100180037510007463
:1037530005120AB8E05403F8740268700C12646D21
:10376300124BAB120ADD023891740168703AE5100E
:10377300A2E050031238997405120AB8A882A983EB
:103783007403120AB8E8F0A3E9123E938518828500
:1037930019831238A3E0C0E07402120AB8D0E01211
:1037A300354A121E51023891E860030238919003A2
:1037B3005FE0640170108E828F83A3A3A3A3A3A3EE
:1037C300E0700302371F7422120AB87402123E9388
:1037D300741A120AB81234C3E510A2E05008740533
:1037E300120AB8123899E50BA2E0506AEE240FF5DD
:1037F30082EF125B31C0E07417120AB8D0E0F09088
:1038030003141247357003023891120EEB8A128BA0
:1038130013A812A913741A120AB8E0687003A3E07C
:1038230069706B780C12081C780A12082878081241
:103833000824A910740C120AB8AC82AD8374211247
:103843000AB8AA82AB839003141239A4121E80749F
:103853000712086C8038780C12081C780A120828A2
:10386300780812082490037512068CEE2412F58250
:10387300EF12585F7423120AB8AC82AD83740E1230
:103883000AB8AA82AB83121D55740912086C7423FB
:1038930012086C025F5912646D12504A120AD12247
:1038A300E8F0A3E91238AB221238AF22F08E828FF0
:1038B30083A3A3A3A3A3A32274F71203611216ADD8
:1038C30002342D74F71203611216B302342D74F708
:1038D3001203611216BF02342DC082C0831216B9BF
:1038E3000233F574F71203611216C502342D74F70F
:1038F3001203617409120AB8E0F50878081208285F
:103903001216D1740102342AC082C0831216DD025A
:1039130033F5C082C0831216E30233F574F7120342
:10392300611216E902342D74F7120361EAFEEBFF0C
:1039330089087401650870147900120D1D902276B0
:10394300E493FC7900EEFAEFFB120C9302342D742E
:10395300F412036174F91208E6E9FE8A088B098CF4
:103963000A8D0B7413120AB8124BAF90059B1247C2
:10397300356027EE851882851983F07401120AB821
:103983007808120A79EAF8EBF97405120AB81235C5
:103993004690059B1239A4121E80023541FB900309
:1039A3004BE0F8A3E0F583888222C082C08312171C
:1039B300190233F574F7120361901087E0F97E0062
:1039C300800B125B1D540D64017001190E123BB183
:1039D3005003E970ED02342D74F7120361901088DF
:1039E300E0F97E00800B125B1D548D648170011918
:1039F3000E123BB15003E970ED02342D74F2120341
:103A030061890BE975F006A4240CF508E5F0122E84
:103A1300948A0CE508250CFAE5093400FB121527F6
:103A23008A0C8B0DAE0CAF0DEE4F6027AC08AD09C1
:103A330079001214911233FCE50BF0EE2508F8EF30
:103A43003509F98E828F83A3A3A3A3A3A3A3A3A35F
:103A53001234C3EEFAEFFB0249AA74F6120361EAC9
:103A6300FEEBFF120C6F901086E0F8E9C398400953
:103A7300900345124BAF120C75EE2402F8EF12516E
:103A8300BF900347125079900347E004F0EEFAEF3A
:103A9300FB120C7B850882850983E0025675C08280
:103AA300C0837900900345800109124BAF8A828B52
:103AB30083E582458370F20233F574F7120361EAFA
:103AC300FEEBFFEE4F6056900345124735604E887C
:103AD3008289837A007B00EE65827003EF658360E1
:103AE3000FAA82AB83123B23E5824583602F80E7D5
:103AF300900345123B2F687002EF698E828F8370AB
:103B0300081234B79003458003125F6B1234C3EE7F
:103B1300FAEFFB121E21EEFAEFFB12152D02342DE4
:103B2300123B2722123EA38882898322123E9FEEF4
:103B330022C082C083900345800488828983124710
:103B430035600B888289831241E7EC4D70EC8A82E1
:103B53008B83E4F0A3F0E8496006888289838003BD
:103B630090034512343D0233F574F7120361900359
:103B73004580048A828B83123BAC4B60257E008098
:103B8300010E123BB150ECEE75F006A4FCADF0EA69
:103B93002CFCEB3DFDEC2410F582ED123C0170E1B1
:103BA30080047A007B0002342D12504EEA22123C2C
:103BB3000AEEC3982274F71203617D0080010D128F
:103BC3003C06EDC3985034ED75F006A4FEA8F0E86A
:103BD300FFEA2EFEEB3FFFEE2410F582EF123C01CD
:103BE30070DCED75F006A4FEE8FFEA2EFAEB3FFB6E
:103BF300EA2411F582EB125B314CF002342D125B97
:103C03003D6922123C0A22126477EB3400F583E00B
:103C1300F82274F6120361120D957A007B00802559
:103C2300EAF8EBF9E875F006A4F8ACF075F006E9EC
:103C3300A42C125023126338A3E4125119F0A312D7
:103C4300633E1264B590225E122B1340D37A007B3D
:103C530000801C8A088B097403780812099B124A96
:103C6300D7A374FEF0A304124EF9A3E41264B59033
:103C7300226A123CB440DC7A007B00801D8A088BE8
:103C8300097403780812099B74CB1257A9740F1295
:103C93005FF074FEF0A3041264B5902270123CB47A
:103CA30040DB902269E493900353F0123CBE02344C
:103CB300CCE493F8C3EA98EB9400227CE87D037A82
:103CC300107B009003C2E0F91215E12274F0120395
:103CD3006174F51208E68A088B09890A8C0BE9A23C
:103CE300E050147508FC7509FFA2E15005D2E40207
:103CF3003D91D2E3023D911249967003A3E06970AE
:103D0300057900023E5EAC0A7902AA08AB09120DDE
:103D130071E960EDE50AF50C780C12082879027C4C
:103D2300FE7DFFAA08AB0912471112086CE9600374
:103D3300023E5CE50AC2E5F50A9003B5E07051E581
:103D43000AA2E6404B7403120AB8AC82AD83AA08F8
:103D5300AB09120B1FE970321240328A0C8B0DA88B
:103D63000CA90DE8FEE9FFE8496025EE24020A0AE2
:103D7300EF122823601AEE2402FCEF3400FD7403D3
:103D8300120AB8AA82AB83121CB3E50AD2E5F50A7C
:103D9300900348E0F50C900368E0F50EA3E0F50FFF
:103DA300780E1208247D017C00900348E0F9AA0EE6
:103DB300AB0F120D29740212086CE9F8900348E066
:103DC30004F0E86003023E5CE50AA2E55004740EC9
:103DD30080027406C0E07401120AB8D0E012548B5A
:103DE3008A0E8B0FAE0EAF0FEE4F6069123E7C1240
:103DF3003E93888289837401F07478550AA3126410
:103E03007DE50C12647DA3E508F0E509123E6BE441
:103E1300F0E50AA2E5500F7403120AB8AC82AD8331
:103E2300E82406123E628E828F83A3A374FDF0A35F
:103E330074FFF0E50B6015902277E493F8E50BC36C
:103E4300985009EE241312545EE50BF0EEFAEFFBE3
:103E5300120BC180067910800279C7740B8049FA6E
:103E6300E93400FB121CB32288828983A3A3A3A392
:103E7300123E77221251F2A322EE241712546F74CA
:103E830001F0120EE5EE241A12546FEAF0A3EB22AE
:103E9300F01264713400123E9D22F583123EA32278
:103EA300E0F8A3E0F922740D12086C7F080205798B
:103EB30074F61203617A007B10125979600890033B
:103EC300D47401F0802990063CE064019010CC701A
:103ED30006E0FC79018004E0FC79037A007B0012A0
:103EE3000C9390225C123EF57A007B10123F030282
:103EF30034CC123EF922E493FC740193FD227B003F
:103F03009003C2E0F91215DB2274EC1203618A08F4
:103F13008B098C0C8D0D890E7414120AB81248F09B
:103F23007416120AB8E0F510A3E0F511120F5DE95B
:103F330060077AFF7BFF02402F9010CBE0640260A2
:103F4300030240227900AA08AB09120D77A90E12C9
:103F53000D6B8A128B13AE12AF13EE4F7003024038
:103F63000A8E828F83A3A3A3A3A3E064018E828F0F
:103F730083A3A37069124BAF8E828F83A3A3A3A3E2
:103F8300A3A3E054186043902275E4938E828F8339
:103F9300A3A3A3A3F0EA650C7003EB650D6014EA19
:103FA300650A7003EB650B600AEA65107003EB6545
:103FB30011701F7810120824AC0AAD0BAA0CAB0DBC
:103FC300121059740212086C800890036712596327
:103FD300A3F074FE6A700374FF6B601D804EA3A38D
:103FE300A3E0640360298E828F83A3A3A3A3A3E02A
:103FF300640470057AFE023F378E828F83A3A3A3E6
:10400300A3A3E0640270089003B4E064027010128A
:1040130040328B0BEA450B6006AA08AB09800DAA58
:1040230008AB099003491239A4121E80025F59900C
:10403300037512471712101D2274F7120361EAFE6B
:10404300EBFF120B73E9700AEEFAEFFB120B7FE939
:104053006006EEFAEFFB80047AFE7BFF02342D74D8
:10406300F01203618A0A8B0B8C0E8D0F8909750878
:1040730000120F5DE9790060030241D9AA0AAB0B74
:10408300120D77A909120D6B8A0C8B0DAE0CAF0DB7
:10409300EE4F60198E828F83A3A3A3A3A3E06402D0
:1040A30070559003B4E0640270030241D7AA0AABCF
:1040B3000B90034F1239A4121E80120B858A0C8BAE
:1040C3000DA80CA90DE84970030241D788828983A2
:1040D300A3A3A3A3A3E0A2E040030241D7750C016D
:1040E300A2E150687901AC0AAD0BAA0EAB0F120C1A
:1040F300C3E970640241D78E828F83A3A3A3A3A3D2
:10410300E064037005750C0280528E828F83A3A333
:10411300A3A3A3E0640160030241D7900375124196
:10412300E78E828F8312453C8A0C8B0DA80CA90D58
:10413300E84960D190226EE493FA88828983E0C3D0
:104143009A50C2A3E060030241D780B98882898371
:10415300A3A3A3A3A3D2E1F0EE4F603A8E828F8391
:10416300A3A3A3A3A3A3E05418602B7508018E8215
:104173008F83A3A312068C750CFE750DFF780C12AA
:1041830008247900AC0AAD0BAA0EAB0F120D89748B
:104193000412086C803E900368E0650E7004A3E08F
:1041A300650F7014902276E493FCA909AA0AAB0B5D
:1041B300120C93750801801CA90CAC0AAD0BAA0E56
:1041C300AB0F120CC3E9700C750801A909AA0AAB5D
:1041D3000B120D1DA908023EAEE50C2415F582E570
:1041E3000D125472124ECF2274EA12036174F0124C
:1041F30008E68A0C8B0D8C088D097426120AB8E028
:10420300F514A3E0F5157512069003F51247356012
:10421300239003751241E7AA08AB091210478A10CD
:104223008B11EA4511600D8A828B83A3E0700579B7
:1042330000024524E50C241DF50EE50D3400F50FB1
:10424300850E82124721F51388828983A3A3A3E0F5
:10425300FA88828983A3A3A3A3E0F9EA2400FEE4F6
:1042630039FFAA08AB09120D23850E82850F83122D
:10427300455FE029F50BE50AA2E5500375120E74BC
:1042830087550A70177418550A6418600FE50C24D3
:1042930017F582E50D125B31651260077901121C77
:1042A3009B808C530A78C3EE94F8EF94FF501D79EA
:1042B30000EEFAEFFB12452E601288828983A3A3D6
:1042C300A3A3A3A3E05418600302423278081208A0
:1042D300247D0012455212086CE9F87403687003D8
:1042E300024232E8600302439D7418550A700302C8
:1042F3004452E50AD2E0F50AA2E45004D2E1F50AF9
:10430300A90A124BA812452E605388828983A3A35E
:10431300A3A3A3A3E05418604488828983A3A3A31F
:10432300A3A3E064017036E5104511603090037576
:104333001241E78882898312453C8A0E8B0FA80EAF
:10434300A90FE849601788828983A3E0600F85106D
:1043530082851183A31256805003024232E50AF587
:104363000E780E12082812454512086CE9702B7C52
:10437300007D0085148285158374FFF0A3F0850CFE
:1043830082850D83A3A3A3A3A3A3A3A3E060031226
:1043930041DCA90B124BA81216D78514828515830D
:1043A300E0F47003A3E0F460399003B4E0640270B6
:1043B300030242321248E1E0FAA3E01239A0121ECE
:1043C30080EA65087003EB65096003024232EEFA86
:1043D300EF1239A0121E80851482851583EAF0A39B
:1043E300EBF078081208247D0112455212086CA9DB
:1043F3000AEEFAEFFB120D778A088B09A808A909C0
:10440300900368E0687003A3E0696003024515EE5A
:10441300FAEFFB120B858A088B09A808A909E8495A
:10442300606E88828983A3A3A3A3E06401600D88DF
:10443300828983A3A3A3A3E06402705485188285B1
:104443001983AC82AD83EEFAEFFB120B1F805590FC
:104453000361E0600FE50AF50E780E120828124595
:104463004512086CE50AF50E780E12082879027CCD
:10447300FE7DFFEEFAEFFB12471112086CE96003B1
:1044830002439D85148285158374FFF0A30243E4E0
:10449300120EE5EAFCEBFD851882851983AA82AB2F
:1044A30083121CB3850C82850D83A3A3A3A3A3A3AB
:1044B300A3A3E06401700F1241DC7408120AB8AAC6
:1044C30082AB83121CB31246EB1252F74430F50849
:1044D30078081208287401120AB8858208858309AE
:1044E3007808120824740B120AB885820885830998
:1044F3007808120824E513F50878081208287900CB
:10450300EEFCEFFD124BA8120CBD740612086C02F0
:1045130042321246EB12546112455FE50BF0120E64
:10452300FD741012086C7F0E020579120D6B8A0E52
:104533008B0FA80EA90FE84922A3A312504E121005
:1045430047227901AC08AD0912504312471122AC3E
:104553000BA913125043120D297402221252FFA306
:10456300A3A3A32274F012036174F01208E68A0C69
:104573008B0DECFAEDFB750F089003F512473560D0
:10458300141256798A828B83E58245836007A3E000
:1045930070030246E61246EB3400124721F50B88FE
:1045A3008289831246F4E0FBEC2400FEE43BFF889F
:1045B300828983A3A31246F4A3A3E0FBECF508E4EA
:1045C3003BF50988828983A3A3A3A3A3A3A3E0F54F
:1045D3000EE50AA2E45003750F10A2E55006740815
:1045E300250FF50F748F550A700FE50C2417F5820C
:1045F300E50D125B31650F60087901121C9B0246C1
:10460300E6530A707800E50AA2E450221246EB1240
:104613005B312408FCA3E03400FD7408120AB8AA35
:1046230082AB83121CB37808E50AC2E4F50AE50AF3
:10463300A2E550281246EB125B3128F8A3E03400C0
:10464300F9E82408FCE93400FD851882851983AA5A
:1046530082AB83121CB3E50AC2E5F50AAC0EA90BC3
:10466300EEFAEFFB120D2FE9F874036860759003FF
:1046730068E06E7003A3E06F605EE87054E50AF5CE
:104683000F780F12082812470212086CE970547849
:104693000A1208287401120AB885820C85830D78E2
:1046A3000C120824740B120AB885820C85830D78CA
:1046B3000C120824E50BF50A780A120828A90EAC97
:1046C30008AD09EEFAEFFB120CBD740612086C80FC
:1046D30012740468700D80B7780A12082812470212
:1046E30012086C7410023EABE50C241DF582E50D37
:1046F30022A3A3A3E0FC88828983A3A3A3A3227993
:10470300011248E812547212471712471122120C71
:10471300E7740122E0FCA3E0FDAA08AB0922F583BC
:10472300123B27A3E0F50A88828983A3A3E02290A2
:1047330003391250AA2274E812036174F51208E6D1
:10474300EAFEEBFF8C088D0989147423120AB8E082
:10475300F50F7424120AB8E0F512A3E0F5137426DA
:10476300120AB8E0F516A3E0F5177428120AB8E0A8
:10477300F50EA90F120D358A108B117401120AB8A8
:104783007408F0E50EA2E450037410F0E50EA2E500
:104793005004E02408F0851882851983AA82AB832C
:1047A300120F458A0C8B0DEA450D70030248C8EAC7
:1047B3002417F582EB1248DA120EE5E50C241AF5FC
:1047C30082E50D12546112343D7403120AB8AC82AF
:1047D300AD83AA10AB11120B1FE9601D1248D274EE
:1047E30003120AB8A882A983E50C2418F582E50D03
:1047F300125461E8F0A3E98024E50EA2E4501FE51A
:10480300106E7003E5116F70151248D2E50C241871
:10481300F582E50D125461E512F0A3E513F0124899
:10482300E11248F0850A82F5837402F0A3E50E12C3
:1048330048F8E50FF0EE850A82850B83A3A3A3F066
:10484300EF850A82850B83A3A3A3A31248F8A3A32E
:10485300A3E508F0E509850A82850B83A3A3A3A337
:10486300A3A3F0AA10AB11120D23E92514850A8224
:10487300850B83A3A3A3A3A3A3A3F0750800E50E4D
:10488300A2E45011AC12AD13E50A2408FAE50B12A9
:104893003E64750808E50EA2E55014AC16AD17E5A5
:1048A3000A2508F8E50B3400F9E82408123E62856E
:1048B3000C82850D83A3A3E510F0A3E511F0AA0CE8
:1048C300AB0D120BC1740B12086C7F10020579E556
:1048D3000C2416F582E50D1254727401F02212486D
:1048E300E812547222E50C126478E50D22E0F50A11
:1048F300A3E0F50B22F0850A82850B83A3A3227420
:10490300F21203618A088B09ECFEEDFF890A790034
:104913001249967003A3E069700479018073750BE3
:1049230001900368E065087004A3E06509601F75E2
:104933000B00780B120828A90AEEFCEFFDAA08ABBE
:1049430009120F99740112086CE9F50B8041790083
:10495300EEFAEFFB120D6BEA4B602B8A828B83A37B
:10496300A3A3A3A3A3E05418601C7508FE7509FF55
:1049730078081208248A828B83A3A312068C1262FE
:104983008D12086C80097901EEFAEFFB120C45A930
:104993000B8014120D778A0C8B0DA80CA90D9003B4
:1049A30068E0682212086C7F0602057974F412032A
:1049B3006175081375090E7A10125F958B0BEA4522
:1049C3000B7003123CBE900353E014F0700C902262
:1049D30069E493900353F0120D837E007F00806C93
:1049E300850882850983A3A3A3A3E06059F46056D5
:1049F300E5082404F582E50912595D7049850882AA
:104A0300850983A3A3A3A3A3E06403701979028593
:104A130008828509831241E7850882850983A3A358
:104A2300124BAF120CC3850882850983A3A3A3A3EA
:104A3300A3E06401601085088285098374FEF0A3F6
:104A430004124B09E4F012303A122E8C90226212B7
:104A530060F1408C7E007F008039120E8B8E088FB0
:104A6300097403780812099B748B2508FC740F35AD
:104A730009FD7ACF7B0C120E79EA4B70DD8E088F1D
:104A8300097403780812099B124AD7126338E4F0B9
:104A930012303A90226AE493F8C3EE98EF940050F0
:104AA3001B8E088F097403780812099B124ADFE8EA
:104AB3002407F582E912595D70D680A17E007F003C
:104AC300800A124AEA600214F012303A1260EE4091
:104AD300F102366D124ADF8882898322748B25089E
:104AE300F8740F3509F922EEF8EFF9E875F006A42A
:104AF300F8AAF075F006E9A42AF9742B28F5827454
:104B03000F39F583E022124B10A3A3A322F08508EB
:104B130082850983A3A32274F712036174E1120847
:104B2300E6ECFEEDFF750800EE4F60728A828B8320
:104B3300E0241C12598E12473560638A828B8312DC
:104B43004BAF851882851983AC82AD83EA241BF5AC
:104B530082EB12585FEA241CF582EB124BAB120E68
:104B6300CD740B120AB8124BB37003A3E069702E15
:104B73007402120AB8E064017024741D120AB81298
:104B830039A4E064017017741D120AB81239A6A380
:104B9300A3E0F88E828F83E0687003750801A9088B
:104BA300741F02342A1248E83400F58312504E224F
:104BB3001227E1E0682274F4120361E9702479009A
:104BC30090034D1239A4121E808A0A8B0BAE0AAFD2
:104BD3000B74FE6E700374FF6F701A902271E4936E
:104BE3006013790190034D1239A4121E808A0A8B37
:104BF3000BAE0AAF0B120F090231A274F612036156
:104C030074F31208E612149D8A088B09AE08AF09E3
:104C1300900368E06E7003A3E06F60E9120EF1EA9F
:104C23006E7002EB6F60DEEEFAEFFB120F5DE97060
:104C3300D4EE4F60D0851882851983E4F004120AFC
:104C4300B8EEF0A3EF124C61E970BA74FE6E700314
:104C530074FF6F60B0EEFAEFFB740D0234C91235C6
:104C63004E120B3722C082C083120F090233F57F25
:104C73000A02057974F2120361EAFEEBFF8C0A8DD6
:104C83000B8908740E120AB8E0F50974FC6E700300
:104C930074FF6F700579000249AA7900120D778AB3
:104CA3000C8B0DAE0CAF0D900368E06E7003A3E0A8
:104CB3006F7006E509A2E650DCA90912617B7061F9
:104CC30079007AFE7BFF12617B7056741855097068
:104CD30003024DAE7800790080031229DB90226233
:104CE3001229D24003024DAEE8FAE9FBEA75F00758
:104CF300A4FAACF075F007EBA42CFB74192AF58227
:104D0300740E3BF583E0541870D0E875F007A4F8EF
:104D1300AAF075F007E9A42AF9741328F8740E3978
:104D2300F988828983A3A3A3A3A3A3E054186009EA
:104D3300741855097003024C9888828983EEF0A396
:104D4300EFF074FE650A700474FF650B6003124E86
:104D5300D588828983A3A3A3A3A3A3E509F0A2E033
:104D6300500D88828983A3A3A3A3A3A3D2E2F074E3
:104D730001650888828983A3A3A3A3A37038740160
:104D8300124EF9E054186028902275E493888289C2
:104D930083A3A3A3A3124EC31210478B0DEA450DA1
:104DA3006003024C987800790080397902024C9AAA
:104DB300900367E080D7E064017003024C98888217
:104DC3008983A3A3A3A3A3A3E05418600790227528
:104DD300E4938004900366E0123E6BE508F0024C16
:104DE300981229DB90226BE493FAC3E89AE99400C2
:104DF3004003024C987A007B00804BEAFCEBFDEC0D
:104E030075F007A4FCAEF075F007EDA42EFD741544
:104E13002CF582740E3DF58312547AE8FCE9FDEC1F
:104E230075F017A4FC85F00975F017EDA42509FDAD
:104E330074A32CF582740C3DF583E06E7003A3E03C
:104E43006F609E122F0F902262122E9C40AD123E75
:104E5300F5EC6A7002ED6B7088E875F017A4F8AA98
:104E6300F075F017E9A42AF974A328FE740C39FF2E
:104E73007C177D007900EEFAEFFB1214918E828F7E
:104E830083124EDB900375124EB5A3A3A3A3A3A372
:104E9300E8F0A3E9124EBB7401F0EE240E12545E47
:104EA3007401124EE3120210EE240D12545EE80256
:104EB3004DE012340DA3A322F0EE240F12546F22FF
:104EC300F0124ECCAA0AAB0B22900375E0FCA3E0D0
:104ED300FD2288828983A3A3E50AF0A3E50BF022D0
:104EE300F0124EE82290226EE4932401F8E4340099
:104EF300F97A027B0022123E77A32274ED1203613A
:104F03008A088B09890E12502C40057905024FFA45
:104F130012171FAA08AB091250FE90225E124FFD12
:104F2300650A7003E9650B70077AFE7BFF1250FE7A
:104F330090225EE4125005E50A98E50B99400302BE
:104F43004FF81250096012E50A75F006A4F875F0DF
:104F530006E50B12505412152DE50E6018E50A757F
:104F6300F006A4F8AAF075F006E50B125080701A4B
:104F73007901024FFAE50A75F006A4F8AAF075F074
:104F830006E50B125061E4F0A3F0E50A75F006A400
:104F9300F8AAF075F006E50B125021A312530D8801
:104FA300828983A3AA82AB8312506F8A828B83E0A8
:104FB300603F125009603A8E108F117512007810FD
:104FC300120820E50EC333FCE433FDE50A75F00651
:104FD300A4F50AA8F075F006E50BA428F50B742FC9
:104FE300250AF582740F350B124BAD122EAD120844
:104FF3006C790080027907026191122B34E82290C8
:105003002252125B1822E50A75F006A4F8AAF0757D
:10501300F006E50B12505CF8A3E0F9E84922A42A54
:105023001251B588828983A322ECFEEDFF90226C96
:10503300E493F8E9C39822F58312504E12152D22FA
:10504300E50C126478E50D3400F583E0FAA3E0FB88
:105053002212505CFAA3E0FB22125061E022A42A40
:10506300F9742F28F582740F39F58322E50EF09039
:1050730010CD12507922E088828983F0221251D90F
:10508300F50CE93400F50DE50EC333FAE433FB12F6
:105093001527850C82850D83EAF0A3EBF0850C823E
:1050A300850D831250AA22123EA3E8492274F412FA
:1050B3000361ECFEEDFF740C120AB81234B78808D2
:1050C30089091250FEAC0AAD0BECF8EDF990225EA3
:1050D3001251065021E875F006A4F8AAF075F006FF
:1050E300E9125021E08E828F8312511912510F124F
:1050F30034C379008002790402366D120CF98A0AEE
:105103008B0B22122EA5C3EC9AED9B22123E9F8598
:105113000882850983221251EE2274F61203617EFE
:10512300007F008028EEF8EFF9E875F006A4F8ACEC
:10513300F075F006E9A42CF9742D28F582740F128A
:105143005D9C6A7003A3E06B605712303A1260EE05
:1051530040D31260E97002E96F704674FE6A70030F
:1051630074FF6B703C7E007F00800312303A126044
:10517300EE502E124AEA70F3EEF8EFF9E875F006F6
:10518300A4F81251AB1251E060171251C7F8E9129B
:1051930051BF888212503A850882850983E4F0A3BF
:1051A300F0EEFAEFFB0234CC75F006E91251B322AC
:1051B300A42AF9742B28F8740F39F9223400F988DA
:1051C30008890922EEF8EFF9E875F006A4F875F0FE
:1051D30006E91251D9221251B3E8240422A3A3747D
:1051E300FE1251EB1250AA22F0A3041251F222F044
:1051F30088828983A3A3A3A32274F6120361EA24FA
:105203001DF582EB1252F7F9604BEA241DF582EB90
:10521300125B312402FCA3E03400FD125030400342
:105223000252EA780080298C828D83E0F508A3E09E
:10523300FFE5082400E43FF509E833FEE433FF7497
:10524300732EF582740F3FF58312530D1252ED083E
:10525300E8C39940D28A828B83A3A3A3A3A3A3A366
:10526300A3A31241E7900368E06C7003A3E06D70A1
:105273000F7C737D0F12274A124BAB120CED806724
:10528300EA2411F582EB125B31605CFC74FF2CF0B5
:10529300750801780812082875087375090F7808CE
:1052A300120824E9F5087808120828EA2412F5827E
:1052B300EB125B31F5087808120828EA2415F58209
:1052C300EB12546112068CECF912274A1241E48A5C
:1052D300828B83A3A3A3A3A3A3A3A3A3124BAF1262
:1052E3000D05740712086C0234CCEC24020C0CED8F
:1052F3003400FD221254721252FFE022E0F8A3E0C0
:10530300F5838882A32288828983E508F0A3E509CF
:10531300F02274EA12036174FD1208E68A148B15F5
:105323008C0E8D0F890D7419120AB812547A741BDE
:10533300120AB8E0F511741C120AB8E0F50C741DDA
:10534300120AB81248F0741F120AB8E0F510600888
:10535300E50CC333240480027402C0E07401120A12
:10536300B8D0E012548B8A088B09EA45097003020E
:1053730054568A828B83A3A3E514F0A3E515125F29
:1053830084E50EF0A3E50FF0EA2413F582EB125443
:1053930061E50DF0EA2414F582EB125461E511F096
:1053A300EA2417F582EB125B3164017040120EEBB5
:1053B3008A0E8B0FA80EA90F850882850983A3A3E4
:1053C300A3A3E0687003A3E0696022EE4F6011E5D8
:1053D30008241AF582E509125461EEF0A3EF800C5C
:1053E300E5082417F582E509125461E4F0125465C7
:1053F30012547A8E828F837405F0A3E5107004E54E
:105403000C80487401250C1254847A008028850A84
:1054130082850B83E0125480850A82850B83A3E087
:105423008E828F83F0E50A2402F50AE50B3400F53A
:105433000BA30EAF830AEAC3950C40D2120EEBEA1C
:10544300125480120EEBEB8E828F83F0AA08AB0905
:10545300120BC17403024526EE240CF582EF12549D
:10546300722212275B12547222EE240BF582EF3460
:1054730000F58322900334E0FEA3E0FF228E828FA7
:1054830083F0A3AE82AF832212354E120F4522C0A2
:1054930082C083E9C333FCE433FDEA2CFAEB3DFB22
:1054A300EA24FEF582EB34FF124BAD0233F574F2BE
:1054B30012036189098A0A12502C40047900804042
:1054C30075080080020508E508C39509502AE50818
:1054D300C333F8E433F9EE28F582EF39F583C0825C
:1054E300C083120EEB8A0C8B0DD083D082E0650C47
:1054F3007004A3E0650D70CDE50A650870BE7901FF
:105503000249AA74F012036174F31208E68A088B45
:10551300098C0A8D0B890C750D00120F5DE979005A
:105523006003025608AA08AB09120D77A90C120DE5
:105533006B8A0E8B0FAE0EAF0FEE4F700302560643
:105543008E828F83A3A3A3A3A3A3E0A2E2400302BB
:105553005606120EEBEA650A7003EB650B701178C1
:105563000D120828E4F50EF50F780E120824804476
:10557300AA0AAB0B120B79E964017068851882855E
:1055830019837404F07401120AB8124EDB85188271
:10559300851983AA82AB83120B37E96401704575C1
:1055A3000D01780D120828E4F50EF50F780E120898
:1055B30024750D00780D120828780D120828740838
:1055C300120AB885820E85830F780E120824902262
:1055D30077E493F9AC0AAD0BAA08AB09120D057475
:1055E3000712086C8E828F83A3A3A3A3A3A3E0A2B5
:1055F300E1400D8E828F83A3A3A3A3A3A3C2E2F0F2
:10560300750D01A90D023EA974F6120361E9FE7935
:1056130000120D77EEF9120D6B8A088B09A808A901
:1056230009E84960061264BFF9800279040234CCA8
:1056330074F61203617E0790035CE07034125679AE
:105643008A088B09A808A909E8496025900361E045
:10565300640188828983A3A3700B12568088828990
:10566300835001A3A3E0F9121065E9FEEE70027EF8
:1056730007EEF90234CC124ECC12104722E0FA881E
:10568300828983A3E0C39A2274EE120361EAFEEBDC
:10569300FF890A8C0C8D0B7412120AB81234011292
:1056A30057551250335051890E750F007403780EFD
:1056B30012099B7491250EF582740F350FF583E063
:1056C300F8E50CC398502DE50B60247511007403A5
:1056D300781012099B748B2510F8740F3511F98813
:1056E300828983A3A3A3A3A3A3E50C12575FF07935
:1056F30000024C72790380F979007AFE7BFF12571E
:1057030055E49365107004790280E6E50B60E08947
:105713000E750F007403780E12099B748B250EF817
:10572300740F350FF988828983A3EEF0A3EF125724
:105733005F124EF9E50C123E7374FF12633EE50AE5
:10574300F0900366E088828983A3A3A3A3A3A3A302
:10575300809C120D65E9F51090226A22126481A3E0
:10576300E508F0A3E5092274F6120361ECFF120DBC
:105773006590226A12503350278908750900740313
:10578300780812099B74901257A9740F125FF0E006
:10579300F8EFC3985006EFF0790080067903800292
:1057A30079040234CCEA2508F5822274F4120361E9
:1057B300EAFEEBFF120D65E9F50A90226A125033F7
:1057C3005019750B007403780A12099B748E250A0D
:1057D300F582740F350B124BAD801890034B1247B3
:1057E30035600CEEFAEFFB1239A7121E8080047AA3
:1057F300FE7BFF02366D74F61203618A828B83A3EC
:10580300A3A3A3A3E4F0F8800108902270E493F922
:10581300E8C399501E88081258578C828D83A3A31E
:10582300A3A3A3A3A3A3E06970DFECFAEDFB120E1D
:1058330091801EE4936870198C828D83A3A3A3A324
:10584300A3A3A3A3A37406F07A008C828D831259B9
:10585300820234CC74132508F5827410125B3DF96F
:105863002274F4120361EAFEEBFF8E828F83A3A3FB
:10587300E014125999A3E0F9120E6D8A088B09EA14
:105883004509700302595A8E828F83A3A3E07035B2
:105893008A828B83A3A3A3A3A3A3A3A3A3E06402EA
:1058A3008A828B83A3A3A3A3A3A3A3A3A36010743C
:1058B30006F07AF08508828B8312598202595A7452
:1058C30006F002595A8E828F83A3A3A3A3A3A3E056
:1058D30060738E828F83A3A3A3A3E0607AEE240375
:1058E300F582EF12595D706F900355125963125987
:1058F30099E014125F7BE06403705C8E828F83A354
:10590300A3A3A3E0700DAC08AD09EEFAEFFB120DF3
:105913003B80448A828B83A3A3A3A3A3A3A3A3A3B0
:105923007404F012149DEA540F04850882850983D8
:10593300A3A3A3A3F0A3E4F07A20FB125979701771
:1059430012596C80128A828B83A3A3A3A3A3A3A35C
:10595300A3A3E0640360AF02366D125B3D14F02233
:10596300E08E828F83A3A3A3227A207B009003C2BD
:10597300E0F91214DF22125F978B09EA450922E04E
:10598300240C12598EE0F9120DB322F8A3E034006F
:10599300F9888289832212599EA3221234A9A3A3D0
:1059A300A32274F612036179007E0080258E0875A8
:1059B30009007403780812099B74CB2508FA740F45
:1059C3003509FB8A828B83A3A3E06005120D41791D
:1059D300010E902270E493F8EEC39840D0E9A2E060
:1059E3007A407B009003C2E0F950151215ED8B0944
:1059F300EA4509700E7C647D007A40123CC4800342
:105A03001215E70234CC74F4120361ECFEEDFF755A
:105A130008CB75090F7C008045850882850983A31F
:105A2300A3A3A3A3A3A3E0F8EA2412F582EB125BDA
:105A33003168701F8508828509831234B7125B357C
:105A4300687003A3E069700B850882850983A3A3AB
:105A5300E070200CE5082408F8E5091251BF9022F4
:105A630070E493F8ECC39840B0E4936C700579004C
:105A730002366D850882850983A3A3A3A3A3A3E0AC
:105A83007004790180EA12618912101D8B0BEA45BB
:105A93000B600F850882850983A3A3A3A3A3A3E0B7
:105AA30014F07C0080010C8C0A125B0B5020EC126A
:105AB3005B4360F21230526E7003A3E06F70E785B0
:105AC3000882850983A3A3A3A3A3A3E014F09022D0
:105AD3006BE493F8902252E49328F8A3E493340000
:105AE300F9850882850983A3A3A3A3A3A3E0FAC32B
:105AF300E89AE99400508B850882850983A3A3A3C0
:105B0300A3A3A3E4F0025A85902252125B17E50A7D
:105B130098E49922E4122B35C322EE75F006A4FC17
:105B2300ADF0EA2CFCEB3DFDEC2411F582ED125BAC
