:020000040000FA
:06000000020A4B0201B3ED
:03002B0002088642
:0300330002062B97
:0300430002073B76
:030053000200E4C4
:03006B0002060585
:100083000201480101FF01010503010F10FEFFD525
:1000930012D512D512D51291118B11D512942000BD
:1000A3000000003220000000000C0000000C0001E2
:1000B300FFFF0102006805000000DB056400020287
:1000C30000080000050207051E02051E020A0A03B6
:1000D300B80B02803E01023412149651180002023A
:1000E30006C0E074F21203CCA2AFE433FED2AFE554
:1000F300A7FFE5A1F5085F54106006121A3175A138
:10010300EFE5085F54086008121A3775A1F7802BD2
:10011300EFA2E0C0D0E508A2E092F01209881581B1
:1001230082F05017906198E0F8900AB9E0C398A262
:10013300D265D0335002E8F075A1FEEEA2E092AF93
:100143007F0102042BC0E074F21203CCA2AFE433AC
:10015300FED2AF9061A4E0F8759B00E59158540876
:1001630060087591F7121A7F802AE5915854106040
:10017300087591EF121A85801BE8A2E0C0D0E591C3
:10018300A2E092F0120988158182F05007E0C2E0E4
:10019300F0121BD59061A3E0F8E5E9585404600E12
:1001A300121BAB75E9FB906193E0A2E640F2808BF2
:1001B300C0E074F21203CCA2AFE433FED2AF90617D
:1001C300A5E0F8E5BF585404600675BFFB121BEDAC
:1001D30002013EC3E498F8E499F91202178026C39A
:1001E300E49AFAE49BFBE920E7E9120217E498F8A2
:1001F300E499F922C3E498F8E499F9120217E49810
:10020300F8E499F9C3E49AFAE49BFB22EB20E7CFE5
:10021300E920E7E0B90010BB0008E88AF084F8AAF7
:10022300F022E4FBC8FA22EB70227B10C833C8C962
:1002330033C9335007C39AC3DBF280069A50012AAD
:10024300DBEAC833F4C8C933F4C9FA2275F008E409
:10025300C833C8C933C933C99AC99B5004C92AC909
:100263003BD5F0ECFBC833F4C8E4C9FA220808080C
:10027300EAC0E0EBC0E086F0E7A4FA180986F0E7ED
:10028300A42AFA180986F0E7A42AFA180986F0E7DF
:10029300A42AFA1986F0E7A4FBE5F02AFA190886DE
:1002A300F0E7A42BFBE5F03AFA190886F0E7A42B54
:1002B300FBE5F03AFA18180986F0E7A4C5F02BFB22
:1002C300E43AFA1908E7C5F0C6A426F6E5F03BFBC5
:1002D300E43AFA1886F0E7A4F6E5F00826F6E43BDC
:1002E30008F6E43A08F6D0E0FBD0E0FA22E4CFC007
:1002F300E0E4CEC0E0E4CDC0E0E4CCC0E075F020A3
:10030300C3E633F608E633F608E633F608E633F6D3
:10031300181818EC33FCED33FDEE33FEEF33FFC357
:10032300EC9709ED9709EE9709EF97191919400F03
:10033300FFEC97FC09ED97FD09EE97FE191906D519
:10034300F0BEECF709EDF709EEF709EFF719191904
:10035300D0E0FCD0E0FDD0E0FED0E0FF222518C5C0
:1003630082C0E0E51934FFC583C0E0E518C3958278
:1003730024F810AF088583198582188008858319AE
:10038300858218D2AFCEF0A3E520F0A37808E60863
:10039300F0A3DEFAEFF0A3E58124FAF8E608F0A370
:1003A300E608F0A3E608F0A30808E608F0A3E608C9
:1003B300F0A315811581D0E0FED0E0F815811581F9
:1003C3001581E8C0E0EEC0E022C0D02518C582C088
:1003D300E0E51934FFC583C0E0E518C3958224F333
:1003E30010AF088583198582188008858319858253
:1003F30018D2AFC8F0A3E9F0A3EAF0A3EBF0A37916
:1004030008E709F0A3D8FAECF0A3EDF0A3EEF0A30C
:10041300EFF0A3D0E0F0A3D0E0F0A3D0E0F0A3E5A9
:1004230020F0A3E5F0F0A322851983851882E0C0AC
:10043300E0A3E0F9A3E0FAA3E0FBA37808E0F60861
:10044300A3DFFAE0FCA3E0FDA3E0FEA3E0FFA3E04B
:10045300C0E0A3E0C0E0A3E0F5D0A3E0F520A3E073
:10046300A3F5F010AF08858319858218800885836A
:1004730019858218D2AFD082D083D0E0F8D0E03291
:10048300120AADB900030204C5E49003017881792F
:100493000E8002F0A3D8FCD9FA901081AA82AB8314
:1004A300900086785F79018015E493A3AC82AD83D5
:1004B3008A828B83F0A3AA82AB838C828D83D8E953
:1004C300D9E775825C7583DC74031207FE75827548
:1004D30075831E74001207FE0975F0108E1A8F1BA8
:1004E30085821F85831E851882851983E0CEA3E04C
:1004F300CF851F82851E83EBC9EAC8EDCBECCAC347
:10050300E833C8E933C9EA33CAEB33CBC3EA9EF510
:100513001DEB9FF51CB35004AB1CAA1DEC33CCEDB3
:1005230033CDD5F0DAAE1AAF1B22D083D082ECC024
:10053300E0EDC0E0E493A3FCE493A3FDED4C600D78
:10054300120649EC24FFFCED34FFFD80EFE493A396
:10055300FCE493A3FDED4C600D1206E6EC24FFFCD6
:10056300ED34FFFD80EFD0E0FDD0E0FCE493A3C0C9
:10057300E0E493C0E022851983851882E0A3FEE0BE
:10058300A3F5207808E0A3F608DFFAE0A3FFE0A3D1
:10059300C0E0E0A3C0E0E0A3C0E0E0A3C0E0E0A3CC
:1005A300C0E010AF088582188583198008858218FA
:1005B300858319D2AFD083D082020804D083D0823E
:1005C300E9C0E0E493A3C386F0C5F095F0F908E42D
:1005D30093A386F0C5F095F0700BE493A3C3994001
:1005E30005E9048002A3E475F002A42582F582E5FF
:1005F300F03583F583D0E0F9E493A3C0E0E493C03E
:10060300E022C0E074F21203CCA2AFE433FED2AF17
:10061300E589A2E1500312192F758900C2C5EEA224
:10062300E092AF7F0102042BC0E074F21203CCA26C
:10063300AFE433FED2AFE58BA2E0500312192F755E
:100643008B00C2E880D8C0E0C3E49396087401939A
:100653009618400FE4936670080874019366187047
:10066300007019A3A3C3E49396087401939618A387
:10067300A3400DD0E0D0E0D0E0020569A3A3A3A37B
:10068300A3A3D0E0227404800474028000CCC0E0F1
:10069300EDC0E0E518C39CCCAD1950011D10AF06A9
:1006A3008C188D1980068C188D19D2AF120780D043
:1006B300E0FDD0E0FC2274028000CCC0E0EDC0E09D
:1006C300E518C39CCCAD1950011D10AF068C188DD5
:1006D3001980068C188D19D2AF12075ED0E0FDD0B9
:1006E300E0FC22C0E0C0F088F0E493667008087470
:1006F300019366187000A8F0A3A3700BD0F0D0E0AC
:10070300D0E0D0E0020569A3A3D0F0D0E022D083EB
:10071300D082CCC0E0E493A360061207C01470FA41
:10072300E493A360061208D01470FAD0E0FCE493BB
:10073300A3C0E0E493C0E022C0E074F21203CCA2B1
:10074300AFE433FED2AFC2C0E5D1A2E45003121925
:10075300A7EEA2E092AF7F0102042BCAC0E0E493AC
:10076300A3C582CCC582C583CDC583F0A3C582CC86
:10077300C582C583CDC583DAE5D0E0CA22CAC0E00D
:10078300E0A3C582CCC582C583CDC583F0A3C58252
:10079300CCC582C583CDC583DAE6D0E0CA22700911
:1007A300080808226016181818C6C333C608C633CB
:1007B300C608C633C608C633C6D5E0EA22C0E0E49D
:1007C30093A3D39C5010E493A3C39C400AD0E0D0DE
:1007D300E0D0E002072EA3A3A3D0E022C008C3E029
:1007E30096F50808A3E096420808A3E09642080895
:1007F300A3E09645087001D3D00822C09FF59FE47B
:1008030073D09F22D083D082C09FE493C0E0740151
:1008130093C0E0740293F59F227404800A740380EA
:1008230006740280027401C0E0F404120837D0E0B9
:10083300120A88222518F58210AF08F51840021510
:10084300198008F51840021519D2AF85198322BB08
:100853000102E722C082C08389828A83BB0003E04E
:100863008002E493D083D08222C0D0251810AF0831
:10087300F518500205198008F51850020519D2AF72
:10088300D0D022C0E0C0D0E8C0E0E5A8D2AFC2C754
:10089300A2E792AFD0E0F8D0D0D0E03260160808DB
:1008A30008C6C313C618C613C618C613C618C6137C
:1008B300C6D5E0EA22C3E0C696F608A3E0C696F6DC
:1008C30008A3E0C696F608A3E0C696F622C0E0E4C5
:1008D30093A36C7009D0E0D0E0D0E002072EA3A36D
:1008E300D0E022251810AF08F5184002151980082A
:1008F300F51840021519D2AF22C3E09608A3E0967B
:1009030008A3E09608A3E096A2D265D03322E0665E
:10091300701008A3E066700A08A3E066700408A3D9
:10092300E06622E76670100809E766700A0809E7BF
:100933006670040809E76622C3E096F008A3E09610
:10094300F008A3E096F008A3E096F022E026F00872
:10095300A3E036F008A3E036F008A3E036F022E681
:1009630027F60809E637F60809E637F60809E637F1
:10097300F622E026F608A3E036F608A3E036F608EA
:10098300A3E036F622C0E0E8C0E0E58124FCF8E607
:10099300A2E7D0E0F8D0E022700422600D18C6C3AD
:1009A30033C608C633C6D5E0F41822E657F608095D
:1009B300E657F60809E657F60809E657F622E05621
:1009C300F608A3E056F608A3E056F608A3E056F6A9
:1009D30022E056F008A3E056F008A3E056F008A37F
:1009E300E056F022E647F60809E647F60809E64727
:1009F300F60809E647F622E4C396F608E496F608F5
:100A0300E496F608E496F622C3E7960809E7960803
:100A130009E7960809E79622C6F4C608C6F4C6088D
:100A2300C6F4C608C6F4C622600D08C6A2E713C6FC
:100A330018C613C6D5E0F322C3E09608A3E09608D0
:100A4300A3E09608A3E0962275D00075814075183F
:100A53000175190300020483E0F608A3E0F608A376
:100A6300E0F608A3E0F622600C08C6C313C618C656
:100A730013C6D5E0F422E6F008A3E6F008A3E6F0F7
:100A830008A3E6F022CAC0E0E6F0A308DAFAD0E051
:100A9300FA22E0FAA3E0FBA3E0FCA3E0FD22EAF0E4
:100AA300A3EBF0A3ECF0A3EDF022E5C754F8440167
:100AB300F5C77901222518F582E43519F58322C299
:100AC300AF75D69F02000022120807B9E002120890
:100AD300070EE3021208075BE402120807FEE402B2
:100AE30012080745E60212080763E60212080777B1
:100AF3002200120807892200120807DB22001208CD
:100B0300073C2300120807C623001208076A2400C3
:100B1300120807BE2400120807D72400120807FD95
:100B230024001208073825001208077C2500120844
:100B330007A32500120807F42500120807A42600BE
:100B43001208075C2700120807242800120807E48C
:100B530028001208072829001208074D2900120847
:100B630007902900120807DD2900120807352B001A
:100B7300120807BB2B00120807D92B001208070322
:100B83002C001208071D2C001208072C2C00120839
:100B930007372C00120807F72C00120807502D0006
:100BA300120807122E001208071A2E00120807DE79
:100BB3002E001208074A2F0012080775300012088A
:100BC300079A3000120807103100120807A23100FB
:100BD30012080762320012080781320012080790D8
:100BE3003300120807A23300120807123400120858
:100BF300073C3400120807CA340012080703350003
:100C03001208074F35001208076B3600120807B4A5
:100C13003800120807BF3800120807CA3800120844
:100C230007D53800120807DF3800120807EA380032
:100C33001208070439001208070E390012080718B2
:100C430039001208072339001208074B390012082C
:100C530007A63900120807B03900120807D4390073
:100C6300120807F83900120807563A001208079AC3
:100C73003A00120807B63A001208072D3B00120883
:100C830007653B00120807B13B001208070E3C0042
:100C9300120807C83C00120807AC3E0012080705FB
:100CA3003F001208073540001208075B4000120896
:100CB30007E44100120807604500120807324700A5
:100CC300120807FB4800120807A849001208071377
:100CD3004B00120807B24B00120807F74B0012082B
:100CE30007614C00120807704C00120807F74E000A
:100CF300120807A95000120807165100120807F539
:100D030051001208070E53001208078B54001208F3
:100D130007AA5400120807FF5400120807045600DC
:100D23001208072C5600120807845600120807639E
:100D33005700120807A75700120807F257001208B6
:100D4300075D58001208079E5900120807025A004F
:100D5300120807505B00120807B05D00120807E194
:100D63005D00120807995F00120807EE5F00120882
:100D730007F260001208078F6100120807E861009C
:100D83001208079B62001208073D6300120807DD83
:100D930063001208078264001208078880011208A2
:100DA30007C780011208070E830112080758830141
:100DB300120807738401120807DB84011208071065
:100DC30085011208078486011208070789011208A2
:100DD30007308A01120807C68A01120807CE930159
:100DE3001208076394011208074A97011208073D86
:100DF3009801120807AB9801120807F1990112082C
:100E030007D39A01120807B89C01120807C99E016B
:100E1300120807339F0112080705A00112080733C0
:100E2300A001120807F0A001120807C7A1011208C8
:100E3300078EA20112080732A3011208075BA30160
:100E43001208077DA301120807D3A501120807ABF7
:100E5300A601120807EFA60112080757A7011208F7
:100E6300070FA80112080741A80112080785A80166
:100E7300120807BBA80112080707A9011208075C9B
:100E8300A90112080761A901120807B4A9011208F0
:100E930007D9A901120807E8AA011208074CAB01F8
:100EA300120807BCAB0112080748AC01120807156A
:100EB300AF01120807F9AF011208077CB10112084C
:100EC30007B2B30112080760B40112080710B50195
:100ED30012080751B701120807F4B7011208073BBC
:100EE300B801120807E7B901120807FBB901120894
:100EF3000705BA011208072DBA0112080739BA010A
:100F030012080758BA0112080778BC01120807C76C
:100F1300BD011208070BBE01120807B3BE01120878
:100F23000796BF0112080741C0011208078DC101CE
:100F33001208078BC20112080731C301120807C147
:100F4300C301120807D8C3011208070FC40112080E
:100F53000719C40112080724C40112080742C40177
:100F630012080786C401120807E3C4011208070820
:100F7300C50112080722C501120807AEC5011208F0
:100F830007CBC60112080738C7011208071FC8019B
:100F930012080746C801120807BAC8011208073524
:100FA300C90112080739CA011208072FCB01120819
:100FB30007DECB01120807F1CC011208078DCD0122
:100FC3001208071ACE01120807F8CE0112080730DB
:100FD300CF0112080788CF0112080751D001120868
:100FE3000772D001120807F9D0011208071DD101B9
:100FF3001208073FD10112080788D1011208079E82
:10100300D30112080785D40112080736D501120847
:10101300076CD701120807BCD701120807FCD701D8
:101023001208073ED8011208079AD801120807C808
:10103300D801120807ECD8011208073FD90112089A
:10104300076DD901120807A6D901120807FBD901B8
:1010530012080761DA01120807B5DB01120807D885
:10106300DD0112080745DE011208076EDE011208D2
:1010730007F9DE0112080760DF01120807ABDF0181
:10108300120807CFDF01120807F3DF011208074E2A
:10109300E00112080769E00112080722E1011208C2
:1010A3000704EB0312080743EB03120807788002D7
:1010B300120807BE80021208079E8102120807A0C9
:1010C3008202120807A383021208072F850212085F
:1010D300078D85021208074A8602120807688702ED
:1010E300120807D987021208071588021208076336
:1010F30088021208076D8802120807B188021208D5
:10110300070D8902120807A88902120807258A0217
:10111300120807F48A021208078D8B02120807AD22
:101123008B02120807E38B02120807148C021208C1
:1011330007D58C02120807E58C02120807398D02C5
:10114300120807548D02120807668D021208076FF2
:101153008D02120807C98D02120807258E02120894
:1011630007718E021208078C8E02120807BD8E02C9
:10117300120807DA8E02120807E68E021208075ACF
:101183009002120807739002120807DA90021208FD
:1011930007ED9002120807FB9002120807AF9102B5
:1011A3001208079392021208079993021208072361
:1011B30094021208072D94021208079A9402120847
:1011C30007B19402120807E394021208071C950260
:1011D300120807469502120807A79502120807C7C7
:1011E3009502120807E595021208072B96021208CA
:1011F300075197021208079E9702120807CD97021C
:101203001208074398021208076B9802120807A4F2
:101213009802120807B298021208070A99021208E4
:1012230007599902120807989902120807C89902E8
:10123300120807F49902120807FF99021208071D02
:101243009A02120807DF9A02120807E99A021208A3
:10125300072A9B021208077F9B02120807939B022F
:10126300120807A19C02120807B49C02120807C9BE
:101273009C021208076B9D02120807EE9D021208DA
:1012830007AC9E02120807B79E02120807E39F02EB
:10129300120807FF9F0212080751A00212080790C5
:1012A300A002120807A5A00212080707A10212084C
:1012B3000796A102120807E1A10212080732A4024D
:1012C300120807B0A40212080725A502120807474F
:1012D300A7021208075FA70212080762A7021208F3
:1012E300076EA70212080782A7021208078AA7023D
:1012F300120807BDA7021208076DA802120807E328
:10130300A80212080756A9021208070AAA0212081D
:1013130007BFAA02120807DEAA0212080784AB025B
:10132300120807AFAB02120807B2AB021208071C80
:10133300AC0212080744AD021208071CAE021208E1
:1013430007A7AE02120807C0AF021208077DB0025A
:10135300120807B6B002120807E7B002120807A581
:10136300B102120807D5B102120807B0B20212087F
:101373000749B302120807D4B30212080785B4025F
:1013830012080708B5021208073AB5021208077BCC
:10139300B502120807E6F4011208074BF50112081B
:1013A3000788F501120807D7F501120807EDF701C1
:1013B300120807D0F9011208073AFD011208077550
:1013C300FD0112080797FD01120807FAFD01120833
:1013D300072EFE0112080751FE011208077EFE01C7
:1013E300120807DAFE01120807278D03120807BD4A
:1013F300D702120807DB8D03120807478E03120872
:1014030007BA8F03120807D68F031208071B90032E
:10141300120807A990031208070291031208072F65
:1014230092031208074193031208079E93031208BD
:10143300070A94031208076B9403120807AC94037A
:10144300120807599503120807D7DF0212080796F7
:101453009603120807E19603120807289703120858
:1014630007BA9703120807759803120807EDCF030D
:1014730012080768D00312080773D00312080794F1
:10148300D00312080730A0031208077CA003120838
:1014930007EAA0031208070BA103120807BBA10365
:1014A300120807C4A10312080717A2031208074072
:1014B300A203120807A7A20312080738A3031208FE
:1014C300077AA303120807C4A30312080723A4037C
:1014D3001208074FA403120807E0A4031208071F0A
:1014E300A5031208075EA50312080793A5031208B4
:1014F30007A5A503120807B7A503120807D6A50376
:10150300120807DFA50312080795A603120807D5DB
:10151300A60312080726FF011208072ADA03120896
:101523000760DA03120807A9DA03120807F9DB03D5
:101533001208075CE1011208079BE201120807D7B2
:10154300E20112080796E401120807BFE40112083A
:101553000752E70112080796E7011208071FE9017E
:10156300120807B7E9011208071FEA01120807C0AA
:10157300EA0112080702EB0112080742EB01120805
:1015830007CDEC011208073DEE0112080762F001D6
:1015930012080790F001120807B7F001120807C0FC
:1015A300F00112080747F10112080765F401120858
:1015B300071CEC0312080732EC03120807B9EA030D
:1015C30012080788CC031208079BCC0312080738BC
:1015D300CD0312080773CD031208078ECD0312083B
:1015E30007B3CD03120807F8CD0312080729CE036A
:1015F3001208075ACE03120807E0CF031208070D9B
:10160300E80312080743E8031208075FE803120818
:1016130007A1E803120807B1E8031208071BBA037E
:10162300120807F2BA031208079FBB03120807DD6B
:10163300BB0312080733BD031208079FBD0312083B
:10164300070080031208075580031208073E810331
:10165300120807D781031208072182031208077EA5
:101663008203120807928203120807C48203120836
:1016730007C28303120807068403120807218403A1
:10168300120807708403120807868403120807935D
:101693008403120807C78403120807E084031208AF
:1016A30007AA850312080704860312080752860354
:1016B300120807748603120807EB88031208072031
:1016C3008903120807B08903120807258A03120841
:1016D300072A8A03120807668A03120807BC8A03CB
:1016E300120807808B03120807A58B03120807AFA4
:1016F3008B03120807B28B031208073B8C031208F3
:1017030007568C03120807698C03120807A48C037D
:10171300120807A78C03120807B28C03120807EEFE
:101723008C031208076CEA0312080784EA03120801
:1017330007EC98031208073B9903120807DD9A0385
:10174300120807999C03120807E19C03120807C9B2
:101753009D03120807FA9E031208071C9F03120831
:1017630007789F03120807FC9F03120807CE640043
:10177300120807EF64001208076C6500120807F1EE
:1017830065001208076D6600120807D66600120886
:1017930007226700120807A16700120807336800D1
:1017A300120807BF68001208070169001208074AF8
:1017B3006D00120807CA6E00120807A06F00120816
:1017C30007CF6F00120807BA71001208073A7400B6
:1017D300120807F37400120807107600120807674F
:1017E3007900120807777900120807D87A001208DF
:1017F30007647B001208078D7C001208077E7D00BA
:10180300120807007E001208078AE602120807443E
:10181300E702120807B6E70212080752E8021208A5
:1018230007C2E8021208077BEB0212080752EC0218
:10183300120807BFEC021208073CEE021208070663
:10184300EF0212080776EF021208073FF1021208AF
:101853000752F202120807EBF202120807B1F30271
:10186300120807E4C10312080738C20312080790DD
:10187300C203120807DBC2031208073DC3031208A1
:1018830007A9C3031208075CC4031208079DC40316
:10189300120807B3C4031208070FC5031208074D44
:1018A300C50312080761DE0312080792DE0312085C
:1018B300074CDF03120807B2DF03120807D5DC0366
:1018C30012080742E70312080753E703120807F356
:1018D300E7031208075CFE021208076AFE021208F9
:1018E30007E8FF021208075BE9031208076BE90325
:1018F30012080786E903120807E7E90312080740FD
:10190300E603120807C5E60312080729E7031208CE
:10191300073BE0031208075DE003120807C3E00377
:10192300120807E3E00312080729E10312080784FA
:10193300E103120807BBE103120807D0E103120811
:101943000744E2031208075EE20312080771E20389
:101953001208077FE20312080799E203120807B986
:10196300E2031208077EC5031208078CC503120899
:101973000706C603120807EAC603120807A3C8032B
:10198300120807FAEB03120807FEA6031208076AF8
:10199300A70312080729A80312080733A90312088B
:1019A300078CAA03120807E7AA031208073CAB0334
:1019B30012080745AB0312080757AB03120807C108
:1019C300AB03120807D5AB03120807DFAB031208FA
:1019D30007B0B00312080705B10312080701B303E8
:1019E30012080733B30312080755B3031208076E2F
:1019F300B30312080787B30312080791B40312084D
:101A0300072CB503120807987E00120807BC7E0056
:101A1300120807D57E00120807087F00120807394D
:101A23007F00120807677F00120807C97F001208AA
:101A330007D87F00120807E27F00120807EF7F0034
:101A4300120807B9D203120807DFD2031208071CD2
:101A5300D3031208072BD3031208074AD303120830
:101A630007B2D303120807BBD3031208071AD40320
:101A73001208073ED403120807FDD4031208070A0D
:101A8300D5031208071BD50312080791EB031208AD
:101A930007AEEB03120807A3B503120807FBB6034F
:101AA30012080708B7031208071BB7031208073AFF
:101AB300B70312080750B70312080764B7031208E5
:101AC30007D9B7031208073EB803120807EEB80395
:101AD300120807C3B903120807D3B903120807E2B0
:101AE300B903120807C2E803120807E6E80312085D
:101AF300070EE90312080736E903120807CBD703D9
:101B0300120807F2D70312080713D803120807783D
:101B1300D80312080749D50312080762D503120830
:101B2300076ED50312080782D503120807A0D50351
:101B3300120807AAD503120807B4D503120807C76A
:101B4300D50312080729D60312080762D603120821
:101B53000791D603120807DFD6031208072ED7030F
:101B630012080749D70312080753D7031208077A45
:101B7300D703120807C0D703120807F1E9031208B5
:101B8300070DEA031208073CEC0312080705F502E8
:101B93001208072FF5021208074BF5021208075E19
:101BA300F50212080774F502120807D1F5021208AC
:101BB3000704F60212080745FA021208076BFB0234
:101BC3001208079EFB02120807EAFB021208072C01
:101BD300FD0212080754FD0212080769FD021208EC
:101BE3000779FD02120807BDFD021208071EFE0257
:101BF3001208072EFE02120807EEE2031208070975
:101C0300E30312080732E3031208074CE303120845
:101C13000771E30312080790E303120807A8E3031D
:101C2300120807D6E303120807F0E3031208074D6F
:101C3300EB0312080708C9031208070FC9031208A8
:101C4300071BCA031208074BCA0312080771CA030A
:101C530012080794CA03120807B6CA03120807F04A
:101C6300CA0312080756CB031208078FCB031208C7
:101C730007DBCB0312080708CC0312080728CC03A1
:101C830012080734E5031208074CE5031208073A64
:101C9300E6031208073DE60312080721E4031208CE
:101CA3000793E403120807D1E40312080712E503BC
:101CB30012080723BE0312080742BE031208079146
:101CC300BE03120807ADBE03120807DEBE031208E7
:101CD30007EBBE03120807F8BE03120807E4BF03AD
:101CE30012080722C00312080732C1031208073D76
:101CF300C1031208074FC10312080758C103120892
:101D03000762C103120807F3AB0312080738B003D5
:101D130012080746B003120807CDEB031208078623
:101D2300D602120807DAD50212080720D4021208D5
:101D330007D0D10212080757D102120807FED002BA
:101D43001208078ED00212080765D0021208074551
:101D5300CE0212080711CE02120807DECD021208C6
:101D630007C2CD02120807DBCC0212080793CC028C
:101D7300120807DECA021208075ECA021208075BCE
:101D8300CA0212080758C90212080726C902120814
:101D93000763C8021208078EC6021208071FC6028D
:101DA300120807BBDF021208073FDF02120807F61B
:101DB300DE02120807AEDE02120807FCDD0212087B
:101DC30007F1C502120807EEC502120807DBC502B8
:101DD30012080786C5021208076EDD02120807758E
:101DE300C50212080767C40212080731C4021208A9
:101DF30007DFC30212080761DD021208076B9603AF
:101E030012080780C3021208074FC30212080717FC
:101E1300C002120807D7BF02120807CBBF0212087D
:101E2300072BBF021208076BBE02120807EDBB02A5
:101E33001208077EB9021208073CB90212080710FC
:101E4300B802120807C5B70212080704B70212083E
:101E530007D7B6021208071AB602120807B0B5026E
:101E6300120807EAB5021208075BDA02120807A58F
:101E73008D0300000080FBE473000136360101008E
:101E8300010201000103010001040106060502002D
:101E930000070100340801000F090401010D0100CE
:101EA300FF0E08000017020000190100FF1A0100CD
:101EB300011B0100FE1C0100081D0200001F0100A0
:101EC3000120010001210200002301000F24020070
:101ED300002601000127010008280200FF2A010053
:101EE300072B0102402C0100002D0100012E0100EF
:101EF300012F0100FF30010B1C310800003A0100E3
:101F0300083B01000F2F01000001017101010101D4
:101F13000111010101310101010101800110016180
:101F2300013B00140063017301720162014301006C
:101F330001130106013D01350004011201000100F6
:101F4300010001000104010401330133013C014498
:101F530001320136000001000165010001350081F5
:101F630001000105018201830100010304710402E0
:101F73000460041104700402040204010402041046
:101F830004610400041404630473047204620443CC
:101F930004000413040604000400040404120400EF
:101FA300040004000400045104640000040004005D
:101FB3000444040004000400040004650400043520
:101FC3000481046400050400048304000403027113
:101FD3000230016002110270020102020202028059
:101FE30002100261023A004100630273027202624C
:101FF300024302000213023800000200020402122C
:102003000200020002000200020402040237003749
:10201300003C024402000239000002000265020093
:1020230002350281020002050282028302000201DC
:1020330003710301030103010301030103220302EB
:102043000301031003000300030003000300030064
:1020530003000342030003240306030003000304F5
:1020630003120325032303250323030403040300AB
:102073000300030003440300030003230300036579
:10208300032100350381030003050300030003005C
:102093000303007100300160001100700031022061
:1020A30003500480001000610000001400630073FB
:1020B30000720062004300000013000600000000ED
:1020C30000040012000000000000000000040004EF
:1020D30000370037003C024400000000000000000D
:1020E300006500000035008100000005000000834A
:1020F30000000036000100060000000F0000000091
:1021030000000000000000000003FFFF00000403C4
:10211300FFFF0000FFFF0FF4010005C404032000CC
:102123000100140B000000000000000003010F0079
:102133000021181300C1170100211802008B170397
:102143000091170400971705009D170600A917FFB4
:10215300FF000001E30D06130E080D0E0B1F0E10FA
:102163005F0D02E90D05010E07EF0D0CC50D0DD72F
:102173000DFF0000EB111B12F111F71115120912DB
:102183000312211227122D123912FD11E511DF114D
:1021930000160F00000B150B020002220F32000085
:1021A30006D512E712ED12B511F312AF11BB1114DC
:1021B3000AE5D5C5B5A5A595858575652F134D1379
:1021C3005313351341133B13EF10E91025112B1152
:1021D3001F11D71000011916181616152303000C2A
:1021E3000E020B040B0A0708000F303017181921D1
:1021F300301B1D1F3000034948424D1817250502A7
:10220300303016181920231A1C1E3000383C3E3675
:102213003B3B352B432C0F12331247133F1245120E
:102223002313F912FF120B13051302040201010118
:10223300010902FB100111F510311100000000002B
:102243000000BE040A071119111500FA06B2210491
:10225300007F00E8030C000E0028000000000001CE
:1022630008100C0A0308090004000CFF1E1E0508D1
:102273000403100FC082C0838A828B83E0D2E7F00D
:102283001216EF0233EEC082C08379001227431285
:10229300545AC082C0839003341241E0D083D08269
:1022A300C3E09CA3E09D500C125B2EFAA3E0122224
:1022B300BA6001090233EEFBEA75F00BA4FAA8F049
:1022C30075F00BEBA428FB900336E02AF8A3E03B60
:1022D3008882F583E0540F2274F712036089081291
:1022E30027431227E9ACF075F00BE9A42CF990030E
:1022F30036E028FEA3E039FF740165086006740226
:10230300650870208A828B831227D51234BC74022D
:102313006508701B12269412281C70138E828F83FB
:10232300E4F0800BEA2403FCEB1227B71227C3EE79
:10233300FAEFFB120AEF02342674F41203601264FC
:102343005579008E828F83E06076890A890B8065D8
:10235300E50A75F00BA4FAA8F075F00BE50B122251
:10236300C77046E50A75F00BA4F8AAF075F00BE503
:102373000B1227FB8E828F83E085088285098312E7
:1023830028DD850882850983A31234BCEE2403FC6F
:10239300EF1227C01233F5124ED4AA08AB09120A62
:1023A300EF79019003341248E9E50A2401F50AE5BF
:1023B3000B3400F50B12269CE50A9AE50B9B409023
:1023C30002366674F5120360EAFEEBFF740B120A21
:1023D300B81233FA750A01EC4D602BEC126471EDFF
:1023E30012545A1234B47901120AFBE50845096004
:1023F3006F850882850983A312645F7902AA08ABFB
:1024030009120AFB805AE5084509602B12545E1233
:102413003B281233F6122806700CEEFAEFFB120B70
:1024230001E9F50A80CBEE2403FA12273E703179D5
:1024330003EEFAEFFB80CA8E828F83A3E064FE7003
:1024430003A3E0F4700BEE24030A0A0A12273E707A
:102453000CEEFAEFFB120B01E9F50A8003750A0093
:10246300A90A7F0302057974F712036090033412FB
:102473003436EA4B602FEA75F00BA4FAA8F075F036
:102483000BEBA428FBEAFEEBFF1215279003361291
:10249300343690033612472E6012EEFCEFFD7900BE
:1024A3001214918007900336E4F0A3F002342690CF
:1024B3000334123E98C3EE98EF9922C082C083EC96
:1024C3004D6005121CAD80097C087D007900121453
:1024D300910233EE74F61203607900EA4B601878C8
:1024E3000088081257A1EB125B2A6004790178086F
:1024F30008E8C3940840EA0234C574F71203607411
:10250300F31208E6ECFEEDFF851882851983E4F0EB
:1025130004120AB8EAF0A3EB124C5A7403120AB875
:10252300AC82AD83EEFAEFFB120B13EEFAEFFB1264
:102533000B1902342174F712036074F31208E6ECEA
:10254300FEEDFF851882851983E4F0EAFCEBFD7448
:1025530003120AB81228D67401120AB81234B08EC4
:10256300828F831234BC74FE68700374FF69600445
:1025730079018002790002342174F7120360EAFEC4
:10258300EBFF1225DA70141225E58E828F83E0F4B7
:10259300F88A828B83E058F0120AEFA908023426E6
:1025A30074F7120360EAFEEBFF7508008E828F83D7
:1025B300E060221225DA701D1225E58A828B83E002
:1025C3008F838E82F8E058700CE0F88A828B83E068
:1025D30048F0120AEF80C4120AF5E9F508740165A0
:1025E300082212646A1227ED12272FFAA3E039FB9F
:1025F3002274F41203608A088B097C007D00122682
:10260300941227C312275412645C790085088285CB
:102613000983A3E064FE7003A3E0F460717E007F8E
:10262300008062EEFAEF1222BA6057EEFAEFFBEA8D
:1026330075F00BA4FAA8F075F00BEBA428FB90033C
:1026430036E02AF50AA3E03BF50B8508828509836A
:10265300A3124BA8850A82850B83A3E06A7003A3A8
:10266300E06B701EE50A2403FAE50B12273F700A9C
:10267300E50A2403FCE50B1227C01227487901124F
:10268300547012303312269CEE9AEF9B409502361B
:1026930066EA24030A0A0AEB22900334125047C362
:1026A3002274F31203608A088B098A828B83A31234
:1026B300645F12274312645C750C00122694122780
:1026C3003F70547E007F008049122721FAA3E0392E
:1026D3008A82F583E0540F6036122721F50AA3E0BE
:1026E30039F50BE50A2403FCE50B1227CA3400FB7A
:1026F300121CA7E964017017850A82850B83A31254
:102703005108A31234BC122748750C0112547012DD
:1027130030331224B240B2A90C7F05020579EEF8DA
:10272300EFF9E875F00BA4F812272F22AAF075F041
:102733000BE9A42AF9900336E02822EF1228162287
:10274300126470EB2212275412546BEEF0A3EFF0D5
:1027530022E508126471E5092274F5120360EAFEAA
:10276300EBFF8E828F83A312645F7C007D00EE24D7
:10277300030A0A0AEF1227C3EEFAEFFB120AF5E97E
:10278300F50A7401650A702912646A1227E9AAF02E
:1027930075F00BE91227FB850882F5831227D51202
:1027A3002806700DE5082403FCE5091227B7122754
:1027B300C30224633400FDEE2403FAEF221227CA76
:1027C3003400FB120B13223400FDE5082403FAE561
:1027D3000922A31227DA221227DE22E0F8A3E0F966
:1027E3008E828F83A3221227ED223400F583123EBB
:1027F3009CE875F00BA4F822122735F508A3E039FD
:10280300F50922E8F0A3E9F0E5082403FAE5091243
:1028130028162212281C6401223400FB120B19E92A
:102823002274F312036074E61208E6126455750C01
:1028330001750800750900750A00750B008518827B
:10284300851983E4F0EE2403FCEF3400FD740312D6
:102853000AB81228D6E964017023740B120AB8125D
:1028630034B47401120AB8124BAC7003A3E069606C
:1028730051851882851983858208858309740D1211
:102883000AB8E41228DD740E120AB81234BC740DAF
:10289300120AB8AA82AB83120B37E96401700B7476
:1028A3000D120AB885820A85830B780A120824ACB4
:1028B30008AD09EEFAEFFB120B07740212086CE97C
:1028C300F50CEEFAEFFB120B31A90C741A12086C1B
:1028D30002271C122BA9120B3D22123431123E98EF
:1028E30022C082C0837800790080031229D4122683
:1028F3009CE89AE99B5029E8FAE9FBEA75F00BA4F6
:10290300FAACF075F00BEBA42CFB900336E02AFC39
:10291300A3E03B8C82F583E0540F70CF79008002F3
:1029230079010233EEC082C08390224C123EEEEC5A
:1029330075F012A4FCA8F075F012EDA428FD79FF40
:102943007A297B0B1214910233EE74F7120360E9B8
:10295300FEEAFF7A007B00780079008028E8FCE932
:10296300FDEC75F012A4FC85F00875F012EDA425BA
:1029730008122DE9C39E400AE0FCEFC39C400312FA
:102983002F081229D4122DDD40D3023426C082C071
:10299300837800790080031229D41229C8501F12AA
:1029A3002DEDF470F2E875F012A4F8AAF075F012A8
:1029B300E9A42AF9742928FA740B39FB80047A00F4
:1029C3007B000233EE90224C122E9EC3E89AE99BC1
:1029D30022E8240108E93400F92274F01203607438
:1029E300F31208E68A0A8B0B8C0C8D0D8908EC45D3
:1029F3000D6016AA0CAB0D120B8B8A0E8B0FAE0E4D
:102A0300AF0FEE4F6003022A9B120B618A0E8B0FEE
:102A1300A80EA90FE8FEE9FFE849607C9022601246
:102A23002AFD602274036508600674046508701645
:102A33007A047903120B5B902260122B1440077AFD
:102A4300007B00022AFA90225E122AFD601B7401A9
:102A53006508600674026508700F7A027901120B2B
:102A63005B90225E122B1450D685188285198374CD
:102A730001F0120AB8124ED4AC0CAD0D7403120A55
:102A8300B8122BA2740B120AB812340212389CE447
:102A9300124EBC12102F8004EE4F604A780074FF70
:102AA3002508C39404500278048E828F83124ED477
:102AB3008E828F83A3A3A3A3E508F0E88E828F837E
:102AC300A3A3A3A3A3124EDC12020F122EB58E8270
:102AD3008F83A3A3A3A3A3A3A3F0122EAC120A95DF
:102AE300125454120AA1122B024005901085E4F0EF
:102AF300120F09EEFAEFFB023EA2124FF649227AB9
:102B0300047900120B5B90224C125B10EA98EB994C
:102B130022122B2D75832275824CE493C398F8A35C
:102B2300E49399F9C3EA98EB9922E493F874019337
:102B3300F92274F212036074F31208E68A088B090F
:102B4300ECFEEDFF750A00EEFAEFFB120B8B8A0C1D
:102B53008B0DA80CA90DE849603E88828983E06546
:102B6300087004A3E06509602F88828983A3A3A367
:102B7300A3E0C3940550211253028518828519835B
:102B83007401F0120AB8125306EEFCEFFD7403123F
:102B93000AB8122BA2750A01A90A740D0249A012E0
:102BA3002BA9120B4922AA82AB83120B138518821D
:102BB300851983AA82AB832274F6120360122BF762
:102BC300600FA3A3A3A3E014C3940450047901806A
:102BD3000279000234C574F6120360122BF7600FFA
:102BE300A3A3A3A3E014C394025004790180027940
:102BF300000234C5120B858A828B83E582458322CA
:102C030074F6120360122BF7600BA3A3A3A3E07067
:102C1300047901800279000234C5C082C083EAFCD2
:102C2300EBFD7A007B000233EBC082C0837C007D26
:102C3300000233EB74F412036074F31208E6EAFE45
:102C4300EBFF8C0A8D0BC3EC94F8ED94FF4007EE79
:102C53004F7003022CF0750800750900802E85184B
:102C6300828519837401F012305B120AB81230693D
:102C730060137403120AB8AC82AD83EEFAEFFB1251
:102C83001CA7E97049E5082401122E8990224CE41F
:102C9300124FFEE50898E509995052E50875F012C0
:102CA300A4F8AAF075F012E509A42AF9125B4360AF
:102CB300D4EE4F70A974FF650A700474FF650B604E
:102CC300C412304B650A7004A3E0650B70B7E508C6
:102CD30075F012A4F508A8F075F012E509A428F51B
:102CE3000974292508FA740B3509FB80047A007BE3
:102CF3000002366174F412036074F31208E6750877
:102D030000120B8B8A0A8B0BAE0AAF0BEE4F602AB5
:102D1300851882851983740112342BF8A3E0F974A2
:102D23000B120AB812353F120B2B7C127D0079FF70
:102D3300EEFAEFFB121491750801122B0250099061
:102D430010857401F0120F09A90802366174F71295
:102D53000360E9FE74FE6A700374FF6B7800790008
:102D6300700580521229D4122DDD504AE8FCE9FD8A
:102D7300EC75F012A4FCAFF075F012EDA42F122D38
:102D8300E9F460E0E8FCE9FDEC75F012A4FC75F0F1
:102D930012EDA42FFD74292CF582740B3DF583E00D
:102DA3006A7003A3E06B70BC8009122DED14C39409
:102DB3000440171229D41229C85018EE70EC122DB2
:102DC300ED64016005E0640370E912303CFAA3E0AE
:102DD300FB80047AFE7BFF02342690224C123EF2E3
:102DE300C3E89CE99D22122F3D22E8FAE9FBEA752C
:102DF300F012A4FAACF075F012EBA42CFB742D2A9C
:102E0300F582740B3BF583E022120B9D0233EEC077
:102E130082C083790180F274F01203608A0A8B0BFB
:102E23007A047901120B5B8A0C8B0DEA450D603E27
:102E3300EAC333FAEB33FB1215278A088B09AE0872
:102E4300AF09EE4F60237AFE7BFF120BA374FE6A79
:102E5300700374FF6B601B85088285098312343607
:102E6300E5082402122E8980E1750C0080047E009F
:102E73007F00850A82850B83E50CF0EEFAEFFB02F7
:102E83003EA7E5082407F508E5093400F509229073
:102E9300224C123EF2C3EA9CEB9D22E493FA7401A6
:102EA30093FB22121485740322125465E4F090807C
:102EB3005F22E88E828F83A3A3A3A3A3A3A3A3125A
:102EC3002ED77401122ED7A3F0EE2410125468E407
:102ED300F0A3F0221238A8A3A3A322C082C0837A4E
:102EE300007B00800419122F08122E925010122F0B
:102EF30027C3940550F0E970EC122F1180047A0077
:102F03007B000233EEEA24010AEB3400FB22EA756C
:102F1300F012A4FA75F012EBA428FB74292AFA74B0
:102F23000B3BFB22EAFCEBFDEC75F012A4FCA8F0D2
:102F330075F012EDA428122F3D22FD742D2CF5827D
:102F4300740B3DF583E02274F712036074F31208E7
:102F5300E67E007F00022FEFE50875F017A4F8A9BD
:102F6300F0125DA4FAA3E0FBEEF8EFF9E875F012B6
:102F7300A4F8ACF075F012E9A42C12304A6A70037D
:102F8300A3E06B603FE50875F017A4F8AAF0EA1216
:102F93005DA3F8A3E0F97401120AB8E0687003A313
:102FA300E0696020E50875F017A4F8EAF974A5282C
:102FB300FC740C39FD7403120AB8AA82AB83121C89
:102FC300A7E96014E50875F017A4F8A9F074A3281D
:102FD300FA740C39FB12103B0508902264E493F851
:102FE300E508C3985003022F5B12303390224C1232
:102FF30060EA5039EEF8EFF912303CF47003A3E0C5
:10300300F460E68518828519837401F0EEF8EFF910
:10301300E875F012A4F875F012E9A42AF912305BEE
:10302300120AB812306960C175080080AD023421FC
:10303300EE24010EEF3400FF22E875F012A4F8AA83
:10304300F075F012E9A42AF912304F22742928F5F9
:1030530082740B39F583E022742B28F582740B39C3
:10306300123E96740B22E8F0A3E9123547120B4384
:10307300E922C082C08390033D74FBF0A3740DF07A
:1030830090033F74F5F0A3740DF09003437415F0AF
:10309300A3740CF00233EE74F7120360EAFEEBFF45
:1030A300900377E06408601BE0640460168E828FEF
:1030B30083E05403640170481233F512399DE064D0
:1030C30006703D8E828F83A3A3E064FE7003A3E0AA
:1030D300F4602D8E828F83A3A31234B0900368E033
:1030E300687003A3E069700BEE2415F582EF125BA1
:1030F3002A6008120EA9E9F5088008120EAF80F6BF
:103103007508C2EEFAEFFB12152D02259E74F41218
:1031130003608A088B098A828B83E0F8A3E0FAE8CC
:103123002AFAE43400FB1215278A0A8B0BAE0AAF86
:103133000BEE4F6063850882850983E0FC7D00798F
:10314300001214918E828F83A3A312645F120EEB7D
:103153008E828F83A3A3A3A31234368508828509A5
:1031630083E0F8EE28F8EF34001234B8850882853E
:103173000983A3E0C0E0EE240D125457D0E0F0120F
:103183000EFDEE240E125457E9124B09E0C0E0EE97
:103193002411125457D0E0F0EEFAEFFB02366674B6
:1031A300F612036074EB1208E6EAFEEBFF12472BFC
:1031B30060030232467A077B001215279003391207
:1031C300343612472B60788E828F83120A959003D0
:1031D3003A1239A0120AA1126323C0E0123252D06C
:1031E300E0F0EE2405FAEF3400FB8A088B098A82AB
:1031F300F583E0C0E012324DD0E012365DE0C0E06E
:1032030012324DA3D0E01234A2120A95851882859A
:103213001983120AA188828983E0C0E07405120A27
:10322300B8D0E0F0850882850983E0C0E074041219
:103233000AB8D0E0F07407120AB81233888006790E
:10324300108002790174150234C2123252A3229003
:103253000339E0FAA3E0F5838A82A3A3A3A322C0E0
:1032630082C08312472B600D9003391250359003AF
:1032730039E4F0A3F0120E19120FDB0233EE74F0EF
:1032830012036074EB1208E6ECFEEDFF8908742567
:10329300120AB8780C120A5B7429120AB8E0F9749E
:1032A3002A120AB8E0FC742B120AB8E0FD740F6905
:1032B3007005740F6C60129010CAE0640270057997
:1032C300C1023383E9C39C40F6900378780C120A59
:1032D30079E50890037EF0E990037CF0ECA3F0ED30
:1032E30090037FF074FF6A700374FF6B701D90107E
:1032F300D5E0F47003A3E0F4700512149D800C90E4
:1033030010D512340BE8F0A3E98007900375EAF0B7
:10331300A3EBF0EE4F6017EEFAEFFB12109BE9649C
:1033230001700BEEFCEFFD7A897B03121CAD900359
:1033330068E4F0A3F090036BF0A3F0900388F0909F
:1033430010CAE06402700890037C740FF0A3F0903D
:1033530003777405F014120AB8E4F0900378120AA4
:1033630095851882851983120AA190037EE0C0E037
:103373007405120AB8D0E0F07407120AB812338841
:103383007415023EA4E4123547121CD722C082C032
:1033930083900338E070031217BB120BE5804CC017
:1033A30082C083900338E09010847004E4F0802D91
:1033B3007401F0900338E0F460237C41E0C394414E
:1033C3005002E0FCECF8E0C398F0EC75F0E8A4CC14
:1033D300A8F075F003A428FD7A80123EFA7A847B64
:1033E300107941121CC58003120B91D083D0820245
:1033F3000804EE12546622E0F508A3E0F509221250
:103403003406221227DEA322123E989003752274FB
:10341300F7120360EB90037FF0120E078005740D23
:1034230012086C7F01020579123431A3E0221234B1
:10343300A2A322EAF0A3EBF02274F712036074F85C
:103443001208E6EAFEEBFF7900900377E064087068
:103453004485188285198374FDF0A374FFF0120E5E
:10346300E57402120AB81234367405120AB8E4126B
:103473003431E0C0E07404120AB8D0E012349DC0C5
:10348300E07406120AB8D0E0F07407120AB8E41226
:103493003543120F2774080234231234A2E022F0BA
:1034A3008E828F8322F085188285198322123E989B
:1034B30022E0F8A3E0F9125465E8F0A3E9F0221240
:1034C300086C7F02020579C082C08390034974A50A
:1034D300F0A3740CF09003EF7481F0A3740FF090D9
:1034E300034D74DBF0A3740CF090034F74A5F0A3A9
:1034F300740CF090035174E1F0A3740CF00233EEFA
:1035030074F412036074F91208E68A088B098C0AB2
:103513008D0B8518828519837808120A7974041231
:103523000AB8E9F07405120AB8E4F07406120AB88E
:10353300E4123543120BCD7407023663E8F0A3E9B6
:10354300123547221234A8AA82AB832274F41203E1
:10355300608A088B098A828B83125473EE4F70033F
:1035630002365B90031212472E60158A828B83A367
:10357300A3E0F9EEFAEFFB9003131239A0121E7ABF
:103583008E828F83A3A3A3A3A3A3A3A3A3E0640215
:1035930070748E828F83A3A3A3A3A3A3E0540270AA
:1035A3000302362D850882850983A3A3E064E960BD
:1035B300798E828F83A3A3A3A3A3A3A3A3A3A3E02F
:1035C30070149010CDE0048E828F83A3A3A3A3A3D2
:1035D300A3A3A3A3A3F08E828F83A3A3A3A3A3A3D5
:1035E300A3A3A3A3E01412365DA3A3A37404F090D2
:1035F30010CE124EAEE8F0A3E9125F878B0BEA45BB
:103603000B70031259658E828F83A3A3A3A3A3A375
:10361300A3A3A3E0640260128E828F83A3A3A3A358
:10362300A3A3A3A3A3E06406702E8E828F83A3A318
:10363300A3A3A3A3E0A2E0501F850882850983A367
:10364300A3E0F9EEFAEFFB121D5B8E828F83A3A337
:10365300A3A3A3A3E054FEF080091238A422740D9F
:1036630012086C7F0402057974EC12036074DD1296
:1036730008E6EAFEEBFF8C088D097437120AB87866
:103683000C120A5B750A007405120AB8AC82AD838A
:10369300120ACB7412120AB8E070087415120AB831
:1036A300E060207405120AB8E0A2E6501E8E828FF5
:1036B30083A3A3A3A3A3A3A3A3A3124BA8120F5D46
:1036C300E960087903121C9502388A7405120AB856
:1036D300E0540C64047005750B018003750B00E066
:1036E300A2E55035750A01E50BA2E0402C120EEB62
:1036F3008A108B11A810A9111233F5E0687003A387
:10370300E06960157405120AB8126466124BA412BC
:103713001D67E96004790480AC7405120AB8E0A25D
:10372300E650227406120AB8E054037018740512A6
:103733000AB8E0540C640C600CE0540C6408600597
:1037430075100180037510007405120AB8E0540364
:10375300F8740268700C126466124BA4120ADD023C
:10376300388A740168703AE510A2E0500312389267
:103773007405120AB8A882A9837403120AB8E8F080
:10378300A3E9123E8C85188285198312389CE0C008
:10379300E07402120AB8D0E0123543121E4B02380D
:1037A3008AE8600302388A90035FE0640170108E38
:1037B300828F83A3A3A3A3A3A3E070030237187488
:1037C30022120AB87402123E8C741A120AB8123406
:1037D300BCE510A2E050087405120AB8123892E54D
:1037E3000BA2E0506AEE240FF582EF125B2AC0E0D1
:1037F3007417120AB8D0E0F090031412472E700326
:1038030002388A120EEB8A128B13A812A913741AA8
:10381300120AB8E0687003A3E069706B780C1208B1
:103823001C780A1208287808120824A910740C12AC
:103833000AB8AC82AD837421120AB8AA82AB839012
:10384300031412399D121E7A740712086C8038789B
:103853000C12081C780A120828780812082490030E
:103863007512068CEE2412F582EF12585874231247
:103873000AB8AC82AD83740E120AB8AA82AB831263
:103883001D4F740912086C742312086C025F5212E4
:103893006466125043120AD122E8F0A3E91238A455
:1038A300221238A822F08E828F83A3A3A3A3A3A3FB
:1038B3002274F71203601216A702342674F7120358
:1038C300601216AD02342674F71203601216B902A1
:1038D3003426C082C0831216B30233EE74F7120388
:1038E300601216BF02342674F71203607409120AB9
:1038F300B8E0F50878081208281216CB74010234D0
:1039030023C082C0831216D70233EEC082C0831253
:1039130016DD0233EE74F71203601216E302342647
:1039230074F7120360EAFEEBFF89087401650870FF
:10393300147900120D1D90226FE493FC7900EEFAC6
:10394300EFFB120C9302342674F412036074F91221
:1039530008E6E9FE8A088B098C0A8D0B7413120A98
:10396300B8124BA890059B12472E6027EE8518824C
:10397300851983F07401120AB87808120A79EAF8F3
:10398300EBF97405120AB812353F90059B12399D65
:10399300121E7A02353AFB90034BE0F8A3E0F5835D
:1039A300888222C082C0831217130233EE74F71287
:1039B3000360901087E0F97E00800B125B16540DB4
:1039C30064017001190E123BAA5003E970ED023431
:1039D3002674F7120360901088E0F97E00800B12C2
:1039E3005B16548D64817001190E123BAA5003E9D2
:1039F30070ED02342674F2120360890BE975F00648
:103A0300A4240CF508E5F0122E8D8A0CE508250C8C
:103A1300FAE5093400FB1215278A0C8B0DAE0CAFA7
:103A23000DEE4F6027AC08AD0979001214911233E3
:103A3300F5E50BF0EE2508F8EF3509F98E828F8353
:103A4300A3A3A3A3A3A3A3A3A31234BCEEFAEFFBE4
:103A53000249A374F6120360EAFEEBFF120C6F90A7
:103A63001086E0F8E9C3984009900345124BA81269
:103A73000C75EE2402F8EF1251B8900347125072FE
:103A8300900347E004F0EEFAEFFB120C7B8508820B
:103A9300850983E002566EC082C083790090034596
:103AA300800109124BA88A828B83E582458370F2D9
:103AB3000233EE74F7120360EAFEEBFFEE4F60563B
:103AC30090034512472E604E888289837A007B00DB
:103AD300EE65827003EF6583600FAA82AB83123BAE
:103AE3001CE5824583602F80E7900345123B2868DD
:103AF3007002EF698E828F8370081234B090034591
:103B03008003125F641234BCEEFAEFFB121E1BEE4D
:103B1300FAEFFB12152D023426123B2022123E9C93
:103B23008882898322123E98EE22C082C08390034A
:103B33004580048882898312472E600B888289839B
:103B43001241E0EC4D70EC8A828B83E4F0A3F0E841
:103B530049600688828983800390034512343602C4
:103B630033EE74F712036090034580048A828B83DB
:103B7300123BA54B60257E0080010E123BAA50EC40
:103B8300EE75F006A4FCADF0EA2CFCEB3DFDEC2455
:103B930010F582ED123BFA70E180047A007B00029B
:103BA3003426125047EA22123C03EEC3982274F7DC
:103BB3001203607D0080010D123BFFEDC39850346A
:103BC300ED75F006A4FEA8F0E8FFEA2EFEEB3FFF3A
:103BD300EE2410F582EF123BFA70DCED75F006A4CB
:103BE300FEE8FFEA2EFAEB3FFBEA2411F582EB1223
:103BF3005B2A4CF0023426125B366922123C032204
:103C0300126470EB3400F583E0F82274F61203605B
:103C1300120D957A007B008025EAF8EBF9E875F040
:103C230006A4F8ACF075F006E9A42C12501C12633C
:103C330031A3E4125112F0A31263371264AE90223F
:103C430058122B0C40D37A007B00801C8A088B0906
:103C53007403780812099B124AD0A374FEF0A304DC
:103C6300124EF2A3E41264AE902263123CAD40DC28
:103C73007A007B00801D8A088B0974037808120977
:103C83009B74CB1257A2740F125FE974FEF0A30466
:103C93001264AE902269123CAD40DB902262E49341
:103CA300900353F0123CB70234C5E493F8C3EA9887
:103CB300EB9400227CE87D037A107B009003C2E042
:103CC300F91215E12274F012036074F51208E68A02
:103CD300088B09890A8C0BE9A2E050147508FC755E
:103CE30009FFA2E15005D2E4023D8AD2E3023D8AF4
:103CF30012498F7003A3E06970057900023E57AC47
:103D03000A7902AA08AB09120D71E960EDE50AF51B
:103D13000C780C12082879027CFE7DFFAA08AB09F7
:103D230012470A12086CE96003023E55E50AC2E530
:103D3300F50A9003B5E07051E50AA2E6404B74031F
:103D4300120AB8AC82AD83AA08AB09120B1FE97043
:103D53003212402B8A0C8B0DA80CA90DE8FEE9FF4B
:103D6300E8496025EE24020A0AEF12281C601AEEC5
:103D73002402FCEF3400FD7403120AB8AA82AB8359
:103D8300121CADE50AD2E5F50A900348E0F50C9064
:103D93000368E0F50EA3E0F50F780E1208247D0109
:103DA3007C00900348E0F9AA0EAB0F120D297402B0
:103DB30012086CE9F8900348E004F0E86003023E5F
:103DC30055E50AA2E55004740E80027406C0E0743F
:103DD30001120AB8D0E01254848A0E8B0FAE0EAFD4
:103DE3000FEE4F6069123E75123E8C888289837490
:103DF30001F07478550AA3126476E50C126476A375
:103E0300E508F0E509123E64E4F0E50AA2E5500F87
:103E13007403120AB8AC82AD83E82406123E5B8EAB
:103E2300828F83A3A374FDF0A374FFF0E50B6015E9
:103E3300902270E493F8E50BC3985009EE24131213
:103E43005457E50BF0EEFAEFFB120BC18006791025
:103E5300800279C7740B8049FAE93400FB121CAD68
:103E63002288828983A3A3A3A3123E70221251EB5B
:103E7300A322EE24171254687401F0120EE5EE2407
:103E83001A125468EAF0A3EB22F012646A340012A7
:103E93003E9622F583123E9C22E0F8A3E0F92274B9
:103EA3000D12086C7F0802057974F61203607A001C
:103EB3007B1012597260089003D47401F08029902A
:103EC300063CE064019010CB7006E0FC79018004AD
:103ED300E0FC79037A007B00120C93902256123E89
:103EE300EE7A007B10123EFC0234C5123EF222E44D
:103EF30093FC740193FD227B009003C2E0F9121539
:103F0300DB2274EC1203608A088B098C0C8D0D89FB
:103F13000E7414120AB81248E97416120AB8E0F5BE
:103F230010A3E0F511120F5DE960077AFF7BFF0232
:103F330040289010CAE06402600302401B7900AA83
:103F430008AB09120D77A90E120D6B8A128B13AEF3
:103F530012AF13EE4F70030240038E828F83A3A32D
:103F6300A3A3A3E064018E828F83A3A37069124B82
:103F7300A88E828F83A3A3A3A3A3A3E054186043B3
:103F830090226EE4938E828F83A3A3A3A3F0EA65AA
:103F93000C7003EB650D6014EA650A7003EB650BA7
:103FA300600AEA65107003EB6511701F7810120840
:103FB30024AC0AAD0BAA0CAB0D12105974021208F3
:103FC3006C800890036712595CA3F074FE6A700357
:103FD30074FF6B601D804EA3A3A3E0640360298E6E
:103FE300828F83A3A3A3A3A3E0640470057AFE02D4
:103FF3003F308E828F83A3A3A3A3A3E06402700840
:104003009003B4E06402701012402B8B0BEA450B53
:104013006006AA08AB09800DAA08AB0990034912F0
:10402300399D121E7A025F529003751247101210C7
:104033001D2274F7120360EAFEEBFF120B73E970A3
:104043000AEEFAEFFB120B7FE96006EEFAEFFB8054
:10405300047AFE7BFF02342674F01203608A0A8B13
:104063000B8C0E8D0F8909750800120F5DE979001D
:1040730060030241D2AA0AAB0B120D77A909120DF4
:104083006B8A0C8B0DAE0CAF0DEE4F60198E828FC9
:1040930083A3A3A3A3A3E0640270559003B4E064D5
:1040A3000270030241D0AA0AAB0B90034F12399D51
:1040B300121E7A120B858A0C8B0DA80CA90DE849E8
:1040C30070030241D088828983A3A3A3A3A3E0A2A0
:1040D300E040030241D0750C01A2E150687901ACC4
:1040E3000AAD0BAA0EAB0F120CC3E970640241D0E8
:1040F3008E828F83A3A3A3A3A3E064037005750C2F
:104103000280528E828F83A3A3A3A3A3E0640160E2
:10411300030241D09003751241E08E828F831245D2
:10412300358A0C8B0DA80CA90DE84960D190226744
:10413300E493FA88828983E0C39A50C2A3E06003C0
:104143000241D080B988828983A3A3A3A3A3D2E128
:10415300F0EE4F603A8E828F83A3A3A3A3A3A3E0C1
:104163005418602B7508018E828F83A3A312068CCB
:10417300750CFE750DFF780C1208247900AC0AAD9E
:104183000BAA0EAB0F120D89740412086C803E90BB
:104193000368E0650E7004A3E0650F701490226F4E
:1041A300E493FCA909AA0AAB0B120C9375080180CE
:1041B3001CA90CAC0AAD0BAA0EAB0F120CC3E97011
:1041C3000C750801A909AA0AAB0B120D1DA9080257
:1041D3003EA7E50C2415F582E50D12546B124EC86B
:1041E3002274EA12036074F01208E68A0C8B0D8CB9
:1041F300088D097426120AB8E0F514A3E0F51575C5
:1042030012069003F512472E60239003751241E0C6
:10421300AA08AB091210478A108B11EA4511600DE9
:104223008A828B83A3E07005790002451DE50C2487
:104233001DF50EE50D3400F50F850E8212471AF5B4
:104243001388828983A3A3A3E0FA88828983A3A323
:10425300A3A3E0F9EA2400FEE439FFAA08AB09129C
:104263000D23850E82850F83124558E029F50BE552
:104273000AA2E5500375120E7487550A7017741855
:10428300550A6418600FE50C2417F582E50D125BDF
:104293002A651260077901121C95808C530A78C332
:1042A300EE94F8EF94FF501D7900EEFAEFFB124500
:1042B30027601288828983A3A3A3A3A3A3E054182E
:1042C300600302422B78081208247D0012454B122A
:1042D300086CE9F8740368700302422BE860030278
:1042E30043967418550A700302444BE50AD2E0F56D
:1042F3000AA2E45004D2E1F50AA90A124BA112451D
:1043030027605388828983A3A3A3A3A3A3E054189C
:10431300604488828983A3A3A3A3A3E064017036C6
:10432300E510451160309003751241E0888289835E
:104333001245358A0E8B0FA80EA90FE8496017881E
:10434300828983A3E0600F851082851183A31256AF
:1043530079500302422BE50AF50E780E1208281253
:10436300453E12086CE9702B7C007D008514828524
:10437300158374FFF0A3F0850C82850D83A3A3A39B
:10438300A3A3A3A3A3E060031241D5A90B124BA1DE
:104393001216D1851482851583E0F47003A3E0F42B
:1043A30060399003B4E06402700302422B1248DACE
:1043B300E0FAA3E0123999121E7AEA65087003EB5A
:1043C3006509600302422BEEFAEF123999121E7A45
:1043D300851482851583EAF0A3EBF078081208248C
:1043E3007D0112454B12086CA90AEEFAEFFB120D80
:1043F300778A088B09A808A909900368E068700305
:10440300A3E069600302450EEEFAEFFB120B858A07
:10441300088B09A808A909E849606E88828983A3E3
:10442300A3A3A3E06401600D88828983A3A3A3A34C
:10443300E064027054851882851983AC82AD83EEE3
:10444300FAEFFB120B1F8055900361E0600FE50A42
:10445300F50E780E12082812453E12086CE50AF58F
:104463000E780E12082879027CFE7DFFEEFAEFFB30
:1044730012470A12086CE960030243968514828589
:10448300158374FFF0A30243DD120EE5EAFCEBFD96
:10449300851882851983AA82AB83121CAD850C8291
:1044A300850D83A3A3A3A3A3A3A3A3E06401700F18
:1044B3001241D57408120AB8AA82AB83121CAD123A
:1044C30046E41252F04430F50878081208287401C3
:1044D300120AB88582088583097808120824740BA8
:1044E300120AB88582088583097808120824E5131F
:1044F300F50878081208287900EEFCEFFD124BA1AD
:10450300120CBD740612086C02422B1246E41254BC
:104513005A124558E50BF0120EFD741012086C7F09
:104523000E020579120D6B8A0E8B0FA80EA90FE8E8
:104533004922A3A3125047121047227901AC08ADB8
:104543000912503C12470A22AC0BA91312503C1219
:104553000D297402221252F8A3A3A3A32274F0120A
:10456300036074F01208E68A0C8B0DECFAEDFB7510
:104573000F089003F512472E60141256728A828B2D
:1045830083E58245836007A3E070030246DF12469A
:10459300E4340012471AF50B888289831246EDE052
:1045A300FBEC2400FEE43BFF88828983A3A312462D
:1045B300EDA3A3E0FBECF508E43BF50988828983CE
:1045C300A3A3A3A3A3A3A3E0F50EE50AA2E45003C8
:1045D300750F10A2E550067408250FF50F748F555B
:1045E3000A700FE50C2417F582E50D125B2A650F9F
:1045F30060087901121C950246DF530A707800E5C2
:104603000AA2E450221246E4125B2A2408FCA3E027
:104613003400FD7408120AB8AA82AB83121CAD7869
:1046230008E50AC2E4F50AE50AA2E550281246E4C1
:10463300125B2A28F8A3E03400F9E82408FCE934E3
:1046430000FD851882851983AA82AB83121CADE510
:104653000AC2E5F50AAC0EA90BEEFAEFFB120D2F19
:10466300E9F87403686075900368E06E7003A3E073
:104673006F605EE87054E50AF50F780F1208281290
:1046830046FB12086CE97054780A12082874011268
:104693000AB885820C85830D780C120824740B12DA
:1046A3000AB885820C85830D780C120824E50BF576
:1046B3000A780A120828A90EAC08AD09EEFAEFFB36
:1046C300120CBD740612086C8012740468700D809D
:1046D300B7780A1208281246FB12086C7410023EBF
:1046E300A4E50C241DF582E50D22A3A3A3E0FC8819
:1046F300828983A3A3A3A32279011248E112546BF5
:1047030012471012470A22120CE7740122E0FCA39D
:10471300E0FDAA08AB0922F583123B20A3E0F50ACA
:1047230088828983A3A3E0229003391250A32274C1
:10473300E812036074F51208E6EAFEEBFF8C088DBD
:104743000989147423120AB8E0F50F7424120AB805
:10475300E0F512A3E0F5137426120AB8E0F516A3E8
:10476300E0F5177428120AB8E0F50EA90F120D35FB
:104773008A108B117401120AB87408F0E50EA2E4D2
:1047830050037410F0E50EA2E55004E02408F08510
:104793001882851983AA82AB83120F458A0C8B0D6D
:1047A300EA450D70030248C1EA2417F582EB12486B
:1047B300D3120EE5E50C241AF582E50D12545A12B4
:1047C30034367403120AB8AC82AD83AA10AB11124B
:1047D3000B1FE9601D1248CB7403120AB8A882A903
:1047E30083E50C2418F582E50D12545AE8F0A3E989
:1047F3008024E50EA2E4501FE5106E7003E5116FEF
:1048030070151248CBE50C2418F582E50D12545AA5
:10481300E512F0A3E513F01248DA1248E9850A829B
:10482300F5837402F0A3E50E1248F1E50FF0EE856F
:104833000A82850B83A3A3A3F0EF850A82850B83EA
:10484300A3A3A3A31248F1A3A3A3E508F0E5098555
:104853000A82850B83A3A3A3A3A3A3F0AA10AB117E
:10486300120D23E92514850A82850B83A3A3A3A331
:10487300A3A3A3F0750800E50EA2E45011AC12AD9A
:1048830013E50A2408FAE50B123E5D750808E50EE8
:10489300A2E55014AC16AD17E50A2508F8E50B346C
:1048A30000F9E82408123E5B850C82850D83A3A3DF
:1048B300E510F0A3E511F0AA0CAB0D120BC1740BBC
:1048C30012086C7F10020579E50C2416F582E50DBC
:1048D30012546B7401F0221248E112546B22E50C5E
:1048E300126471E50D22E0F50AA3E0F50B22F085D1
:1048F3000A82850B83A3A32274F21203608A088BB6
:1049030009ECFEEDFF890A790012498F7003A3E0D9
:1049130069700479018073750B01900368E0650881
:104923007004A3E06509601F750B00780B1208285B
:10493300A90AEEFCEFFDAA08AB09120F9974011244
:10494300086CE9F50B80417900EEFAEFFB120D6B71
:10495300EA4B602B8A828B83A3A3A3A3A3A3E05474
:1049630018601C7508FE7509FF78081208248A82EE
:104973008B83A3A312068C12628612086C800979BA
:1049830001EEFAEFFB120C45A90B8014120D778A86
:104993000C8B0DA80CA90D900368E0682212086C1B
:1049A3007F0602057974F412036075081375090E06
:1049B3007A10125F8E8B0BEA450B7003123CB79093
:1049C3000353E014F0700C902262E493900353F0CD
:1049D300120D837E007F00806C850882850983A386
:1049E300A3A3A3E06059F46056E5082404F582E527
:1049F300091259567049850882850983A3A3A3A385
:104A0300A3E0640370197902850882850983124142
:104A1300E0850882850983A3A3124BA8120CC385E2
:104A23000882850983A3A3A3A3A3E064016010857F
:104A3300088285098374FEF0A304124B02E4F0128A
:104A43003033122E8590225C1260EA408C7E007F08
:104A5300008039120E8B8E088F09740378081209AF
:104A63009B748B2508FC740F3509FD7ACF7B0C12E0
:104A73000E79EA4B70DD8E088F09740378081209EA
:104A83009B124AD0126331E4F0123033902263E474
:104A930093F8C3EE98EF9400501B8E088F097403AC
:104AA300780812099B124AD8E82407F582E91259BB
:104AB3005670D680A17E007F00800A124AE360020E
:104AC30014F01230331260E740F1023666124AD80E
:104AD3008882898322748B2508F8740F3509F9229B
:104AE300EEF8EFF9E875F006A4F8AAF075F006E918
:104AF300A42AF9742B28F582740F39F583E0221266
:104B03004B09A3A3A322F0850882850983A3A322CB
:104B130074F712036074E11208E6ECFEEDFF75080A
:104B230000EE4F60728A828B83E0241C1259871235
:104B3300472E60638A828B83124BA885188285195E
:104B430083AC82AD83EA241BF582EB125858EA2426
:104B53001CF582EB124BA4120ECD740B120AB81281
:104B63004BAC7003A3E069702E7402120AB8E064C0
:104B7300017024741D120AB812399DE06401701784
:104B8300741D120AB812399FA3A3E0F88E828F8393
:104B9300E0687003750801A908741F0234231248E2
:104BA300E13400F583125047221227DAE0682274B9
:104BB300F4120360E97024790090034D12399D12B9
:104BC3001E7A8A0A8B0BAE0AAF0B74FE6E700374E7
:104BD300FF6F701A90226AE4936013790190034D7A
:104BE30012399D121E7A8A0A8B0BAE0AAF0B120F73
:104BF3000902319B74F612036074F31208E612146F
:104C03009D8A088B09AE08AF09900368E06E7003B4
:104C1300A3E06F60E9120EF1EA6E7002EB6F60DEE3
:104C2300EEFAEFFB120F5DE970D4EE4F60D08518FA
:104C330082851983E4F004120AB8EEF0A3EF124C54
:104C43005AE970BA74FE6E700374FF6F60B0EEFAC7
:104C5300EFFB740D0234C2123547120B3722C082A8
:104C6300C083120F090233EE7F0A02057974F21230
:104C73000360EAFEEBFF8C0A8D0B8908740E120A9F
:104C8300B8E0F50974FC6E700374FF6F700579006A
:104C93000249A37900120D778A0C8B0DAE0CAF0D70
:104CA300900368E06E7003A3E06F7006E509A2E667
:104CB30050DCA909126174706179007AFE7BFF12DE
:104CC30061747056741855097003024DA778007902
:104CD3000080031229D490225C1229CB4003024D99
:104CE300A7E8FAE9FBEA75F007A4FAACF075F00758
:104CF300EBA42CFB74192AF582740E3BF583E05464
:104D03001870D0E875F007A4F8AAF075F007E9A4C5
:104D13002AF9741328F8740E39F988828983A3A3B6
:104D2300A3A3A3A3E05418600974185509700302E0
:104D33004C9188828983EEF0A3EFF074FE650A70CC
:104D43000474FF650B6003124ECE88828983A3A38C
:104D5300A3A3A3A3E509F0A2E0500D88828983A34E
:104D6300A3A3A3A3A3D2E2F0740165088882898375
:104D7300A3A3A3A3A370387401124EF2E0541860E6
:104D83002890226EE49388828983A3A3A3A3124E5F
:104D9300BC1210478B0DEA450D6003024C9178005D
:104DA300790080397902024C93900367E080D7E061
:104DB30064017003024C9188828983A3A3A3A3A3F4
:104DC300A3E05418600790226EE493800490036676
:104DD300E0123E64E508F0024C911229D49022645B
:104DE300E493FAC3E89AE994004003024C917A00F1
:104DF3007B00804BEAFCEBFDEC75F007A4FCAEF006
:104E030075F007EDA42EFD74152CF582740E3DF597
:104E130083125473E8FCE9FDEC75F017A4FC85F0EC
:104E23000975F017EDA42509FD74A32CF582740C04
:104E33003DF583E06E7003A3E06F609E122F089030
:104E4300225C122E9540AD123EEEEC6A7002ED6BC1
:104E53007088E875F017A4F8AAF075F017E9A42A8A
:104E6300F974A328FE740C39FF7C177D007900EEDA
:104E7300FAEFFB1214918E828F83124ED490037536
:104E8300124EAEA3A3A3A3A3A3E8F0A3E9124EB4C7
:104E93007401F0EE240E1254577401124EDC120208
:104EA3000FEE240D125457E8024DD9123406A3A372
:104EB30022F0EE240F12546822F0124EC5AA0AAB58
:104EC3000B22900375E0FCA3E0FD2288828983A373
:104ED300A3E50AF0A3E50BF022F0124EE1229022A3
:104EE30067E4932401F8E43400F97A027B00221288
:104EF3003E70A32274ED1203608A088B09890E1297
:104F0300502540057905024FF3121719AA08AB097A
:104F13001250F7902258124FF6650A7003E9650B99
:104F230070077AFE7BFF1250F7902258E4124FFE6F
:104F3300E50A98E50B994003024FF1125002601203
:104F4300E50A75F006A4F875F006E50B12504D124C
:104F5300152DE50E6018E50A75F006A4F8AAF0759C
:104F6300F006E50B125079701A7901024FF3E50A46
:104F730075F006A4F8AAF075F006E50B12505AE492
:104F8300F0A3F0E50A75F006A4F8AAF075F006E5BB
:104F93000B12501AA312530688828983A3AA82ABE9
:104FA300831250688A828B83E0603F125002603A1A
:104FB3008E108F117512007810120820E50EC3337E
:104FC300FCE433FDE50A75F006A4F50AA8F075F0D4
:104FD30006E50BA428F50B742F250AF582740F350B
:104FE3000B124BA6122EA612086C790080027907C9
:104FF30002618A122B2DE82290224C125B1122E5CA
:105003000A75F006A4F8AAF075F006E50B125055E0
:10501300F8A3E0F9E84922A42A1251AE88828983D1
:10502300A322ECFEEDFF902265E493F8E9C39822F6
:10503300F58312504712152D22E50C126471E50D0C
:105043003400F583E0FAA3E0FB22125055FAA3E003
:10505300FB2212505AE022A42AF9742F28F58274F5
:105063000F39F58322E50EF09010CC12507222E036
:1050730088828983F0221251D2F50CE93400F50DB0
:10508300E50EC333FAE433FB121527850C82850D35
:1050930083EAF0A3EBF0850C82850D831250A322E3
:1050A300123E9CE8492274F4120360ECFEEDFF7497
:1050B3000C120AB81234B0880889091250F7AC0AE6
:1050C300AD0BECF8EDF99022581250FF5021E87522
:1050D300F006A4F8AAF075F006E912501AE08E82E1
:1050E3008F831251121251081234BC790080027955
:1050F30004023666120CF98A0A8B0B22122E9EC307
:10510300EC9AED9B22123E98850882850983221230
:1051130051E72274F61203607E007F008028EEF8C8
:10512300EFF9E875F006A4F8ACF075F006E9A42CE5
:10513300F9742D28F582740F125D956A7003A3E04C
:105143006B60571230331260E740D31260E2700293
:10515300E96F704674FE6A700374FF6B703C7E00E7
:105163007F0080031230331260E7502E124AE3703F
:10517300F3EEF8EFF9E875F006A4F81251A4125112
:10518300D960171251C0F8E91251B888821250330E
:10519300850882850983E4F0A3F0EEFAEFFB02347D
:1051A300C575F006E91251AC22A42AF9742B28F82C
:1051B300740F39F9223400F98808890922EEF8EFCF
:1051C300F9E875F006A4F875F006E91251D2221237
:1051D30051ACE8240422A3A374FE1251E41250A399
:1051E30022F0A3041251EB22F088828983A3A3A3A4
:1051F300A32274F6120360EA241DF582EB1252F027
:10520300F9604BEA241DF582EB125B2A2402FCA30E
:10521300E03400FD12502940030252E37800802954
:105223008C828D83E0F508A3E0FFE5082400E43FCA
:10523300F509E833FEE433FF74732EF582740F3FF0
:10524300F5831253061252E608E8C39940D28A82C4
:105253008B83A3A3A3A3A3A3A3A3A31241E09003BC
:1052630068E06C7003A3E06D700F7C737D0F1227F1
:1052730043124BA4120CED8067EA2411F582EB1262
:105283005B2A605CFC74FF2CF07508017808120837
:105293002875087375090F7808120824E9F508784A
:1052A30008120828EA2412F582EB125B2AF5087823
:1052B30008120828EA2415F582EB12545A12068CB8
:1052C300ECF91227431241DD8A828B83A3A3A3A3A4
:1052D300A3A3A3A3A3124BA8120D05740712086C72
:1052E3000234C5EC24020C0CED3400FD2212546B85
:1052F3001252F8E022E0F8A3E0F5838882A3228823
:10530300828983E508F0A3E509F02274EA120360B9
:1053130074FD1208E68A148B158C0E8D0F890D749B
:1053230019120AB8125473741B120AB8E0F51174F7
:105333001C120AB8E0F50C741D120AB81248E9747D
:105343001F120AB8E0F5106008E50CC3332404808B
:10535300027402C0E07401120AB8D0E01254848AC5
:10536300088B09EA4509700302544F8A828B83A391
:10537300A3E514F0A3E515125F7DE50EF0A3E50F99
:10538300F0EA2413F582EB12545AE50DF0EA2414E3
:10539300F582EB12545AE511F0EA2417F582EB1269
:1053A3005B2A64017040120EEB8A0E8B0FA80EA9C4
:1053B3000F850882850983A3A3A3A3E0687003A3D1
:1053C300E0696022EE4F6011E508241AF582E509D1
:1053D30012545AEEF0A3EF800CE5082417F582E58A
:1053E3000912545AE4F012545E1254738E828F835E
:1053F3007405F0A3E5107004E50C80487401250CD6
:1054030012547D7A008028850A82850B83E012542A
:1054130079850A82850B83A3E08E828F83F0E50A68
:105423002402F50AE50B3400F50BA30EAF830AEA59
:10543300C3950C40D2120EEBEA125479120EEBEB29
:105443008E828F83F0AA08AB09120BC17403024545
:105453001FEE240CF582EF12546B221227541254C0
:105463006B22EE240BF582EF3400F5832290033494
:10547300E0FEA3E0FF228E828F83F0A3AE82AF8390
:1054830022123547120F4522C082C083E9C333FC81
:10549300E433FDEA2CFAEB3DFBEA24FEF582EB3420
:1054A300FF124BA60233EE74F212036089098A0AD3
:1054B30012502540047900804075080080020508D9
:1054C300E508C39509502AE508C333F8E433F9EE38
:1054D30028F582EF39F583C082C083120EEB8A0C64
:1054E3008B0DD083D082E0650C7004A3E0650D7052
:1054F300CDE50A650870BE79010249A374F0120371
:105503006074F31208E68A088B098C0A8D0B890CE8
:10551300750D00120F5DE979006003025601AA08B8
:10552300AB09120D77A90C120D6B8A0E8B0FAE0E01
:10553300AF0FEE4F70030255FF8E828F83A3A3A399
:10554300A3A3A3E0A2E240030255FF120EEBEA6518
:105553000A7003EB650B7011780D120828E4F50E41
:10556300F50F780E1208248044AA0AAB0B120B79AC
:10557300E9640170688518828519837404F07401E5
:10558300120AB8124ED4851882851983AA82AB8376
:10559300120B37E964017045750D01780D12082867
:1055A300E4F50EF50F780E120824750D00780D1230
:1055B3000828780D1208287408120AB885820E8507
:1055C300830F780E120824902270E493F9AC0AAD8D
:1055D3000BAA08AB09120D05740712086C8E828F93
:1055E30083A3A3A3A3A3A3E0A2E1400D8E828F8391
:1055F300A3A3A3A3A3A3C2E2F0750D01A90D023EC9
:10560300A274F6120360E9FE7900120D77EEF91227
:105613000D6B8A088B09A808A909E849600612647A
:10562300B8F9800279040234C574F61203607E0768
:1056330090035CE070341256728A088B09A808A99B
:1056430009E8496025900361E0640188828983A3A6
:10565300A3700B125679888289835001A3A3E0F9C2
:10566300121065E9FEEE70027E07EEF90234C512F0
:105673004EC512104722E0FA88828983A3E0C39AB9
:105683002274EE120360EAFEEBFF890A8C0C8D0B89
:105693007412120AB81233FA12574E12502C505188
:1056A300890E750F007403780E12099B7491250EF1
:1056B300F582740F350FF583E0F8E50CC398502D90
:1056C300E50B60247511007403781012099B748B29
:1056D3002510F8740F3511F988828983A3A3A3A336
:1056E300A3A3E50C125758F07900024C6B790380A1
:1056F300F979007AFE7BFF12574EE493651070042C
:10570300790280E6E50B60E0890E750F007403787B
:105713000E12099B748B250EF8740F350FF98882CE
:105723008983A3EEF0A3EF125758124EF2E50C1241
:105733003E6C74FF126337E50AF0900366E08882DB
:105743008983A3A3A3A3A3A3A3809C120D65E9F557
:10575300109022632212647AA3E508F0A3E50922DC
:1057630074F6120360ECFF120D6590226312502C45
:10577300502789087509007403780812099B7490EF
:105783001257A2740F125FE9E0F8EFC3985006EFC7
:10579300F0790080067903800279040234C5EA2592
:1057A30008F5822274F4120360EAFEEBFF120D6522
:1057B300E9F50A90226312502C5019750B007403FB
:1057C300780A12099B748E250AF582740F350B1221
:1057D3004BA6801890034B12472E600CEEFAEFFB9A
:1057E3001239A0121E7A80047AFE7BFF0236667499
:1057F300F61203608A828B83A3A3A3A3A3E4F0F826
:10580300800108902269E493F9E8C399501E88083F
:105813001258508C828D83A3A3A3A3A3A3A3A3E0B5
:105823006970DFECFAEDFB120E91801EE493687051
:10583300198C828D83A3A3A3A3A3A3A3A3A37406F9
:10584300F07A008C828D8312597B0234C574132540
:1058530008F5827410125B36F92274F4120360EABD
:10586300FEEBFF8E828F83A3A3E014125992A3E071
:10587300F9120E6D8A088B09EA4509700302595320
:105883008E828F83A3A3E070358A828B83A3A3A325
:10589300A3A3A3A3A3A3E064028A828B83A3A3A3EA
:1058A300A3A3A3A3A3A360107406F07AF0850882D0
:1058B3008B8312597B0259537406F00259538E821B
:1058C3008F83A3A3A3A3A3A3E060738E828F83A379
:1058D300A3A3A3E0607AEE2403F582EF1259567076
:1058E3006F90035512595C125992E014125F74E0E1
:1058F3006403705C8E828F83A3A3A3A3E0700DACBB
:1059030008AD09EEFAEFFB120D3B80448A828B83CC
:10591300A3A3A3A3A3A3A3A3A37404F012149DEAB4
:10592300540F04850882850983A3A3A3A3F0A3E4EA
:10593300F07A20FB125972701712596580128A820D
:105943008B83A3A3A3A3A3A3A3A3A3E0640360AF35
:10595300023666125B3614F022E08E828F83A3A395
:10596300A3227A207B009003C2E0F91214DF2212F3
:105973005F908B09EA450922E0240C125987E0F96C
:10598300120DB322F8A3E03400F98882898322122E
:105993005997A3221234A2A3A3A32274F61203607D
:1059A30079007E0080258E0875090074037808123B
:1059B300099B74CB2508FA740F3509FB8A828B8304
:1059C300A3A3E06005120D4179010E902269E493CF
:1059D300F8EEC39840D0E9A2E07A407B009003C27E
:1059E300E0F950151215ED8B09EA4509700E7C6438
:1059F3007D007A40123CBD80031215E70234C57462
:105A0300F4120360ECFEEDFF7508CB75090F7C0003
:105A13008045850882850983A3A3A3A3A3A3A3E049
:105A2300F8EA2412F582EB125B2A68701F8508825C
:105A33008509831234B0125B2E687003A3E069708A
:105A43000B850882850983A3A3E070200CE5082455
:105A530008F8E5091251B8902269E493F8ECC39869
:105A630040B0E4936C700579000236668508828540
:105A73000983A3A3A3A3A3A3E07004790180EA127B
:105A8300618212101D8B0BEA450B600F850882851E
:105A93000983A3A3A3A3A3A3E014F07C0080010CB8
:105AA3008C0A125B045020EC125B3C60F212304B08
:105AB3006E7003A3E06F70E7850882850983A3A353
:105AC300A3A3A3A3E014F0902264E493F890224CE0
:105AD300E49328F8A3E4933400F9850882850983C5
:105AE300A3A3A3A3A3A3E0FAC3E89AE99400508B6A
:105AF300850882850983A3A3A3A3A3A3E4F0025A81
:105B03007E90224C125B10E50A98E49922E4122B52
:105B13002EC322EE75F006A4FCADF0EA2CFCEB3D9F
:105B2300FDEC2411F582ED125B3622126470EB1248
