:020000040000FA
:06000000020CE402039C67
:03002B00020B11B4
:030033000208FFC1
:030043000209E5CA
:030053000202CDD9
:03006B000208D9AF
:100083000203310101FF050301BE12BE12BE12BEFF
:10009300127A117411BE12951E00000000591F0040
:1000A3000000000C0000000C0001FFFF0101010033
:1000B30032050000008305E80364006400B8010210
:1000C3000200080000050207051E02051E0A03B808
:1000D3000B020102FFFF029651180031323334350F
:1000E30002020612120D03700418181822120D30A2
:1000F300700D74FFF61819F61819F61819F622E799
:10010300548066F6120D79700F120D6F70F014F6AD
:1001130008F608F608F680D1120D6F700CF608F693
:1001230008768008E6447F80EC120C6F700C120C8A
:100133008160BFE65480F6E480BB120C8170051920
:10014300191980A5E869700C763F18768018F6189F
:10015300F6E8F922E6CDC0E018ECC0E0E633CD3393
:10016300CDD313F6E719FCE7191933CC33C3947FC6
:10017300400ECD9D502408E65480F6E418F6800F17
:10018300F4043D14501408E6447FF6187680E4180E
:10019300F618F6D0E0FCD0E0FD22CCD313CCFD184A
:1001A300E4C6CBC0E018E4C6CAC0E00808ED08C640
:1001B30033E613F618E433C675F003C3CA97CA09C6
:1001C300CB97CB199C40047D08802EBD000302020F
:1001D3009016B6FF050606081618C3CA33CACB33F2
:1001E300CB33CA27CA09CB37CB193CC37D08803E22
:1001F300187D0820E75CC633C6CA33CACB33CB337A
:10020300DDF1D5F0EB30E77BCA97CA09CB974ACB30
:10021300199C406F4B7025E620E0218066187D080D
:10022300C3CA97CA09CB97CB199CD3C633C6CA3363
:10023300CACB33CB3350C9DDE7D5F0E1D3E4C636BF
:10024300C608C636C608C636C608C636C61818183F
:100253008031C3CA97CA09CB97CB199CB34097C6C1
:1002630033C6CA33CACB33CB33DD34D5F02EC6A263
:10027300E0C640C8CA27CA09CB37194A70BECB3C6F
:10028300B480B90808E63308E633601F181818D09D
:10029300E0FAD0E0FBD0E0FCD0E0FD22187D08CAF4
:1002A30027CA09CB37CB193CD3808013F618E4B6A1
:1002B3007F11F618B6FF0EF618C60470D20808763A
:1002C3008080CAF618F618F680C5C0E074F21206EC
:1002D30044A2AFE433FED2AFE5A7FFE5A1F5085F83
:1002E300541060061219AE75A1EFE5085F5408605B
:1002F300081219B475A1F7802BEFA2E0C0D0E5086E
:10030300A2E092F0120BFD158182F05017906198D4
:10031300E0F8900A63E0C398A2D265D0335002E8B4
:10032300F075A1FEEEA2E092AF7F01020700C0E0EC
:1003330074F2120644A2AFE433FED2AF9061A4E09C
:10034300F8759B00E59158540860087591F71219E8
:10035300FC802AE59158541060087591EF121A0237
:10036300801BE8A2E0C0D0E591A2E092F0120BFD61
:10037300158182F05007E0C2E0F0121B469061A3A2
:10038300E0F8E5E9585404600E121B1C75E9FB9074
:100393006193E0A2E640F2808BC0E074F21206445F
:1003A300A2AFE433FED2AF9061A5E0F8E5BF5854A5
:1003B30004600675BFFB121B5E020327C3E498F8B3
:1003C300E499F91204008026C3E49AFAE49BFBE95A
:1003D30020E7E9120400E498F8E499F922C3E498C9
:1003E300F8E499F9120400E498F8E499F9C3E49A5B
:1003F300FAE49BFB22EB20E7CFE920E7E0B900100A
:10040300BB0008E88AF084F8AAF022E4FBC8FA22C9
:10041300EB70227B10C833C8C933C9335007C39A62
:10042300C3DBF280069A50012ADBEAC833F4C8C959
:1004330033F4C9FA2275F008E4C833C8C933C933A1
:10044300C99AC99B5004C92AC93BD5F0ECFBC833F0
:10045300F4C8E4C9FA2212049920F01430E72B748B
:10046300FFFCFBFA747F8022E4FCFBFA7480801AA1
:10047300B48008BC00F2BB00EF800F50EBF9E4C37B
:100483009AFAE49BFBE49CFCE499C6CC18C6CB180F
:10049300C6CA18C6F922E4C9C608CAC608CBC6D359
:1004A300330308CCC63392F0C3947F402E94184094
:1004B30019C9B90704CACBCC225025C309CA33CA08
:1004C300CB33CBCC33CC33D9F422F4600DC9CCC3BA
:1004D30013CB13CBCA13CAD9F6CC22E4FCFBFA2202
:1004E30014FCFBFA22080808EAC0E0EBC0E086F03F
:1004F300E7A4FA180986F0E7A42AFA180986F0E7B0
:10050300A42AFA180986F0E7A42AFA1986F0E7A4C0
:10051300FBE5F02AFA190886F0E7A42BFBE5F03A8D
:10052300FA190886F0E7A42BFBE5F03AFA18180944
:1005330086F0E7A4C5F02BFBE43AFA1908E7C5F007
:10054300C6A426F6E5F03BFBE43AFA1886F0E7A4E6
:10055300F6E5F00826F6E43B08F6E43A08F6D0E0C0
:10056300FBD0E0FA22E4CFC0E0E4CEC0E0E4CDC0AB
:10057300E0E4CCC0E075F020C3E633F608E633F6DA
:1005830008E633F608E633F6181818EC33FCED33B7
:10059300FDEE33FEEF33FFC3EC9709ED9709EE97BA
:1005A30009EF97191919400FFFEC97FC09ED97FD17
:1005B30009EE97FE191906D5F0BEECF709EDF70918
:1005C300EEF709EFF7191919D0E0FCD0E0FDD0E000
:1005D300FED0E0FF222518C582C0E0E51934FFC52F
:1005E30083C0E0E518C3958224F810AF088583190A
:1005F3008582188008858319858218D2AFCEF0A32F
:10060300E520F0A37808E608F0A3DEFAEFF0A3E50F
:100613008124FAF8E608F0A3E608F0A3E608F0A3BD
:100623000808E608F0A3E608F0A315811581D0E0D9
:10063300FED0E0F8158115811581E8C0E0EEC0E039
:1006430022C0D02518C582C0E0E51934FFC583C098
:10065300E0E518C3958224F310AF088583198582DA
:10066300188008858319858218D2AFC8F0A3E9F0F2
:10067300A3EAF0A3EBF0A37908E709F0A3D8FAEC17
:10068300F0A3EDF0A3EEF0A3EFF0A3D0E0F0A3D03E
:10069300E0F0A3D0E0F0A3E520F0A3E5F0F0A3227F
:1006A300E9799EC608CAC608CBC608CCC6C3702063
:1006B3007996CACBCC7019798ECBCC70137986CC52
:1006C300700EF9802ACA33CACB33CBCC33CC33195F
:1006D30030E7F2CCCBCA3350147004EA30E00DE4B7
:1006E300CA3ACACB3BCBCC3CCC500209C3E913C6B4
:1006F300CC182313C6CB18C6CA18C6F9228519838A
:10070300851882E0C0E0A3E0F9A3E0FAA3E0FBA32D
:100713007808E0F608A3DFFAE0FCA3E0FDA3E0FE1F
:10072300A3E0FFA3E0C0E0A3E0C0E0A3E0F5D0A313
:10073300E0F520A3E0A3F5F010AF088583198582C7
:10074300188008858319858218D2AFD082D083D0D0
:10075300E0F8D0E032120D64B9000302079AE49086
:10076300030178BA790C8002F0A3D8FCD9FA900E71
:10077300BAAA82AB83900086786279018015E493EC
:10078300A3AC82AD838A828B83F0A3AA82AB838CD2
:10079300828D83D8E9D9E77582487583EE74021296
:1007A3000A897582FE75831D7400120A8975F0101B
:1007B3008E1A8F1B85821F85831E85188285198358
:1007C300E0CEA3E0CF851F82851E83EBC9EAC8ED87
:1007D300CBECCAC3E833C8E933C9EA33CAEB33CB3A
:1007E300C3EA9EF51DEB9FF51CB35004AB1CAA1D79
:1007F300EC33CCED33CDD5F0DAAE1AAF1B22D08378
:10080300D082ECC0E0EDC0E0E493A3FCE493A3FD4D
:10081300ED4C600D12091DEC24FFFCED34FFFD804F
:10082300EFE493A3FCE493A3FDED4C600D1209BA2E
:10083300EC24FFFCED34FFFD80EFD0E0FDD0E0FCC5
:10084300E493A3C0E0E493C0E022D083D082E9C064
:10085300E0E493A3C386F0C5F095F0F908E493A30D
:1008630086F0C5F095F0700BE493A3C3994005E9B6
:10087300048002A3E475F002A42582F582E5F03535
:1008830083F583D0E0F9E493A3C0E0E493C0E022CE
:10089300851983851882E0A3FEE0A3F5207808E09C
:1008A300A3F608DFFAE0A3FFE0A3C0E0E0A3C0E003
:1008B300E0A3C0E0E0A3C0E0E0A3C0E010AF088580
:1008C30082188583198008858218858319D2AFD051
:1008D30083D082020A8FC0E074F2120644A2AFE40E
:1008E30033FED2AFE589A2E1500312186A7589007D
:1008F300C2C5EEA2E092AF7F01020700C0E074F22E
:10090300120644A2AFE433FED2AFE58BA2E050035C
:1009130012186A758B00C2E880D8C0E0C3E49396CE
:10092300087401939618400FE493667008087401E5
:1009330093661870007019A3A3C3E4939608740117
:10094300939618A3A3400DD0E0D0E0D0E002083D79
:10095300A3A3A3A3A3A3D0E02274048004740280FE
:1009630000CCC0E0EDC0E0E518C39CCCAD1950014C
:100973001D10AF068C188D1980068C188D19D2AFF7
:10098300120A2AD0E0FDD0E0FC2274028000CCC021
:10099300E0EDC0E0E518C39CCCAD1950011D10AFCC
:1009A300068C188D1980068C188D19D2AF120A087F
:1009B300D0E0FDD0E0FC22C0E0C0F088F0E4936614
:1009C30070080874019366187000A8F0A3A3700B55
:1009D300D0F0D0E0D0E0D0E002083DA3A3D0F0D027
:1009E300E022C0E074F2120644A2AFE433FED2AFB9
:1009F300C2C0E5D1A2E450031218E2EEA2E092AF26
:100A03007F01020700CAC0E0E493A3C582CCC5827C
:100A1300C583CDC583F0A3C582CCC582C583CDC5AF
:100A230083DAE5D0E0CA22CAC0E0E0A3C582CCC520
:100A330082C583CDC583F0A3C582CCC582C583CDD2
:100A4300C583DAE6D0E0CA227009080808226016D6
:100A5300181818C6C333C608C633C608C633C60833
:100A6300C633C6D5E0EA22C008C3E096F50808A35A
:100A7300E096420808A3E096420808A3E0964508DA
:100A83007001D3D00822C09FF59FE473D09F22D07A
:100A930083D082C09FE493C0E0740193C0E07402EA
:100AA30093F59F227404800A740380067402800203
:100AB3007401C0E0F404120AC2D0E0120D3F2225F3
:100AC30018F58210AF08F518400215198008F518BB
:100AD30040021519D2AF85198322C0D0251810AF53
:100AE30008F518500205198008F51850020519D2A7
:100AF300AFD0D022BB0102E722C082C08389828AA1
:100B030083BB0003E08002E493D083D08222C0E061
:100B1300C0D0E8C0E0E5A8D2AFC2C7A2E792AFD089
:100B2300E0F8D0D0D0E0326016080808C6C313C678
:100B330018C613C618C613C618C613C6D5E0EA22CC
:100B4300C3E0C696F608A3E0C696F608A3E0C696E9
:100B5300F608A3E0C696F622251810AF08F518404C
:100B63000215198008F51840021519D2AF22C3E007
:100B73009608A3E09608A3E09608A3E096A2D265A0
:100B8300D03322E76670100809E766700A0809E7A0
:100B93006670040809E76622E066701008A3E06641
:100BA300700A08A3E066700408A3E06622C3E09617
:100BB300F008A3E096F008A3E096F008A3E096F00F
:100BC30022700422600D18C6C333C608C633C6D5C7
:100BD300E0F41822E026F608A3E036F608A3E03690
:100BE300F608A3E036F622E026F008A3E036F00884
:100BF300A3E036F008A3E036F022C0E0E8C0E0E569
:100C03008124FCF8E6A2E7D0E0F8D0E022E627F65C
:100C13000809E637F60809E637F60809E637F62243
:100C2300E056F008A3E056F008A3E056F008A3E06E
:100C330056F022E056F608A3E056F608A3E056F66F
:100C430008A3E056F622E657F60809E657F6080920
:100C5300E657F60809E657F622E647F60809E64797
:100C6300F60809E647F60809E647F622E7094709C1
:100C7300700AE709C3337005E733F4220922E60853
:100C83004608700AE608C3337005E633F4220822E7
:100C9300E4C396F608E496F608E496F608E496F6B6
:100CA30022C3E7960809E7960809E7960809E79635
:100CB30022C6F4C608C6F4C608C6F4C608C6F4C6F7
:100CC30022C3E09608A3E09608A3E09608A3E09663
:100CD30022600D08C6A2E713C618C613C6D5E0F3F3
:100CE3002275D0007581407518017519030002073C
:100CF30058E6F008A3E6F008A3E6F008A3E6F0221E
:100D0300E6084608C3134608336002E633F422605C
:100D13000C08C6C313C618C613C6D5E0F422E0F602
:100D230008A3E0F608A3E0F608A3E0F622E70947E4
:100D330009C3134709336002E733F422CAC0E0E66C
:100D4300F0A308DAFAD0E0FA22EAF0A3EBF0A3EC7E
:100D5300F0A3EDF022E0FAA3E0FBA3E0FCA3E0FDA7
:100D630022E5C754F84401F5C7790122E7C33319D3
:100D7300471947194722E6C333184618461846222F
:100D83002518F582E43519F58322C2AF75D69F0283
:100D9300000022120A9248B201120A9266B20112AC
:100DA3000A92245900120A92365900120A9288595B
:100DB30000120A92E95900120A92735A00120A9217
:100DC300175B00120A926B5B00120A92845B00129B
:100DD3000A92AA5B00120A92E55B00120A92295C4E
:100DE30000120A92505C00120A92A15C00120A924D
:100DF300515D00120A92095E00120A92D15E00123E
:100E03000A92AE5F00120A92346000120A924360A3
:100E130000120A924E6000120A92576100120A925F
:100E2300686100120A92DE6100120A927062001277
:100E33000A92C86200120A928E6300120A92BF637A
:100E430000120A92046400120A92116400120A92B8
:100E5300A56500120A92086700120A92246800121C
:100E63000A928E6A00120A92996A00120A92A36A7F
:100E730000120A92AE6A00120A92B86A00120A922B
:100E8300C26A00120A92CD6A00120A92D86A00124C
:100E93000A92096B00120A922D6B00120A92516B8F
:100EA30000120A92B66B00120A92FA6B00120A92AF
:100EB300166C00120A928D6C00120A92C56C001215
:100EC3000A92116D00120A926E6D00120A92506F0F
:100ED30000120A92D66F00120A92A77000120A92A9
:100EE300B77300120A920C7400120A92387400123B
:100EF3000A92847500120A92D47500120A92297616
:100F030000120A922A7700120A92C27700120A92FA
:100F1300447800120A92E47800120A926F210012B8
:100F23000A92A82100120A92822300120A92C12374
:100F330000120A920B2400120A92B02400120A92A1
:100F43000F2500120A92432500120A92B0250012BF
:100F53000A92CD2600120A92D52700120A926B2814
:100F630000120A92B22B00120A925B2C00120A9210
:100F7300372D00120A92982D00120A92B52E0012F4
:100F83000A92DF3000120A92963100120A92A031BF
:100F930000120A92D33100120A929A3200120A9274
:100FA300353300120A929A3300120A92C3330012A5
:100FB3000A92E53300120A92143600120A92EB36B3
:100FC30000120A922F3700120A929C3700120A92DB
:100FD300573800120A92893800120A92CD3800124B
:100FE3000A92003900120A92553900120A92AA395C
:100FF30000120A923E3A00120A92A03A00120A9292
:10100300083B00120A92B13C00120A92993D001269
:101013000A92DB3E00120A92094100120A92C94168
:1010230000120A92F84300120A929B4400120A9299
:10103300D94400120A92854600120A929946001278
:101043000A92A34600120A92CD4600120A92D9468A
:1010530000120A92F84600120A92AF4700120A924F
:10106300EE4700120A92F84700120A92AC480012A7
:101073000A92AB4900120A92A44A00120A92414B07
:1010830000120A92E34B00120A92FA4B00120A92E0
:10109300314C00120A924F4C00120A92934C0012E8
:1010A3000A92B84C00120A929E4D00120A920A4EFE
:1010B30000120A92844E00120A92934F00120A926F
:1010C300D25000120A92345100120A92EE510012C9
:1010D3000A92115200120A92E55200120A923053F8
:1010E30000120A92725300120A92C95300120A9212
:1010F300005400120A922E5400120A9267540012EE
:101103000A928C5400120A92145500120A9237570D
:1011130000120A92965700120A922A5800120A9253
:10112300965800120A92EA5800120A9251FF0212CC
:101133000A9290FF02120A92ABB301120A9205B40B
:1011430001120A9261B401120A92ADB401120A9219
:10115300C8B401120A92F9B401120A9216B5011227
:101163000A9222B501120A9296B601120A92AFB6FA
:1011730001120A9216B701120A9229B701120A92B2
:1011830037B701120A92EBB701120A92CFB80112D4
:101193000A92D5B901120A925BBA01120A9265BA90
:1011A30001120A92D2BA01120A92E9BA01120A9200
:1011B3001BBB01120A9254BB01120A927EBB01129D
:1011C3000A92DFBB01120A92FFBB01120A921DBCF5
:1011D30001120A9263BC01120A9289BD01120A929A
:1011E300D6BD01120A9205BE01120A927BBE0112FC
:1011F3000A92A3BE01120A92DCBE01120A92EABE4F
:1012030001120A9242BF01120A9291BF01120A927D
:10121300D0BF01120A9200C001120A922CC001121F
:101223000A9237C001120A9255C001120A9217C1DD
:1012330001120A9221C101120A925CC101120A929F
:1012430072C101120A927BC101120A92D0C101122A
:101253000A92E4C101120A92F2C201120A9205C370
:1012630001120A921AC301120A92BCC301120A9212
:101273003FC401120A92FDC401120A9208C5011269
:101283000A922EC601120A924AC601120A929CC6FB
:1012930001120A92DBC601120A92F0C601120A92E7
:1012A30032C701120A927FC901120A92FDC90112C3
:1012B3000A9270CA01120A9292CC01120A92AACC23
:1012C30001120A92ADCC01120A92B9CC01120A9210
:1012D300CDCC01120A92D5CC01120A9208CD01128B
:1012E3000A92B8CD01120A922ECE01120A92A1CE11
:1012F30001120A9255CF01120A920AD001120A92E0
:1013030029D001120A92C9D001120A92D5D0011232
:101313000A9200D101120A9203D101120A926DD1ED
:1013230001120A9295D201120A926DD301120A9206
:10133300F8D301120A9211D501120A92CED50112E5
:101343000A9207D601120A9238D601120A92D8D607
:1013530001120A9208D701120A92E3D701120A92E4
:101363007CD801120A9207D901120A92B8D9011244
:101373000A923ADA01120A926CDA01120A92ADDA8F
:1013830001120A9209A402120A926EA402120A928C
:10139300ABA402120A92FAA402120A9210A7021232
:1013A3000A92F3A802120A925DAC02120A9298AC56
:1013B30002120A92BAAC02120A921DAD02120A92EA
:1013C30051AD02120A9274AD02120A92A1AD021239
:1013D3000A92FDAD02120A92848D02120A92028EC3
:1013E30002120A92388E02120A92A48E02120A92F2
:1013F300179002120A92339002120A927890021204
:101403000A92069102120A925F9102120A928C9238
:1014130002120A929E9302120A92FB9302120A92FA
:10142300679402120A92C89402120A920995021250
:101433000A92B69502120A92C89602120A92F3967B
:1014430002120A923E9702120A92859702120A9298
:10145300179802120A92D29802120A922BEC0212E5
:101463000A925BEC02120A92B0EC02120A92EFDAD1
:1014730002120A926ADB02120A9275DB02120A92C4
:1014830096DB02120A9285B702120A92D1B70212B0
:101493000A923FB802120A9260B802120A9210B975
:1014A30002120A9219B902120A926CB902120A9232
:1014B30095B902120A92FCB902120A928DBA02126B
:1014C3000A92CFBA02120A9219BB02120A9278BB8D
:1014D30002120A9209BC02120A9248BC02120A9230
:1014E30087BC02120A92BCBC02120A92CEBC021240
:1014F3000A92E0BC02120A92FFBC02120A9208BDD1
:1015030002120A92A8A301120A92E3FA02120A92A1
:10151300F2E902120A9228EA02120A9271EA02120C
:101523000A92C1EB02120A92E2DA01120A9221DC58
:1015330001120A925DDC01120A921CDE01120A9268
:1015430045DE01120A92D8E001120A921CE101124F
:101553000A92A5E201120A923DE301120A92A5E35F
:1015630001120A9246E401120A9288E401120A92D5
:10157300FDB001120A9253E601120A92C3E7011267
:101583000A92E8E901120A9216EA01120A923DEA66
:1015930001120A9246EA01120A92CDEA01120A9254
:1015A300EBED01120A92E0FF02120A929AFF021275
:1015B3000A928AD702120A929DD702120A923AD845
:1015C30002120A9275D802120A9290D802120A9253
:1015D300B5D802120A92FAD802120A922BD9021231
:1015E3000A925CD902120A92E2DA02120A9281FC8E
:1015F30002120A92B7FC02120A92D3FC02120A9256
:1016030015FD02120A9225FD02120A922FFD021203
:101613000A921ECC02120A92DCCC02120A928CCDE0
:1016230002120A92D1CD02120A925BCE02120A92E0
:10163300C7CE02120A923DCF02120A926CEE011239
:101643000A92C1EE01120A926BEF01120A9213F091
:1016530001120A9270F001120A9284F001120A92A6
:101663004EF201120A92C9F201120A92F3F2011226
:101673000A9290F401120A92ABF401120A92FAF45C
:1016830001120A9210F501120A921DF501120A9233
:1016930051F501120A9267F501120A92F2F501124D
:1016A3000A924CF601120A929AF601120A92A4F7D0
:1016B30001120A9226FA01120A92C0FA01120A9240
:1016C30002FB01120A9297FB01120A92B4FB011268
:1016D3000A92B7FB01120A92BAFB01120A922DFC7D
:1016E30001120A9248FC01120A9274FC01120A9236
:1016F300AFFC01120A92B2FC01120A927DFE0212A1
:101703000A9289FE02120A92C3FE02120A92008012
:1017130002120A922B8002120A92ED8002120A929E
:10172300728102120A92DB8102120A92278202124A
:101733000A92A68202120A92388302120A92C48380
:1017430002120A92068402120A924F8802120A9225
:10175300CF8902120A92268B02120A92B28B0212CC
:101763000A92499902120A92039A02120A92759AEC
:1017730002120A92119B02120A92819B02120A928E
:10178300B59C02120A92919D02120A92029E0212C3
:101793000A927F9F02120A9241A002120A9258A152
:1017A30002120A92F7A102120A92B4A202120A9238
:1017B300BEDD02120A9212DE02120A926ADE0212DF
:1017C3000A92B5DE02120A9217DF02120A92B0DF02
:1017D30002120A9218E002120A9224E002120A92FA
:1017E30053F002120A9284F002120A923EF102129C
:1017F3000A92A4F102120A92C7EE02120A92B6FBEF
:1018030002120A92C7FB02120A9267FC02120A92A0
:101813002DF202120A923BF202120A92ED7F00129B
:101823000A92E7FD02120A92F7FD02120A9212FED1
:1018330002120A9273FE02120A92E1F902120A924A
:1018430066FA02120A92CAFA02120A92E5F3021225
:101853000A9207F402120A926DF402120A928DF4AC
:1018630002120A92D3F402120A922EF502120A927B
:1018730098F602120A92ADF602120A9221F70212A8
:101883000A923BF702120A924EF702120A925CF78F
:1018930002120A9276F702120A9296F702120A923B
:1018A30080D002120A928ED002120A9208D102123A
:1018B3000A92ECD102120A92A5D302120A92AD80C7
:1018C30003120A92977900120A92037A00120A927B
:1018D300C27A00120A92CC7B00120A92257D001272
:1018E3000A92807D00120A92D57D00120A92DE7D53
:1018F30000120A92F07D00120A925A7E00120A9296
:101903006E7E00120A92787E00120A92B2E70212E9
:101913000A92BEE702120A92DCE702120A92EDE78C
:1019230002120A920BE802120A9214E802120A92B5
:1019330037E802120A926BE802120A921EE90212B7
:101943000A9238E902120A9274E902120A92F9BD64
:1019530002120A924EBE02120A924AC002120A925E
:101963007CC002120A929EC002120A92B7C00212EF
:101973000A92D0C002120A92DAC102120A9275C206
:1019830002120A928C7E00120A92B07E00120A9210
:10199300C97E00120A92FC7E00120A922D7F001269
:1019A3000A925B7F00120A92BD7F00120A92CC7FDB
:1019B30000120A92D67F00120A92E37F00120A9263
:1019C3005FE002120A9285E002120A92C2E002125A
:1019D3000A92D1E002120A92F0E002120A9258E14E
:1019E30002120A9261E102120A92C0E102120A9201
:1019F300E4E102120A92A3E202120A92B0E2021294
:101A03000A92C1E202120A92448003120A9261808E
:101A130003120A92ECC202120A924AC402120A92F6
:101A230057C402120A926AC402120A9289C40212A9
:101A33000A929FC402120A92B3C402120A9228C5E0
:101A430002120A928DC502120A923DC602120A922E
:101A530012C702120A9222C702120A9231C7021255
:101A63000A924EFD02120A9272FD02120A929AFD26
:101A730002120A92C2FD02120A92EFE202120A92C3
:101A830016E302120A9237E302120A929CE302124D
:101A93000A9255E502120A926EE502120A927AE55B
:101AA30002120A928EE502120A92ACE502120A921F
:101AB300B6E502120A92C0E502120A92D3E50212B7
:101AC3000A9226E602120A925FE602120A928EE652
:101AD30002120A92DCE602120A922BE702120A921F
:101AE30046E702120A9250E702120A9261E70212D3
:101AF3000A92A7E702120A9200FF02120A9249AE63
:101B030002120A9273AE02120A928FAE02120A9264
:101B1300A2AE02120A92B8AE02120A9215AF0212D4
:101B23000A9248AF02120A9284B302120A92AAB42A
:101B330002120A92DDB402120A9229B502120A9223
:101B430055B602120A927DB602120A9292B6021298
:101B53000A92A2B602120A92E6B602120A9247B794
:101B630002120A9257B702120A9265F502120A92FA
:101B730080F502120A92A9F502120A92C3F5021223
:101B83000A92E8F502120A9207F602120A921FF667
:101B930002120A924DF602120A9267F602120A9292
:101BA300008003120A920AD402120A9211D402127A
:101BB3000A921DD502120A924DD502120A9273D5CA
:101BC30002120A9296D502120A92B8D502120A920A
:101BD300F2D502120A9258D602120A9291D6021232
:101BE3000A92DDD602120A920AD702120A922AD761
:101BF30002120A92DEF802120A92F0F802120A9214
:101C0300DBF902120A92DEF902120A92CBF70212F0
:101C13000A923DF802120A927BF802120A92BCF869
:101C230002120A92EBFC01120A9207FD01120A92B8
:101C330056FD01120A9272FD01120A92A3FD0112CE
:101C43000A92B3FD01120A929FFE01120A92A9FEA3
:101C530001120A92B6FE01120A92C6FF01120A92FB
:101C6300DAFF01120A92E3FF01120A926AC7021213
:101C73000A92AFCB02120A92B4CB02120A9280806C
:101C830003120A927CA201120A92D0A101120A92B3
:101C930021A001120A92DC9D01120A92639D011296
:101CA3000A920A9D01120A929E9C01120A92759C45
:101CB30001120A92689A01120A925AB001120A9208
:101CC30007AF01120A92349A01120A92019A011281
:101CD3000A92B8AC01120A92C1AB01120A92E599B9
:101CE30001120A920B9901120A92C39801120A92E5
:101CF300F89601120A92789601120A9275960112C9
:101D03000A927C9501120A924A9501120A928794CB
:101D130001120A92B29201120A92439201120A929A
:101D2300159201120A92129201120A92FF91011264
:101D33000A92979101120A92869101120A92A5AB17
:101D430001120A9235AB01120A92ECAA01120A920D
:101D5300A4AA01120A92E2A901120A92679001123F
:101D63000A92319001120A92F48F01120A92958F0E
:101D730001120A9255A901120A92648F01120A9262
:101D83001F8C01120A92108B01120A929F8A011270
:101D93000A9248A901120A92C8E401120A92648ABB
:101DA30001120A922F8A01120A92238A01120A92BD
:101DB300838901120A92CA8801120A929D8601122E
:101DC3000A92298401120A92E78301120A92B282CB
:101DD30001120A92678201120A92998101120A92F0
:101DE300F08001120A928C8001120A92C6800112BD
:101DF3000A9256A601120A92D0BD0200000080FB8F
:101E0300E473000136360101000102010001030100
:101E13000001040106060502000007010034080161
:101E2300000F090401010D0100FF0E080000170255
:101E33000000190100FF1A0100011B0100FE1C0133
:101E430000081D0200001F01000120010001210202
:101E530000002301000F24020000260100012701D6
:101E63000008280200FF2A0100072B0102402C0171
:101E730000002D0100012E0100012F0100FF3001A0
:101E83000B1C310800003A0100083B01000F2F0131
:101E93000000030071003001600011007000310286
:101EA3002003500480001000610000001400630050
:101EB300730072006200430000001300060000007C
:101EC30000000400120000000000000000000400F5
:101ED3000400370037003C0244000000000000000B
:101EE30000006500000035008100000005000000CF
:101EF30083000000030271023001600211027002CC
:101F03000102020202028002100261023A00410051
:101F13006302730272026202430200021302380078
:101F23000002000204021202000200020002000288
:101F330004020402370037003C0244020002390065
:101F4300000200026502000235028102000205025E
:101F530082028302000201037103010301030103EF
:101F6300010301032203020301031003000300031F
:101F730000030003000300030003420300032403E0
:101F830006030003000304031203250323032503AD
:101F930023030403040300030003000344030003B7
:101FA30000032303000365032100350381030003BA
:101FB3000503000300030003010171010101010195
:101FC30011010101310101010101800110016101D0
:101FD3003B001400630173017201620143010001BC
:101FE300130106013D013500040112010001000146
:101FF3000001000104010401330133013C014401E8
:102003003201360000010001650100013500810144
:102013000001050182018301000136000100060071
:1020230000000F000000000000000000000000009E
:1020330003FFFF00000403FFFF0000FFFF0FF40195
:102043000005C4040320000100000B000000000091
:1020530000000003010F03EAF5E5D5D5C5B5A59545
:10206300958585757565655555454535352525151D
:10207300150501007A170200261703002C17040028
:1020830032170500381706004417FFFF0000D4116C
:102093000412DA11E011FE11F211EC110A121012FE
:1020A30016122212E611CE11C8110AA00F026A0FEE
:1020B300057C0F07700F0C4C0F0D5E0FFF00000027
:1020C300160F00000B150B020002220F3200000650
:1020D300BE12D012D6129E11DC129811A4111E1337
:1020E3003C134213241330132A130C0E020B040B5C
:1020F3000A0708000F303016181920231A1C1E3047
:102103000001191618161615230300000349484247
:102113004D181725050200383C3E363B3B352B4313
:102123002C303017181921301B1D1F301213E212E7
:10213300E812F412EE12F8111C12361328122E12A2
:102143000204020101010109020000000000000075
:10215300BE040A0E00E80304001500280008040C5E
:1021630005030908FF1E1E0A040F100C74F712055D
:10217300D8E99003B0F0900365E4F0121BF49003E8
:10218300B5E4F0A3F09003B1F0A3F01210D8121B42
:10219300FA900334E4F0A3F090216C93FA790212DD
:1021A3001C5A024E0574F21205D8EAFEEBFF548066
:1021B30060699003B0E0F91214B68A088B09EA4506
:1021C30009604F7C0080010CEC75F003A4F8A9F0C2
:1021D30074AD28F582742039F583E493F4602CE41C
:1021E30093F88508828B83E06870DCAA08EC75F0AD
:1021F30003A4F874AE28F582742039F583E493C000
:10220300E0740193F583D082121E03AA08AB09126E
:1022130014AAEEFAEF6480FB022375EF5420601DCD
:10222300120FFA8A088B09EA4509600A120F5EAA9F
:1022330008AB091214AAEEFAEF642080DAEEA2E0EA
:10224300501A90036AE0640F700B7900120F28E9AB
:102253006003122378EE6401FAEF80BB542070030D
:10226300022343750C0012384A8B09EA45097010A2
:102273007C027D007A207B009003B0E0F91215D038
:102283007C0079047A007B00120FD68A088B0980C0
:1022930018850882850983A3A3A3A3A3A3A3A3A348
:1022A3007401F0850A08850B09E5084509606D7C12
:1022B300007904AA08AB09120FD68A0A8B0B750C96
:1022C30001E5082404F8E5091235EE24FFF0A3E044
:1022D30034FF1258E170CC850882850983A3A3A338
:1022E300A3A3A3A3A3A3A3E0640170A58508828588
:1022F3000983A3A3A3A3A3A3E05404709485088232
:10230300850983A3A3A3A3A3A3A3A3A37406F07A1A
:10231300B78508828509831224A48087120FA67CBF
:102323000079017A007B00120FD68B09EA45097008
:1023330009E50C70057A201247A4EE642002225BA3
:10234300EF5402600B1210D2EEFAEF640202221A6B
:10235300EF5404601912493B12485B7901900363FF
:10236300124BBF120E6EEEFAEF640402221A7A00C9
:102373007B000225AB900EEE122C42120F4022C0BE
:1023830082C08374EA120B5B851882851983AA8243
:10239300AB83794B121C307408120D837402F074F2
:1023A30009120D83AA82AB837950121C3074131265
:1023B3000D83E4124D8E121C4E7416023D6874F7A1
:1023C3001205D874E1120B5BEAFEEBFFEE4F6033AC
:1023D300851882851983AC82AD8312101E74061290
:1023E3000D83E0601E7417120D83E0FD7401120D5E
:1023F30083E0FCEEFAEFFB7900120D96E9600479B5
:10240300A480027900024E0074F61205D8EAFEEBAE
:10241300FF8E828F83A3A3A3A3A3A3E05440601BD7
:1024230012527D12257260067AFF7BFF801A8E821C
:102433008F831239F4FAA3E0FB800312104274FE77
:102443006A700374FF6B604112527D1247E81210E9
:1024530096E98E828F83600612249DE48005122400
:102463009D7401F07C2E7D0F8E828F83124BBF12E1
:102473001C54E9F5087015EE4F60097901EEFAEF87
:10248300FB120FB2A9080248197508CDAA088E825B
:102493008F831224A4E960DF80EAE0240D123EC397
:1024A30022E0240C123EC3E0F9120F3A2274F61212
:1024B30005D8E9FEEAFF7A0F7B001214A4EA4B6009
:1024C300198A828B83740CF0EEA3A3F0EF8A828BBC
:1024D30083A3F01248447900802FEEF9120FDC8AAF
:1024E300088B09A808A909E849601C88828983A385
:1024F300A3A3A3A3A3A3A3A37406125508E0F912ED
:102503000EF2EEF9120FB87910024819C082C08397
:1025130090036AE0640F7014EA4B6010900365E067
:1025230064086005E064047003122532023D92EAF8
:10253300FCEBFD7A017B009003B0E0F91215CA228F
:10254300C082C0837900EA241DF582EB1239F1249D
:10255300FD600B14600824FD600424FD7001090272
:102563003D928E828F83A3A3A3A3A3A3A3A3A312AA
:10257300257622123A39FB121096E9228E828F8336
:10258300A3A3A3A3A3A3A3A3A31225766402228ECA
:10259300828F83A3A3A3A3A3A3A3A3A3123D899081
:1025A3000356E06822120ADD7F0602089374F412D0
:1025B30005D874FD120B5B8A088B098A828B83A36F
:1025C300A3E0F9120FDC8A0A8B0BAE0AAF0BEE4FB6
:1025D30070030226B7850882850983A3E064F1604E
:1025E30030850882850983A3E064CD602485088251
:1025F300850983A3E0641A6018850882850983A38B
:10260300E064E9600C850882850983A3E064E170D6
:10261300087900120FB2E9706C850882850983A3DB
:10262300E0C0E07402120D83D0E0123D6DEEF0A322
:10263300EF123098851882851983AA82AB837005BF
:10264300120E56800312107E7402120D83E064E9A9
:1026530070338E828F831226C3750A01780A120A99
:10266300B3750AE9780A120AB3E508240CF582E582
:1026730009122B8A123075FCA3E0FD8A828B831228
:10268300308F120ADD8E828F83A3A3A3A3A3A3A3F8
:10269300A3A3E0640270108E828F83A3A3A3A3A3DA
:1026A300A3A3A3A37406F0850882850983A3A3E0EB
:1026B300F9120FB8120FA6900EF212237B022C47C9
:1026C300E0F8A3E0F9E8FAE9FB2274F41205D8EA8A
:1026D300FEEBFF7508008E828F83A3A3A3A3A3E061
:1026E30060427508088E828F83A3A3A3A3A3A3A329
:1026F300A3123C9C8B0BEA450B601075082C8E8251
:102703008F83A3A3A3A3A3E0D2E0F08E828F83A33E
:10271300A3A3A3A3E05403640160030227B6430801
:10272300110227B6EE2418122C546033EE241A1229
:102733002C54700F1225927003A3E069707575080D
:10274300228070EE241BF582EF1227BB241AF58238
:10275300EF1230A0EE24191252B1120EE08054127F
:10276300257F70037508011225927003A3E0697039
:1027730006E508D2E1F508E50860158E828F83A38C
:10278300A3E07006E508D2E58004E508D2E6F50883
:1027930012256564017006E508D2E0F5088E828F84
:1027A30083A3A3E0600D1227C964016006E508C294
:1027B300E0F508A908022C4C1239DF1227C222E0E7
:1027C300FCA3E0FDEE221239D9123A11F91210845A
:1027D300E922C082C08379018A828B83A3A3E0C3E9
:1027E30094024001198A828B83A3A3A3A3E0C39419
:1027F30002400279008A828B83A3A3A3A3A3A3A38A
:10280300A3A3E064F87003A3E0F460458A828B839A
:10281300A3A3A3A3A3A3A3A3A3E064F97003A3E0C7
:10282300F4602E8A828B83A3A3A3A3A3A3A3A3A34E
:10283300E064FA7003A3E0F460178A828B83A3A396
:10284300A3A3A3A3A3A3A3E064FB7003A3E0F47077
:102853000279008A828B83A3A3A3E0F8900353E059
:102863006860027900023D9274F01205D874DE129A
:102873000B5BEAFEEBFF8E828F83A3A3A3A3E0602F
:102883000E900EF01248106006900EF012237B7427
:1028930003120D83AC82AD838E828F83A3A3A31215
:1028A30048921250CBE9600F7403120D83AA82ABD6
:1028B30083120F58E970087901121C06022B7FEE70
:1028C300241B1239E47410120D8312485B7409122D
:1028D3000D83E06021741A120D83E0FD7404120D60
:1028E30083E0FC8E828F83124BBD7901120D96E932
:1028F3006004790280C37403120D83AA82AB83122E
:102903000F52E9F50A7409120D83E0702A90034D02
:10291300E060247422550A6422601C7442550A64E0
:102923004270CF7420120D83122B9D600A74201203
:102933000D83122B9670BBE9A2E650417403120D6E
:1029430083AA82AB83120F46E970030228BA74206C
:10295300120D831239F46403700F7420120D83A3D4
:10296300124802A3E0640D60147403120D83AA825B
:10297300AB831210A8E964017003022B7FEE242CB1
:10298300122B87122EAB7003A3E069701C7508002D
:102993007808120AB37808120AB3EE242E1252B141
:1029A300122BA312308F120ADD7409120D83E0700B
:1029B30003022A5C122BA3124BBF1210FC8A088B52
:1029C30009EA45097003022AF97404120D83E0F839
:1029D3008E828F83A3A3E028F8A3E03400F9E824D0
:1029E3000D122B8E8A828B83A3A3A3E068601CE85D
:1029F3008A828B83A3A3A3F0908078120D58850855
:102A030082850983A3A3A3A3120D4C7904E9120DB4
:102A1300831250A82AF8A3E034008882F583A3AA7E
:102A230082AB831214988A0C8B0D8C0E8D0F850844
:102A330082850983A3A3A3A3780C120A6A40030225
:102A43002B7F908070780C120BD7850882850983C1
:102A5300A3A3A3A3780C120CF4900365E0640460B1
:102A630008E064096003022B7FE50AA2E540030244
:102A73002B37EE242E122C54851882851983F0EE01
:102A8300242F122C54C0E07401120D83D0E0F0EE19
:102A93002430122C54C0E07402120D83D0E0F07481
:102AA30014120D83E064017027740E120D83123922
:102AB300EAEE2412122C54687003A3E069701174B7
:102AC3000C120D8312258C70077414120D83E4F01D
:102AD300EE2424122B8712095C7404120D83AC823A
:102AE300AD837407120D83AA82AB83120E5C740448
:102AF300120ADD022B7F9003AAE064016003022A1D
:102B03005C7420120D83122B9D7009E50AA2E65016
:102B130003022A5C7410120D83E0F47003A3E0F443
:102B2300605AEEFCEFFD7403120D83AA82AB83128D
:102B33000F648048A2E650447420120D83124BCEDA
:102B4300701A741A120D83E0640270307403120D4C
:102B530083AA82AB83790012107280207420120D35
:102B630083122B967016741A120D83E06404700C92
:102B73007403120D83AA82AB8312106C7422024F6A
:102B83007AEE240BF582EF1239DF22F582E912483F
:102B930074F82212528FE0640722123A116406225B
:102BA300EE242A1239DC1227C224121239DC2274D1
:102BB300F41205D8EAFEEBFF8C088D099005E0E0DE
:102BC300600F1225927003A3E0697005120ECE8088
:102BD3004F7900124BB2120EFE8A828B83E5824537
:102BE300836035A3A3A3A3A3A3E05418602AE50835
:102BF300241BF582E509122B8A120960123288120E
:102C03002B8A120960EE24181252B1122C25120FCE
:102C1300107404120ADD80087900122C25120ED4D8
:102C230080278E828F83A3A3A3A3A3A3A3A3A3120B
:102C330027C2240BF582EF122C3E223400F58312B7
:102C43003A39FB227403120ADD7F04020893EE244F
:102C530017F582EF1248742274F71205D874F7122D
:102C63000B5BEAFEEBFF900365E06403600DE06439
:102C7300016008E064096003022D258E828F83A31F
:102C8300E0707E7C007D007A027B00121C00EE2443
:102C930002FAEF1235F51239EA90035612485B79BE
:102CA30053121C367900122D2AE064096003123096
:102CB300BD851882851983740112483190036574A8
:102CC30004F07401120D83AA82AB83794A121C307B
:102CD3007401120D83AC82AD837A5B7B03121C1EDD
:102CE3009003561250C17A031230C7900350E0A2EA
:102CF300E35004D2F08002C2F012481E12237880FF
:102D03001E8E828F83A3AE82AF83FC7D007A037B0A
:102D130010121C008E828F83E0F9122D2AE4F01228
:102D23000F8E7409024E02900363122C42120E6E30
:102D330090036522C082C083900334124810701F31
:102D4300900365E014600924FC600A14600C800F92
:102D530090033C8032900338802D90033A8028E81A
:102D630049600890033512306F700C8A828B83A3FD
:102D7300E0F9120E62801B900335123324700512A2
:102D830010C6800E9003D212481060061248021239
:102D93001E03023D9274F41205D874FB120B5B8A76
:102DA300088B097A0F7B001214A48A0A8B0BAE0AD4
:102DB300AF0BEE4F7003022E9F8E828F83124D8CCA
:102DC3007950121C30850882850983A3E0600302D1
:102DD3002E87900363E0F47003A3E0F46034900360
:102DE30063E064FE7003A3E0F4602785188285190D
:102DF30083122EAB7003A3E06960178508828509EF
:102E030083A374EA1230A57A637B037950121C36CC
:102E1300807285188285198312527012485B7A5624
:102E23007B037953121C3090035612488C12485B73
:102E33007A597B03794B121C307A587B0379E11260
:102E43001C3090036AE0C3940F5021900358E0C0F4
:102E5300E07402120D83D0E0F07404120D83740148
:102E6300F004120D83AA82AB83121C48750A007802
:102E73000A120AB3780A120AB3900F19E0F9123052
:102E830086120ADD850882850983122EA4A3F09099
:102E930003657403F0EEFAEFFB1248447405022C49
:102EA30049A3E08E828F8322125274E06822123E7D
:102EB300CA2274F51205D874D8120B5B8A088B09E1
:102EC3008A828B83A3A3A3123A167415120D83ACC3
:102ED30082AD838A828B83A3A3A3A3A3A3A3A312F9
:102EE3003075FAA3E0FB120F947415120D83E07092
:102EF3006B850882850983A3A3A3A3A3A3A3A3E04C
:102F0300C3940B40578E828F83A3A3A3A3A3A3A32E
:102F1300A3E064027046EE240B122C54F4703D902F
:102F23000365E06402603AE064066035900334129E
:102F33004810600512306F604F900365E0640860CD
:102F430005E0640470167417120D83E0F9741C1203
:102F53000D83AC82AD83124BB2120F9A74280257C1
:102F63008E900334124810701F7508007808120AF7
:102F7300B37808120AB3EE2410122B871252C91227
:102F830036DD12308F120ADD8E828F83124B2E12A2
:102F930036071239EA7402120D8312485BEE240DD0
:102FA300122C54C0E07404120D83D0E0123098F553
:102FB30008A3E0F509740F7808120D127405120DB9
:102FC30083E508F07419120D83E0C0E07406120D56
:102FD30083D0E0F0741B120D83E0C0E07407120D80
:102FE30083D0E0F07416120D83E0C0E07409120D73
:102FF30083D0E0F07417120D83E0C0E07408120D63
:1030030083D0E0F0EE2410122C54C0E0740A120DA9
:1030130083D0E0F0741A120D83E0C0E0740B120D3C
:1030230083D0E0F07427120D83E0C0E0740C120D1E
:1030330083D0E0F0741C120D83A982AA8389088AC5
:1030430009750A007808120AAB7C087D0074101217
:103053000D83AA82AB831243BF120ADD85188285D2
:103063001983AA82AB83120E68022F5F12332A647C
:103073000122E0F98A828B83A3A3A3A3A3A3A3A31F
:10308300A3E0229003631250C5900359122C4212FD
:103093001054740222F0EE240B1248712212487469
:1030A300FA22F07A567B0379531230B022121C367F
:1030B3007A597B03794B121C3622900363122C42FC
:1030C3001210F6227B00121C009003591250C57A8D
:1030D300047B00121C0022F01252D42274F2120557
:1030E300D874F8120B5BEAFEEBFF8C0A8D0B890C8C
:1030F300851882851983AC82AD837583807582338D
:103103007408120A2AF50DEEFCEFFD851882851965
:1031130083AA82AB83124A8F7003750D019003B1AA
:10312300803BEEFCEFFDE508240BFAE509340012C1
:103133004A8E601E850882850983A3A3E0650C700F
:1031430011850882850983E0650A7004A3E0650B95
:103153006038E5082414F582E509122B8A1235FF3D
:10316300E50845096024E50DA2E040B6850882859F
:103173000983E0650A7004A3E0650B70D5850882B6
:10318300850983A3A3E0650C70C8AA08AB0974087A
:103193000225A8C082C0839003B1023D8F74F71249
:1031A30005D89003B1123A398012EA2414F582EB60
:1031B300122B8A123A16121522EEFAEFFBEA4B7023
:1031C300E99003B1E4F0A3F0024E057F07020893F0
:1031D30074F11205D8EAFEEBFF890A8C088D098E7B
:1031E300828F83E08C828D83123CA6AE82AF83E014
:1031F30012447F1243F0C412447F123291E054030D
:103203008C828D831243EEA2E2E4338C828D83128F
:1032130043ED131313541F12447F1243ECA2E7E44C
:10322300338C828D83A3A3A3A31232918E0C8F0DB3
:10323300750E00780C120AAB7C087D00E5082407A4
:10324300125034120ADD12509F8E0C8F0D780C121F
:103253000AAB7C037D00E508240F125034120ADD0B
:10326300E50AC3940F40148E828F83A3A3A3E0C007
:10327300E0123288122B8AD0E08006123288125470
:10328300FCF00231CEE5082412F582E50922A3A35E
:10329300123CAA0EAF832274F41205D874F9120BF0
:1032A3005BEAFEEBFF8908900334124810600E12AC
:1032B30033247009EEFAEFFB1210C0805F900363B2
:1032C300E06E7003A3E06F70537401650860097AC0
:1032D300777B03124A8F70447A007B0212384E8B3D
:1032E3000BEA450B7036900366120D5885188285DC
:1032F3001983120D4C90036CE0C0E07404120D832B
:10330300D0E0F07405120D837401F07406120D837E
:10331300124D8C120E32E9609B120E387407022C88
:103323004912332A640222125290A3A3A3A3A3A394
:10333300E02274F51205D88A088B098A828B83A34D
:10334300AE82AF83E0F9120E868E828F83E064EB48
:10335300600C850882850983A3E064E17009850810
:1033630082850983A3E4F0122378750A01780A128F
:103373000AB3850882850983A3E0F5087808120A51
:10338300B37900123086120ADD120FA6025791EAB2
:10339300F0A3EBF0023D9274F61205D89003B4E06B
:1033A300701B7C0079017A007B00120FD6EA4B6018
:1033B3000C8A828B831248106003120F340248195F
:1033C300C082C083123836401079FF120FD0E9F85B
:1033D30090216EE493C3985004790180027900022E
:1033E3003D9274F01205D88A088B09890B750C007D
:1033F3008A828B83A3A3A3A3A3A3A3A3E0F9120F9E
:10340300DC8A0E8B0FAE0EAF0F750A01EE4F600311
:103413000234C3850882850983A3A3A3A3A3A312AC
:1034230050C1850882850983A3A3A3A3A3A3A312E1
:1034330041BF124BBF120FC48A0C8B0DAE0CAF0DE4
:10344300EE4F70030235E68E828F83A3A3A3A3E41A
:10345300F0A3F0E508240B1235F2E0C0E0122B8450
:10346300D0E0F012109CEE240CF582EF1247E4E555
:1034730008240EF582E5091239E7EE240EF582EFF2
:10348300124858750C01EE2406F8EF1235EE547FFE
:10349300F0A3E054FC125326E054046003023549C0
:1034A300900EF61241B074077808120BC48E828F07
:1034B30083A3A3A3A3A3A3E04508F0A3E04509F0D6
:1034C3008E828F83A3A3A3A31235FD7407780812FA
:1034D3000D12E5085407F508E50B607A8E828F8399
:1034E300A3A3A3A3A3A3A3A3A374021243F1240D31
:1034F300123EBFE0A2E2500B90035112488CA3A3EB
:1035030012485BE50870030235BBEE2406F8EF347E
:1035130000F9E8FAE9FB8A828B83E0547FFCA3E09D
:1035230054FCFDE50824FFF508E434FFF5097407AE
:103533007808120BC4EC4508F8ED4509F98A828B2B
:103543008312485B80728E828F83A3A3A3A3A3A35A
:10355300E044800234C2E5087005750A0080598E84
:10356300828F83A3A3A3A3A3A3E054206012121406
:103573009EEA547F245F8E828F83A3A3A3A3802319
:103583008E828F83A3A3A3A3A3A3E05410600A1284
:10359300149EEA540F240A80DD8E828F83A3A3A393
:1035A300A37401F0A3E412360774041238458B099F
:1035B300EA450970031247D7E50CA2E050288E8232
:1035C3008F83A3A3A3A3124DF2F9EEFAEFFB120F1D
:1035D300CAE9601212480660031239CFEEFAEFFB14
:1035E300121522750A00A90A024F7D12494F22FAC9
:1035F300E5093400FB8A828B8322A3A3E0F508A3A9
:10360300E0F5092212360B22125050A3A3A3A3A361
:103613002274F41205D874F7120B5B7E00120FDCD0
:10362300EA4B70030236D68A828B83A3A3A3A3A398
:10363300A3A3A3A3E0640660030236D68A828B8326
:10364300A3A3A3A3A3A3A3E0FF8A828B83123ED2E7
:10365300E0C0E07408120D83D0E0123A0A124A95D2
:1036630012485B120FEEEF540860668518828519C5
:10367300831250C17A007B00120FBE8B0BEA450BFD
:10368300704F900363123AFA121C607C007D007A3B
:10369300007B0080288E828F831239F4F47003A399
:1036A300E0F4602D9003631236DD124BBF12195400
:1036B300E9641A601C7C007D00EEFAEFFB120FBE7A
:1036C3008A0A8B0BAE0AAF0BEE4F70C97900121C3E
:1036D300667E01EEF97409022C491236E122E0FC00
:1036E300A3E0FD8E828F8322C082C083EA4B7005E4
:1036F3009003B580068A828B83A3A31238FA6025D0
:103703008A828B83A3A3A3A3A3A3A3E0540860E5A6
:10371300EC4D60158A828B831239F46C7003A3E03D
:103723006D70D280047A007B00023D9274F2120520
:10373300D8EAFEEBFF890A8C088D097A107B001208
:10374300151CEA4B603F8A828B83A3A3A3A3A3A385
:10375300A3A3A3E41239F8A3E50A125296A31237DE
:10376300928A828B83A3A3A3A3E4F0A3123A04A3B4
:10377300F012512AEA240CF582EB123C9612378B95
:10378300A3A3F0A3F00225ABA3F08A828B8322A329
:10379300A3E508F0A3E509F02274F41205D8EAFEC4
:1037A300EBFF89088C0A8D0BEE4F60557401650899
:1037B30070147901120FD0E9F8902166E493C3984D
:1037C300500F7911806A74046508702F12383640DF
:1037D300F18E828F83A3A3A3A3A3A3A3A3A3E5082B
:1037E300123CA6A312581B8E828F83A3A3E4F0A3DB
:1037F300F09003B51248106021800D7402650860D3
:10380300D079C1802BE0F8A3124885A3A31238FA1C
:1038130088828983A3A370ED80039003B5EEF0A3A0
:10382300EF1238458B0BEA450B70031247D779002B
:10383300022C4C7904120FD0E9F8902163E493C36E
:103843009822F012384A227A207B009003B0E0F9E4
:103853001215DC22C082C083E9F879009003B58099
:103863001D8A828B83A3A3A3A3A3A3A3A3A3E0681B
:10387300600574FF687001098A828B83A3A31238E1
:10388300FA70DE023D9274F71205D8EA4B70059088
:1038930003B580068A828B83A3A31238FA60248A35
:1038A300828B83A3A3A3A3A3A3A3A3A3E06970E42D
:1038B300EC60148A828B83E0240D1250B2A2E240A2
:1038C300D380047A007B00024E05C082C08390033C
:1038D300B580068A828B83A3A31238FA60128A8288
:1038E3008B83A3A3A3A3A3A3A3A3E06970E580048D
:1038F3007A007B00023D92122C42EA4B2274F212B0
:1039030005D88A0A8B0B8C0C8D0D75080075090080
:10391300EA450B602E9003B580068E828F83A3A3A6
:1039230012394D601EAC0CAD0DEEFAEFFB850A8229
:10393300850B83121E03E9640170DFEEF8EFF9884B
:10394300088909AA08AB090225ABE0FEA3E0FFEE54
:103953004F2274F71205D89003B51239EA7C007D23
:1039630000800DE8FCE9FD88828983A3A31239EA6C
:10397300E8496030EA687002EB6970E79003B512BA
:103983004BBFE86A7002E96B88828983A3A370083E
:103993001239EA9003B580091239EA8C828D83A328
:1039A300A312485B024E0574F71205D8EAFEEBFF3B
:1039B300EE4F6015120FE8123A1C1248066003120C
:1039C30039CFEEFAEFFB121522024E05EE240C124C
:1039D30039DC123A3122EE241DF582EF3400F583EF
:1039E30022F582EF1239DF123D8922F582EF123977
:1039F300DF123A11221239FC2212529EA3A3A3A36F
:103A0300221239FCA3A32212378C123A112212522A
:103A130089E022E0FEA3E0FF228E828F83E0241C54
:103A2300123EC3123A318E828F83123A3122123AF6
:103A330039FB12152222E0FAA3E022C082C083EAF6
:103A4300FCEBFDEC4D700479058044EC24FBF5821E
:103A5300ED34FF12480E7007123A95E0F460051238
:103A630014AA80E39003B0E0C0E0123A95D0E0F0EE
:103A730090216AE493F97AB77B031214D4E96401C1
:103A8300700B7A007B201247DB79008002790402F5
:103A93003D92EC24FFF582ED34FFF5832274F4129A
:103AA30005D8A2AFE433F508C2AF9003B712394D7E
:103AB3006038EE24FBF582EF34FF12480E7A007B68
:103AC300209003B060051247DE8005E0F91214E090
:103AD300E4F50AF50B780A120AAFEEFCEFFD7AB7AC
:103AE3007B031214CE7402120ADDE508A2E092AF42
:103AF300EEFAEFFB022C4C1250C585188285198310
:103B0300AA82AB832274F21205D874FC120B5BEA0F
:103B1300FEEBFF750AFE750BFF120FACE96005792A
:103B230011023C8BEE2415122C546037900F0AE0DF
:103B3300C43354E0F8E0333354FC48C0E0EE2415BA
:103B4300122B87D0E0123CA6123C9C8B09EA450954
:103B53006011750AFFEE240F122C544404124869B5
:103B6300D2E0F08E828F831225706006EE2412124B
:103B73003C93EE2413122C547010902169E493C0EB
:103B8300E0EE2413122B87D0E0F08E828F83E0A225
:103B9300E750045403801CEE2414122C5470159027
:103BA3000342E0C0E0EE2414122B87D0E0F0900330
:103BB30042E004F0EE2411122C54640170169005B7
:103BC300D7E0600D90034DE0700A8E828F83E07022
:103BD30003123C908E828F83E064017013EE240BFA
:103BE3001239EE64027009EE240F122C544440F093
:103BF300851882851983AC82AD83EEFAEFFB121030
:103C0300128A088B0974FE650A700374FFF4700945
:103C13008E828F83A3A3125040EA450960668E8289
:103C23008F83E0C0E07401120D83D0E0F0740212C0
:103C33000D8312512E7401120D8385820C85830D21
:103C4300780C120AAFEE240F122B87120960EE24B0
:103C53000E122C54F50C780C120AB3900356120969
:103C6300607407120D83E0F9AC0AAD0B12100C74EB
:103C730007120ADDE9FE74106E700BAA08AB091275
:103C8300152280027E10EEF974040225A8EE241199
:103C9300F582EF1239DFE4F022A3122C4279FF12EE
:103CA3001D5022123CAA22F08E828F83A322C0824F
:103CB300C08374DE120B5B8A828B83A3A3A3A3123C
:103CC30039EA740E120D83E8F0A3E9123D80740CF7
:103CD300120D83123D79240DF582EB122C57C0E0AF
:103CE300741A120D83D0E0F0124F8DEB1239E77482
:103CF30020120D83123D792415F582EB122C57C047
:103D0300E07408120D83D0E0F0EA241CF582EB1274
:103D130039E77412120D83123D792411F582EB12E7
:103D23002C57C0E07409120D83D0E0123D6D74FF6F
:103D3300F07401120D8374FFF07402120D8374FF8B
:103D4300F090807812095C7404120D83AC82AD8309
:103D53007407120D83AA82AB83120E5C7404120AD9
:103D6300DD79007422120ADD8025123D7122F0856F
:103D7300188285198322E8F0A3E9F0EA2212378C2E
:103D8300A3123D8822A3E0F8A3E0F922124BBFD08F
:103D930083D082020A8F74EC1205D874EE120B5B87
:103DA3008A128B13ECFEEDFF89097426120D831220
:103DB30050407428120D83E0F5107429120D8312FC
:103DC3003EB4742B120D83E0F50EA3E0F50F7508D6
:103DD300107A1E7B0012151C7402120D831247E821
:103DE3007402120D831248107003023EAD851882CF
:103DF300851983AA82AB8379501246C3124BBF74D1
:103E030002120D83123ED2A31247E87410120D83DF
:103E130012581D7402120D83E0240B123EBF74026C
:103E2300F0120D83123ED27402F0120D83125281EE
:103E330012512E7402120D83124BD4E509F0740251
:103E4300120D83E0240C123EBFE510F07402120D34
:103E530083123EBCE512F0A3E513F07408120D8340
:103E6300E50CF0A3E50DF0740A120D83E510F0855F
:103E73000E82850F83C082C083740D120D83AC82C2
:103E8300AD83D083D0827403120A2AF97402120D0F
:103E930083AA82AB83120FB2E9640170057508002F
:103EA30080087402120D831239D5A90874120250C6
:103EB30057E0F50CA3E0F50D22E0241C123EC322CB
:103EC300F8A3E0123ECA223400F9888289832212C1
:103ED3004BC7A3A3A3A3A32274EE1205D8EAFEEB58
:103EE300FF8C088D098E828F83A374081248A4E087
:103EF30060088E828F83A37410F0122C5160098E98
:103F0300828F83A3E02408F0EE2415122C5460085A
:103F13008E828F83A3E004F08E828F83A3A3A3A357
:103F2300A3A3E060198E828F83A3A3A3A3A3A3A358
:103F3300E0C3332402F88E828F83A3E028F0EE24BB
:103F430011122C546005750B0E8003750B008E82C5
:103F53008F83A3C082C083EE240D122C54D083D050
:103F630082F8E028250B8C828D83F0EE2411122C2D
:103F73005460051243CF28F0850882850983E0C386
:103F8300947540097508007509000240BDE0FA7B8D
:103F9300001251DC70030240BDEEFAEFFB12101861
:103FA300EA8508828509831247E9EE2402F8EF12B5
:103FB3002EB11241B71240F9F0EE24040808EF12B3
:103FC3002EB11245F9A31240F9A3A3F0EE24131264
:103FD30040DFF0EE24141240DFA3F0750A08EE244C
:103FE30016122C546010EE24181250BEE508240853
:103FF3001252BF750A10122C516016EE241A125079
:10400300BE850A0CE508250C1252BF7408250AF573
:104013000A8E828F83A3A3A3A3A3A3E06059EE24F4
:1040230007F510EF3400F511851082F583E0C0E049
:104033001240C6122B8AD0E01240E9E0C0E01240E1
:10404300C6122B8AD0E01240E9A31240D2120AAB67
:10405300851082851183E0C333FCE433FD850A0CAC
:10406300E508250C125034120ADD85108285118370
:10407300E0C333250AF50AEE2415122C54600BC055
:10408300E01240C6122B8AD0E0F0122B841240D2E9
:10409300120AABEE240D122C54FC7D00850B0A8E04
:1040A300828F83A3E0F8E50828F8E5093400F9E8EE
:1040B300250AFAE9125037120ADDAA08AB097F0A6A
:1040C300020893850A0CE508250CF582E50922E030
:1040D300F50CA3E0F50D750E00780C221239DC12F5
:1040E3004103A3A3A322F0050A8E828F83A3A3A374
:1040F300A3A3A3A3A322A3A312532AA3124103227C
:104103001245FDA3A32274F61205D88A828B83E09D
:10411300FC9003531241B074027808120BC4EC45AF
:1041230008FCAD09EA24121241AA74067808120B9E
:10413300C4EC4508FCED4509FDEA2415F582EB12B4
:104143002C576004780180027800E4C8F9ED49FD3A
:10415300EA2411F582EB122C57F5088809740978C3
:1041630008120BC4ED4509FDEA24161241AA740B8B
:104173007808120BC4ED4509FDEA24171241AA740D
:104183000C7808120BC4ED4509FD8A828B83A3A327
:10419300A3A3A3A31241B0740A7808120BC4ECFAC8
:1041A300ED4509FB024819F582EB1239DFE0F5080A
:1041B30075090022E085088285098322A3E0F98539
:1041C30008828509832274EE1205D88A0A8B0BECC8
:1041D300FEEDFF750F01E9C3940850057900024312
:1041E300BC8E828F83E9F0124622E96003750F00CB
:1041F3001246068E828F83124650EE124F8EEF12B6
:104203004645C0E0EE2411122B87D0E012463DC094
:10421300E0EE2412122B87D0E0123CA67408125051
:1042230048A3A3A3E060151245EEEE2413F582EF35
:104233001248588E828F83A3E02408F08E828F83E6
:10424300A3A3A3A3A3A3A3A3E060218E828F83A32D
:10425300858208858309124631EE2415F582EF1213
:104263004858850882850983E02408F08E828F836D
:10427300A3A3A3A3A3E0601A8E828F83A3858208DE
:104283008583091246158E828F83A3A3A3A3A3124A
:1042930043E1EE2419123C93EE241B123C93A31228
:1042A300489CE07003024350EE2419F8EF3400F900
:1042B3008E828F83A3858208858309E0FAE50A2A23
:1042C300F582E50B122C57888289831243E1FAE5C4
:1042D3000A2AF582E50B122C57C0E0EE241A122BA2
:1042E30087D0E01243E188828983E06059F8902106
:1042F30062E493C398500575110C8008EE241912DB
:104303002C54F5118E828F83A3E0F8E50A28F50C6F
:10431300E50B1243C5120AABE511C333FCE433FDCD
:104323007ABE7B0D1243BF120ADDEE241B122B87CC
:1043330074BEF0A3740DF0E511C333F885088285CC
:104343000983E0288006EE24181254F9F08E828F38
:1043530083A3E0F88E828F83E0C39850030241DF8A
:10436300A3E0FA8A08E50A2508F8E50B3400F9EE1C
:10437300241DF582EF1249641243F1C39AC0E0EEA3
:104383002417122B87D0E0124861602BEE2417F814
:10439300EF3400F9880889098882F583E024F21252
:1043A3004945240EFAA3E03400FB8882898312472F
:1043B300E81243CFC398F0A90F0240C112148674C8
:1043C30003223400F50D750E00780C2290034EE0A5
:1043D300F9120D9CE9F8850882850983E022F085AE
:1043E3000882850983E004F022A3A3A3A3A3F08E8C
:1043F300828F83E02274F41205D88A088B09EA12AB
:104403004486F0EA1313543F12447FA3A3A3F0EAB4
:10441300C41313124486A3A3F0EB124478124490FE
:104423007409780A120D1212447612448F740A78B2
:104433000A120D12E50A5401C0E0EC2418F582EDCE
:10444300122B8AD0E0124495740B780A120D1212C3
:104453004476A312448F740C780A120D1212447618
:10446300A3A3A3A3A3A3A3A3F0740D7808120D120F
:104473000227B6E50A54018C828D8322540F8C8265
:104483008D832254038C828D83A3A322A3A3A3A38E
:10449300A3A3F08A0A8B0B22C082C08379008A828D
:1044A3008B83A3A3A3A3A3A3E090034D600FE070AA
:1044B300228A828B83A3A3E07019098016E060131C
:1044C3008A828B83124BB6900356E06A7003A3E093
:1044D3006B70E7023D9274F01205D88A0A8B0B8940
:1044E3000C8C088D0912462212460685088285091E
:1044F30083124650E508124F8EE509124645C0E087
:10450300E5082411F582E509122B8AD0E012463D15
:10451300C0E0123288122B8AD0E012496C74081260
:10452300498560111245EEE50824131249601249CA
:104533006CE02408F0850882850983A3A3A3A3A3C1
:10454300A3A3A3E06017850882850983A312462DE0
:10455300E50824151249601243F12408F085088206
:10456300850983A3A3A3A3A3E06019850882850912
:1045730083A3AE82AF831246158508828509831211
:1045830043EC04F0AA08AB0912102AE9F50D7056A2
:10459300850882850983A3A3A3A3A3A31245F97066
:1045A30014E0FA8A0EE50A250EF8E50B12484DE5EC
:1045B3000CC39A802112462DE8240EF8E912484DC7
:1045C30090034EE0F9120D9C8E828F83E0F8E50C88
:1045D300C39824F2C399C0E0E5082417F582E509DE
:1045E300122B8AD0E0F0A90D024F7DE50A2408F8CA
:1045F300E50B3400F9221245FD22E0850882850986
:1046030083A322850A82850B83A3A3124666E0F95E
:10461300EA22E0F8E50A28F582E50B124874228ABB
:10462300828B83124F8212102422AE82AF83E0F872
:10463300E50A28F8E50B3400F922124679A3A3A36F
:10464300E0221239DFE8124672A3A3E022A3A3A358
:10465300A3A3A3A3A3A3124672124666A3A3E0F9DE
:10466300EAF822E0FA850A82850B83A3A3A322F04A
:10467300A3E912467922F0850A82850B83A3A3A3BB
:10468300A322C082C0837AC57B0379E2121C307AED
:10469300C57B03023D92C082C083900356023D8FC7
:1046A300C082C08374FE120B5B851882851983AAAE
:1046B30082AB83794B1246C3124BBF7402023D682F
:1046C300121C3085188285198322C082C083794ADF
:1046D300121C30023D9274F61205D89003CDE0FE11
:1046E30004F0EEF9120FDC8B09EA450970EDEE6078
:1046F300EAF902481974F01205D8EAFEEBFF8C08B8
:104703008D09890A7410120D83E0F50B7411120DD3
:1047130083E0F50C1210FCEA4B7013E50C7042A910
:104723000AAC08AD09EEFAEFFB121114806EE50A2C
:104733006021EA2402F582EB122C57850A0825082A
:10474300F8E4340013E813F070098A828B83A3A37F
:104753007401F0E50C6045E50B70068A828B83E4F7
:10476300F07401650C7035E50B9003D47004E4F02C
:10477300802AE004F0900EF7E0F89003D4E0C398A9
:10478300401AE4F0900359E06E7003A3E06F700CDD
:10479300EEFAEFFB7901120E801247A2024F7D7AE7
:1047A300017B009003B0E0F91215D622C082C083CA
:1047B30074016A7001EB70077A011247D980129075
:1047C3000EEE1247E8EA4B600512253280031247CA
:1047D300A2023D927A207B009003B0E0F91214DA32
:1047E300223400F583EAF0A3EBF022C082C0839069
:1047F3000EF0023392C082C083900EF20233921203
:10480300529022EE240CF582EF3400F583123D8999
:10481300E84922120ADD7F02020893A2F0E43385FD
:10482300188285198312483A7952121C362212488B
:104833003A7942121C3622F0AA82AB8322AA08AB31
:10484300099003B0E0F91214B0223400F9E508240A
:104853001DF582E5091239DFE8F0A3E9F0221250D1
:104863004CA3A3E022A3F0EE241512487122F58293
:10487300EF3400F583E02212487E223400F583E012
:10488300F8A3E0F98882898322E0F812489222A3F0
:10489300E0F98E828F83A3A322F0EE24181239DC71
:1048A30022F0EE24161239DC2274F41205D8EAFE43
:1048B300EBFF7A007B041247A612493B12485B9038
:1048C30003657409F01210368A088B09AC08AD0928
:1048D300EE2413122B87124BBF124A8F64017048C8
:1048E3007A0F12492E60418A828B837402124945E2
:1048F300FAA3E0FB8A828B83A3E0FC8A828B83A3E7
:10490300A3E0FBEC850882850983A3A31247E9880A
:10491300828983124BC31241B7124868FAA3E0FBA2
:10492300794A121C36124840022C4C7B001214A404
:104933008A088B09EA450922900336123D89900EB5
:10494300F222F0EE241DF8EF12494F22123ECAE084
:1049530022124958223400F5837401F022F582E5CE
:10496300091239DFE8F0A3E92212497022124974CF
:1049730022F0850882850983A322124974A3A3A385
:10498300A32212497DA3A3E022124D9612108A227C
:10499300EE2417F582EF124958121036EE241A123C
:1049A30039DCEAF0A3EBF02274F41205D874F312A5
:1049B3000B5B8908EAFEEBFF7C0D7D00790085180F
:1049C30082851983AA82AB83121492EE241D122BC3
:1049D30087125281A3E0F8741F58600A7901121CF0
:1049E300067900024A86E8A2E55008740C120D838A
:1049F3007401F0E8A2E75008740B120D837401F000
:104A0300E8A2E6740A5008120D837401F0800812BC
:104A13000D83E064017005EE24138003EE24151268
:104A230050BE7402120D83AA82AB83121C1E122B7A
:104A330084124A9412485B740A120D83E064017075
:104A430033122565703B1210428A0A8B0BA80AA900
:104A53000BEE240B122C54687003A3E0697022122E
:104A63001036EAFCEBFD7402120D83AA82AB8312AB
:104A73004A8F600D851882851983AA82AB83120E33
:104A83007AA908740D022C49EEFAEFFB121C18E9FF
:104A930022E0124A9922F8A3E0F985188285198346
:104AA3002274F61205D874F3120B5B8A088B09EC97
:104AB300FEEDFF7C0D7D007900851882851983AAA0
:104AC30082AB83125426A3A3A3A3A3A3A3A3A312DA
:104AD3004B2E124B37F8A2E55008740B120D83745A
:104AE30001F0E8A2E75008740A120D837401F0E89C
:104AF300A2E6EE50042413800224151250BE740261
:104B0300120D83124B20A3A3E0C0E0740C120D839B
:104B1300D0E0124D8E120E74740D024816AA82ABA9
:104B230083121C1E85088285098322E0124A99E8B4
:104B3300F0A3E922F01239D9125285A3E02274F7C7
:104B43001205D874E1120B5BEAFEEBFF8E828F83B2
:104B5300124BC3A3A3A3E0A2E050518E828F831212
:104B630026C58A828B83A3A3A3A3A3A3E054FE1227
:104B73004BDB8A828B83124BD4E0F98A828B83E0EE
:104B8300241CFAA3E01235F5124BBF121030E97062
:104B93001B741D120D83124BCE701185188285195B
:104BA30083AC82AD83EEFAEFFB121078024E008ED7
:104BB300828F83A3A3A3A3A3A3A3A3A3122C422201
:104BC300124BC722125289A3A3A322123A116404DF
:104BD30022E0241B123EC322123D71AC82AD83221C
:104BE300E9F87900740468600A740A68600574035C
:104BF30068700109020A8F74F61205D88A828B83C2
:104C03007420F0A3A37401F0120E268A088B09AE58
:104C130008AF09EE4F60108E828F837401F090030A
:104C2300A3E07003124993EEFAEFFB024819C08226
:104C3300C0839003B97401F0E9A2E350037403F055
:104C4300E9A2E15004E0D2E2F0023D9274F61205CB
:104C5300D879007C008A088B09780812084DF8FF80
:104C630007824C804C804C804C804C794C7D4C822C
:104C73004C764C0C80097C0480050C80F67C0890F3
:104C830003B9E05C6003098003EC60010902481981
:104C930074F61205D88A828B83E07012A31248102F
:104CA300600C8A828B83124BBE121D5C80047A00D7
:104CB3007B0002481974F51205D874F3120B5B8A52
:104CC300088B09ECFEEDFF750A12EA4509700579B8
:104CD30000024D87900356E065087004A3E0650960
:104CE3007014121036EAFCEBFD124A8B7005750A3C
:104CF300018003750A00851882851983E4F0041284
:104D03000D83E508F0A3E509124D8E120DEAE96063
:104D1300277403120D83AA82AB83120DCCE96401BD
:104D23007016750A017403120D83AC82AD83124AA7
:104D33008B6021750A00801C7412650A701690033B
:104D4300A2E06402700EEEFCEFFDAA08AB09120E9E
:104D530002E970DFEEFCEFFDAA08AB09121102E9CC
:104D6300F8740A687005750A01801774A0687012D8
:104D7300EEFCEFFDAA08AB0912110EAA08AB09124B
:104D83001120A90A740D02578E7402124D92221239
:104D93004D9622123D71AA82AB832274F71205D875
:104DA300EAFEEBFF8E828F83A3A3A3A3A3A3A3A3F4
:104DB300E06015EE2415122B87122C321210A2E993
:104DC30064017004790180258E828F83A3A3A3A33A
:104DD300A3A3A3E06015EE2413122B87124DF2FA5E
:104DE300A3E0FB1210A2E9640160D97900801312D9
:104DF30036E1A3A3A3A3A3A3A3A3A3E022741F1237
:104E03000ADD7F0102089374F01205D874FD120BBA
:104E13005B8A088B09ECFEEDFF890B7413120D837B
:104E2300E0F50C750A017401120D8374041252B972
:104E33006048E50C601DEA2417F582EB1254FC125E
:104E430052A78A828B83E0D2E7F0EA2414F582EB3F
:104E5300123C96124F8DEB12487A740312581FEED0
:104E630088828983A3A3F0EF88828983A3A312375F
:104E73008B123792120E20E9F50AA90A7403024F26
:104E83007A74EC1205D874F5120B5B8A0A8B0B89C2
:104E93000C8C0E8D0F741F120D83E0F50D74201210
:104EA3000D83E0F510A3E0F5117E01EE120D83747E
:104EB3000AF0E97007E50DC333240AF012505F705E
:104EC30003024F611250747409F0A3E50CC4335408
:104ED300E0450D125086E50C702D7C008023ECC359
:104EE30033F8E433F9E51028F8E51139F9888289B4
:104EF30083124F6E88828983122EA4F0A30EAF8390
:104F03000CECC3950D40D7E5082417F582E509128B
:104F13004954121036E508241AF582E5091247E4CC
:104F23007403120D83AC82AD83AA0AAB0B120DD2AC
:104F3300E96019E5082416F582E509124F68120D98
:104F430083A882A983E5082418124854850882851A
:104F5300098312581BAA08AB09120E20E9FEEEF9C9
:104F6300740B025057124958740322E08E828F83C8
:104F7300F0A3AE82AF8322120ADD7F0802089312E8
:104F83003A39F9EA2400E439FB22EA240BF58222B8
:104F930074EE1205D88A0C8B0D890E8C088D09745A
:104FA30012120D83E0F50F7413120D83125040900B
:104FB30005461248106077E50FC333F8E433F9E888
:104FC300240EFAE93400FB1214A48A108B11AE10DC
:104FD300AF11EE4F60588E828F8374D4F0A3A3E594
:104FE3000CF0A3E50D125048E50EF0AC08AD09EE48
:104FF3002405FAEF1252C2EE240D122B87E50FF0AF
:10500300850A08850B09750A007808120AABE50FB3
:10501300C333FCE433FDEE240EFAEF125037120AC9
:10502300DDEEFAEFFB900546125281121E03024099
:10503300C1FAE5093400FB121486740322E0F50A71
:10504300A3E0F50B2212504C2212505022123CAA1C
:10505300A3A3A322120ADD7F0C020893851882857D
:105063001983AA82AB8312108A8A088B09EA45093D
:1050730022EA240BF582EB124874FEA3E0FF8E8232
:105083008F8322F0A3AE82AF83AC0EAD0FEEFAEFA7
:10509300FB12509822121C1E12509F22EE2408FE6F
:1050A300EF3400FF22E0FA8E828F83A3A3E022FE77
:1050B300A3E03400FF8E828F83E0221239DC12508A
:1050C300C522E0FCA3E0FD22122C4212101E227422
:1050D300F61205D8EAFEEBFF9003BA8013888289A3
:1050E30083E06E7003A3E06F603A88828983A3A391
:1050F30012481070E87A047B0012151C8A088B0989
:10510300A808A909E849601C8882898312512E9056
:1051130003BA124BBF88828983A3A31247E8900383
:10512300BA12485B0248198A828B83EEF0A3EFF030
:105133002274F41205D87E009003BA80070E888289
:105143008983A3A312481070F4EEC333FAE433FB4C
:105153001251DC607E7F009003BA802488828983A9
:105163001250C1EFC333FAE433FBE5082AF582E5B5
:10517300093BF583ECF0A3EDF00F88828983A3A3A9
:1051830012481070D79003AB12259F7003A3E069F8
:1051930078087019120AAFEEF50A780A120AB37C7E
:1051A300777D0379009003AB1251E7801A120AAF9F
:1051B300EEF50A780A120AB37C777D03790090032F
:1051C300AB124BBF1210B47403120ADDAA08AB0969
:1051D300121522120E38022C4C12151C8A088B0948
:1051E300EA450922122C421210BA22C082C08380DF
:1051F300128A828B83A3A31239EA9003BA12485B03
:105203001215229003BA1238FA70E6023D9274F630
:105213001205D8900363123A169003CE12527012FD
:10522300485B7ACE7B037950121C369003CE12274B
:10523300BEFAEFFB12111A9003CE123A16900548EC
:1052430012481060257A067B001214A4EA4B601AF8
:105253008A828B8374D5F0A3A3E41252960412526C
:10526300A7900548125281121E0302481912527464
:1052730022E0F8A3E0F9900363228E828F83125217
:10528300852212528922E0F812528F22A3E0F5837D
:1052930088822212529A2212529E22F08A828B8391
:1052A300A3A3A32212529AA3EEF0A3EFF022F58256
:1052B300EF124874F92212498CEA4B22FAE50934B9
:1052C30000FB121C1E22124893A3A3A3A3A3A3A310
:1052D30022902164E4932401F8E43400F97A027BF8
:1052E300002274F71205D87E0080041258D20E12E1
:1052F30053F640F77E00EE12531174FEF0A304122E
:105303005326E4F00EEEC3940340EB024E0575F012
:1053130003A4F8A9F074BC28F8740339F9888289C6
:1053230083A32212532A22F0888289832274F712DC
:1053330005D87F0080010F902161E493F8EFC398B3
:105343005026EF1254E26A7003A3E06B70E8125820
:105353007F6C7003A3E06D600A74FF6C700374FFCD
:105363006D70D31253ED80047A007B00024E0574F6
:10537300F61205D87CFF7DFF7AFE7BFF1210DEEA72
:105383004B70407508008036E50875F017A4F8A93E
:10539300F0745928F582740C1254F4600C74582874
:1053A300F582740C1254F47013744A28FE740C3989
:1053B300FF8E828F83125501EEFAEFFB050812541C
:1053C3005C40C502481974F41205D88A088B09ECAD
:1053D300FEEDFF800B1210F0EEFCEFFDAA08AB0907
:1053E3001210DEEA4B70EE022C4C744A28FA740C4D
:1053F30039FB22902161E493F8EEC3982274F712EB
:1054030005D8EAFEEBFFEE4F601012542074FEF055
:10541300A30412582514F0A304F0024E057C177D53
:105423000079001214928E828F832274F71205D8AA
:10543300EAFEEBFF7508008018E50875F017A4F87D
:10544300A9F012588A7003A3E06F60031258DA05BB
:105453000812545C40E3024E05902161E493F8E5A1
:1054630008C3982274F61205D81210DE8A088B0935
:10547300A808A909E849600AE8240DFAE93400FB01
:1054830080047A007B0002481974F41205D88A0A52
:105493008B0BECFEEDFF750800750900802EE50906
:1054A30075F017A4F8A9F01258C5601EE509125447
:1054B300E2650A7004A3E0650B700375080AEEFC4D
:1054C300EFFD12578160034308A00509902161E4B1
:1054D30093F8E509C3985004E50860C20227B6753E
:1054E300F017A4F8A9F01254ED22744A28F5827437
:1054F3000C39F583E022F582EF1239DFE422122C16
:1055030042120F162212532AA3A3A3A3A3A3A3A356
:105513002274F21205D88A088B09ECFEEDFF740E93
:10552300120D83125040750C007C007D0180101217
:10553300149EE50CF5F0EA84ACF0750C007D007860
:1055430000790080031256BE12571A40030255E039
:10555300E8FAE9FBEA75F017A4FA85F00D75F01780
:10556300EBA4250D1256F67003A3E0F460D7125690
:10557300D465087004A3E0650960CA1256D46E703E
:1055830003A3E06F60BF1256D4650A7004A3E065FD
:105593000B60B2E8FAE9FBEA75F017A4FA75F017A5
:1055A300EBA4250DFB74582AF582740C1256B550E2
:1055B3009474016D050C608DE50CC39C4087E87500
:1055C300F017A4F8AAF075F017E9A42AF9744A2889
:1055D300F582740C39F583124BBF0256B278007909
:1055E3000080031256BE1257274003025699E8FA69
:1055F300E9FBEA75F012A4FA85F00D12570664FE72
:105603007003A3E0F460DC1256FC65087004A3E0A9
:10561300650960CF1256FC6E7003A3E06F60C4127D
:1056230056FC650A7004A3E0650B60B7E8FAE9FB72
:10563300EA75F012A4FA75F012EBA4250DFB74D9E8
:105643002AF582740A1256B55099E8FAE9FBEA750D
:10565300F012A4FA75F012EBA4250D1256C76401DB
:105663006081E0640270030255E674016D050C70FD
:10567300030255E6E50CC39C50030255E6E875F0BA
:1056830012A4F8AAF075F012E9A42AF974D028F547
:1056930082740A0255D7E50C6011EC700E74016533
:1056A3000C60030255327C0102553D7AFE7BFF02FA
:1056B30025AB3BF583E014C3940622E8240108E9F3
:1056C3003400F922FB74D42AF582740A3BF583E093
:1056D30022E8FAE9FBEA75F017A4FA75F017EBA4D0
:1056E300250D1256E922FB744A2AF582740C3BF508
:1056F30083E0221256E964FE22E8FAE9FBEA75F038
:1057030012A4FA75F012EBA4250DFB74D02AF582CE
:10571300740A3BF583E022902161E493FAC3E89A8B
:10572300E994002290215CE493FA740193FBC3E8AB
:105733009AE99B2274F51205D88A088B09ECFEEDD1
:10574300FF750A008002050A902161E493F8E50AD7
:10575300C3985028EEFCEFFDE50A75F017A4F8A9ED
:10576300F012578160E0E50A75F017A4F8A9F07408
:105773004A28F582740C39F5831237948010744CDF
:1057830028FA740C39FB121C18E922120ADD7F0374
:1057930002089374F01205D88A088B098C0A8D0BC2
:1057A300890C1210E48A0E8B0FAE0EAF0FEE4F6012
:1057B30055125420E508F0A3E50912582512581D87
:1057C300E50C600AEE240F122B87E50C8006EE240D
:1057D3000F125815F09003D0124810601A9003AAC4
:1057E300E064017008EE240E1254F98010EE240ECA
:1057F300122B8774078006EE240E1258151230DA26
:105803001203F812580C024F7DEE240D1239DCE816
:10581300F0221239DC740122A3A3E50AF0A3E50BFD
:10582300F02212360BA32274F51205D88A088B09CD
:10583300ECFEEDFF750A00800F12588A7003A3E097
:105843006F60031258DA050A902161E493F8E50AC0
:10585300C3985025E50A75F017A4F8A9F012587FEC
:1058630065087004A3E0650970CF745428F5827449
:105873000C39F58312512E80CD025791745428F5BB
:1058830082740C1254F422745428F582740C12544A
:10589300F46E2274F71205D8EAFEEBFF7508008058
:1058A30019E5081254E26E7003A3E06F700A1258F0
:1058B300C57005E5081258D3050812545C40E2028E
:1058C3004E05744C28FA740C39FB120DCCE922EE08
:1058D30075F017A4F8A9F01253ED1210F022125329
:1058E3002A123D89E84922C082C08374F8120B5BF7
:1058F300851882851983AC82AD8375838075822B6D
:105903007408120A2A851882851983AC82AD831222
:105913004A8F640170047900800279017408023DA2
:1059230068C082C0838A828B83E0D2E7F01216D2EA
:105933000263B8C082C0837900125DF0127391C014
:1059430082C083900330126FB3D083D082C3E09CB4
:10595300A3E09D500C127560FAA3E0125967600131
:10596300090263B8FBEA75F00BA4FAA8F075F00B13
:10597300EBA428FB900332E02AF8A3E03B8882F5EE
:1059830083E0540F2274F71205D88908125DF012D0
:105993005E96ACF075F00BE9A42CF9900332E02885
:1059A300FEA3E039FF7401650860067402650870A0
:1059B300208A828B83125E82126A66740265087083
:1059C3001B125D41125EC970138E828F83E4F080D7
:1059D3000BEA2403FCEB125E64125E70EEFAEFFB3B
:1059E300120DA20266EB74F41205D81279547900F1
:1059F3008E828F83E06076890A890B8065E50A755C
:105A0300F00BA4FAA8F075F00BE50B12597470466D
:105A1300E50A75F00BA4F8AAF075F00BE50B125E1E
:105A2300A88E828F83E0850882850983125F8A8529
:105A33000882850983A3126A66EE2403FCEF125ED3
:105A43006D12658F12730BAA08AB09120DA27901AF
:105A5300900330126FCEE50A2401F50AE50B3400FA
:105A6300F50B125D49E50A9AE50B9B409002681F0E
:105A730074F51205D8EAFEEBFF740B120D83126561
:105A830094750A01EC4D602BEC127970ED12739151
:105A9300126A5E7901120DAEE5084509606F85084B
:105AA30082850983A312795E7902AA08AB09120DD4
:105AB300AE805AE5084509602B127395126C881263
:105AC3006590125EB3700CEEFAEFFB120DB4E9F5BC
:105AD3000A80CBEE2403FA125DEB70317903EEFA00
:105AE300EFFB80CA8E828F83A3E064FE7003A3E082
:105AF300F4700BEE24030A0A0A125DEB700CEEFA43
:105B0300EFFB120DB4E9F50A8003750A00A90A7FB9
:105B13000302089374F71205D89003301266F0EA73
:105B23004B602FEA75F00BA4FAA8F075F00BEBA409
