:020000040000FA
:060000000209EC0201B14F
:03002B0002085672
:0300330002062B97
:03004300020711A0
:030053000200E2C6
:03006B0002060585
:100083000201460101FF050301CA0FCA0FCA0FCAC5
:100093000F860E800ECA0FDB1B00000000791B00C9
:1000A3000000000C0000000C0001FFFF0101010033
:1000B30019050000006A05E80364006400B8010242
:1000C3000200080000050207051E02051E0A03B808
:1000D3000B0201023412029651180002020612C0EA
:1000E300E074F21203CAA2AFE433FED2AFE5A7FF76
:1000F300E5A1F5085F5410600612165A75A1EFE5E5
:10010300085F5408600812166075A1F7802BEFA2F0
:10011300E0C0D0E508A2E092F012093C158182F01C
:100123005017906198E0F8900A44E0C398A2D26512
:10013300D0335002E8F075A1FEEEA2E092AF7F014A
:10014300020481C0E074F21203CAA2AFE433FED208
:10015300AF9061A4E0F8759B00E5915854086008DE
:100163007591F71216A8802AE59158541060087506
:1001730091EF1216AE801BE8A2E0C0D0E591A2E099
:1001830092F012093C158182F05007E0C2E0F012B0
:1001930017FE9061A3E0F8E5E9585404600E1217C6
:1001A300D475E9FB906193E0A2E640F2808BC0E056
:1001B30074F21203CAA2AFE433FED2AF9061A5E09A
:1001C300F8E5BF585404600675BFFB121816020108
:1001D3003CC3E498F8E499F91202158026C3E49A23
:1001E300FAE49BFBE920E7E9120215E498F8E499A5
:1001F300F922C3E498F8E499F9120215E498F8E4B3
:1002030099F9C3E49AFAE49BFB22EB20E7CFE920B8
:10021300E7E0B90010BB0008E88AF084F8AAF022EE
:10022300E4FBC8FA22EB70227B10C833C8C933C978
:10023300335007C39AC3DBF280069A50012ADBEAE4
:10024300C833F4C8C933F4C9FA2275F008E4C833D3
:10025300C8C933C933C99AC99B5004C92AC93BD5F4
:10026300F0ECFBC833F4C8E4C9FA22080808EAC072
:10027300E0EBC0E086F0E7A4FA180986F0E7A42AC9
:10028300FA180986F0E7A42AFA180986F0E7A42ADF
:10029300FA1986F0E7A4FBE5F02AFA190886F0E7D5
:1002A300A42BFBE5F03AFA190886F0E7A42BFBE54B
:1002B300F03AFA18180986F0E7A4C5F02BFBE43AE4
:1002C300FA1908E7C5F0C6A426F6E5F03BFBE43AC5
:1002D300FA1886F0E7A4F6E5F00826F6E43B08F6FC
:1002E300E43A08F6D0E0FBD0E0FA22E4CFC0E0E441
:1002F300CEC0E0E4CDC0E0E4CCC0E075F020C3E6BE
:1003030033F608E633F608E633F608E633F618184C
:1003130018EC33FCED33FDEE33FEEF33FFC3EC9704
:1003230009ED9709EE9709EF97191919400FFFEC9B
:1003330097FC09ED97FD09EE97FE191906D5F0BE56
:10034300ECF709EDF709EEF709EFF7191919D0E002
:10035300FCD0E0FDD0E0FED0E0FF222518C582C02E
:10036300E0E51934FFC583C0E0E518C3958224F89E
:1003730010AF0885831985821880088583198582C3
:1003830018D2AFCEF0A3E520F0A37808E608F0A3D7
:10039300DEFAEFF0A3E58124FAF8E608F0A3E60815
:1003A300F0A3E608F0A30808E608F0A3E608F0A324
:1003B30015811581D0E0FED0E0F8158115811581F6
:1003C300E8C0E0EEC0E022C0D02518C582C0E0E559
:1003D3001934FFC583C0E0E518C3958224F310AF39
:1003E300088583198582188008858319858218D228
:1003F300AFC8F0A3E9F0A3EAF0A3EBF0A37908E711
:1004030009F0A3D8FAECF0A3EDF0A3EEF0A3EFF01C
:10041300A3D0E0F0A3D0E0F0A3D0E0F0A3E520F078
:10042300A3E5F0F0A322120A4EB9000302046BE421
:10043300900301789C790C8002F0A3D8FCD9FA9040
:100443000E9CAA82AB83900086785D79018015E4C7
:1004530093A3AC82AD838A828B83F0A3AA82AB83FE
:100463008C828D83D8E9D9E77582E375837D740027
:100473001207B575828075831A74001207B5851942
:1004830083851882E0C0E0A3E0F9A3E0FAA3E0FBD0
:10049300A37808E0F608A3DFFAE0FCA3E0FDA3E0FD
:1004A300FEA3E0FFA3E0C0E0A3E0C0E0A3E0F5D03B
:1004B300A3E0F520A3E0A3F5F010AF088583198529
:1004C30082188008858319858218D2AFD082D083A1
:1004D300D0E0F8D0E032471D0875F0108E1A8F1B5C
:1004E30085821F85831E851882851983E0CEA3E04C
:1004F300CF851F82851E83EBC9EAC8EDCBECCAC347
:10050300E833C8E933C9EA33CAEB33CBC3EA9EF510
:100513001DEB9FF51CB35004AB1CAA1DEC33CCEDB3
:1005230033CDD5F0DAAE1AAF1B22D083D082ECC024
:10053300E0EDC0E0E493A3FCE493A3FDED4C600D78
:10054300120649EC24FFFCED34FFFD80EFE493A396
:10055300FCE493A3FDED4C600D1206E6EC24FFFCD6
:10056300ED34FFFD80EFD0E0FDD0E0FCE493A3C0C9
:10057300E0E493C0E022D083D082E9C0E0E493A317
:10058300C386F0C5F095F0F908E493A386F0C5F0AF
:1005930095F0700BE493A3C3994005E9048002A38B
:1005A300E475F002A42582F582E5F03583F583D066
:1005B300E0F9E493A3C0E0E493C0E02285198385C6
:1005C3001882E0A3FEE0A3F5207808E0A3F608DF95
:1005D300FAE0A3FFE0A3C0E0E0A3C0E0E0A3C0E033
:1005E300E0A3C0E0E0A3C0E010AF088582188583D4
:1005F300198008858218858319D2AFD083D08202EF
:1006030007BBC0E074F21203CAA2AFE433FED2AF59
:10061300E589A2E15003121558758900C2C5EEA2FF
:10062300E092AF7F01020481C0E074F21203CAA218
:10063300AFE433FED2AFE58BA2E050031215587539
:100643008B00C2E880D8C0E0C3E49396087401939A
:100653009618400FE4936670080874019366187047
:10066300007019A3A3C3E49396087401939618A387
:10067300A3400DD0E0D0E0D0E0020569A3A3A3A37B
:10068300A3A3D0E0227404800474028000CCC0E0F1
:10069300EDC0E0E518C39CCCAD1950011D10AF06A9
:1006A3008C188D1980068C188D19D2AF120756D06D
:1006B300E0FDD0E0FC2274028000CCC0E0EDC0E09D
:1006C300E518C39CCCAD1950011D10AF068C188DD5
:1006D3001980068C188D19D2AF120734D0E0FDD0E3
:1006E300E0FC22C0E0C0F088F0E493667008087470
:1006F300019366187000A8F0A3A3700BD0F0D0E0AC
:10070300D0E0D0E0020569A3A3D0F0D0E022C0E09E
:1007130074F21203CAA2AFE433FED2AFC2C0E5D172
:10072300A2E450031215D0EEA2E092AF7F010204BF
:1007330081CAC0E0E493A3C582CCC582C583CDC57D
:1007430083F0A3C582CCC582C583CDC583DAE5D04A
:10075300E0CA22CAC0E0E0A3C582CCC582C583CD6E
:10076300C583F0A3C582CCC582C583CDC583DAE634
:10077300D0E0CA22C008C3E096F50808A3E0964279
:100783000808A3E096420808A3E09645087001D341
:10079300D008227009080808226016181818C6C362
:1007A30033C608C633C608C633C608C633C6D5E043
:1007B300EA22C09FF59FE473D09F22D083D082C0EA
:1007C3009FE493C0E0740193C0E0740293F59F2209
:1007D3002518F58210AF08F518400215198008F5A1
:1007E3001840021519D2AF851983227404800A7444
:1007F300038006740280027401C0E0F4041207D37C
:10080300D0E0120A2922BB0102E722C082C08389F9
:10081300828A83BB0003E08002E493D083D08222E8
:10082300C0D0251810AF08F518500205198008F537
:100833001850020519D2AFD0D0226016080808C696
:10084300C313C618C613C618C613C618C613C6D50F
:10085300E0EA22C0E0C0D0E8C0E0E5A8D2AFC2C75A
:10086300A2E792AFD0E0F8D0D0D0E032C3E0C69692
:10087300F608A3E0C696F608A3E0C696F608A3E03A
:10088300C696F622251810AF08F5184002151980F0
:1008930008F51840021519D2AF22E066701008A3BC
:1008A300E066700A08A3E066700408A3E06622C34A
:1008B300E09608A3E09608A3E09608A3E096A2D2E8
:1008C30065D03322E76670100809E766700A0809E5
:1008D300E76670040809E76622C3E096F008A3E020
:1008E30096F008A3E096F008A3E096F022E627F638
:1008F3000809E637F60809E637F60809E637F62267
:10090300E026F008A3E036F008A3E036F008A3E001
:1009130036F022E657F60809E657F60809E657F6D1
:100923000809E657F622700422600D18C6C333C6C1
:1009330008C633C6D5E0F41822C0E0E8C0E0E5817C
:1009430024FCF8E6A2E7D0E0F8D0E022E056F6086F
:10095300A3E056F608A3E056F608A3E056F622E015
:1009630056F008A3E056F008A3E056F008A3E056BB
:10097300F022E647F60809E647F60809E647F608CF
:1009830009E647F622E026F608A3E036F608A3E0D8
:1009930036F608A3E036F622E4C396F608E496F6A4
:1009A30008E496F608E496F622600D08C6A2E7135B
:1009B300C618C613C6D5E0F322C6F4C608C6F4C6E5
:1009C30008C6F4C608C6F4C622C3E7960809E79624
:1009D3000809E7960809E79622C3E09608A3E0967C
:1009E30008A3E09608A3E0962275D00075814075B0
:1009F300180175190300020429E0F608A3E0F608BC
:100A0300A3E0F608A3E0F622600C08C6C313C618D9
:100A1300C613C6D5E0F422E6F008A3E6F008A3E681
:100A2300F008A3E6F022CAC0E0E6F0A308DAFAD0A1
:100A3300E0FA22E0FAA3E0FBA3E0FCA3E0FD22EA54
:100A4300F0A3EBF0A3ECF0A3EDF022E5C754F844D8
:100A530001F5C77901222518F582E43519F58322BA
:100A6300C2AF75D69F020000221207BE8AAA0112E6
:100A730007BED2AA011207BE1BAB011207BE8BAB86
:100A8300011207BEA7AB011207BE9EAC011207BE3F
:100A9300EDAE011207BE40B0011207BEE3B0011272
:100AA30007BE2EB2011207BE4CB2011207BE7DB2C1
:100AB300011207BE8FB2011207BEE1B2011207BED7
:100AC30042B3011207BECCB3011207BE70B40112C8
:100AD30007BEC4B4011207BEDDB4011207BE03B5DD
:100AE300011207BE3EB5011207BE82B5011207BE51
:100AF300A9B5011207BEFAB5011207BEAAB60112C3
:100B030007BE62B7011207BE2AB8011207BE07B9B2
:100B1300011207BE8DB9011207BE9CB9011207BEAF
:100B2300A7B9011207BEB0BA011207BEC1BA0112BA
:100B330007BE37BB011207BEC9BB011207BE21BCEA
:100B4300011207BEE7BC011207BE18BD011207BEA2
:100B53005DBD011207BE6ABD011207BEFEBE0112D2
:100B630007BE61C0011207BE7DC1011207BEE7C304
:100B7300011207BEF2C3011207BEFCC3011207BE76
:100B830007C4011207BE11C4011207BE1BC4011220
:100B930007BE26C4011207BE31C4011207BE62C4D8
:100BA300011207BE86C4011207BEAAC4011207BE02
:100BB3000FC5011207BE53C5011207BE6FC501124F
:100BC30007BEE6C5011207BE1EC6011207BE6AC6EE
:100BD300011207BEC7C6011207BEA9C8011207BE8C
:100BE3002FC9011207BE00CA011207BE10CD0112A0
:100BF30007BE65CD011207BE91CD011207BEDDCE42
:100C0300011207BE2DCF011207BE82CF011207BE0C
:100C130083D0011207BE1BD1011207BE9DD1011261
:100C230007BE3DD2011207BEE31D001207BE1C1E04
:100C3300001207BEF61F001207BE3520001207BEC2
:100C43007F20001207BE2421001207BE8321001259
:100C530007BEB721001207BE2422001207BE41239C
:100C6300001207BE4924001207BEDF24001207BE8C
:100C73002628001207BECF28001207BEAB29001298
:100C830007BE0C2A001207BE292B001207BE532DE4
:100C9300001207BE0A2E001207BE142E001207BE52
:100CA300472E001207BE0E2F001207BEA92F0012F7
:100CB30007BE0E30001207BE3730001207BE593090
:100CC300001207BE8832001207BE5F33001207BE50
:100CD300A333001207BE1034001207BECB34001238
:100CE30007BEFD34001207BE4135001207BE74353E
:100CF300001207BEC935001207BE1E36001207BE1A
:100D0300B236001207BE1437001207BE7C3700123A
:100D130007BE2539001207BE0D3A001207BE4F3B2E
:100D2300001207BE7D3D001207BE3D3E001207BE06
:100D33006C40001207BE0F41001207BE4D41001266
:100D430007BEF942001207BE0D43001207BE174348
:100D5300001207BE4143001207BE4D43001207BEF7
:100D63006C43001207BE2344001207BE6244001204
:100D730007BE6C44001207BE2045001207BE1F4683
:100D8300001207BE1847001207BEB547001207BE80
:100D93005748001207BE6E48001207BEA54800124E
:100DA30007BEC348001207BE0749001207BE2C49FD
:100DB300001207BE124A001207BE7E4A001207BE87
:100DC300F84A001207BE074C001207BE464D001238
:100DD30007BEA84D001207BE624E001207BE854E25
:100DE300001207BE594F001207BEA44F001207BEE0
:100DF300E64F001207BE3D50001207BE74500012AA
:100E030007BEA250001207BEDB50001207BE0051FE
:100E1300001207BE8851001207BEAB53001207BE73
:100E23000A54001207BE9E54001207BE0A55001250
:100E330007BE5E55001207BE7BF7021207BEBAF764
:100E4300021207BEAC56001207BE0657001207BEB9
:100E53006257001207BEAE57001207BEC9570012F1
:100E630007BEFA57001207BE1758001207BE2358D1
:100E7300001207BE9759001207BEB059001207BEF1
:100E8300175A001207BE2A5A001207BE385A001218
:100E930007BEEC5A001207BED05B001207BED65C39
:100EA300001207BE5C5D001207BE665D001207BE3E
:100EB300D35D001207BEEA5D001207BE1C5E00127E
:100EC30007BE555E001207BE7F5E001207BEE05EDE
:100ED300001207BE005F001207BE1E5F001207BEAE
:100EE300645F001207BE8A60001207BED76000125B
:100EF30007BE0661001207BE7C61001207BEA46133
:100F0300001207BEDD61001207BEEB61001207BECF
:100F13004362001207BE9262001207BED162001242
:100F230007BE0163001207BE2D63001207BE3863BC
:100F3300001207BE5663001207BE1864001207BEF4
:100F43002264001207BE5D64001207BE73640012C0
:100F530007BE7C64001207BED164001207BEE564BD
:100F6300001207BEF365001207BE0666001207BE35
:100F73001B66001207BEBD66001207BE4067001263
:100F830007BEFE67001207BE0968001207BE2F697D
:100F9300001207BE4B69001207BE9D69001207BE0F
:100FA300DC69001207BEF169001207BE336A001242
:100FB30007BE806C001207BEFE6C001207BE716D87
:100FC300001207BE936F001207BEAB6F001207BE7D
:100FD300AE6F001207BEBA6F001207BECE6F0012CB
:100FE30007BED66F001207BE0970001207BEB970A4
:100FF300001207BE2F71001207BEA271001207BEB6
:101003005672001207BE0B73001207BE2A7300123A
:1010130007BECA73001207BED673001207BE01745F
:10102300001207BE0474001207BE6E74001207BEDE
:101033009675001207BE6E76001207BEF97600128F
:1010430007BE1278001207BECF78001207BE0879D8
:10105300001207BE3979001207BED979001207BE04
:10106300097A001207BEE47A001207BE7D7B0012E4
:1010730007BE087C001207BEB97C001207BE3B7D89
:10108300001207BE6D7D001207BEAE7D001207BEC3
:101093004999021207BEAE99021207BEEB990212DA
:1010A30007BE3A9A021207BE509C021207BE339E35
:1010B300021207BE9DA1021207BED8A1021207BEEB
:1010C300FAA1021207BE5DA2021207BE91A202128A
:1010D30007BEB4A2021207BEE1A2021207BE3DA3DD
:1010E300021207BE848D021207BE028E021207BED1
:1010F300388E021207BEA48E021207BE1790021288
:1011030007BE3390021207BE7890021207BE069103
:10111300021207BE5F91021207BE8C92021207BE33
:101123009E93021207BEFB93021207BE679402123C
:1011330007BEC894021207BE0995021207BEB695F0
:10114300021207BEC896021207BEF396021207BE2A
:101153003E97021207BE8597021207BE1798021226
:1011630007BED298021207BE09D8021207BE84D85E
:10117300021207BE8FD8021207BEB0D8021207BEF2
:10118300E0AC021207BE2CAD021207BE9AAD0212EA
:1011930007BEBBAD021207BE6BAE021207BE74AE32
:1011A300021207BEC7AE021207BEF0AE021207BE9E
:1011B30057AF021207BEE8AF021207BE2AB00212EF
:1011C30007BE74B0021207BED3B0021207BE499D18
:1011D300011207BEA3B1021207BEE2B1021207BE9B
:1011E30017B2021207BE29B2021207BE3BB20212A5
:1011F30007BE5AB2021207BE63B2021207BE2BB376
:10120300021207BEFBF2021207BEEAE4021207BE95
:1012130020E5021207BE69E5021207BEB9E6021213
:1012230007BEF0D2011207BEC8A9011207BE6BD4D4
:10123300011207BE2AD6011207BE53D6011207BEFA
:10124300E6D8011207BE2AD9011207BEB3DA01128A
:1012530007BE4BDB011207BEB3DB011207BE54DC32
:10126300011207BE96DC011207BED6DC011207BECF
:1012730061DE011207BED1DF011207BEF6E10112E2
:1012830007BE24E2011207BE4BE2011207BE54E27D
:10129300011207BEDBE2011207BEF9E5011207BE28
:1012A300E87F001207BEB9FF011207BE91D10212F7
:1012B30007BEA4D1021207BE41D2021207BE7CD2DE
:1012C300021207BE97D2021207BEBCD2021207BE99
:1012D30001D3021207BE32D3021207BE63D3021236
:1012E30007BEE9D4021207BE99F4021207BECFF477
:1012F300021207BEEBF4021207BE2DF5021207BE5F
:101303003DF5021207BE68C6021207BE3EC70212AF
:1013130007BEEBC7021207BE29C8021207BEA6C941
:10132300021207BE10CA021207BE7AE6011207BEF6
:10133300CFE6011207BE79E7011207BE21E80112C9
:1013430007BE7EE8011207BE92E8011207BE5CEAFF
:10135300011207BED7EA011207BE01EB011207BE55
:101363009EEC011207BEB9EC011207BE08ED011293
:1013730007BE1EED011207BE2BED011207BE5FED86
:10138300011207BE75ED011207BE00EE011207BE82
:101393005AEE011207BEA8EE011207BEB2EF011208
:1013A30007BE34F2011207BECEF2011207BE10F3DC
:1013B300011207BEA5F3011207BEC2F3011207BE55
:1013C300C5F3011207BEC8F3011207BE3BF40112B5
:1013D30007BE56F4011207BE82F4011207BEBDF424
:1013E300011207BEC0F4011207BE7DF6021207BE4A
:1013F30089F6021207BEC3F6021207BE008002126C
:1014030007BE2B80021207BEED80021207BE728157
:10141300021207BEDB81021207BE2782021207BE39
:10142300A682021207BE3883021207BEC4830212C9
:1014330007BE0684021207BE4F88021207BECF8979
:10144300021207BE268B021207BEB28B021207BE20
:10145300F9F4011207BEB3F5011207BE25F6011216
:1014630007BEC1F6011207BE31F7011207BE65F8C8
:10147300011207BE41F9011207BEB2F9011207BEFC
:101483002FFB011207BEF1FB011207BE08FD01127B
:1014930007BEA7FD011207BE64FE011207BED8DA1C
:1014A300021207BE2CDB021207BE84DB021207BE48
:1014B300CFDB021207BE31DC021207BECADC021206
:1014C30007BE32DD021207BE3EDD021207BE1CE775
:1014D300021207BE4DE7021207BE07E8021207BE5B
:1014E3006DE8021207BE5C7E001207BECEF3021245
:1014F30007BEDFF3021207BE7FF4021207BEF6E84F
:10150300021207BE04E9021207BEADF8021207BEBB
:10151300E7F5021207BEF7F5021207BE12F6021232
:1015230007BE73F6021207BEF9F1021207BE7EF27E
:10153300021207BEE2F2021207BE82EA021207BEDD
:10154300A4EA021207BE0AEB021207BE2AEB02123A
:1015530007BE70EB021207BECBEB021207BE96EE7C
:10156300021207BEABEE021207BE1FEF021207BE46
:1015730039EF021207BE4CEF021207BE5AEF0212F6
:1015830007BE74EF021207BE94EF021207BE87CAAA
:10159300021207BE95CA021207BE0FCB021207BE84
:1015A300F3CB021207BEACCD021207BE71F80212D2
:1015B30007BE54B3021207BEC0B3021207BE7FB404
:1015C300021207BE89B5021207BEE2B6021207BEB7
:1015D3003DB7021207BE92B7021207BE9BB70212B3
:1015E30007BEADB7021207BE17B8021207BE2BB86B
:1015F300021207BE35B8021207BE49B8021207BE6F
:101603009EB8021207BE9ABA021207BECCBA0212E1
:1016130007BEEEBA021207BE07BB021207BE20BB0B
:10162300021207BE2ABC021207BEC5BC021207BEC5
:1016330002EC021207BE26EC021207BE3FEC0212B6
:1016430007BE72EC021207BEA3EC021207BED1EC76
:10165300021207BE33ED021207BE42ED021207BEAD
:101663004CED021207BE59ED021207BE79DD0212DC
:1016730007BE9FDD021207BEDCDD021207BEEBDDF3
:10168300021207BE0ADE021207BE72DE021207BE94
:101693007BDE021207BEDADE021207BEFEDE021294
:1016A30007BEBDDF021207BECADF021207BEDBDFC1
:1016B300021207BE08F8021207BE25F8021207BE7F
:1016C300F0C1021207BE48C3021207BE55C302127D
:1016D30007BE68C3021207BE87C3021207BE9DC3BB
:1016E300021207BEB1C3021207BE26C4021207BE0E
:1016F3008BC4021207BE3BC5021207BE10C60212FC
:1017030007BE20C6021207BE2FC6021207BE4EF541
:10171300021207BE72F5021207BE9AF5021207BE45
:10172300C2F5021207BE8BE2021207BEB2E2021238
:1017330007BED3E2021207BE38E3021207BE09E076
:10174300021207BE22E0021207BE2EE0021207BEFB
:1017530042E0021207BE60E0021207BE6AE0021214
:1017630007BE74E0021207BE87E0021207BEE9E07B
:10177300021207BE22E1021207BE51E1021207BEA6
:101783009FE1021207BEEEE1021207BE09E2021256
:1017930007BE13E2021207BE3AE2021207BE80E25C
:1017A300021207BE00F7021207BE1CF7021207BEA1
:1017B30093F8021207BE89A3021207BEB3A3021253
:1017C30007BECFA3021207BEE2A3021207BEF8A30D
:1017D300021207BE55A4021207BE88A4021207BE56
:1017E300C9A8021207BEEFA9021207BE22AA02125B
:1017F30007BE6EAA021207BEB0AB021207BED8AB79
:10180300021207BEEDAB021207BEFDAB021207BE0A
:1018130041AC021207BEA2AC021207BEB2AC021266
:1018230007BE63ED021207BE7EED021207BEA7EDEF
:10183300021207BEC1ED021207BEE6ED021207BE99
:1018430005EE021207BE1DEE021207BE4BEE021298
:1018530007BE65EE021207BEC4F7021207BE11CE21
:10186300021207BE18CE021207BE24CF021207BE11
:1018730054CF021207BE7ACF021207BE9DCF0212C7
:1018830007BEBFCF021207BEF9CF021207BE5FD059
:10189300021207BE98D0021207BEE4D0021207BE9E
:1018A30011D1021207BE31D1021207BEC9EF0212D3
:1018B30007BEDBEF021207BEC6F0021207BEE3F05B
:1018C300021207BEE6F0021207BE58F1021207BE6B
:1018D30096F1021207BED7F1021207BEF6D4021226
:1018E30007BE12D5021207BE61D5021207BE7DD50F
:1018F300021207BEAED5021207BEBED5021207BE44
:10190300AAD6021207BEB4D6021207BEC1D602126D
:1019130007BED1D7021207BEE5D7021207BEEED724
:10192300021207BE04BD021207BE49C1021207BE5E
:101933004EC1021207BE44F8021207BEF09C011208
:1019430007BE849C011207BE5B9C011207BE4E9A20
:10195300011207BE1A9A011207BEE799011207BEC8
:10196300CB99011207BEF198011207BEA998011283
:1019730007BEDE96011207BE5E96011207BE5B9696
:10198300011207BE6295011207BE3095011207BE10
:101993006D94011207BE9892011207BE299201129B
:1019A30007BEFB91011207BEF891011207BEE59134
:1019B300011207BE7D91011207BE6C91011207BE91
:1019C3003BA9011207BE2EA9011207BE3CA60112B4
:1019D30007BE8EA3011207BE62A2011207BE4D907D
:1019E300011207BE1790011207BEDA8F011207BE5C
:1019F3007B8F011207BEB6A1011207BE4A8F0112E7
:101A030007BE058C011207BEF68A011207BE858A3E
:101A1300011207BE07A0011207BE2FD4011207BE91
:101A23004A8A011207BE158A011207BE098A0112EA
:101A330007BE6989011207BEB088011207BE8386FB
:101A4300011207BE0F84011207BECD83011207BE28
:101A53009882011207BE4D82011207BE7F810112D7
:101A630007BED680011207BE7280011207BEAC808A
:101A7300011207BEC29D011207BE64B1020000003D
:101A830080FBE4730001363601010001020100010D
:101A930003010001040106060502000007010034EA
:101AA3000801000F090401010D0100FF0E080000E9
:101AB30017020000190100FF1A0100011B0100FEBB
:101AC3001C0100081D0200001F010001200100018C
:101AD300210200002301000F24020000260100015F
:101AE30027010008280200FF2A0100072B010240FA
:101AF3002C0100002D0100012E0100012F0100FF28
:101B030030010B1C310800003A0100083B01000FB3
:101B13002F01000001017101010101011101010106
:101B23003101010101018001100161013B00140039
:101B33006301730172016201430100011301060194
:101B43003D01350004011201000100010001000103
:101B530004010401330133013C0144013201360025
:101B6300000100016501000135008101000105014B
:101B730082018301000101037103010301030103D6
:101B83000103010322030203010310030003000303
:101B930000030003000300030003420300032403C4
:101BA3000603000300030403120325032303250391
:101BB300230304030403000300030003440300039B
:101BC300000323030003650321003503810300039E
:101BD30005030003000300030300710030016000EC
:101BE30011007000310220035004800010006100D6
:101BF30000001400630073007200620043000000E1
:101C030013000600000000000400120000000000A2
:101C13000000000004000400370037003C024400C9
:101C23000000000000000000650000003500810096
:101C33000000050000008300000003027102300170
:101C4300600211027002010202020202800210020B
:101C530061023A00410063027302720262024302AC
:101C63000002130238000002000204021202000202
:101C730000020002000204020402370037003C02A3
:101C8300440200023900000200026502000235022C
:101C93008102000205028202830200023600010073
:101CA300060000000F00000000000000000000001C
:101CB300000003FFFF00000403FFFF0000FFFF0F0E
:101CC300F4010005C4040320000100140B0000000C
:101CD300000000000003010FE00E100FE60EEC0EF3
:101CE3000A0FFE0EF80E160F1C0F220F2E0FF20E08
:101CF300DA0ED40E010068140200141403001A143F
:101D0300040020140500261406003214FFFF00000F
:101D13000AAC0C02760C05880C077C0C0C580C0DD5
:101D23006A0CFF000000160F00000B150B020002E7
:101D3300220F32000006CA0FDC0FE20FAA0EE80FD3
:101D4300A40EB00E140AE5D5C5B5A5A59585857570
:101D5300652A1048104E1030103C1036100C0E023D
:101D63000B040B0A0708000F303017181921301B1A
:101D73001D1F300001191618161615230300000342
:101D83004948424D181725050230301618192023EB
:101D93001A1C1E3000383C3E363B3B352B432C1E71
:101DA30010EE0FF40F0010FA0F040F280F42103437
:101DB3000F3A0F02040201010101090200000000B1
:101DC300000000BE040A15000E000400FA06E80332
:101DD3002800040C0A03090CFF1E1E08040F10053B
:101DE30074F712035EE99003B0F0900365E4F01218
:101DF30018AC9003B5E4F0A3F09003B1F0A3F01294
:101E03000DE41218B2900334E4F0A3F0901DE093B4
:101E1300FA7902121912024A7974F212035EEAFE87
:101E2300EBFF548060699003B0E0F91211B08A08A7
:101E33008B09EA4509604F7C0080010CEC75F003C7
:101E4300A4F8A9F0741328F582741D39F583E4937B
:101E5300F4602CE493F88508828B83E06870DCAA35
:101E630008EC75F003A4F8741428F582741D39F591
:101E730083E493C0E0740193F583D082121A85AA98
:101E830008AB091211A4EEFAEF6480FB021FE9EF1D
:101E93005420601D120D068A088B09EA4509600A61
:101EA300120C6AAA08AB091211A4EEFAEF6420809F
:101EB300DAEEA2E0501A90036AE0640F700B790027
:101EC300120C34E96003121FECEE6401FAEF80BBDD
:101ED30054207003021FB7750C001234BE8B09EA3D
:101EE300450970107C027D007A207B009003B0E0EE
:101EF300F91212CA7C0079047A007B00120CE28A80
:101F0300088B098018850882850983A3A3A3A3A34B
:101F1300A3A3A3A37401F0850A08850B09E508456B
:101F230009606D7C007904AA08AB09120CE28A0AE5
:101F33008B0B750C01E5082404F8E50912326224C1
:101F4300FFF0A3E034FF12555570CC850882850954
:101F530083A3A3A3A3A3A3A3A3A3A3E0640170A543
:101F6300850882850983A3A3A3A3A3A3E0540470D4
:101F730094850882850983A3A3A3A3A3A3A3A3A3EF
:101F83007406F07AB7850882850983122118808741
:101F9300120CB27C0079017A007B00120CE28B09EF
:101FA300EA45097009E50C70057A20124418EE64BD
:101FB30020021ECFEF5402600B120DDEEEFAEF6427
:101FC30002021E8EEF540460191245AF1244CF79FA
:101FD30001900363124833120B7AEEFAEF640402A2
:101FE3001E8E7A007B0002221F900ED01228B6129A
:101FF3000C4C22C082C08374EA120887851882853C
:102003001983AA82AB83794B1218E87408120A5910
:102013007402F07409120A59AA82AB837950121818
:10202300E87413120A59E4124A02121906741602CA
:1020330039DC74F712035E74E1120887EAFEEBFFE2
:10204300EE4F6033851882851983AC82AD83120D00
:102053002A7406120A59E0601E7417120A59E0FD29
:102063007401120A59E0FCEEFAEFFB7900120AA29E
:10207300E9600479A480027900024A7474F61203B9
:102083005EEAFEEBFF8E828F83A3A3A3A3A3A3E049
:102093005440601B124EF11221E660067AFF7BFF6B
:1020A300801A8E828F83123668FAA3E0FB800312B4
:1020B3000D4E74FE6A700374FF6B6041124EF11291
:1020C300445C120DA2E98E828F836006122111E413
:1020D30080051221117401F07C3A7D0C8E828F836E
:1020E30012483312190CE9F5087015EE4F6009799F
:1020F30001EEFAEFFB120CBEA90802448D7508CD60
:10210300AA088E828F83122118E960DF80EAE02417
:102113000D123B3722E0240C123B37E0F9120C4638
:102123002274F612035EE9FEEAFF7A0F7B001211B6
:102133009EEA4B60198A828B83740CF0EEA3A3F0A2
:10214300EF8A828B83A3F01244B87900802FEEF9D3
:10215300120CE88A088B09A808A909E849601C88B9
:10216300828983A3A3A3A3A3A3A3A3A37406125146
:102173007CE0F9120BFEEEF9120CC4791002448DC7
:10218300C082C08390036AE0640F7014EA4B60104E
:10219300900365E064086005E0640470031221A6FF
:1021A300023A06EAFCEBFD7A017B009003B0E0F90A
:1021B3001212C422C082C0837900EA241DF582EB87
:1021C30012366524FD600B14600824FD600424FDB1
:1021D300700109023A068E828F83A3A3A3A3A3A34C
:1021E300A3A3A31221EA221236ADFB120DA2E92208
:1021F3008E828F83A3A3A3A3A3A3A3A3A31221EAE2
:102203006402228E828F83A3A3A3A3A3A3A3A3A366
:102213001239FD900356E068221208237F06020557
:10222300BF74F412035E74FD1208878A088B098A4F
:10223300828B83A3A3E0F9120CE88A0A8B0BAE0A04
:10224300AF0BEE4F700302232B850882850983A30E
:10225300E064F16030850882850983A3E064CD6082
:1022630024850882850983A3E0641A60188508829F
:10227300850983A3E064E9600C850882850983A34B
:10228300E064E170087900120CBEE9706C85088285
:10229300850983A3E0C0E07402120A59D0E0123921
:1022A300E1EEF0A3EF122D0C851882851983AA8223
:1022B300AB837005120B628003120D8A7402120A3B
:1022C30059E064E970338E828F83122337750A01D4
:1022D300780A1207FA750AE9780A1207FAE5082458
:1022E3000CF582E5091227FE122CE9FCA3E0FD8A16
:1022F300828B83122D031208238E828F83A3A3A3C1
:10230300A3A3A3A3A3A3E0640270108E828F83A36D
:10231300A3A3A3A3A3A3A3A37406F085088285099B
:1023230083A3A3E0F9120CC4120CB2900ED4121FB3
:10233300EF0228BBE0F8A3E0F9E8FAE9FB2274F422
:1023430012035EEAFEEBFF7508008E828F83A3A360
:10235300A3A3A3E060427508088E828F83A3A3A37F
:10236300A3A3A3A3A31239108B0BEA450B6010752B
:10237300082C8E828F83A3A3A3A3A3E0D2E0F08EC5
:10238300828F83A3A3A3A3A3E05403640160030286
:10239300242A43081102242AEE24181228C8603381
:1023A300EE241A1228C8700F1222067003A3E069E4
:1023B30070757508228070EE241BF582EF12242FAE
:1023C300241AF582EF122D14EE2419124F25120B45
:1023D300EC80541221F37003750801122206700376
:1023E300A3E0697006E508D2E1F508E50860158EFB
:1023F300828F83A3A3E07006E508D2E58004E50895
:10240300D2E6F5081221D964017006E508D2E0F599
:10241300088E828F83A3A3E0600D12243D640160C4
:1024230006E508C2E0F508A9080228C012365312CF
:10243300243622E0FCA3E0FDEE2212364D1236854F
:10244300F9120D90E922C082C08379018A828B83BD
:10245300A3A3E0C394024001198A828B83A3A3A39D
:10246300A3E0C39402400279008A828B83A3A3A3CF
:10247300A3A3A3A3A3A3E064F87003A3E0F46045BC
:102483008A828B83A3A3A3A3A3A3A3A3A3E064F937
:102493007003A3E0F4602E8A828B83A3A3A3A3A378
:1024A300A3A3A3A3E064FA7003A3E0F460178A82F2
:1024B3008B83A3A3A3A3A3A3A3A3A3E064FB70039E
:1024C300A3E0F4700279008A828B83A3A3A3E0F8CC
:1024D300900353E06860027900023A0674F0120335
:1024E3005E74DE120887EAFEEBFF8E828F83A3A35E
:1024F300A3A3E0600E900ED21244846006900ED225
:10250300121FEF7403120A59AC82AD838E828F833C
:10251300A3A3A3124506124D3FE9600F7403120AE9
:1025230059AA82AB83120C64E9700879011218BEB0
:102533000227F3EE241B1236587410120A59124460
:10254300CF7409120A59E06021741A120A59E0FD86
:102553007404120A59E0FC8E828F83124831790188
:10256300120AA2E96004790280C37403120A59AA09
:1025730082AB83120C5EE9F50A7409120A59E07002
:102583002A90034DE060247422550A6422601C746F
:1025930042550A644270CF7420120A5912281160FE
:1025A3000A7420120A5912280A70BBE9A2E65041A4
:1025B3007403120A59AA82AB83120C52E970030204
:1025C300252E7420120A591236686403700F742082
:1025D300120A59A3124476A3E0640D601474031223
:1025E3000A59AA82AB83120DB4E96401700302276E
:1025F300F3EE242C1227FB122B1F7003A3E0697048
:102603001C75080078081207FA78081207FAEE24F6
:102613002E124F25122817122D03120823740912A4
:102623000A59E070030226D0122817124833120EFB
:10263300088A088B09EA4509700302276D7404129E
:102643000A59E0F88E828F83A3A3E028F8A3E0342D
:1026530000F9E8240D1228028A828B83A3A3A3E046
:1026630068601CE88A828B83A3A3A3F0908059122D
:102673000A36850882850983A3A3A3A3120A427994
:1026830004E9120A59124D1C2AF8A3E03400888287
:10269300F583A3AA82AB831211928A0C8B0D8C0E45
:1026A3008D0F850882850983A3A3A3A3780C120742
:1026B3007740030227F390804D780C120988850830
:1026C30082850983A3A3A3A3780C120A1A90036536
:1026D300E064046008E0640960030227F3E50AA2EA
:1026E300E540030227ABEE242E1228C88518828505
:1026F3001983F0EE242F1228C8C0E07401120A597E
:10270300D0E0F0EE24301228C8C0E07402120A5957
:10271300D0E0F07414120A59E064017027740E12A9
:102723000A5912365EEE24121228C8687003A3E019
:10273300697011740C120A59122200700774141272
:102743000A59E4F0EE24241227FB120688740412BB
:102753000A59AC82AD837407120A59AA82AB831259
:102763000B6874041208230227F39003AAE06401A0
:1027730060030226D07420120A591228117009E549
:102783000AA2E650030226D07410120A59E0F4702C
:1027930003A3E0F4605AEEFCEFFD7403120A59AA96
:1027A30082AB83120C708048A2E650447420120A54
:1027B30059124842701A741A120A59E064027030AE
:1027C3007403120A59AA82AB837900120D7E80200A
:1027D3007420120A5912280A7016741A120A59E040
:1027E3006404700C7403120A59AA82AB83120D7825
:1027F3007422024BEEEE240BF582EF12365322F5D0
:1028030082E91244E8F822124F03E06407221236E9
:1028130085640622EE242A1236501224362412121C
:1028230036502274F412035EEAFEEBFF8C088D0926
:102833009005C7E0600F1222067003A3E0697005DC
:10284300120BDA804F7900124826120C0A8A828B07
:1028530083E58245836035A3A3A3A3A3A3E0541810
:10286300602AE508241BF582E5091227FE12068C6F
:10287300122EFC1227FE12068CEE2418124F25127C
:102883002899120C1C74041208238008790012285A
:1028930099120BE080278E828F83A3A3A3A3A3A304
:1028A300A3A3A3122436240BF582EF1228B22234F9
:1028B30000F5831236ADFB2274031208237F040252
:1028C30005BFEE2417F582EF1244E82274F71203D2
:1028D3005E74F7120887EAFEEBFF900365E064037A
:1028E300600DE064016008E0640960030229998EC9
:1028F300828F83A3E0707E7C007D007A027B0012CE
:1029030018B8EE2402FAEF12326912365E900356BB
:102913001244CF79531218EE790012299EE064090C
:102923006003122D3185188285198374011244A521
:102933009003657404F07401120A59AA82AB837977
:102943004A1218E87401120A59AC82AD837A5B7B90
:10295300031218D6900356124D357A03122D3B906D
:102963000350E0A2E35004D2F08002C2F01244927A
:10297300121FEC801E8E828F83A3AE82AF83FC7DF9
:10298300007A037B101218B88E828F83E0F9122924
:102993009EE4F0120C9A7409024A7690036312289B
:1029A300B6120B7A90036522C082C083900334125F
:1029B3004484701F900365E014600924FC600A14CA
:1029C300600C800F90033C8032900338802D90037D
:1029D3003A8028E8496008900335122CE3700C8A8A
:1029E300828B83A3E0F9120B6E801B900335122FA9
:1029F300987005120DD2800E9003D21244846006A3
:102A0300124476121A85023A0674F412035E74FBBA
:102A13001208878A088B097A0F7B0012119E8A0A93
:102A23008B0BAE0AAF0BEE4F7003022B138E828F0C
:102A330083124A0079501218E8850882850983A316
:102A4300E06003022AFB900363E0F47003A3E0F465
:102A53006034900363E064FE7003A3E0F4602785B1
:102A63001882851983122B1F7003A3E069601785F1
:102A73000882850983A374EA122D197A637B03798B
:102A8300501218EE8072851882851983124EE41253
:102A930044CF7A567B0379531218E89003561245B4
:102AA300001244CF7A597B03794B1218E87A587B8A
:102AB3000379E11218E890036AE0C3940F50219060
:102AC3000358E0C0E07402120A59D0E0F074041213
:102AD3000A597401F004120A59AA82AB831219002D
:102AE300750A00780A1207FA780A1207FA900EF6A6
:102AF300E0F9122CFA120823850882850983122B28
:102B030018A3F09003657403F0EEFAEFFB1244B8D8
:102B130074050228BDA3E08E828F8322124EE8E063
:102B23006822123B3E2274F512035E74D8120887A2
:102B33008A088B098A828B83A3A3A312368A74150E
:102B4300120A59AC82AD838A828B83A3A3A3A3A366
:102B5300A3A3A3122CE9FAA3E0FB120CA074151291
:102B63000A59E0706B850882850983A3A3A3A3A3F5
:102B7300A3A3A3E0C3940B40578E828F83A3A3A385
:102B8300A3A3A3A3A3E064027046EE240B1228C8F8
:102B9300F4703D900365E06402603AE064066035DA
:102BA3009003341244846005122CE3604F90036554
:102BB300E064086005E0640470167417120A59E0B3
:102BC300F9741C120A59AC82AD83124826120CA662
:102BD3007428025402900334124484701F75080051
:102BE30078081207FA78081207FAEE24101227FB66
:102BF300124F3D123351122D031208238E828F83FD
:102C03001247A212327B12365E7402120A59124420
:102C1300CFEE240D1228C8C0E07404120A59D0E084
:102C2300122D0CF508A3E0F509740F7808120A0BAE
:102C33007405120A59E508F07419120A59E0C0E044
:102C43007406120A59D0E0F0741B120A59E0C0E06E
:102C53007407120A59D0E0F07416120A59E0C0E062
:102C63007409120A59D0E0F07417120A59E0C0E04F
:102C73007408120A59D0E0F0EE24101228C8C0E0FC
:102C8300740A120A59D0E0F0741A120A59E0C0E02B
:102C9300740B120A59D0E0F07427120A59E0C0E00D
:102CA300740C120A59D0E0F0741C120A59A982AAB2
:102CB3008389088A09750A0078081207F27C087D5F
:102CC300007410120A59AA82AB83124033120823EC
:102CD300851882851983AA82AB83120B74022BD3C6
:102CE300122F9E640122E0F98A828B83A3A3A3A3FC
:102CF300A3A3A3A3A3E022900363124D3990035926
:102D03001228B6120D60740222F0EE240B1244E571
:102D1300221244E8FA22F07A567B037953122D24C7
:102D2300221218EE7A597B03794B1218EE22900384
:102D3300631228B6120E02227B001218B8900359B0
:102D4300124D397A047B001218B822F0124F482230
:102D530074F212035E74F8120887EAFEEBFF8C0A22
:102D63008D0B890C851882851983AC82AD8375839D
:102D73008075822A7408120756F50DEEFCEFFD8567
:102D83001882851983AA82AB831247037003750DDA
:102D9300019003B1803BEEFCEFFDE508240BFAE55F
:102DA300093400124702601E850882850983A3A3A4
:102DB300E0650C7011850882850983E0650A70045B
:102DC300A3E0650B6038E5082414F582E5091227B2
:102DD300FE123273E50845096024E50DA2E040B612
:102DE300850882850983E0650A7004A3E0650B709A
:102DF300D5850882850983A3A3E0650C70C8AA085A
:102E0300AB09740802221CC082C0839003B1023A4A
:102E13000374F712035E9003B11236AD8012EA24F5
:102E230014F582EB1227FE12368A12121CEEFAEF09
:102E3300FBEA4B70E99003B1E4F0A3F0024A797F17
:102E4300070205BF74F112035EEAFEEBFF890A8CE9
:102E5300088D098E828F83E08C828D8312391AAE9E
:102E630082AF83E01240F3124064C41240F3122F86
:102E730005E054038C828D83124062A2E2E4338C1A
:102E8300828D83124061131313541F1240F31240B7
:102E930060A2E7E4338C828D83A3A3A3A3122F053F
:102EA3008E0C8F0D750E00780C1207F27C087D00D6
:102EB300E5082407124CA8120823124D138E0C8F19
:102EC3000D780C1207F27C037D00E508240F124CE9
:102ED300A8120823E50AC3940F40148E828F83A39C
:102EE300A3A3E0C0E0122EFC1227FED0E08006125E
:102EF3002EFC125170F0022E42E5082412F582E5F1
:102F03000922A3A312391E0EAF832274F412035EA7
:102F130074F9120887EAFEEBFF8908900334124420
:102F230084600E122F987009EEFAEFFB120DCC801D
:102F33005F900363E06E7003A3E06F7053740165E9
:102F43000860097A777B0312470370447A007B0297
:102F53001234C28B0BEA450B7036900366120A36A5
:102F6300851882851983120A4290036CE0C0E074CD
:102F730004120A59D0E0F07405120A597401F0746E
:102F830006120A59124A00120B3EE9609B120B44C7
:102F930074070228BD122F9E640222124F04A3A3BA
:102FA300A3A3A3A3E02274F512035E8A088B098A04
:102FB300828B83A3AE82AF83E0F9120B928E828F52
:102FC30083E064EB600C850882850983A3E064E1F8
:102FD3007009850882850983A3E4F0121FEC750A42
:102FE30001780A1207FA850882850983A3E0F508A8
:102FF30078081207FA7900122CFA120823120CB27D
:10300300025405EAF0A3EBF0023A0674F612035EEB
:103013009003B4E0701B7C0079017A007B00120CF2
:10302300E2EA4B600C8A828B831244846003120CA5
:103033004002448DC082C0831234AA401079FF122B
:103043000CDCE9F8901DDAE493C39850047901800D
:10305300027900023A0674F012035E8A088B09892A
:103063000B750C008A828B83A3A3A3A3A3A3A3A39F
:10307300E0F9120CE88A0E8B0FAE0EAF0F750A0142
:10308300EE4F6003023137850882850983A3A3A32A
:10309300A3A3A3124D35850882850983A3A3A3A304
:1030A300A3A3A3123E33124833120CD08A0C8B0D08
:1030B300AE0CAF0DEE4F700302325A8E828F83A394
:1030C300A3A3A3E4F0A3F0E508240B123266E0C047
:1030D300E01227F8D0E0F0120DA8EE240CF582EFF1
:1030E300124458E508240EF582E50912365BEE24F6
:1030F3000EF582EF1244CC750C01EE2406F8EF12A4
:103103003262547FF0A3E054FC124F9AE0540460FF
:10311300030231BD900ED8123E24740778081209B9
:10312300298E828F83A3A3A3A3A3A3E04508F0A3BF
:10313300E04509F08E828F83A3A3A3A31232717497
:10314300077808120A0BE5085407F508E50B607ABF
:103153008E828F83A3A3A3A3A3A3A3A3A374021207
:103163004065240D123B33E0A2E2500B9003511251
:103173004500A3A31244CFE508700302322FEE24C7
:1031830006F8EF3400F9E8FAE9FB8A828B83E0540E
:103193007FFCA3E054FCFDE50824FFF508E434FFBD
:1031A300F50974077808120929EC4508F8ED450973
:1031B300F98A828B831244CF80728E828F83A3A37A
:1031C300A3A3A3A3E04480023136E5087005750A82
:1031D3000080598E828F83A3A3A3A3A3A3E05420CB
:1031E3006012121198EA547F245F8E828F83A3A307
:1031F300A3A380238E828F83A3A3A3A3A3A3E054BB
:1032030010600A121198EA540F240A80DD8E828F0F
:1032130083A3A3A3A37401F0A3E412327B74041267
:1032230034B98B09EA4509700312444BE50CA2E05B
:1032330050288E828F83A3A3A3A3124A66F9EEFAC2
:10324300EFFB120CD6E9601212447A600312364384
:10325300EEFAEFFB12121C750A00A90A024BF112D7
:1032630045C322FAE5093400FB8A828B8322A3A398
:10327300E0F508A3E0F5092212327F22124CC4A321
:10328300A3A3A3A32274F412035E74F71208877E28
:1032930000120CE8EA4B700302334A8A828B83A341
:1032A300A3A3A3A3A3A3A3A3E06406600302334AD7
:1032B3008A828B83A3A3A3A3A3A3A3E0FF8A828B06
:1032C30083123B46E0C0E07408120A59D0E012367C
:1032D3007E1247091244CF120CFAEF540860668538
:1032E3001882851983124D357A007B00120CCA8B24
:1032F3000BEA450B704F90036312376E1219187C5B
:10330300007D007A007B0080288E828F83123668CE
:10331300F47003A3E0F4602D900363123351124859
:1033230033121600E9641A601C7C007D00EEFAEF8C
:10333300FB120CCA8A0A8B0BAE0AAF0BEE4F70C995
:10334300790012191E7E01EEF974090228BD1233A9
:103353005522E0FCA3E0FD8E828F8322C082C083CE
:10336300EA4B70059003B580068A828B83A3A31270
:10337300356E60258A828B83A3A3A3A3A3A3A3E0B3
:10338300540860E5EC4D60158A828B831236686CB5
:103393007003A3E06D70D280047A007B00023A06CA
:1033A30074F212035EEAFEEBFF890A8C088D097A38
:1033B300107B00121216EA4B603F8A828B83A3A311
:1033C300A3A3A3A3A3A3A3E412366CA3E50A124FFA
:1033D3000AA31234068A828B83A3A3A3A3E4F0A3D4
:1033E300123678A3F0124D9EEA240CF582EB1239C3
:1033F3000A1233FFA3A3F0A3F002221FA3F08A82D1
:103403008B8322A3A3E508F0A3E509F02274F41249
:10341300035EEAFEEBFF89088C0A8D0BEE4F6055C5
:103423007401650870147901120CDCE9F8901DDE53
:10343300E493C398500F7911806A74046508702F60
:103443001234AA40F18E828F83A3A3A3A3A3A3A3C1
:10345300A3A3E50812391AA312548F8E828F83A374
:10346300A3E4F0A3F09003B51244846021800D74AB
:1034730002650860D079C1802BE0F8A31244F9A358
:10348300A312356E88828983A3A370ED8003900312
:10349300B5EEF0A3EF1234B98B0BEA450B700312B0
:1034A300444B79000228C07904120CDCE9F8901D22
:1034B300E2E493C39822F01234BE227A207B009078
:1034C30003B0E0F91212D622C082C083E9F8790072
:1034D3009003B5801D8A828B83A3A3A3A3A3A3A375
:1034E300A3A3E068600574FF687001098A828B8377
:1034F300A3A312356E70DE023A0674F712035EEA76
:103503004B70059003B580068A828B83A3A3123583
:103513006E60248A828B83A3A3A3A3A3A3A3A3A3E1
:10352300E06970E4EC60148A828B83E0240D124D11
:1035330026A2E240D380047A007B00024A79C0824B
:10354300C0839003B580068A828B83A3A312356E52
:1035530060128A828B83A3A3A3A3A3A3A3A3E0697B
:1035630070E580047A007B00023A061228B6EA4B23
:103573002274F212035E8A0A8B0B8C0C8D0D750874
:1035830000750900EA450B602E9003B580068E8214
:103593008F83A3A31235C1601EAC0CAD0DEEFAEF01
:1035A300FB850A82850B83121A85E9640170DFEEBD
:1035B300F8EFF988088909AA08AB0902221FE0FE7F
:1035C300A3E0FFEE4F2274F712035E9003B51236A9
:1035D3005E7C007D00800DE8FCE9FD88828983A381
:1035E300A312365EE8496030EA687002EB6970E75F
:1035F3009003B5124833E86A7002E96B88828983C5
:10360300A3A3700812365E9003B5800912365E8C50
:10361300828D83A3A31244CF024A7974F712035E07
:10362300EAFEEBFFEE4F6015120CF41236901244D3
:103633007A6003123643EEFAEFFB12121C024A7948
:10364300EE240C1236501236A522EE241DF582EF1D
:103653003400F58322F582EF1236531239FD22F539
:1036630082EF1236531236852212367022124F120F
:10367300A3A3A3A322123670A3A3221234001236EB
:103683008522124EFDE022E0FEA3E0FF228E828F10
:1036930083E0241C123B371236A58E828F831236A9
:1036A300A5221236ADFB12121C22E0FAA3E022C0BF
:1036B30082C083EAFCEBFDEC4D700479058044EC99
:1036C30024FBF582ED34FF1244827007123709E0C0
:1036D300F460051211A480E39003B0E0C0E0123758
:1036E30009D0E0F0901DD7E493F97AB77B03121A5F
:1036F3007AE96401700B7A007B2012444F790080D1
:10370300027904023A06EC24FFF582ED34FFF583D7
:103713002274F412035EA2AFE433F508C2AF900340
:10372300B71235C16038EE24FBF582EF34FF124443
:10373300827A007B209003B060051244528005E03A
:10374300F91211DAE4F50AF50B780A1207F6EEFC22
:10375300EFFD7AB77B031211C87402120823E50840
:10376300A2E092AFEEFAEFFB0228C0124D398518A2
:1037730082851983AA82AB832274F212035E74FCDE
:10378300120887EAFEEBFF750AFE750BFF120CB8F1
:10379300E9600579110238FFEE24151228C8603755
:1037A300900EECE0C43354E0F8E0333354FC48C0EB
:1037B300E0EE24151227FBD0E012391A1239108BD0
:1037C30009EA45096011750AFFEE240F1228C8445F
:1037D300041244DDD2E0F08E828F831221E460066E
:1037E300EE2412123907EE24131228C87010901D0C
:1037F300DDE493C0E0EE24131227FBD0E0F08E82C9
:103803008F83E0A2E750045403801CEE2414122893
:10381300C87015900342E0C0E0EE24141227FBD0D9
:10382300E0F0900342E004F0EE24111228C8640192
:1038330070169005BEE0600D90034DE0700A8E8215
:103843008F83E070031239048E828F83E0640170EA
:1038530013EE240B12366264027009EE240F122851
:10386300C84440F0851882851983AC82AD83EEFA93
:10387300EFFB120D1E8A088B0974FE650A70037430
:10388300FFF470098E828F83A3A3124CB4EA450917
:1038930060668E828F83E0C0E07401120A59D0E023
:1038A300F07402120A59124DA27401120A59858248
:1038B3000C85830D780C1207F6EE240F1227FB12EA
:1038C300068CEE240E1228C8F50C780C1207FA9019
:1038D300035612068C7407120A59E0F9AC0AAD0BB1
:1038E300120D187407120823E9FE74106E700BAAE8
:1038F30008AB0912121C80027E10EEF97404022236
:103903001CEE2411F582EF123653E4F022A31228A1
:10391300B679FF120A6C2212391E22F08E828F832F
:10392300A322C082C08374DE1208878A828B83A39A
:10393300A3A3A312365E740E120A59E8F0A3E91288
:1039430039F4740C120A591239ED240DF582EB1275
:1039530028CBC0E0741A120A59D0E0F0124C01EBE4
:1039630012365B7420120A591239ED2415F582EBD5
:103973001228CBC0E07408120A59D0E0F0EA241CE4
:10398300F582EB12365B7412120A591239ED2411C7
:10399300F582EB1228CBC0E07409120A59D0E01269
:1039A30039E174FFF07401120A5974FFF0740212C2
:1039B3000A5974FFF09080591206887404120A5948
:1039C300AC82AD837407120A59AA82AB83120B68C7
:1039D30074041208237900742212082380251239F3
:1039E300E522F085188285198322E8F0A3E9F0EA3D
:1039F30022123400A31239FC22A3E0F8A3E0F92237
:103A0300124833D083D0820207BB74EC12035E7476
:103A1300EE1208878A128B13ECFEEDFF89097426D8
:103A2300120A59124CB47428120A59E0F510742979
:103A3300120A59123B28742B120A59E0F50EA3E01F
:103A4300F50F7508107A1E7B001212167402120A03
:103A53005912445C7402120A591244847003023BE3
:103A630021851882851983AA82AB83795012433743
:103A73001248337402120A59123B46A312445C746F
:103A830010120A591254917402120A59E0240B12AB
:103A93003B337402F0120A59123B467402F0120AC5
:103AA30059124EF5124DA27402120A59124848E5F2
:103AB30009F07402120A59E0240C123B33E510F0AA
:103AC3007402120A59123B30E512F0A3E513F074A5
:103AD30008120A59E50CF0A3E50DF0740A120A590D
:103AE300E510F0850E82850F83C082C083740D12AA
:103AF3000A59AC82AD83D083D0827403120756F97E
:103B03007402120A59AA82AB83120CBEE9640170D3
:103B13000575080080087402120A59123649A9086B
:103B23007412024CCBE0F50CA3E0F50D22E0241C4B
:103B3300123B3722F8A3E0123B3E223400F988827D
:103B430089832212483BA3A3A3A3A32274EE1203E7
:103B53005EEAFEEBFF8C088D098E828F83A37408C7
:103B6300124518E060088E828F83A37410F0122828
:103B7300C560098E828F83A3E02408F0EE2415121A
:103B830028C860088E828F83A3E004F08E828F831F
:103B9300A3A3A3A3A3A3E060198E828F83A3A3A3EC
:103BA300A3A3A3A3E0C3332402F88E828F83A3E0ED
:103BB30028F0EE24111228C86005750B0E800375DA
:103BC3000B008E828F83A3C082C083EE240D122844
:103BD300C8D083D082F8E028250B8C828D83F0EE49
:103BE30024111228C8600512404328F085088285F5
:103BF3000983E0C394754009750800750900023D07
:103C030031E0FA7B00124E507003023D31EEFAEFC1
:103C1300FB120D24EA85088285098312445DEE2494
:103C230002F8EF122B25123E2B123D6DF0EE240409
:103C33000808EF122B2512426DA3123D6DA3A3F0CA
:103C4300EE2413123D53F0EE2414123D53A3F075EA
:103C53000A08EE24161228C86010EE2418124D32FA
:103C6300E5082408124F33750A101228C56016EEB2
:103C7300241A124D32850A0CE508250C124F3374B1
:103C830008250AF50A8E828F83A3A3A3A3A3A3E027
:103C93006059EE2407F510EF3400F511851082F515
:103CA30083E0C0E0123D3A1227FED0E0123D5DE012
:103CB300C0E0123D3A1227FED0E0123D5DA3123D53
:103CC300461207F2851082851183E0C333FCE43387
:103CD300FD850A0CE508250C124CA8120823851053
:103CE30082851183E0C333250AF50AEE24151228D1
:103CF300C8600BC0E0123D3A1227FED0E0F0122755
:103D0300F8123D461207F2EE240D1228C8FC7D007E
:103D1300850B0A8E828F83A3E0F8E50828F8E5096E
:103D23003400F9E8250AFAE9124CAB120823AA0871
:103D3300AB097F0A0205BF850A0CE508250CF5824D
:103D4300E50922E0F50CA3E0F50D750E00780C22D1
:103D5300123650123D77A3A3A322F0050A8E828F59
:103D630083A3A3A3A3A3A3A3A322A3A3124F9EA3AB
:103D7300123D7722124271A3A32274F612035E8AC4
:103D8300828B83E0FC900353123E24740278081262
:103D93000929EC4508FCAD09EA2412123E1E7406FB
:103DA3007808120929EC4508FCED4509FDEA2415BC
:103DB300F582EB1228CB6004780180027800E4C816
:103DC300F9ED49FDEA2411F582EB1228CBF50888B9
:103DD3000974097808120929ED4509FDEA24161228
:103DE3003E1E740B7808120929ED4509FDEA2417D4
:103DF300123E1E740C7808120929ED4509FD8A82CA
:103E03008B83A3A3A3A3A3A3123E24740A7808124B
:103E13000929ECFAED4509FB02448DF582EB1236D4
:103E230053E0F50875090022E0850882850983229D
:103E3300A3E0F98508828509832274EE12035E8A62
:103E43000A8B0BECFEEDFF750F01E9C394085005D7
:103E530079000240308E828F83E9F0124296E96046
:103E630003750F0012427A8E828F831242C4EE12C0
:103E73004C02EF1242B9C0E0EE24111227FBD0E04E
:103E83001242B1C0E0EE24121227FBD0E012391A1D
:103E93007408124CBCA3A3A3E06015124262EE2483
:103EA30013F582EF1244CC8E828F83A3E02408F0B3
:103EB3008E828F83A3A3A3A3A3A3A3A3E060218ED6
:103EC300828F83A38582088583091242A5EE241578
:103ED300F582EF1244CC850882850983E02408F03B
:103EE3008E828F83A3A3A3A3A3E0601A8E828F8302
:103EF300A38582088583091242898E828F83A3A3B7
:103F0300A3A3A3124055EE2419123907EE241B1262
:103F13003907A3124510E07003023FC4EE2419F8D9
:103F2300EF3400F98E828F83A3858208858309E0AD
:103F3300FAE50A2AF582E50B1228CB8882898312D7
:103F43004055FAE50A2AF582E50B1228CBC0E0EECC
:103F5300241A1227FBD0E012405588828983E0603F
:103F630059F8901DD6E493C398500575110C800839
:103F7300EE24191228C8F5118E828F83A3E0F8E589
:103F83000A28F50CE50B1240391207F2E511C33389
:103F9300FCE433FD7AA07B0D124033120823EE2498
:103FA3001B1227FB74A0F0A3740DF0E511C333F8C3
:103FB300850882850983E0288006EE241812516D56
:103FC300F08E828F83A3E0F88E828F83E0C39850B4
:103FD30003023E53A3E0FA8A08E50A2508F8E50B35
:103FE3003400F9EE241DF582EF1245D8124065C363
:103FF3009AC0E0EE24171227FBD0E01244D5602BC1
:10400300EE2417F8EF3400F9880889098882F583CC
:10401300E024F21245B9240EFAA3E03400FB8882AF
:10402300898312445C124043C398F0A90F023D35C3
:104033001211807403223400F50D750E00780C22E2
:1040430090034EE0F9120AA8E9F8850882850983EE
:10405300E022F0850882850983E004F022A3A3A36C
:10406300A3A3F08E828F83E02274F412035E8A0886
:104073008B09EA1240FAF0EA1313543F1240F3A3F8
:10408300A3A3F0EAC413131240FAA3A3F0EB124064
:10409300EC1241047409780A120A0B1240EA124125
:1040A30003740A780A120A0BE50A5401C0E0EC24EF
:1040B30018F582ED1227FED0E0124109740B780A3D
:1040C300120A0B1240EAA3124103740C780A120A73
:1040D3000B1240EAA3A3A3A3A3A3A3A3F0740D7895
:1040E30008120A0B02242AE50A54018C828D8322CA
:1040F300540F8C828D832254038C828D83A3A3223D
:10410300A3A3A3A3A3A3F08A0A8B0B22C082C08319
:1041130079008A828B83A3A3A3A3A3A3E090034D77
:10412300600FE070228A828B83A3A3E07019098059
:1041330016E060138A828B8312482A900356E06A42
:104143007003A3E06B70E7023A0674F012035E8A11
:104153000A8B0B890C8C088D0912429612427A85C0
:1041630008828509831242C4E508124C02E509124C
:1041730042B9C0E0E5082411F582E5091227FED013
:10418300E01242B1C0E0122EFC1227FED0E012452D
:10419300E074081245F96011124262E50824131213
:1041A30045D41245E0E02408F0850882850983A3FD
:1041B300A3A3A3A3A3A3A3E0601785088285098310
:1041C300A31242A1E50824151245D4124065240820
:1041D300F0850882850983A3A3A3A3A3E0601985BF
:1041E3000882850983A3AE82AF8312428985088240
:1041F30085098312406004F0AA08AB09120D36E961
:10420300F50D7056850882850983A3A3A3A3A3A3F1
:1042130012426D7014E0FA8A0EE50A250EF8E50BDA
:104223001244C1E50CC39A80211242A1E8240EF87E
:10423300E91244C190034EE0F9120AA88E828F83DB
:10424300E0F8E50CC39824F2C399C0E0E50824170D
:10425300F582E5091227FED0E0F0A90D024BF1E546
:104263000A2408F8E50B3400F92212427122E08592
:104273000882850983A322850A82850B83A3A3125F
:1042830042DAE0F9EA22E0F8E50A28F582E50B12C2
:1042930044E8228A828B83124BF6120D3022AE82BF
:1042A300AF83E0F8E50A28F8E50B3400F92212425F
:1042B300EDA3A3A3E022123653E81242E6A3A3E040
:1042C30022A3A3A3A3A3A3A3A3A31242E61242DAA6
:1042D300A3A3E0F9EAF822E0FA850A82850B83A317
:1042E300A3A322F0A3E91242ED22F0850A82850BF3
:1042F30083A3A3A3A322C082C0837AC57B0379E2ED
:104303001218E87AC57B03023A06C082C083900381
:1043130056023A03C082C08374FE1208878518824E
:10432300851983AA82AB83794B12433712483374BE
:10433300020239DC1218E885188285198322C082AB
:10434300C083794A1218E8023A0674F612035E90A3
:1043530003CDE0FE04F0EEF9120CE88B09EA4509FF
:1043630070EDEE60EAF902448D74F012035EEAFE2A
:10437300EBFF8C088D09890A7410120A59E0F50BBA
:104383007411120A59E0F50C120E08EA4B7013E58A
:104393000C7042A90AAC08AD09EEFAEFFB120E202D
:1043A300806EE50A6021EA2402F582EB1228CB85B0
:1043B3000A082508F8E4340013E813F070098A8228
:1043C3008B83A3A37401F0E50C6045E50B70068AAB
:1043D300828B83E4F07401650C7035E50B9003D494
:1043E3007004E4F0802AE004F0900ED9E0F8900322
:1043F300D4E0C398401AE4F0900359E06E7003A32D
:10440300E06F700CEEFAEFFB7901120B8C1244167D
:10441300024BF17A017B009003B0E0F91212D02233
:10442300C082C08374016A7001EB70077A01124481
:104433004D8012900ED012445CEA4B60051221A607
:104443008003124416023A067A207B009003B0E000
:10445300F91211D4223400F583EAF0A3EBF022C061
:1044630082C083900ED2023006C082C083900ED4E5
:10447300023006124F0422EE240CF582EF3400F5CD
:10448300831239FDE849221208237F020205BFA2E5
:10449300F0E4338518828519831244AE79521218D9
:1044A300EE221244AE79421218EE22F0AA82AB83B6
:1044B30022AA08AB099003B0E0F91211AA22340032
:1044C300F9E508241DF582E509123653E8F0A3E95E
:1044D300F022124CC0A3A3E022A3F0EE2415124451
:1044E300E522F582EF3400F583E0221244F2223410
:1044F30000F583E0F8A3E0F98882898322E0F812CB
:10450300450622A3E0F98E828F83A3A322F0EE2433
:104513001812365022F0EE24161236502274F4127A
:10452300035EEAFEEBFF7A007B0412441A1245AFE6
:104533001244CF9003657409F0120D428A088B0967
:10454300AC08AD09EE24131227FB124833124703BC
:10455300640170487A0F1245A260418A828B83748A
:10456300021245B9FAA3E0FB8A828B83A3E0FC8A9B
:10457300828B83A3A3E0FBEC850882850983A3A335
:1045830012445D88828983124837123E2B1244DC21
:10459300FAA3E0FB794A1218EE1244B40228C07B56
:1045A3000012119E8A088B09EA45092290033612EC
:1045B30039FD900ED422F0EE241DF8EF1245C322EC
:1045C300123B3EE0221245CC223400F5837401F005
:1045D30022F582E509123653E8F0A3E9221245E4F5
:1045E300221245E822F0850882850983A322124519
:1045F300E8A3A3A3A3221245F1A3A3E022124A0A2C
:10460300120D9622EE2417F582EF1245CC120D42BD
:10461300EE241A123650EAF0A3EBF02274F41203DC
:104623005E74F31208878908EAFEEBFF7C0D7D00B8
:104633007900851882851983AA82AB8312118CEEC7
:10464300241D1227FB124EF5A3E0F8741F58600ACD
:1046530079011218BE79000246FAE8A2E5500874FF
:104663000C120A597401F0E8A2E75008740B120AFD
:10467300597401F0E8A2E6740A5008120A59740149
:10468300F08008120A59E064017005EE24138003D8
:10469300EE2415124D327402120A59AA82AB831208
:1046A30018D61227F81247081244CF740A120A596F
:1046B300E0640170331221D9703B120D4E8A0A8BCC
:1046C3000BA80AA90BEE240B1228C8687003A3E0F9
:1046D300697022120D42EAFCEBFD7402120A59AA18
:1046E30082AB83124703600D851882851983AA82E2
:1046F300AB83120B86A908740D0228BDEEFAEFFBFB
:104703001218D0E922E012470D22F8A3E0F9851828
:10471300828519832274F612035E74F31208878A62
:10472300088B09ECFEEDFF7C0D7D00790085188276
:10473300851983AA82AB8312509AA3A3A3A3A3A32D
:10474300A3A3A31247A21247ABF8A2E55008740B28
:10475300120A597401F0E8A2E75008740A120A59C0
:104763007401F0E8A2E6EE5004241380022415122B
:104773004D327402120A59124794A3A3E0C0E074A5
:104783000C120A59D0E0124A02120B80740D024433
:104793008AAA82AB831218D685088285098322E010
:1047A30012470DE8F0A3E922F012364D124EF9A399
:1047B300E02274F712035E74E1120887EAFEEBFF4E
:1047C3008E828F83124837A3A3A3E0A2E050518EB9
:1047D300828F831223398A828B83A3A3A3A3A3A3E8
:1047E300E054FE12484F8A828B83124848E0F98ACC
:1047F300828B83E0241CFAA3E0123269124833123D
:104803000D3CE9701B741D120A5912484270118540
:104813001882851983AC82AD83EEFAEFFB120D8407
:10482300024A748E828F83A3A3A3A3A3A3A3A3A3E8
:104833001228B62212483B22124EFDA3A3A3221232
:104843003685640422E0241B123B37221239E5AC7F
:1048530082AD8322E9F87900740468600A740A68F7
:1048630060057403687001090207BB74F612035EE6
:104873008A828B837420F0A3A37401F0120B328A13
:10488300088B09AE08AF09EE4F60108E828F8374D8
:1048930001F09003A3E07003124607EEFAEFFB0268
:1048A300448DC082C0839003B97401F0E9A2E35040
:1048B300037403F0E9A2E15004E0D2E2F0023A0605
:1048C30074F612035E79007C008A088B097808125B
:1048D3000579F8FF07F648F448F448F448F448ED3E
:1048E30048F148F648EA480C80097C0480050C80AE
:1048F300F67C089003B9E05C6003098003EC600177
:104903000902448D74F612035E8A828B83E070126F
:10491300A3124484600C8A828B831248321219DEFC
:1049230080047A007B0002448D74F512035E74F3F5
:104933001208878A088B09ECFEEDFF750A12EA4517
:1049430009700579000249FB900356E0650870047D
:10495300A3E065097014120D42EAFCEBFD1246FF59
:104963007005750A018003750A008518828519830D
:10497300E4F004120A59E508F0A3E509124A021209
:104983000AF6E960277403120A59AA82AB83120A52
:10499300D8E964017016750A017403120A59AC82CE
:1049A300AD831246FF6021750A00801C7412650AEC
:1049B30070169003A2E06402700EEEFCEFFDAA08ED
:1049C300AB09120B0EE970DFEEFCEFFDAA08AB0991
:1049D300120E0EE9F8740A687005750A01801774DF
:1049E300A0687012EEFCEFFDAA08AB09120E1AAA1A
:1049F30008AB09120E2CA90A740D02540274021298
:104A03004A0622124A0A221239E5AA82AB83227489
:104A1300F712035EEAFEEBFF8E828F83A3A3A3A3A9
:104A2300A3A3A3A3E06015EE24151227FB1228A667
:104A3300120DAEE964017004790180258E828F83A3
:104A4300A3A3A3A3A3A3A3E06015EE24131227FB40
:104A5300124A66FAA3E0FB120DAEE9640160D9794C
:104A6300008013123355A3A3A3A3A3A3A3A3A3E07B
:104A730022741F1208237F010205BF74F012035E24
:104A830074FD1208878A088B09ECFEEDFF890B740D
:104A930013120A59E0F50C750A017401120A5974CC
:104AA30004124F2D6048E50C601DEA2417F582EBD4
:104AB300125170124F1B8A828B83E0D2E7F0EA24F3
:104AC30014F582EB12390A124C01EB1244EE740313
:104AD300125493EE88828983A3A3F0EF888289839B
:104AE300A3A31233FF123406120B2CE9F50AA90A09
:104AF3007403024BEE74EC12035E74F51208878A9A
:104B03000A8B0B890C8C0E8D0F741F120A59E0F55A
:104B13000D7420120A59E0F510A3E0F5117E01EEA1
:104B2300120A59740AF0E97007E50DC333240AF039
:104B3300124CD37003024BD5124CE87409F0A3E571
:104B43000CC43354E0450D124CFAE50C702D7C0077
:104B53008023ECC333F8E433F9E51028F8E5113981
:104B6300F988828983124BE288828983122B18F099
:104B7300A30EAF830CECC3950D40D7E5082417F5BE
:104B830082E5091245C8120D42E508241AF582E5AB
:104B9300091244587403120A59AC82AD83AA0AABB2
:104BA3000B120ADEE96019E5082416F582E50912FD
:104BB3004BDC120A59A882A983E50824181244C8B9
:104BC30085088285098312548FAA08AB09120B2C1E
:104BD300E9FEEEF9740B024CCB1245CC740322E0D0
:104BE3008E828F83F0A3AE82AF83221208237F08C5
:104BF3000205BF1236ADF9EA2400E439FB22EA24A8
:104C03000BF5822274EE12035E8A0C8B0D890E8CD7
:104C1300088D097412120A59E0F50F7413120A5918
:104C2300124CB490052D1244846077E50FC333F81A
:104C3300E433F9E8240EFAE93400FB12119E8A10DA
:104C43008B11AE10AF11EE4F60588E828F8374D4E8
:104C5300F0A3A3E50CF0A3E50D124CBCE50EF0ACFC
:104C630008AD09EE2405FAEF124F36EE240D122794
:104C7300FBE50FF0850A08850B09750A0078081211
:104C830007F2E50FC333FCE433FDEE240EFAEF1213
:104C93004CAB120823EEFAEFFB90052D124EF512E2
:104CA3001A85023D35FAE5093400FB1211807403BD
:104CB30022E0F50AA3E0F50B22124CC022124CC4E9
:104CC3002212391EA3A3A3221208237F0C0205BFBD
:104CD300851882851983AA82AB83120D968A088B65
:104CE30009EA450922EA240BF582EB1244E8FEA304
:104CF300E0FF8E828F8322F0A3AE82AF83AC0EAD32
:104D03000FEEFAEFFB124D0C221218D6124D13229E
:104D1300EE2408FEEF3400FF22E0FA8E828F83A395
:104D2300A3E022FEA3E03400FF8E828F83E02212F1
:104D33003650124D3922E0FCA3E0FD221228B612B0
:104D43000D2A2274F612035EEAFEEBFF9003BA808B
:104D53001388828983E06E7003A3E06F603A8882D0
:104D63008983A3A312448470E87A047B0012121689
:104D73008A088B09A808A909E849601C88828983E5
:104D8300124DA29003BA12483388828983A3A312D7
:104D9300445C9003BA1244CF02448D8A828B83EE23
:104DA300F0A3EFF02274F412035E7E009003BA8046
:104DB300070E88828983A3A312448470F4EEC3335D
:104DC300FAE433FB124E50607E7F009003BA8024D6
:104DD30088828983124D35EFC333FAE433FBE50848
:104DE3002AF582E5093BF583ECF0A3EDF00F888209
:104DF3008983A3A312448470D79003AB1222137048
:104E030003A3E069780870191207F6EEF50A780A29
:104E13001207FA7C777D0379009003AB124E5B8017
:104E23001A1207F6EEF50A780A1207FA7C777D0361
:104E330079009003AB124833120DC0740312082398
:104E4300AA08AB0912121C120B440228C012121634
:104E53008A088B09EA4509221228B6120DC622C018
:104E630082C08380128A828B83A3A312365E90034F
:104E7300BA1244CF12121C9003BA12356E70E602B6
:104E83003A0674F612035E90036312368A9003CED9
:104E9300124EE41244CF7ACE7B0379501218EE906F
:104EA30003CE122432FAEFFB120E269003CE1236F3
:104EB3008A90052F12448460257A067B0012119E86
:104EC300EA4B601A8A828B8374D5F0A3A3E4124F52
:104ED3000A04124F1B90052F124EF5121A85024435
:104EE3008D124EE822E0F8A3E0F9900363228E824C
:104EF3008F83124EF922124EFD22E0F8124F032245
:104F0300A3E0F583888222124F0E22124F1222F061
:104F13008A828B83A3A3A322124F0EA3EEF0A3EFE7
:104F2300F022F582EF1244E8F922124600EA4B22FE
:104F3300FAE5093400FB1218D622124507A3A3A3EE
:104F4300A3A3A3A322901DD8E4932401F8E434007F
:104F5300F97A027B002274F712035E7E008004124A
:104F630055460E12506A40F77E00EE124F8574FECE
:104F7300F0A304124F9AE4F00EEEC3940340EB0245
:104F83004A7975F003A4F8A9F074BC28F8740339BE
:104F9300F988828983A322124F9E22F08882898313
:104FA3002274F712035E7F0080010F901DD5E493F6
:104FB300F8EFC3985026EF1251566A7003A3E06BC3
:104FC30070E81254F36C7003A3E06D600A74FF6C15
:104FD300700374FF6D70D312506180047A007B00FC
:104FE300024A7974F612035E7CFF7DFF7AFE7BFF33
:104FF300120DEAEA4B70407508008036E50875F03B
:1050030017A4F8A9F0743B28F582740C1251686058
:105013000C743A28F582740C1251687013742C289E
:10502300FE740C39FF8E828F83125175EEFAEFFBFB
:1050330005081250D040C502448D74F412035E8AF1
:10504300088B09ECFEEDFF800B120DFCEEFCEFFD6F
:10505300AA08AB09120DEAEA4B70EE0228C0742CC1
:1050630028FA740C39FB22901DD5E493F8EEC3980B
:105073002274F712035EEAFEEBFFEE4F601012504C
:105083009474FEF0A30412549914F0A304F0024A9A
:10509300797C177D00790012118C8E828F832274A4
:1050A300F712035EEAFEEBFF7508008018E508754A
:1050B300F017A4F8A9F01254FE7003A3E06F600385
:1050C30012554E05081250D040E3024A79901DD57F
:1050D300E493F8E508C3982274F612035E120DEA0E
:1050E3008A088B09A808A909E849600AE8240DFA87
:1050F300E93400FB80047A007B0002448D74F412CF
:10510300035E8A0A8B0BECFEEDFF75080075090040
:10511300802EE50975F017A4F8A9F0125539601E21
:10512300E509125156650A7004A3E0650B70037517
:10513300080AEEFCEFFD1253F560034308A00509CE
:10514300901DD5E493F8E509C3985004E50860C2BF
:1051530002242A75F017A4F8A9F012516122742CC5
:1051630028F582740C39F583E022F582EF12365369
:10517300E4221228B6120C2222124F9EA3A3A3A349
:10518300A3A3A3A32274F212035E8A088B09ECFE85
:10519300EDFF740E120A59124CB4750C007C007D9D
:1051A300018010121198E50CF5F0EA84ACF0750C4F
:1051B300007D0078007900800312533212538E4031
:1051C30003025254E8FAE9FBEA75F017A4FA85F0F2
:1051D3000D75F017EBA4250D12536A7003A3E0F4C9
:1051E30060D712534865087004A3E0650960CA12CA
:1051F30053486E7003A3E06F60BF125348650A7093
:1052030004A3E0650B60B2E8FAE9FBEA75F017A4C2
:10521300FA75F017EBA4250DFB743A2AF582740C8A
:10522300125329509474016D050C608DE50CC39CD9
:105233004087E875F017A4F8AAF075F017E9A42AD7
:10524300F9742C28F582740C39F583124833025310
:105253002678007900800312533212539B400302D5
:10526300530DE8FAE9FBEA75F012A4FA85F00D1282
:10527300537A64FE7003A3E0F460DC125370650894
:105283007004A3E0650960CF1253706E7003A3E04E
:105293006F60C4125370650A7004A3E0650B60B7B6
:1052A300E8FAE9FBEA75F012A4FA75F012EBA4250B
:1052B3000DFB74BB2AF582740A1253295099E8FA3C
:1052C300E9FBEA75F012A4FA75F012EBA4250D12AE
:1052D300533B64016081E06402700302525A74011B
:1052E3006D050C700302525AE50CC39C5003025225
:1052F3005AE875F012A4F8AAF075F012E9A42AF995
:1053030074B228F582740A02524BE50C6011EC70FA
:105313000E7401650C60030251A67C010251B17A3F
:10532300FE7BFF02221F3BF583E014C3940622E8B1
:10533300240108E93400F922FB74B62AF582740AC1
:105343003BF583E022E8FAE9FBEA75F017A4FA7566
:10535300F017EBA4250D12535D22FB742C2AF58262
:10536300740C3BF583E02212535D64FE22E8FAE9F4
:10537300FBEA75F012A4FA75F012EBA4250DFB7489
:10538300B22AF582740A3BF583E022901DD5E4939B
:10539300FAC3E89AE9940022901DC9E493FA7401D0
:1053A30093FBC3E89AE99B2274F512035E8A088B88
:1053B30009ECFEEDFF750A008002050A901DD5E495
:1053C30093F8E50AC3985028EEFCEFFDE50A75F063
:1053D30017A4F8A9F01253F560E0E50A75F017A4D5
:1053E300F8A9F0742C28F582740C39F5831234086B
:1053F3008010742E28FA740C39FB1218D0E922128B
:1054030008237F030205BF74F012035E8A088B0929
:105413008C0A8D0B890C120DF08A0E8B0FAE0EAF1A
:105423000FEE4F6055125094E508F0A3E5091254AE
:1054330099125491E50C600AEE240F1227FBE50C38
:105443008006EE240F125489F09003D01244846036
:105453001A9003AAE064017008EE240E12516D80C5
:1054630010EE240E1227FB74078006EE240E12544E
:1054730089122D4E12020D125480024BF1EE240DAF
:10548300123650E8F022123650740122A3A3E50A23
:10549300F0A3E50BF02212327FA32274F512035E10
:1054A3008A088B09ECFEEDFF750A00800F1254FE8B
:1054B3007003A3E06F600312554E050A901DD5E4F7
:1054C30093F8E50AC3985025E50A75F017A4F8A9DF
:1054D300F01254F365087004A3E0650970CF7436C5
:1054E30028F582740C39F583124DA280CD02540540
:1054F300743628F582740C12516822743628F582AA
:10550300740C1251686E2274F712035EEAFEEBFF0D
:105513007508008019E5081251566E7003A3E06FF9
:10552300700A1255397005E50812554705081250DF
:10553300D040E2024A79742E28FA740C39FB120A1D
:10554300D8E922EE75F017A4F8A9F0125061120DF4
:10555300FC22124F9E1239FDE84922C082C0837497
:10556300F8120887851882851983AC82AD83758309
:10557300807582227408120756851882851983ACB8
:1055830082AD8312470364017004790080027901BC
:1055930074080239DC126911F9EA22E0F508E4F52E
:1055A30009F50AF50B2274091208237F040205BFCB
:1055B300EE2412FAEF3400FB120FA6E9227905124A
:1055C3000FB2740422E024F5C39412221216428A05
:1055D3000C8B0D8C0E8D0F2212108A900A7C127088
:1055E300AD7A147B0022FB1255F4E8F0A3E9F0EE48
:1055F300221255FC8A828B83228A828B83E024FFCA
:10560300F8A3E034FFF922EE240E1273037401228F
:105613001256541208237F080205BF12564EA2E504
:1056230022127306E4F0227F050205BFE508126C1F
:105633004CE50912564E227AD57B031211C8740227
:105643002212564822EE2410F582EF3400F583E04F
:105653002212107E740422F582EF12564EF822EEC7
:10566300240DF582EF12564E640122E0FEA3E0FF03
:10567300EE4F22F582EF12564E22FAEF3400FB79F9
:10568300E112173822F0EEFAEFFB22EE240EF58238
:10569300EF12730622F0A3F0025DE3F582EB1256DC
:1056A3004EFA2212082302623EC082C08374FE12A5
:1056B300088780077AD57B031256EA9003D51266D2
:1056C300B770F19003D71266B760097AD77B0312DC
:1056D30056EA80EF9003D5E4F0A3F09003DBF0A348
:1056E300F0A3F0740280161211C285188285198303
:1056F300EAF0A3EB1278A6120F9422741112082376
:10570300025DE374F612035EE9FF8F087497126774
:10571300D6741D1267DBFE8E08FA7B0012119EEA17
:105723004B6017EA2508F8EB3400F98A828B831261
:105733007196A3A3A3A3E4F080227A027B00121143
:105743009EEA4B60138F08746B1267D6741D125A4E
:10575300CDF0A3741A125AE27A007B00027251E967
:10576300FDEAFC74062DFAECA2E0501EEA75F00A7D
:1057730084A8F0E86014740A2AC398FAE8C394056D
:105783004004740A2AFA740B2AFAEDC394134004F2
:10579300781480027806E82A2409F8E43400F97AB8
:1057A3000A7B0012020DE8F90207BBC082C0839096
:1057B3000405E05402600A12192AE96004790180A1
:1057C300027900025DE3C082C083900405E05402C5
:1057D30060149003DBE0700A1266B460091257EE9E
:1057E3005004790180027900025DE39003DEE02436
:1057F30010125CBDA2E722C082C083908042E0F811
:105803009003DDE0C398500512119E80047A007B5B
:1058130000025DE3C082C083120F947900025DE34E
:10582300C082C08374FE120887851882851983128B
:105833005989600D14606524FE70030258C3025930
:105843004D900A5CE0640F6018120F6AE9701285CC
:10585300188285198312690C900EA6125D44121AE0
:1058630085900A84E0C0E08518828519831263E677
:10587300D0E012596FF812595D741412596FFCA3DA
:10588300E0FD7AD77B031211BCE5A8F8C2AF900301
:10589300DD1259807920120F580256E6120F64E97F
:1058A3008518828519836011125D44740D12596F36
:1058B300FAA3E0FB12192480E0125D44741580BB47
:1058C300125CC3700302594D8518828519831272C5
:1058D30027C0E0125962D0E012596F2402F8125B1C
:1058E300B42401FAA3E03400FB8882898312598926
:1058F30014C394095020125CC3FA85188285198356
:10590300A3127ACDA3A3A3E0F874B528F582741D7E
:105913001267DB6A600F125962E06408702C125C34
:10592300C364087025851882851983E0F8125CC961
:105933001412598D240AC0E08518828519831259DF
:105943005DD0E012598D0402587E85188285198333
:10595300AA82AB83120F9402589CA3125D4F228537
:105963001882851983127ADAA3A3A3221259732208
:10597300127996E022E5A8F8C2AF9003DCE004F0C8
:10598300E8A2E792AF22EAF0A3EB125973F8125C94
:10599300CEA3E022C082C0839003E01266B7600802
:1059A30012595E121A8580027900025DE374F712C0
:1059B300035EEAFEEBFFEE240D12560DF0EE242FEC
:1059C300125676C0E012568ED0E0F0EE2430125616
:1059D30076C0E0EE2412125691D0E0126F5DC0E063
:1059E300EE2413125691D0E0F0EE242B12569112AE
:1059F300068CEE2422FCEF3400FDEE242D125676A5
:105A0300F9126D54120823E97007EEFAEFFB120E38
:105A13009E02623EC082C083120F6AE9600479204D
:105A230080027901025DE3C082C083EA126C43E025
:105A3300D2E002569AC082C083126C3C1256687040
:105A430011125AD7400C8A828B83A3E0F9120F5E9E
:105A53008069125AC1125679A2E650128A828B8348
:105A6300A3E0F9900EA8125D44121A85804D126CC2
:105A73003C125668700D125AD750088A828B837471
:105A83003080358A828B83A3E0641B8A828B837088
:105A93000474228023A3E0700F126C3C12565D74D1
:105AA3008C28F582741D800D126C3C12565D746B4C
:105AB30028F582741D125ACD125AE2025DE3EA12EE
:105AC3005AC8EB22EE240FF58222127306E4938A5E
:105AD300828B8322EA125AC8EB12564EA2E322F0BB
:105AE300900400E0F91211AA2274F712035EE9FE92
:105AF3001266B4602EEE702E9003DE1272F4E4F0A0
:105B03009003DE12690C120E8C9003DEE0240E1259
:105B130057F450031273B99003DEE4F0A3F0791045
:105B2300120F5802623E741B6E7010125BB864054C
