:020000040000FA
:060000000209EC0201B14F
:03002B0002085672
:0300330002062B97
:03004300020711A0
:030053000200E2C6
:03006B0002060585
:100083000201460101FF050301CA0FCA0FCA0FCAC5
:100093000F860E800ECA0FED1B000000008B1B00A5
:1000A3000000000C0000000C0001FFFF0101010033
:1000B30019050000006A05E80364006400B8010242
:1000C3000200080000050207051E02051E0A03B808
:1000D3000B0201023412029651180002020612C0EA
:1000E300E074F21203CAA2AFE433FED2AFE5A7FF76
:1000F300E5A1F5085F5410600612166C75A1EFE5D3
:10010300085F5408600812167275A1F7802BEFA2DE
:10011300E0C0D0E508A2E092F012093C158182F01C
:100123005017906198E0F8900A44E0C398A2D26512
:10013300D0335002E8F075A1FEEEA2E092AF7F014A
:10014300020481C0E074F21203CAA2AFE433FED208
:10015300AF9061A4E0F8759B00E5915854086008DE
:100163007591F71216BA802AE591585410600875F4
:1001730091EF1216C0801BE8A2E0C0D0E591A2E087
:1001830092F012093C158182F05007E0C2E0F012B0
:1001930018109061A3E0F8E5E9585404600E1217B3
:1001A300E675E9FB906193E0A2E640F2808BC0E044
:1001B30074F21203CAA2AFE433FED2AF9061A5E09A
:1001C300F8E5BF585404600675BFFB1218280201F6
:1001D3003CC3E498F8E499F91202158026C3E49A23
:1001E300FAE49BFBE920E7E9120215E498F8E499A5
:1001F300F922C3E498F8E499F9120215E498F8E4B3
:1002030099F9C3E49AFAE49BFB22EB20E7CFE920B8
:10021300E7E0B90010BB0008E88AF084F8AAF022EE
:10022300E4FBC8FA22EB70227B10C833C8C933C978
:10023300335007C39AC3DBF280069A50012ADBEAE4
:10024300C833F4C8C933F4C9FA2275F008E4C833D3
:10025300C8C933C933C99AC99B5004C92AC93BD5F4
:10026300F0ECFBC833F4C8E4C9FA22080808EAC072
:10027300E0EBC0E086F0E7A4FA180986F0E7A42AC9
:10028300FA180986F0E7A42AFA180986F0E7A42ADF
:10029300FA1986F0E7A4FBE5F02AFA190886F0E7D5
:1002A300A42BFBE5F03AFA190886F0E7A42BFBE54B
:1002B300F03AFA18180986F0E7A4C5F02BFBE43AE4
:1002C300FA1908E7C5F0C6A426F6E5F03BFBE43AC5
:1002D300FA1886F0E7A4F6E5F00826F6E43B08F6FC
:1002E300E43A08F6D0E0FBD0E0FA22E4CFC0E0E441
:1002F300CEC0E0E4CDC0E0E4CCC0E075F020C3E6BE
:1003030033F608E633F608E633F608E633F618184C
:1003130018EC33FCED33FDEE33FEEF33FFC3EC9704
:1003230009ED9709EE9709EF97191919400FFFEC9B
:1003330097FC09ED97FD09EE97FE191906D5F0BE56
:10034300ECF709EDF709EEF709EFF7191919D0E002
:10035300FCD0E0FDD0E0FED0E0FF222518C582C02E
:10036300E0E51934FFC583C0E0E518C3958224F89E
:1003730010AF0885831985821880088583198582C3
:1003830018D2AFCEF0A3E520F0A37808E608F0A3D7
:10039300DEFAEFF0A3E58124FAF8E608F0A3E60815
:1003A300F0A3E608F0A30808E608F0A3E608F0A324
:1003B30015811581D0E0FED0E0F8158115811581F6
:1003C300E8C0E0EEC0E022C0D02518C582C0E0E559
:1003D3001934FFC583C0E0E518C3958224F310AF39
:1003E300088583198582188008858319858218D228
:1003F300AFC8F0A3E9F0A3EAF0A3EBF0A37908E711
:1004030009F0A3D8FAECF0A3EDF0A3EEF0A3EFF01C
:10041300A3D0E0F0A3D0E0F0A3D0E0F0A3E520F078
:10042300A3E5F0F0A322120A4EB9000302046BE421
:10043300900301789C790C8002F0A3D8FCD9FA9040
:100443000E9CAA82AB83900086785D79018015E4C7
:1004530093A3AC82AD838A828B83F0A3AA82AB83FE
:100463008C828D83D8E9D9E77582F575837D740015
:100473001207B575829275831A74001207B5851930
:1004830083851882E0C0E0A3E0F9A3E0FAA3E0FBD0
:10049300A37808E0F608A3DFFAE0FCA3E0FDA3E0FD
:1004A300FEA3E0FFA3E0C0E0A3E0C0E0A3E0F5D03B
:1004B300A3E0F520A3E0A3F5F010AF088583198529
:1004C30082188008858319858218D2AFD082D083A1
:1004D300D0E0F8D0E032591D0875F0108E1A8F1B4A
:1004E30085821F85831E851882851983E0CEA3E04C
:1004F300CF851F82851E83EBC9EAC8EDCBECCAC347
:10050300E833C8E933C9EA33CAEB33CBC3EA9EF510
:100513001DEB9FF51CB35004AB1CAA1DEC33CCEDB3
:1005230033CDD5F0DAAE1AAF1B22D083D082ECC024
:10053300E0EDC0E0E493A3FCE493A3FDED4C600D78
:10054300120649EC24FFFCED34FFFD80EFE493A396
:10055300FCE493A3FDED4C600D1206E6EC24FFFCD6
:10056300ED34FFFD80EFD0E0FDD0E0FCE493A3C0C9
:10057300E0E493C0E022D083D082E9C0E0E493A317
:10058300C386F0C5F095F0F908E493A386F0C5F0AF
:1005930095F0700BE493A3C3994005E9048002A38B
:1005A300E475F002A42582F582E5F03583F583D066
:1005B300E0F9E493A3C0E0E493C0E02285198385C6
:1005C3001882E0A3FEE0A3F5207808E0A3F608DF95
:1005D300FAE0A3FFE0A3C0E0E0A3C0E0E0A3C0E033
:1005E300E0A3C0E0E0A3C0E010AF088582188583D4
:1005F300198008858218858319D2AFD083D08202EF
:1006030007BBC0E074F21203CAA2AFE433FED2AF59
:10061300E589A2E1500312156A758900C2C5EEA2ED
:10062300E092AF7F01020481C0E074F21203CAA218
:10063300AFE433FED2AFE58BA2E0500312156A7527
:100643008B00C2E880D8C0E0C3E49396087401939A
:100653009618400FE4936670080874019366187047
:10066300007019A3A3C3E49396087401939618A387
:10067300A3400DD0E0D0E0D0E0020569A3A3A3A37B
:10068300A3A3D0E0227404800474028000CCC0E0F1
:10069300EDC0E0E518C39CCCAD1950011D10AF06A9
:1006A3008C188D1980068C188D19D2AF120756D06D
:1006B300E0FDD0E0FC2274028000CCC0E0EDC0E09D
:1006C300E518C39CCCAD1950011D10AF068C188DD5
:1006D3001980068C188D19D2AF120734D0E0FDD0E3
:1006E300E0FC22C0E0C0F088F0E493667008087470
:1006F300019366187000A8F0A3A3700BD0F0D0E0AC
:10070300D0E0D0E0020569A3A3D0F0D0E022C0E09E
:1007130074F21203CAA2AFE433FED2AFC2C0E5D172
:10072300A2E450031215E2EEA2E092AF7F010204AD
:1007330081CAC0E0E493A3C582CCC582C583CDC57D
:1007430083F0A3C582CCC582C583CDC583DAE5D04A
:10075300E0CA22CAC0E0E0A3C582CCC582C583CD6E
:10076300C583F0A3C582CCC582C583CDC583DAE634
:10077300D0E0CA22C008C3E096F50808A3E0964279
:100783000808A3E096420808A3E09645087001D341
:10079300D008227009080808226016181818C6C362
:1007A30033C608C633C608C633C608C633C6D5E043
:1007B300EA22C09FF59FE473D09F22D083D082C0EA
:1007C3009FE493C0E0740193C0E0740293F59F2209
:1007D3002518F58210AF08F518400215198008F5A1
:1007E3001840021519D2AF851983227404800A7444
:1007F300038006740280027401C0E0F4041207D37C
:10080300D0E0120A2922BB0102E722C082C08389F9
:10081300828A83BB0003E08002E493D083D08222E8
:10082300C0D0251810AF08F518500205198008F537
:100833001850020519D2AFD0D0226016080808C696
:10084300C313C618C613C618C613C618C613C6D50F
:10085300E0EA22C0E0C0D0E8C0E0E5A8D2AFC2C75A
:10086300A2E792AFD0E0F8D0D0D0E032C3E0C69692
:10087300F608A3E0C696F608A3E0C696F608A3E03A
:10088300C696F622251810AF08F5184002151980F0
:1008930008F51840021519D2AF22E066701008A3BC
:1008A300E066700A08A3E066700408A3E06622C34A
:1008B300E09608A3E09608A3E09608A3E096A2D2E8
:1008C30065D03322E76670100809E766700A0809E5
:1008D300E76670040809E76622C3E096F008A3E020
:1008E30096F008A3E096F008A3E096F022E627F638
:1008F3000809E637F60809E637F60809E637F62267
:10090300E026F008A3E036F008A3E036F008A3E001
:1009130036F022E657F60809E657F60809E657F6D1
:100923000809E657F622700422600D18C6C333C6C1
:1009330008C633C6D5E0F41822C0E0E8C0E0E5817C
:1009430024FCF8E6A2E7D0E0F8D0E022E056F6086F
:10095300A3E056F608A3E056F608A3E056F622E015
:1009630056F008A3E056F008A3E056F008A3E056BB
:10097300F022E647F60809E647F60809E647F608CF
:1009830009E647F622E026F608A3E036F608A3E0D8
:1009930036F608A3E036F622E4C396F608E496F6A4
:1009A30008E496F608E496F622600D08C6A2E7135B
:1009B300C618C613C6D5E0F322C6F4C608C6F4C6E5
:1009C30008C6F4C608C6F4C622C3E7960809E79624
:1009D3000809E7960809E79622C3E09608A3E0967C
:1009E30008A3E09608A3E0962275D00075814075B0
:1009F300180175190300020429E0F608A3E0F608BC
:100A0300A3E0F608A3E0F622600C08C6C313C618D9
:100A1300C613C6D5E0F422E6F008A3E6F008A3E681
:100A2300F008A3E6F022CAC0E0E6F0A308DAFAD0A1
:100A3300E0FA22E0FAA3E0FBA3E0FCA3E0FD22EA54
:100A4300F0A3EBF0A3ECF0A3EDF022E5C754F844D8
:100A530001F5C77901222518F582E43519F58322BA
:100A6300C2AF75D69F020000221207BE8AAA0112E6
:100A730007BED2AA011207BE1BAB011207BE8BAB86
:100A8300011207BEA7AB011207BE9EAC011207BE3F
:100A9300EDAE011207BE40B0011207BEE3B0011272
:100AA30007BE2EB2011207BE4CB2011207BE7DB2C1
:100AB300011207BE8FB2011207BEE1B2011207BED7
:100AC30042B3011207BECCB3011207BE70B40112C8
:100AD30007BEC4B4011207BEDDB4011207BE03B5DD
:100AE300011207BE3EB5011207BE82B5011207BE51
:100AF300A9B5011207BEFAB5011207BEAAB60112C3
:100B030007BE62B7011207BE2AB8011207BE07B9B2
:100B1300011207BE8DB9011207BE9CB9011207BEAF
:100B2300A7B9011207BEB0BA011207BEC1BA0112BA
:100B330007BE37BB011207BEC9BB011207BE21BCEA
:100B4300011207BEE7BC011207BE18BD011207BEA2
:100B53005DBD011207BE6ABD011207BEFEBE0112D2
:100B630007BE61C0011207BE7DC1011207BEE7C304
:100B7300011207BEF2C3011207BEFCC3011207BE76
:100B830007C4011207BE11C4011207BE1BC4011220
:100B930007BE26C4011207BE31C4011207BE62C4D8
:100BA300011207BE86C4011207BEAAC4011207BE02
:100BB3000FC5011207BE53C5011207BE6FC501124F
:100BC30007BEE6C5011207BE1EC6011207BE6AC6EE
:100BD300011207BEC7C6011207BEA9C8011207BE8C
:100BE3002FC9011207BE00CA011207BE10CD0112A0
:100BF30007BE65CD011207BE91CD011207BEDDCE42
:100C0300011207BE2DCF011207BE82CF011207BE0C
:100C130083D0011207BE1BD1011207BE9DD1011261
:100C230007BE3DD2011207BEF51D001207BE2E1EE0
:100C3300001207BE0820001207BE4720001207BE9D
:100C43009120001207BE3621001207BE9521001223
:100C530007BEC921001207BE3622001207BE532366
:100C6300001207BE5B24001207BEF124001207BE68
:100C73003828001207BEE128001207BEBD29001262
:100C830007BE1E2A001207BE3B2B001207BE652DAE
:100C9300001207BE1C2E001207BE262E001207BE2E
:100CA300592E001207BE202F001207BEBB2F0012C1
:100CB30007BE2030001207BE4930001207BE6B305A
:100CC300001207BE9A32001207BE7133001207BE2C
:100CD300B533001207BE2234001207BEDD34001202
:100CE30007BE0F35001207BE5335001207BE863507
:100CF300001207BEDB35001207BE3036001207BEF6
:100D0300C436001207BE2637001207BE8E37001204
:100D130007BE3739001207BE1F3A001207BE613BF8
:100D2300001207BE8F3D001207BE4F3E001207BEE2
:100D33007E40001207BE2141001207BE5F41001230
:100D430007BE0B43001207BE1F43001207BE294311
:100D5300001207BE5343001207BE5F43001207BED3
:100D63007E43001207BE3544001207BE74440012CE
:100D730007BE7E44001207BE3245001207BE31464D
:100D8300001207BE2A47001207BEC747001207BE5C
:100D93006948001207BE8048001207BEB748001218
:100DA30007BED548001207BE1949001207BE3E49C7
:100DB300001207BE244A001207BE904A001207BE63
:100DC3000A4B001207BE194C001207BE584D001201
:100DD30007BEBA4D001207BE744E001207BE974EEF
:100DE300001207BE6B4F001207BEB64F001207BEBC
:100DF300F84F001207BE4F50001207BE8650001274
:100E030007BEB450001207BEED50001207BE1251C8
:100E1300001207BE9A51001207BEBD53001207BE4F
:100E23001C54001207BEB054001207BE1C5500121A
:100E330007BE7055001207BE82F7021207BEC1F744
:100E4300021207BEBE56001207BE1857001207BE95
:100E53007457001207BEC057001207BEDB570012BB
:100E630007BE0C58001207BE2958001207BE35589A
:100E7300001207BEA959001207BEC259001207BECD
:100E8300295A001207BE3C5A001207BE4A5A0012E2
:100E930007BEFE5A001207BEE25B001207BEE85C03
:100EA300001207BE6E5D001207BE785D001207BE1A
:100EB300E55D001207BEFC5D001207BE2E5E001248
:100EC30007BE675E001207BE915E001207BEF25EA8
:100ED300001207BE125F001207BE305F001207BE8A
:100EE300765F001207BE9C60001207BEE960001225
:100EF30007BE1861001207BE8E61001207BEB661FD
:100F0300001207BEEF61001207BEFD61001207BEAB
:100F13005562001207BEA462001207BEE36200120C
:100F230007BE1363001207BE3F63001207BE4A6386
:100F3300001207BE6863001207BE2A64001207BED0
:100F43003464001207BE6F64001207BE856400128A
:100F530007BE8E64001207BEE364001207BEF76487
:100F6300001207BE0566001207BE1866001207BE10
:100F73002D66001207BECF66001207BE526700122D
:100F830007BE1068001207BE1B68001207BE416946
:100F9300001207BE5D69001207BEAF69001207BEEB
:100FA300EE69001207BE036A001207BE456A00120B
:100FB30007BE926C001207BE106D001207BE836D50
:100FC300001207BEA56F001207BEBD6F001207BE59
:100FD300C06F001207BECC6F001207BEE06F001295
:100FE30007BEE86F001207BE1B70001207BECB706E
:100FF300001207BE4171001207BEB471001207BE92
:101003006872001207BE1D73001207BE3C73001204
:1010130007BEDC73001207BEE873001207BE137429
:10102300001207BE1674001207BE8074001207BEBA
:10103300A875001207BE8076001207BE0B77001258
:1010430007BE2478001207BEE178001207BE1A79A2
:10105300001207BE4B79001207BEEB79001207BEE0
:101063001B7A001207BEF67A001207BE8F7B0012AE
:1010730007BE1A7C001207BECB7C001207BE4D7D53
:10108300001207BE7F7D001207BEC07D001207BE9F
:101093004999021207BEAE99021207BEEB990212DA
:1010A30007BE3A9A021207BE509C021207BE339E35
:1010B300021207BE9DA1021207BED8A1021207BEEB
:1010C300FAA1021207BE5DA2021207BE91A202128A
:1010D30007BEB4A2021207BEE1A2021207BE3DA3DD
:1010E300021207BE848D021207BE028E021207BED1
:1010F300388E021207BEA48E021207BE1790021288
:1011030007BE3390021207BE7890021207BE069103
:10111300021207BE5F91021207BE8C92021207BE33
:101123009E93021207BEFB93021207BE679402123C
:1011330007BEC894021207BE0995021207BEB695F0
:10114300021207BEC896021207BEF396021207BE2A
:101153003E97021207BE8597021207BE1798021226
:1011630007BED298021207BE10D8021207BE8BD850
:10117300021207BE96D8021207BEB7D8021207BEE4
:10118300E0AC021207BE2CAD021207BE9AAD0212EA
:1011930007BEBBAD021207BE6BAE021207BE74AE32
:1011A300021207BEC7AE021207BEF0AE021207BE9E
:1011B30057AF021207BEE8AF021207BE2AB00212EF
:1011C30007BE74B0021207BED3B0021207BE64B1E9
:1011D300021207BE499D011207BEE2B1021207BE09
:1011E30017B2021207BE29B2021207BE3BB20212A5
:1011F30007BE5AB2021207BE63B2021207BE2BB376
:10120300021207BE02F3021207BEF1E4021207BE86
:1012130027E5021207BE70E5021207BEC0E60212FE
:1012230007BEF0D2011207BE2FD4011207BE6BD442
:10123300011207BEC8A9011207BE53D6011207BE89
:10124300E6D8011207BE2AD9011207BEB3DA01128A
:1012530007BE4BDB011207BEB3DB011207BE54DC32
:10126300011207BE96DC011207BED6DC011207BECF
:1012730061DE011207BED1DF011207BEF6E10112E2
:1012830007BE24E2011207BE4BE2011207BE54E27D
:10129300011207BEDBE2011207BEF9E5011207BE28
:1012A300B4F8021207BEB9FF011207BE98D10212A9
:1012B30007BEABD1021207BE48D2021207BE83D2C9
:1012C300021207BE9ED2021207BEC3D2021207BE8B
:1012D30008D3021207BE39D3021207BE6AD3021221
:1012E30007BEF0D4021207BEA0F4021207BED6F462
:1012F300021207BEF2F4021207BE34F5021207BE51
:1013030044F5021207BE68C6021207BE3EC70212A8
:1013130007BEE9C7021207BE27C8021207BE33C8B9
:10132300021207BE3FC8021207BE7EC8021207BEE2
:10133300ADC9021207BE17CA021207BE7AE601122E
:1013430007BECFE6011207BE79E7011207BE21E807
:10135300011207BE7EE8011207BE92E8011207BE22
:101363005CEA011207BED7EA011207BE01EB0112C4
:1013730007BE9EEC011207BEB9EC011207BE08EDD1
:10138300011207BE1EED011207BE2BED011207BEAF
:101393005FED011207BE75ED011207BE00EE0112EB
:1013A30007BE5AEE011207BEA8EE011207BEB2EF46
:1013B300011207BE34F2011207BECEF2011207BEBC
:1013C30010F3011207BEA5F3011207BEC2F3011207
:1013D30007BEC5F3011207BEC8F3011207BE3BF4F3
:1013E300011207BE56F4011207BE82F4011207BEB2
:1013F300BDF4011207BEC0F4011207BE84F6021247
:1014030007BE90F6021207BECAF6021207BE00809C
:10141300021207BE2B80021207BEED80021207BE26
:101423007281021207BEDB81021207BE27820212FB
:1014330007BEA682021207BE3883021207BEC48308
:10144300021207BE0684021207BE4F88021207BEAD
:10145300CF89021207BE268B021207BEB28B02127D
:1014630007BEF9F4011207BEB3F5011207BE25F654
:10147300011207BEC1F6011207BE31F7011207BE02
:1014830065F8011207BE41F9011207BEB2F9011254
:1014930007BE2FFB011207BEF1FB011207BE08FDB9
:1014A300011207BEA7FD011207BE64FE011207BEAB
:1014B300DFDA021207BE33DB021207BE8BDB021236
:1014C30007BED6DB021207BE38DC021207BED1DC30
:1014D300021207BE39DD021207BE45DD021207BE46
:1014E30023E7021207BE54E7021207BE0EE80212F8
:1014F30007BE74E8021207BE6E7E001207BED5F364
:10150300021207BEE6F3021207BE86F4021207BEFA
:10151300FDE8021207BE0BE9021207BECAF8021267
:1015230007BEEEF5021207BEFEF5021207BE19F65C
:10153300021207BE7AF6021207BE00F2021207BEBB
:1015430085F2021207BEE9F2021207BE89EA02120D
:1015530007BEABEA021207BE11EB021207BE31EB64
:10156300021207BE77EB021207BED2EB021207BECE
:101573009DEE021207BEB2EE021207BE26EF021262
:1015830007BE40EF021207BE53EF021207BE61EF20
:10159300021207BE7BEF021207BE9BEF021207BEC9
:1015A3008ECA021207BE9CCA021207BE16CB0212D3
:1015B30007BEFACB021207BEB3CD021207BE78F8FC
:1015C300021207BE54B3021207BEC0B3021207BE13
:1015D3007FB4021207BE89B5021207BEE2B6021239
:1015E30007BE3DB7021207BE92B7021207BE9BB7F2
:1015F300021207BEADB7021207BE17B8021207BE2A
:101603002BB8021207BE35B8021207BE49B8021240
:1016130007BE9EB8021207BE9ABA021207BECCBA20
:10162300021207BEEEBA021207BE07BB021207BEC2
:1016330020BB021207BE2ABC021207BEC5BC02129F
:1016430007BE09EC021207BE2DEC021207BE46ECE0
:10165300021207BE79EC021207BEAAEC021207BE01
:10166300D8EC021207BE3AED021207BE49ED021290
:1016730007BE53ED021207BE60ED021207BE80DD06
:10168300021207BEA6DD021207BEE3DD021207BE89
:10169300F2DD021207BE11DE021207BE79DE02126C
:1016A30007BE82DE021207BEE1DE021207BE05DFBD
:1016B300021207BEC4DF021207BED1DF021207BE49
:1016C300E2DF021207BE0FF8021207BE2CF8021265
:1016D30007BEF0C1021207BE48C3021207BE55C3BC
:1016E300021207BE68C3021207BE87C3021207BEF7
:1016F3009DC3021207BEB1C3021207BE26C4021263
:1017030007BE8BC4021207BE3BC5021207BE10C63A
:10171300021207BE20C6021207BE2FC6021207BE60
:1017230055F5021207BE79F5021207BEA1F50212A2
:1017330007BEC9F5021207BE92E2021207BEB9E262
:10174300021207BEDAE2021207BE3FE3021207BE2D
:1017530010E0021207BE29E0021207BE35E00212B2
:1017630007BE49E0021207BE67E0021207BE71E03E
:10177300021207BE7BE0021207BE8EE0021207BE12
:10178300F0E0021207BE29E1021207BE58E102127D
:1017930007BEA6E1021207BEF5E1021207BE10E280
:1017A300021207BE1AE2021207BE41E2021207BE8C
:1017B30087E2021207BE07F7021207BE23F70212DF
:1017C30007BE9AF8021207BE89A3021207BEB3A38B
:1017D300021207BECFA3021207BEE2A3021207BE84
:1017E300F8A3021207BE55A4021207BE88A4021270
:1017F30007BEC9A8021207BEEFA9021207BE22AA9A
:10180300021207BE6EAA021207BEB0AB021207BED7
:10181300D8AB021207BEEDAB021207BEFDAB02123C
:1018230007BE41AC021207BEA2AC021207BEB2ACA5
:10183300021207BE6AED021207BE85ED021207BE51
:10184300AEED021207BEC8ED021207BEEDED0212A5
:1018530007BE0CEE021207BE24EE021207BE52EEC2
:10186300021207BE6CEE021207BECBF7021207BECE
:1018730018CE021207BE1FCE021207BE2BCF0212D2
:1018830007BE5BCF021207BE81CF021207BEA4CFF1
:10189300021207BEC6CF021207BE00D0021207BE55
:1018A30066D0021207BE9FD0021207BEEBD002120F
:1018B30007BE18D1021207BE38D1021207BED0EFFD
:1018C300021207BEE2EF021207BECDF0021207BEFC
:1018D300EAF0021207BEEDF0021207BE5FF1021238
:1018E30007BE9DF1021207BEDEF1021207BEFDD450
:1018F300021207BE19D5021207BE68D5021207BE2F
:1019030084D5021207BEB5D5021207BEC5D5021291
:1019130007BEB1D6021207BEBBD6021207BEC8D697
:10192300021207BED8D7021207BEECD7021207BEB7
:10193300F5D7021207BE04BD021207BE49C1021247
:1019430007BE4EC1021207BE4BF8021207BEF09C3F
:10195300011207BE849C011207BE5B9C011207BEE5
:101963004E9A011207BE1A9A011207BEE799011295
:1019730007BECB99011207BEF198011207BEA998C1
:10198300011207BEDE96011207BE5E96011207BE64
:101993005B96011207BE6295011207BE30950112D4
:1019A30007BE6D94011207BE9892011207BE2992D9
:1019B300011207BEFB91011207BEF891011207BE87
:1019C300E591011207BE7D91011207BE6C910112D0
:1019D30007BE3BA9011207BE2EA9011207BE3CA6F2
:1019E300011207BE8EA3011207BE62A2011207BE37
:1019F3004D90011207BE1790011207BEDA8F011234
:101A030007BE7B8F011207BEB6A1011207BE4A8F24
:101A1300011207BE058C011207BEF68A011207BE2A
:101A2300858A011207BE07A0011207BE2AD601123A
:101A330007BE4A8A011207BE158A011207BE098A28
:101A4300011207BE6989011207BEB088011207BEE1
:101A53008386011207BE0F84011207BECD830112D4
:101A630007BE9882011207BE4D82011207BE7F8115
:101A7300011207BED680011207BE7280011207BE93
:101A8300AC80011207BEC29D011207BEA3B10200C2
:101A9300000080FBE47300013636010100010201FE
:101AA300000103010001040106060502000007010D
:101AB30000340801000F090401010D0100FF0E08A5
:101AC300000017020000190100FF1A0100011B01A9
:101AD30000FE1C0100081D0200001F01000120017F
:101AE3000001210200002301000F2402000026014F
:101AF300000127010008280200FF2A0100072B012B
:101B030002402C0100002D0100012E0100012F01D4
:101B130000FF30010B1C310800003A0100083B01B3
:101B2300000F2F01000001017101010101011101E9
:101B330001013101010101018001100161013B003B
:101B43001400630173017201620143010001130177
:101B530006013D01350004011201000100010001ED
:101B6300000104010401330133013C01440132014A
:101B7300360000010001650100013500810100010B
:101B830005018201830100010103710301030103C4
:101B930001030103010322030203010310030003F2
:101BA30000030003000300030003000342030003D8
:101BB3002403060300030003040312032503230382
:101BC3002503230304030403000300030003440366
:101BD300000300032303000365032100350381038E
:101BE3000003050300030003000303007100300139
:101BF30060001100700031022003500480001000C7
:101C0300610000001400630073007200620043006F
:101C13000000130006000000000004001200000092
:101C230000000000000004000400370037003C02FD
:101C330044000000000000000000650000003500C3
:101C43008100000005000000830000000302710210
:101C530030016002110270020102020202028002DC
:101C6300100261023A0041006302730272026202CF
:101C730043020002130238000002000204021202AF
:101C830000020002000200020402040237003700CF
:101C93003C02440200023900000200026502000215
:101CA300350281020002050282028302000236002D
:101CB3000100060000000F0000000000000000000B
:101CC3000000000003FFFF00000403FFFF0000FF0C
:101CD300FF0FF4010005C4040320000100140B00EE
:101CE3000000000000000003010FE00E100FE60EDD
:101CF300EC0E0A0FFE0EF80E160F1C0F220F2E0FFE
:101D0300F20EDA0ED40E01007A1402002614030038
:101D13002C14040032140500381406004414FFFF89
:101D230000000AAC0C02760C05880C077C0C0C58DE
:101D33000C0D6A0CFF000000160F00000B150B02C0
:101D43000002220F32000006CA0FDC0FE20FAA0EB8
:101D5300E80FA40EB00E140AE5D5C5B5A5A5958563
:101D63008575652A1048104E1030103C1036100C43
:101D73000E020B040B0A0708000F30301718192145
:101D8300301B1D1F300001191618161615230300EA
:101D930000034948424D181725050230301618191B
:101DA30020231A1C1E3000383C3E363B3B352B4368
:101DB3002C1E10EE0FF40F0010FA0F040F280F4221
:101DC30010340F3A0F02040201010101090200005D
:101DD3000000000000BE040A15000E000400FA060D
:101DE300E8032800040C0A03090CFF1E1E08040F55
:101DF300100574F712035EE99003B0F0900365E4F5
:101E0300F01218BE9003B5E4F0A3F09003B1F0A371
:101E1300F0120DE41218C4900334E4F0A3F0901D03
:101E2300F293FA7902121924024A8B74F212035EB6
:101E3300EAFEEBFF548060699003B0E0F91211B041
:101E43008A088B09EA4509604F7C0080010CEC7518
:101E5300F003A4F8A9F0742528F582741D39F583DD
:101E6300E493F4602CE493F88508828B83E0687034
:101E7300DCAA08EC75F003A4F8742628F582741D17
:101E830039F583E493C0E0740193F583D082121A89
:101E930097AA08AB091211A4EEFAEF6480FB021FA4
:101EA300FBEF5420601D120D068A088B09EA4509D1
:101EB300600A120C6AAA08AB091211A4EEFAEF64C5
:101EC3002080DAEEA2E0501A90036AE0640F700BF0
:101ED3007900120C34E96003121FFEEE6401FAEF7D
:101EE30080BB54207003021FC9750C001234D08BC1
:101EF30009EA450970107C027D007A207B0090037B
:101F0300B0E0F91212CA7C0079047A007B00120C4B
:101F1300E28A088B098018850882850983A3A3A315
:101F2300A3A3A3A3A3A37401F0850A08850B09E562
:101F3300084509606D7C007904AA08AB09120CE21C
:101F43008A0A8B0B750C01E5082404F8E5091232A3
:101F53007424FFF0A3E034FF12556770CC85088228
:101F6300850983A3A3A3A3A3A3A3A3A3A3E06401BA
:101F730070A5850882850983A3A3A3A3A3A3E05423
:101F8300047094850882850983A3A3A3A3A3A3A3B1
:101F9300A3A37406F07AB785088285098312212AE0
:101FA3008087120CB27C0079017A007B00120CE26C
:101FB3008B09EA45097009E50C70057A2012442A59
:101FC300EE6420021EE1EF5402600B120DDEEEFA06
:101FD300EF6402021EA0EF540460191245C11244BB
:101FE300E17901900363124845120B7AEEFAEF642C
:101FF30004021EA07A007B00022231900ED0122828
:10200300C8120C4C22C082C08374EA120887851858
:1020130082851983AA82AB83794B1218FA7408124A
:102023000A597402F07409120A59AA82AB837950CF
:102033001218FA7413120A59E4124A141219187472
:10204300160239EE74F712035E74E1120887EAFE92
:10205300EBFFEE4F6033851882851983AC82AD8325
:10206300120D2A7406120A59E0601E7417120A59D7
:10207300E0FD7401120A59E0FCEEFAEFFB7900125D
:102083000AA2E9600479A480027900024A8674F600
:1020930012035EEAFEEBFF8E828F83A3A3A3A3A3A7
:1020A300A3E05440601B124F031221F860067AFF2D
:1020B3007BFF801A8E828F8312367AFAA3E0FB802D
:1020C30003120D4E74FE6A700374FF6B6041124F6E
:1020D3000312446E120DA2E98E828F8360061221D1
:1020E30023E480051221237401F07C3A7D0C8E8257
:1020F3008F8312484512191EE9F5087015EE4F60DB
:10210300097901EEFAEFFB120CBEA90802449F7590
:1021130008CDAA088E828F8312212AE960DF80EA24
:10212300E0240D123B4922E0240C123B49E0F91252
:102133000C462274F612035EE9FEEAFF7A0F7B0077
:1021430012119EEA4B60198A828B83740CF0EEA302
:10215300A3F0EF8A828B83A3F01244CA7900802F05
:10216300EEF9120CE88A088B09A808A909E8496066
:102173001C88828983A3A3A3A3A3A3A3A3A37406F5
:1021830012518EE0F9120BFEEEF9120CC479100213
:10219300449FC082C08390036AE0640F7014EA4BCB
:1021A3006010900365E064086005E0640470031246
:1021B30021B8023A18EAFCEBFD7A017B009003B0E8
:1021C300E0F91212C422C082C0837900EA241DF50B
:1021D30082EB12367724FD600B14600824FD600443
:1021E30024FD700109023A188E828F83A3A3A3A34F
:1021F300A3A3A3A3A31221FC221236BFFB120DA299
:10220300E9228E828F83A3A3A3A3A3A3A3A3A312D1
:1022130021FC6402228E828F83A3A3A3A3A3A3A37F
:10222300A3A3123A0F900356E068221208237F06F5
:102233000205BF74F412035E74FD1208878A088BCB
:10224300098A828B83A3A3E0F9120CE88A0A8B0B19
:10225300AE0AAF0BEE4F700302233D85088285095A
:1022630083A3E064F16030850882850983A3E06479
:10227300CD6024850882850983A3E0641A601885EC
:102283000882850983A3E064E9600C8508828509D7
:1022930083A3E064E170087900120CBEE9706C85D9
:1022A3000882850983A3E0C0E07402120A59D0E0D2
:1022B3001239F3EEF0A3EF122D1E851882851983D0
:1022C300AA82AB837005120B628003120D8A74021B
:1022D300120A59E064E970338E828F8312234975A1
:1022E3000A01780A1207FA750AE9780A1207FAE569
:1022F30008240CF582E509122810122CFBFCA3E03C
:10230300FD8A828B83122D151208238E828F83A35D
:10231300A3A3A3A3A3A3A3A3E0640270108E828F3D
:1023230083A3A3A3A3A3A3A3A3A37406F0850882F3
:10233300850983A3A3E0F9120CC4120CB2900ED446
:102343001220010228CDE0F8A3E0F9E8FAE9FB2224
:1023530074F412035EEAFEEBFF7508008E828F832E
:10236300A3A3A3A3A3E060427508088E828F83A36F
:10237300A3A3A3A3A3A3A31239228B0BEA450B6048
:102383001075082C8E828F83A3A3A3A3A3E0D2E0AE
:10239300F08E828F83A3A3A3A3A3E05403640160FD
:1023A3000302243C43081102243CEE24181228DAC9
:1023B3006033EE241A1228DA700F1222187003A366
:1023C300E06970757508228070EE241BF582EF12A8
:1023D3002441241AF582EF122D26EE2419124F37C9
:1023E300120BEC8054122205700375080112221897
:1023F3007003A3E0697006E508D2E1F508E508601B
:10240300158E828F83A3A3E07006E508D2E58004CE
:10241300E508D2E6F5081221EB64017006E508D25F
:10242300E0F5088E828F83A3A3E0600D12244F642E
:10243300016006E508C2E0F508A9080228D21236B1
:102443006512244822E0FCA3E0FDEE2212365F125F
:102453003697F9120D90E922C082C08379018A82EE
:102463008B83A3A3E0C394024001198A828B83A3C5
:10247300A3A3A3E0C39402400279008A828B83A3BF
:10248300A3A3A3A3A3A3A3A3E064F87003A3E0F40B
:1024930060458A828B83A3A3A3A3A3A3A3A3A3E0DF
:1024A30064F97003A3E0F4602E8A828B83A3A3A351
:1024B300A3A3A3A3A3A3E064FA7003A3E0F46017A8
:1024C3008A828B83A3A3A3A3A3A3A3A3A3E064FBF5
:1024D3007003A3E0F4700279008A828B83A3A3A321
:1024E300E0F8900353E06860027900023A1874F050
:1024F30012035E74DE120887EAFEEBFF8E828F837F
:10250300A3A3A3A3E0600E900ED21244966006909C
:102513000ED21220017403120A59AC82AD838E824B
:102523008F83A3A3A3124518124D51E9600F7403BF
:10253300120A59AA82AB83120C64E970087901125A
:1025430018D0022805EE241B12366A7410120A5999
:102553001244E17409120A59E06021741A120A59EB
:10256300E0FD7404120A59E0FC8E828F8312484303
:102573007901120AA2E96004790280C37403120A82
:1025830059AA82AB83120C5EE9F50A7409120A593F
:10259300E0702A90034DE060247422550A6422609F
:1025A3001C7442550A644270CF7420120A591228CF
:1025B30023600A7420120A5912281C70BBE9A2E690
:1025C30050417403120A59AA82AB83120C52E97068
:1025D300030225407420120A5912367A6403700FDD
:1025E3007420120A59A3124488A3E0640D60147482
:1025F30003120A59AA82AB83120DB4E96401700372
:10260300022805EE242C12280D122B317003A3E0AF
:1026130069701C75080078081207FA78081207FA1F
:10262300EE242E124F37122829122D151208237467
:1026330009120A59E070030226E2122829124845BA
:10264300120E088A088B09EA4509700302277F7472
:1026530004120A59E0F88E828F83A3A3E028F8A31B
:10266300E03400F9E8240D1228148A828B83A3A393
:10267300A3E068601CE88A828B83A3A3A3F0908005
:1026830059120A36850882850983A3A3A3A3120AD4
:10269300427904E9120A59124D2E2AF8A3E03400B4
:1026A3008882F583A3AA82AB831211928A0C8B0DC5
:1026B3008C0E8D0F850882850983A3A3A3A3780CB1
:1026C300120777400302280590804D780C12098881
:1026D300850882850983A3A3A3A3780C120A1A9001
:1026E3000365E064046008E064096003022805E50B
:1026F3000AA2E540030227BDEE242E1228DA85182C
:1027030082851983F0EE242F1228DAC0E0740112B7
:102713000A59D0E0F0EE24301228DAC0E074021235
:102723000A59D0E0F07414120A59E0640170277456
:102733000E120A59123670EE24121228DA68700348
:10274300A3E0697011740C120A59122212700774F3
:1027530014120A59E4F0EE242412280D1206887488
:1027630004120A59AC82AD837407120A59AA82ABC8
:1027730083120B6874041208230228059003AAE04D
:10278300640160030226E27420120A59122823709E
:1027930009E50AA2E650030226E27410120A59E080
:1027A300F47003A3E0F4605AEEFCEFFD7403120A25
:1027B30059AA82AB83120C708048A2E6504474205D
:1027C300120A59124854701A741A120A59E0640210
:1027D30070307403120A59AA82AB837900120D7EFA
:1027E30080207420120A5912281C7016741A120AB7
:1027F30059E06404700C7403120A59AA82AB831261
:102803000D787422024C00EE240BF582EF1236652C
:1028130022F582E91244FAF822124F15E0640722E6
:10282300123697640622EE242A12366212244824B2
:10283300121236622274F412035EEAFEEBFF8C0876
:102843008D099005C7E0600F1222187003A3E06999
:102853007005120BDA804F7900124838120C0A8A7D
:10286300828B83E58245836035A3A3A3A3A3A3E05F
:102873005418602AE508241BF582E5091228101272
:10288300068C122F0E12281012068CEE2418124FEB
:10289300371228AB120C1C74041208238008790029
:1028A3001228AB120BE080278E828F83A3A3A3A3EE
:1028B300A3A3A3A3A3122448240BF582EF1228C4D5
:1028C300223400F5831236BFFB2274031208237FE0
:1028D300040205BFEE2417F582EF1244FA2274F7BF
:1028E30012035E74F7120887EAFEEBFF900365E0BC
:1028F3006403600DE064016008E064096003022979
:10290300AB8E828F83A3E0707E7C007D007A027B96
:10291300001218CAEE2402FAEF12327B12367090BC
:1029230003561244E1795312190079001229B0E0D9
:1029330064096003122D438518828519837401127B
:1029430044B79003657404F07401120A59AA82AB68
:1029530083794A1218FA7401120A59AC82AD837A48
:102963005B7B031218E8900356124D477A03122D2E
:102973004D900350E0A2E35004D2F08002C2F01263
:1029830044A4121FFE801E8E828F83A3AE82AF8368
:10299300FC7D007A037B101218CA8E828F83E0F9C4
:1029A3001229B0E4F0120C9A7409024A8890036366
:1029B3001228C8120B7A90036522C082C083900349
:1029C30034124496701F900365E014600924FC6080
:1029D3000A14600C800F90033C8032900338802DE2
:1029E30090033A8028E8496008900335122CF5706B
:1029F3000C8A828B83A3E0F9120B6E801B90033544
:102A0300122FAA7005120DD2800E9003D212449693
:102A13006006124488121A97023A1874F412035E7D
:102A230074FB1208878A088B097A0F7B0012119EA8
:102A33008A0A8B0BAE0AAF0BEE4F7003022B258E67
:102A4300828F83124A1279501218FA8508828509F7
:102A530083A3E06003022B0D900363E0F47003A3F0
:102A6300E0F46034900363E064FE7003A3E0F46079
:102A730027851882851983122B317003A3E06960BF
:102A830017850882850983A374EA122D2B7A637B49
:102A93000379501219008072851882851983124EAA
:102AA300F61244E17A567B0379531218FA900356CF
:102AB3001245121244E17A597B03794B1218FA7AC0
:102AC300587B0379E11218FA90036AE0C3940F501C
:102AD30021900358E0C0E07402120A59D0E0F07468
:102AE30004120A597401F004120A59AA82AB831220
:102AF3001912750A00780A1207FA780A1207FA906F
:102B03000EF6E0F9122D0C1208238508828509833D
:102B1300122B2AA3F09003657403F0EEFAEFFB1275
:102B230044CA74050228CFA3E08E828F8322124EFB
:102B3300FAE06822123B502274F512035E74D81235
:102B430008878A088B098A828B83A3A3A312369CE6
:102B53007415120A59AC82AD838A828B83A3A3A313
:102B6300A3A3A3A3A3122CFBFAA3E0FB120CA07450
:102B730015120A59E0706B850882850983A3A3A304
:102B8300A3A3A3A3A3E0C3940B40578E828F83A375
:102B9300A3A3A3A3A3A3A3E064027046EE240B1292
:102BA30028DAF4703D900365E06402603AE064065D
:102BB30060359003341244966005122CF5604F90F3
:102BC3000365E064086005E0640470167417120A74
:102BD30059E0F9741C120A59AC82AD8312483812B9
:102BE3000CA67428025414900334124496701F7573
:102BF300080078081207FA78081207FAEE24101270
:102C0300280D124F4F123363122D151208238E8293
:102C13008F831247B412328D1236707402120A591E
:102C23001244E1EE240D1228DAC0E07404120A59AA
:102C3300D0E0122D1EF508A3E0F509740F780812F1
:102C43000A0B7405120A59E508F07419120A59E0BF
:102C5300C0E07406120A59D0E0F0741B120A59E05E
:102C6300C0E07407120A59D0E0F07416120A59E052
:102C7300C0E07409120A59D0E0F07417120A59E03F
:102C8300C0E07408120A59D0E0F0EE24101228DADA
:102C9300C0E0740A120A59D0E0F0741A120A59E01B
:102CA300C0E0740B120A59D0E0F07427120A59E0FD
:102CB300C0E0740C120A59D0E0F0741C120A59A92E
:102CC30082AA8389088A09750A0078081207F27CA8
:102CD300087D007410120A59AA82AB831240451270
:102CE3000823851882851983AA82AB83120B740289
:102CF3002BE5122FB0640122E0F98A828B83A3A310
:102D0300A3A3A3A3A3A3A3E022900363124D4B9019
:102D130003591228C8120D60740222F0EE240B121C
:102D230044F7221244FAFA22F07A567B03795312BB
:102D33002D36221219007A597B03794B121900227E
:102D43009003631228C8120E02227B001218CA9045
:102D53000359124D4B7A047B001218CA22F0124F0A
:102D63005A2274F212035E74F8120887EAFEEBFF2C
:102D73008C0A8D0B890C851882851983AC82AD83EF
:102D830075838075822A7408120756F50DEEFCEFE1
:102D9300FD851882851983AA82AB831247157003B8
:102DA300750D019003B1803BEEFCEFFDE508240BAC
:102DB300FAE5093400124714601E850882850983E9
:102DC300A3A3E0650C7011850882850983E0650A79
:102DD3007004A3E0650B6038E5082414F582E50967
:102DE300122810123285E50845096024E50DA2E09A
:102DF30040B6850882850983E0650A7004A3E0650F
:102E03000B70D5850882850983A3A3E0650C70C880
:102E1300AA08AB09740802222EC082C0839003B1B2
:102E2300023A1574F712035E9003B11236BF801293
:102E3300EA2414F582EB12281012369C12121CEEAF
:102E4300FAEFFBEA4B70E99003B1E4F0A3F0024A16
:102E53008B7F070205BF74F112035EEAFEEBFF8965
:102E63000A8C088D098E828F83E08C828D831239C0
:102E73002CAE82AF83E0124105124076C4124105A5
:102E8300122F17E054038C828D83124074A2E2E464
:102E9300338C828D83124073131313541F12410515
:102EA300124072A2E7E4338C828D83A3A3A3A312FF
:102EB3002F178E0C8F0D750E00780C1207F27C08FD
:102EC3007D00E5082407124CBA120823124D258E03
:102ED3000C8F0D780C1207F27C037D00E508240F9C
:102EE300124CBA120823E50AC3940F40148E828F42
:102EF30083A3A3A3E0C0E0122F0E122810D0E0801A
:102F030006122F0E125182F0022E54E5082412F5F8
:102F130082E50922A3A31239300EAF832274F4127F
:102F2300035E74F9120887EAFEEBFF890890033405
:102F3300124496600E122FAA7009EEFAEFFB120DDF
:102F4300CC805F900363E06E7003A3E06F705374F3
:102F530001650860097A777B0312471570447A008C
:102F63007B021234D48B0BEA450B70369003661246
:102F73000A36851882851983120A4290036CE0C0D1
:102F8300E07404120A59D0E0F07405120A5974016E
:102F9300F07406120A59124A12120B3EE9609B1290
:102FA3000B4474070228CF122FB0640222124F166B
:102FB300A3A3A3A3A3A3E02274F512035E8A088B41
:102FC300098A828B83A3AE82AF83E0F9120B928EC0
:102FD300828F83E064EB600C850882850983A3E01C
:102FE30064E17009850882850983A3E4F0121FFE5A
:102FF300750A01780A1207FA850882850983A3E016
:10300300F50878081207FA7900122D0C120823121A
:103013000CB2025417EAF0A3EBF0023A1874F6125A
:10302300035E9003B4E0701B7C0079017A007B009F
:10303300120CE2EA4B600C8A828B83124496600383
:10304300120C4002449FC082C0831234BC401079EA
:10305300FF120CDCE9F8901DECE493C3985004795B
:103063000180027900023A1874F012035E8A088B19
:1030730009890B750C008A828B83A3A3A3A3A3A343
:10308300A3A3E0F9120CE88A0E8B0FAE0EAF0F75F7
:103093000A01EE4F6003023149850882850983A343
:1030A300A3A3A3A3A3124D47850882850983A3A3E2
:1030B300A3A3A3A3A3123E45124845120CD08A0C26
:1030C3008B0DAE0CAF0DEE4F700302326C8E828F00
:1030D30083A3A3A3A3E4F0A3F0E508240B1232789F
:1030E300E0C0E012280AD0E0F0120DA8EE240CF59F
:1030F30082EF12446AE508240EF582E50912366D63
:10310300EE240EF582EF1244DE750C01EE2406F870
:10311300EF123274547FF0A3E054FC124FACE0542E
:103123000460030231CF900ED8123E36740778083C
:103133001209298E828F83A3A3A3A3A3A3E0450827
:10314300F0A3E04509F08E828F83A3A3A3A31232D9
:103153008374077808120A0BE5085407F508E50B92
:10316300607A8E828F83A3A3A3A3A3A3A3A3A37431
:1031730002124077240D123B45E0A2E2500B90036C
:1031830051124512A3A31244E1E508700302324130
:10319300EE2406F8EF3400F9E8FAE9FB8A828B8320
:1031A300E0547FFCA3E054FCFDE50824FFF508E4AC
:1031B30034FFF50974077808120929EC4508F8ED7E
:1031C3004509F98A828B831244E180728E828F8350
:1031D300A3A3A3A3A3A3E04480023148E508700599
:1031E300750A0080598E828F83A3A3A3A3A3A3E0B0
:1031F30054206012121198EA547F245F8E828F83C9
:10320300A3A3A3A380238E828F83A3A3A3A3A3A398
:10321300E05410600A121198EA540F240A80DD8EDC
:10322300828F83A3A3A3A37401F0A3E412328D744A
:10323300041234CB8B09EA4509700312445DE50C93
:10324300A2E050288E828F83A3A3A3A3124A78F906
:10325300EEFAEFFB120CD6E9601212448C600312F3
:103263003655EEFAEFFB12121C750A00A90A024C3E
:10327300031245D522FAE5093400FB8A828B8322A7
:10328300A3A3E0F508A3E0F5092212329122124C20
:10329300D6A3A3A3A3A32274F412035E74F71208A4
:1032A300877E00120CE8EA4B700302335C8A828B40
:1032B30083A3A3A3A3A3A3A3A3A3E064066003021E
:1032C300335C8A828B83A3A3A3A3A3A3A3E0FF8A74
:1032D300828B83123B58E0C0E07408120A59D0E095
:1032E30012369012471B1244E1120CFAEF54086095
:1032F30066851882851983124D477A007B00120C6C
:10330300CA8B0BEA450B704F900363123780121977
:103313002A7C007D007A007B0080288E828F8312B6
:10332300367AF47003A3E0F4602D900363123363E1
:10333300124845121612E9641A601C7C007D00EEE7
:10334300FAEFFB120CCA8A0A8B0BAE0AAF0BEE4FD5
:1033530070C979001219307E01EEF974090228CF81
:1033630012336722E0FCA3E0FD8E828F8322C082AA
:10337300C083EA4B70059003B580068A828B83A3D2
:10338300A312358060258A828B83A3A3A3A3A3A35F
:10339300A3E0540860E5EC4D60158A828B831236F6
:1033A3007A6C7003A3E06D70D280047A007B000214
:1033B3003A1874F212035EEAFEEBFF890A8C088D59
:1033C300097A107B00121216EA4B603F8A828B83C4
:1033D300A3A3A3A3A3A3A3A3A3E412367EA3E50AF3
:1033E300124F1CA31234188A828B83A3A3A3A3E4D2
:1033F300F0A312368AA3F0124DB0EA240CF582EB47
:1034030012391C123411A3A3F0A3F0022231A3F04A
:103413008A828B8322A3A3E508F0A3E509F0227433
:10342300F412035EEAFEEBFF89088C0A8D0BEE4F64
:1034330060557401650870147901120CDCE9F89089
:103443001DF0E493C398500F7911806A74046508E2
:10345300702F1234BC40F18E828F83A3A3A3A3A346
:10346300A3A3A3A3E50812392CA31254A18E828F20
:1034730083A3A3E4F0A3F09003B5124496602180E4
:103483000D7402650860D079C1802BE0F8A3124562
:103493000BA3A312358088828983A3A370ED8003D5
:1034A3009003B5EEF0A3EF1234CB8B0BEA450B7010
:1034B3000312445D79000228D27904120CDCE9F886
:1034C300901DF4E493C39822F01234D0227A207B27
:1034D300009003B0E0F91212D622C082C083E9F84B
:1034E30079009003B5801D8A828B83A3A3A3A3A332
:1034F300A3A3A3A3E068600574FF687001098A822F
:103503008B83A3A312358070DE023A1874F712037B
:103513005EEA4B70059003B580068A828B83A3A372
:1035230012358060248A828B83A3A3A3A3A3A3A3BE
:10353300A3A3E06970E4EC60148A828B83E0240D1A
:10354300124D38A2E240D380047A007B00024A8BFA
:10355300C082C0839003B580068A828B83A3A312A3
:10356300358060128A828B83A3A3A3A3A3A3A3A3FF
:10357300E06970E580047A007B00023A181228C8DB
:10358300EA4B2274F212035E8A0A8B0B8C0C8D0DAC
:10359300750800750900EA450B602E9003B5800697
:1035A3008E828F83A3A31235D3601EAC0CAD0DEEB8
:1035B300FAEFFB850A82850B83121A97E96401707F
:1035C300DFEEF8EFF988088909AA08AB090222316E
:1035D300E0FEA3E0FFEE4F2274F712035E9003B503
:1035E3001236707C007D00800DE8FCE9FD8882893D
:1035F30083A3A3123670E8496030EA687002EB696E
:1036030070E79003B5124845E86A7002E96B888257
:103613008983A3A370081236709003B5800912360C
:10362300708C828D83A3A31244E1024A8B74F71238
:10363300035EEAFEEBFFEE4F6015120CF41236A2A6
:1036430012448C6003123655EEFAEFFB12121C0281
:103653004A8BEE240C1236621236B722EE241DF585
:1036630082EF3400F58322F582EF123665123A0FAA
:1036730022F582EF12366512369722123682221213
:103683004F24A3A3A3A322123682A3A3221234128C
:1036930012369722124F0FE022E0FEA3E0FF228EA4
:1036A300828F83E0241C123B491236B78E828F83AC
:1036B3001236B7221236BFFB12121C22E0FAA3E025
:1036C30022C082C083EAFCEBFDEC4D7004790580D7
:1036D30044EC24FBF582ED34FF1244947007123757
:1036E3001BE0F460051211A480E39003B0E0C0E096
:1036F30012371BD0E0F0901DE9E493F97AB77B030E
:103703001211CEE96401700B7A007B2012446179B7
:103713000080027904023A18EC24FFF582ED34FFAD
:10372300F5832274F412035EA2AFE433F508C2AF4B
:103733009003B71235D36038EE24FBF582EF34FFE4
:103743001244947A007B209003B060051244648095
:1037530005E0F91211DAE4F50AF50B780A1207F617
:10376300EEFCEFFD7AB77B031211C8740212082333
:10377300E508A2E092AFEEFAEFFB0228D2124D4B1E
:10378300851882851983AA82AB832274F212035EA1
:1037930074FC120887EAFEEBFF750AFE750BFF1235
:1037A3000CB8E960057911023911EE24151228DAF3
:1037B3006037900EECE0C43354E0F8E0333354FC4C
:1037C30048C0E0EE241512280DD0E012392C12392E
:1037D300228B09EA45096011750AFFEE240F1228AE
:1037E300DA44041244EFD2E0F08E828F831221F682
:1037F3006006EE2412123919EE24131228DA70101F
:10380300901DEFE493C0E0EE241312280DD0E0F0F6
:103813008E828F83E0A2E750045403801CEE2414AD
:103823001228DA7015900342E0C0E0EE2414122847
:103833000DD0E0F0900342E004F0EE24111228DAF8
:10384300640170169005BEE0600D90034DE0700AB0
:103853008E828F83E070031239168E828F83E06429
:10386300017013EE240B12367464027009EE240FF8
:103873001228DA4440F0851882851983AC82AD831F
:10388300EEFAEFFB120D1E8A088B0974FE650A70AF
:103893000374FFF470098E828F83A3A3124CC6EACC
:1038A300450960668E828F83E0C0E07401120A5975
:1038B300D0E0F07402120A59124DB47401120A597D
:1038C30085820C85830D780C1207F6EE240F1228DF
:1038D3000D12068CEE240E1228DAF50C780C120762
:1038E300FA90035612068C7407120A59E0F9AC0ACF
:1038F300AD0B120D187407120823E9FE74106E70D5
:103903000BAA08AB0912121C80027E10EEF9740494
:1039130002222EEE2411F582EF123665E4F022A383
:103923001228C879FF120A6C2212393022F08E82D3
:103933008F83A322C082C08374DE1208878A828B9E
:1039430083A3A3A3A3123670740E120A59E8F0A33B
:10395300E9123A06740C120A591239FF240DF58242
:10396300EB1228DDC0E0741A120A59D0E0F0124CB1
:1039730013EB12366D7420120A591239FF2415F510
:1039830082EB1228DDC0E07408120A59D0E0F0EA95
:10399300241CF582EB12366D7412120A591239FF88
:1039A3002411F582EB1228DDC0E07409120A59D004
:1039B300E01239F374FFF07401120A5974FFF074C2
:1039C30002120A5974FFF090805912068874041287
:1039D3000A59AC82AD837407120A59AA82AB8312C7
:1039E3000B687404120823790074221208238025BB
:1039F3001239F722F085188285198322E8F0A3E9AA
:103A0300F0EA22123412A3123A0E22A3E0F8A3E042
:103A1300F922124845D083D0820207BB74EC12030B
:103A23005E74EE1208878A128B13ECFEEDFF890990
:103A33007426120A59124CC67428120A59E0F5105A
:103A43007429120A59123B3A742B120A59E0F50EE3
:103A5300A3E0F50F7508107A1E7B0012121674028C
:103A6300120A5912446E7402120A591244967003D0
:103A7300023B33851882851983AA82AB837950125E
:103A830043491248457402120A59123B58A312447F
:103A93006E7410120A591254A37402120A59E024C4
:103AA3000B123B457402F0120A59123B587402F090
:103AB300120A59124F07124DB47402120A591248CE
:103AC3005AE509F07402120A59E0240C123B45E549
:103AD30010F07402120A59123B42E512F0A3E513E7
:103AE300F07408120A59E50CF0A3E50DF0740A12FC
:103AF3000A59E510F0850E82850F83C082C0837456
:103B03000D120A59AC82AD83D083D082740312079D
:103B130056F97402120A59AA82AB83120CBEE964E5
:103B230001700575080080087402120A5912365B89
:103B3300A9087412024CDDE0F50CA3E0F50D22E0B8
:103B4300241C123B4922F8A3E0123B50223400F913
:103B5300888289832212484DA3A3A3A3A32274EED0
:103B630012035EEAFEEBFF8C088D098E828F83A31E
:103B7300740812452AE060088E828F83A37410F0C4
:103B83001228D760098E828F83A3E02408F0EE24E5
:103B9300151228DA60088E828F83A3E004F08E82E8
:103BA3008F83A3A3A3A3A3A3E060198E828F83A310
:103BB300A3A3A3A3A3A3E0C3332402F88E828F831A
:103BC300A3E028F0EE24111228DA6005750B0E80AD
:103BD30003750B008E828F83A3C082C083EE240DF6
:103BE3001228DAD083D082F8E028250B8C828D83CB
:103BF300F0EE24111228DA600512405528F08508EA
:103C030082850983E0C3947540097508007509002E
:103C1300023D43E0FA7B00124E627003023D43EE25
:103C2300FAEFFB120D24EA85088285098312446F9B
:103C3300EE2402F8EF122B37123E3D123D7FF0EED9
:103C430024040808EF122B3712427FA3123D7FA3EF
:103C5300A3F0EE2413123D65F0EE2414123D65A388
:103C6300F0750A08EE24161228DA6010EE241812F2
:103C73004D44E5082408124F45750A101228D760F1
:103C830016EE241A124D44850A0CE508250C124F32
:103C9300457408250AF50A8E828F83A3A3A3A3A3E1
:103CA300A3E06059EE2407F510EF3400F5118510F9
:103CB30082F583E0C0E0123D4C122810D0E0123DA3
:103CC3006FE0C0E0123D4C122810D0E0123D6FA30C
:103CD300123D581207F2851082851183E0C333FC2D
:103CE300E433FD850A0CE508250C124CBA120823AF
:103CF300851082851183E0C333250AF50AEE241566
:103D03001228DA600BC0E0123D4C122810D0E0F00C
:103D130012280A123D581207F2EE240D1228DAFC7B
:103D23007D00850B0A8E828F83A3E0F8E50828F8CF
:103D3300E5093400F9E8250AFAE9124CBD12082313
:103D4300AA08AB097F0A0205BF850A0CE508250C02
:103D5300F582E50922E0F50CA3E0F50D750E007878
:103D63000C22123662123D89A3A3A322F0050A8E08
:103D7300828F83A3A3A3A3A3A3A3A322A3A3124FCB
:103D8300B0A3123D8922124283A3A32274F6120325
:103D93005E8A828B83E0FC900353123E3674027872
:103DA30008120929EC4508FCAD09EA2412123E3039
:103DB30074067808120929EC4508FCED4509FDEA6B
:103DC3002415F582EB1228DD600478018002780067
:103DD300E4C8F9ED49FDEA2411F582EB1228DDF57B
:103DE30008880974097808120929ED4509FDEA24B0
:103DF30016123E30740B7808120929ED4509FDEAC5
:103E03002417123E30740C7808120929ED4509FD78
:103E13008A828B83A3A3A3A3A3A3123E36740A7837
:103E230008120929ECFAED4509FB02449FF582EBE0
:103E3300123665E0F50875090022E08508828509D8
:103E43008322A3E0F98508828509832274EE120395
:103E53005E8A0A8B0BECFEEDFF750F01E9C3940834
:103E6300500579000240428E828F83E9F01242A806
:103E7300E96003750F0012428C8E828F831242D643
:103E8300EE124C14EF1242CBC0E0EE241112280DB7
:103E9300D0E01242C3C0E0EE241212280DD0E0128B
:103EA300392C7408124CCEA3A3A3E06015124274FC
:103EB300EE2413F582EF1244DE8E828F83A3E02477
:103EC30008F08E828F83A3A3A3A3A3A3A3A3E0607D
:103ED300218E828F83A38582088583091242B7EEE0
:103EE3002415F582EF1244DE850882850983E024D8
:103EF30008F08E828F83A3A3A3A3A3E0601A8E820C
:103F03008F83A385820885830912429B8E828F83C8
:103F1300A3A3A3A3A3124067EE2419123919EE2415
:103F23001B123919A3124522E07003023FD6EE2477
:103F330019F8EF3400F98E828F83A3858208858375
:103F430009E0FAE50A2AF582E50B1228DD88828961
:103F530083124067FAE50A2AF582E50B1228DDC0D1
:103F6300E0EE241A12280DD0E0124067888289837C
:103F7300E06059F8901DE8E493C398500575110C5F
:103F83008008EE24191228DAF5118E828F83A3E0BC
:103F9300F8E50A28F50CE50B12404B1207F2E51180
:103FA300C333FCE433FD7AA07B0D12404512082392
:103FB300EE241B12280D74A0F0A3740DF0E511C3B9
:103FC30033F8850882850983E0288006EE241812D9
:103FD300517FF08E828F83A3E0F88E828F83E0C3BC
:103FE300985003023E65A3E0FA8A08E50A2508F81B
:103FF300E50B3400F9EE241DF582EF1245EA124079
:1040030077C39AC0E0EE241712280DD0E01244E7DC
:10401300602BEE2417F8EF3400F9880889098882A9
:10402300F583E024F21245CB240EFAA3E03400FB1F
:104033008882898312446E124055C398F0A90F02F7
:104043003D471211807403223400F50D750E00787C
:104053000C2290034EE0F9120AA8E9F8850882853C
:104063000983E022F0850882850983E004F022A316
:10407300A3A3A3A3F08E828F83E02274F412035EC2
:104083008A088B09EA12410CF0EA1313543F1241D8
:1040930005A3A3A3F0EAC4131312410CA3A3F0EBEB
:1040A3001240FE1241167409780A120A0B1240FCE0
:1040B300124115740A780A120A0BE50A5401C0E08A
:1040C300EC2418F582ED122810D0E012411B740B7A
:1040D300780A120A0B1240FCA3124115740C780AD9
:1040E300120A0B1240FCA3A3A3A3A3A3A3A3F074DC
:1040F3000D7808120A0B02243CE50A54018C828DC8
:104103008322540F8C828D832254038C828D83A34C
:10411300A322A3A3A3A3A3A3F08A0A8B0B22C08287
:10412300C08379008A828B83A3A3A3A3A3A3E09074
:10413300034D600FE070228A828B83A3A3E0701982
:10414300098016E060138A828B8312483C900356E1
:10415300E06A7003A3E06B70E7023A1874F012038D
:104163005E8A0A8B0B890C8C088D091242A81242B5
:104173008C8508828509831242D6E508124C14E522
:10418300091242CBC0E0E5082411F582E5091228A3
:1041930010D0E01242C3C0E0122F0E122810D0E05C
:1041A3001245F2740812460B6011124274E508249A
:1041B300131245E61245F2E02408F08508828509CA
:1041C30083A3A3A3A3A3A3A3A3E060178508828566
:1041D3000983A31242B3E50824151245E61240777A
:1041E3002408F0850882850983A3A3A3A3A3E06021
:1041F30019850882850983A3AE82AF8312429B850A
:10420300088285098312407204F0AA08AB09120DD3
:1042130036E9F50D7056850882850983A3A3A3A308
:10422300A3A312427F7014E0FA8A0EE50A250EF862
:10423300E50B1244D3E50CC39A80211242B3E82460
:104243000EF8E91244D390034EE0F9120AA88E82C5
:104253008F83E0F8E50CC39824F2C399C0E0E50826
:104263002417F582E509122810D0E0F0A90D024CBD
:1042730003E50A2408F8E50B3400F92212428322ED
:10428300E0850882850983A322850A82850B83A39F
:10429300A31242ECE0F9EA22E0F8E50A28F582E508
:1042A3000B1244FA228A828B83124C08120D30229D
:1042B300AE82AF83E0F8E50A28F8E50B3400F92273
:1042C3001242FFA3A3A3E022123665E81242F8A329
:1042D300A3E022A3A3A3A3A3A3A3A3A31242F8121D
:1042E30042ECA3A3E0F9EAF822E0FA850A82850BFF
:1042F30083A3A3A322F0A3E91242FF22F0850A823B
:10430300850B83A3A3A3A322C082C0837AC57B03A7
:1043130079E21218FA7AC57B03023A18C082C08385
:10432300900356023A15C082C08374FE1208878533
:104333001882851983AA82AB83794B1243491248A9
:104343004574020239EE1218FA8518828519832200
:10435300C082C083794A1218FA023A1874F612031B
:104363005E9003CDE0FE04F0EEF9120CE88B09EA4F
:10437300450970EDEE60EAF902449F74F012035EA2
:10438300EAFEEBFF8C088D09890A7410120A59E0C2
:10439300F50B7411120A59E0F50C120E08EA4B7072
:1043A30013E50C7042A90AAC08AD09EEFAEFFB1253
:1043B3000E20806EE50A6021EA2402F582EB1228C2
:1043C300DD850A082508F8E4340013E813F07009C2
:1043D3008A828B83A3A37401F0E50C6045E50B701F
:1043E300068A828B83E4F07401650C7035E50B90CB
:1043F30003D47004E4F0802AE004F0900ED9E0F8CE
:104403009003D4E0C398401AE4F0900359E06E702F
:1044130003A3E06F700CEEFAEFFB7901120B8C1221
:104423004428024C037A017B009003B0E0F9121296
:10443300D022C082C08374016A7001EB70077A01D5
:1044430012445F8012900ED012446EEA4B60051244
:1044530021B88003124428023A187A207B00900383
:10446300B0E0F9121A8C223400F583EAF0A3EBF0E2
:1044730022C082C083900ED2023018C082C08390C3
:104483000ED4023018124F1622EE240CF582EF34AC
:1044930000F583123A0FE849221208237F0202052E
:1044A300BFA2F0E4338518828519831244C0795280
:1044B300121900221244C0794212190022F0AA8272
:1044C300AB8322AA08AB099003B0E0F91211AA2228
:1044D3003400F9E508241DF582E509123665E8F094
:1044E300A3E9F022124CD2A3A3E022A3F0EE2415F9
:1044F3001244F722F582EF3400F583E022124504DB
:10450300223400F583E0F8A3E0F98882898322E06E
:10451300F812451822A3E0F98E828F83A3A322F019
:10452300EE241812366222F0EE241612366222743A
:10453300F412035EEAFEEBFF7A007B0412442C12B2
:1045430045C11244E19003657409F0120D428A08D3
:104553008B09AC08AD09EE241312280D124845123D
:104563004715640170487A0F1245B460418A828B03
:104573008374021245CBFAA3E0FB8A828B83A3E008
:10458300FC8A828B83A3A3E0FBEC850882850983E5
:10459300A3A312446F88828983124849123E3D12B5
:1045A30044EEFAA3E0FB794A1219001244C602282A
:1045B300D27B0012119E8A088B09EA4509229003D7
:1045C30036123A0F900ED422F0EE241DF8EF124566
:1045D300D522123B50E0221245DE223400F58374CB
:1045E30001F022F582E509123665E8F0A3E922120B
:1045F30045F6221245FA22F0850882850983A32213
:104603001245FAA3A3A3A322124603A3A3E02212F3
:104613004A1C120D9622EE2417F582EF1245DE1284
:104623000D42EE241A123662EAF0A3EBF02274F480
:1046330012035E74F31208878908EAFEEBFF7C0D10
:104643007D007900851882851983AA82AB831211B4
:104653008CEE241D12280D124F07A3E0F8741F5887
:10466300600A79011218D0790002470CE8A2E550DC
:1046730008740C120A597401F0E8A2E75008740B8D
:10468300120A597401F0E8A2E6740A5008120A5992
:104693007401F08008120A59E064017005EE2413D6
:1046A3008003EE2415124D447402120A59AA82ABF8
:1046B300831218E812280A12471A1244E1740A12E4
:1046C3000A59E0640170331221EB703B120D4E8ADC
:1046D3000A8B0BA80AA90BEE240B1228DA687003C5
:1046E300A3E0697022120D42EAFCEBFD7402120A88
:1046F30059AA82AB83124715600D851882851983E9
:10470300AA82AB83120B86A908740D0228CFEEFA96
:10471300EFFB1218E2E922E012471F22F8A3E0F9A7
:104723008518828519832274F612035E74F31208C6
:10473300878A088B09ECFEEDFF7C0D7D00790085EF
:104743001882851983AA82AB831250ACA3A3A3A3B7
:10475300A3A3A3A3A31247B41247BDF8A2E550082D
:10476300740B120A597401F0E8A2E75008740A1294
:104773000A597401F0E8A2E6EE50042413800224DF
:1047830015124D447402120A591247A6A3A3E0C09E
:10479300E0740C120A59D0E0124A14120B80740D03
:1047A30002449CAA82AB831218E885088285098398
:1047B30022E012471FE8F0A3E922F012365F124FFE
:1047C3000BA3E02274F712035E74E1120887EAFE7A
:1047D300EBFF8E828F83124849A3A3A3E0A2E0508C
:1047E300518E828F8312234B8A828B83A3A3A3A32D
:1047F300A3A3E054FE1248618A828B8312485AE0D5
:10480300F98A828B83E0241CFAA3E012327B1248DC
:1048130045120D3CE9701B741D120A59124854705D
:1048230011851882851983AC82AD83EEFAEFFB12F2
:104833000D84024A868E828F83A3A3A3A3A3A3A37B
:10484300A3A31228C82212484D22124F0FA3A3A3D9
:1048530022123697640422E0241B123B49221239A8
:10486300F7AC82AD8322E9F87900740468600A74B6
:104873000A6860057403687001090207BB74F612C5
:10488300035E8A828B837420F0A3A37401F0120B5E
:10489300328A088B09AE08AF09EE4F60108E828F03
:1048A300837401F09003A3E07003124619EEFAEF4C
:1048B300FB02449FC082C0839003B97401F0E9A254
:1048C300E350037403F0E9A2E15004E0D2E2F00202
:1048D3003A1874F612035E79007C008A088B097813
:1048E30008120579F8FF07084906490649064906EB
:1048F30049FF4803490849FC480C80097C048005AA
:104903000C80F67C089003B9E05C6003098003EC3B
:1049130060010902449F74F612035E8A828B83E06E
:104923007012A3124496600C8A828B83124844123D
:1049330019F080047A007B0002449F74F512035E31
:1049430074F31208878A088B09ECFEEDFF750A12CF
:10495300EA450970057900024A0D900356E065089F
:104963007004A3E065097014120D42EAFCEBFD121A
:1049730047117005750A018003750A008518828541
:104983001983E4F004120A59E508F0A3E509124A71
:1049930014120AF6E960277403120A59AA82AB8338
:1049A300120AD8E964017016750A017403120A59D0
:1049B300AC82AD831247116021750A00801C74120A
:1049C300650A70169003A2E06402700EEEFCEFFD20
:1049D300AA08AB09120B0EE970DFEEFCEFFDAA0883
:1049E300AB09120E0EE9F8740A687005750A0180A6
:1049F3001774A0687012EEFCEFFDAA08AB09120E43
:104A03001AAA08AB09120E2CA90A740D02541474C5
:104A130002124A1822124A1C221239F7AA82AB83C5
:104A23002274F712035EEAFEEBFF8E828F83A3A349
:104A3300A3A3A3A3A3A3E06015EE241512280D12CC
:104A430028B8120DAEE964017004790180258E82C5
:104A53008F83A3A3A3A3A3A3A3E06015EE24131240
:104A6300280D124A78FAA3E0FB120DAEE964016047
:104A7300D979008013123367A3A3A3A3A3A3A3A38A
:104A8300A3E022741F1208237F010205BF74F012F2
:104A9300035E74FD1208878A088B09ECFEEDFF891B
:104AA3000B7413120A59E0F50C750A017401120A0A
:104AB300597404124F3F6048E50C601DEA2417F552
:104AC30082EB125182124F2D8A828B83E0D2E7F060
:104AD300EA2414F582EB12391C124C13EB12450035
:104AE30074031254A5EE88828983A3A3F0EF88820E
:104AF3008983A3A3123411123418120B2CE9F50A7B
:104B0300A90A7403024C0074EC12035E74F51208D4
:104B1300878A0A8B0B890C8C0E8D0F741F120A590E
:104B2300E0F50D7420120A59E0F510A3E0F5117EAB
:104B330001EE120A59740AF0E97007E50DC3332434
:104B43000AF0124CE57003024BE7124CFA7409F0B9
:104B5300A3E50CC43354E0450D124D0CE50C702D48
:104B63007C008023ECC333F8E433F9E51028F8E53F
:104B73001139F988828983124BF488828983122B35
:104B83002AF0A30EAF830CECC3950D40D7E50824A0
:104B930017F582E5091245DA120D42E508241AF5E4
:104BA30082E50912446A7403120A59AC82AD83AADE
:104BB3000AAB0B120ADEE96019E5082416F582E553
:104BC30009124BEE120A59A882A983E50824181288
:104BD30044DA8508828509831254A1AA08AB091215
:104BE3000B2CE9FEEEF9740B024CDD1245DE740367
:104BF30022E08E828F83F0A3AE82AF83221208233A
:104C03007F080205BF1236BFF9EA2400E439FB220C
:104C1300EA240BF5822274EE12035E8A0C8B0D8953
:104C23000E8C088D097412120A59E0F50F741312D1
:104C33000A59124CC690052D1244966077E50FC3AE
:104C430033F8E433F9E8240EFAE93400FB12119E39
:104C53008A108B11AE10AF11EE4F60588E828F8386
:104C630074D4F0A3A3E50CF0A3E50D124CCEE50E2E
:104C7300F0AC08AD09EE2405FAEF124F48EE240D0F
:104C830012280DE50FF0850A08850B09750A0078CF
:104C9300081207F2E50FC333FCE433FDEE240EFAEA
:104CA300EF124CBD120823EEFAEFFB90052D124FC5
:104CB30007121A97023D47FAE5093400FB121180E7
:104CC300740322E0F50AA3E0F50B22124CD2221260
:104CD3004CD622123930A3A3A3221208237F0C023D
:104CE30005BF851882851983AA82AB83120D968A24
:104CF300088B09EA450922EA240BF582EB1244FAF0
:104D0300FEA3E0FF8E828F8322F0A3AE82AF83AC3B
:104D13000EAD0FEEFAEFFB124D1E221218E8124DE4
:104D23002522EE2408FEEF3400FF22E0FA8E828F64
:104D330083A3A3E022FEA3E03400FF8E828F83E0EF
:104D430022123662124D4B22E0FCA3E0FD22122810
:104D5300C8120D2A2274F612035EEAFEEBFF9003DB
:104D6300BA801388828983E06E7003A3E06F603A90
:104D730088828983A3A312449670E87A047B001285
:104D830012168A088B09A808A909E849601C8882B9
:104D93008983124DB49003BA12484588828983A34C
:104DA300A312446E9003BA1244E102449F8A828B99
:104DB30083EEF0A3EFF02274F412035E7E009003FF
:104DC300BA80070E88828983A3A312449670F4EEF7
:104DD300C333FAE433FB124E62607E7F009003BA62
:104DE300802488828983124D47EFC333FAE433FB6F
:104DF300E5082AF582E5093BF583ECF0A3EDF00F16
:104E030088828983A3A312449670D79003AB12229E
:104E1300257003A3E069780870191207F6EEF50A06
:104E2300780A1207FA7C777D0379009003AB124E60
:104E33006D801A1207F6EEF50A780A1207FA7C77E4
:104E43007D0379009003AB124845120DC074031221
:104E53000823AA08AB0912121C120B440228D2120F
:104E630012168A088B09EA4509221228C8120DC6B0
:104E730022C082C08380128A828B83A3A3123670DE
:104E83009003BA1244E112121C9003BA12358070D7
:104E9300E6023A1874F612035E90036312369C908E
:104EA30003CE124EF61244E17ACE7B0379501219E7
:104EB300009003CE122444FAEFFB120E269003CE89
:104EC30012369C90052F12449660257A067B0012B9
:104ED300119EEA4B601A8A828B8374D5F0A3A3E4F4
:104EE300124F1C04124F2D90052F124F07121A97C1
:104EF30002449F124EFA22E0F8A3E0F990036322E2
:104F03008E828F83124F0B22124F0F22E0F8124F23
:104F13001522A3E0F583888222124F2022124F2408
:104F230022F08A828B83A3A3A322124F20A3EEF045
:104F3300A3EFF022F582EF1244FAF922124612EAA5
:104F43004B22FAE5093400FB1218E822124519A393
:104F5300A3A3A3A3A3A322901DEAE4932401F8E44B
:104F63003400F97A027B002274F712035E7E00801C
:104F7300041255580E12507C40F77E00EE124F97E4
:104F830074FEF0A304124FACE4F00EEEC39403409E
:104F9300EB024A8B75F003A4F8A9F074BC28F874EB
:104FA3000339F988828983A322124FB022F08882C1
:104FB30089832274F712035E7F0080010F901DE73F
:104FC300E493F8EFC3985026EF1251686A7003A375
:104FD300E06B70E81255056C7003A3E06D600A7412
:104FE300FF6C700374FF6D70D312507380047A00EA
:104FF3007B00024A8B74F612035E7CFF7DFF7AFE10
:105003007BFF120DEAEA4B70407508008036E50815
:1050130075F017A4F8A9F0743B28F582740C1251AB
:105023007A600C743A28F582740C12517A701374F6
:105033002C28FE740C39FF8E828F83125187EEFA6F
:10504300EFFB05081250E240C502449F74F41203BB
:105053005E8A088B09ECFEEDFF800B120DFCEEFC63
:10506300EFFDAA08AB09120DEAEA4B70EE0228D253
:10507300742C28FA740C39FB22901DE7E493F8EEA4
:10508300C3982274F712035EEAFEEBFFEE4F601043
:105093001250A674FEF0A3041254AB14F0A304F050
:1050A300024A8B7C177D00790012118C8E828F83CC
:1050B3002274F712035EEAFEEBFF7508008018E521
:1050C3000875F017A4F8A9F01255107003A3E06F48
:1050D300600312556005081250E240E3024A8B90C8
:1050E3001DE7E493F8E508C3982274F612035E12F1
:1050F3000DEA8A088B09A808A909E849600AE82487
:105103000DFAE93400FB80047A007B0002449F74AB
:10511300F412035E8A0A8B0BECFEEDFF7508007533
:105123000900802EE50975F017A4F8A9F012554B74
:10513300601EE509125168650A7004A3E0650B70EF
:105143000375080AEEFCEFFD12540760034308A041
:105153000509901DE7E493F8E509C3985004E508B1
:1051630060C202243C75F017A4F8A9F0125173220F
:10517300742C28F582740C39F583E022F582EF1242
:105183003665E4221228C8120C2222124FB0A3A3C0
:10519300A3A3A3A3A3A32274F212035E8A088B0919
:1051A300ECFEEDFF740E120A59124CC6750C007C0E
:1051B300007D018010121198E50CF5F0EA84ACF043
:1051C300750C007D0078007900800312534412535C
:1051D300A04003025266E8FAE9FBEA75F017A4FA65
:1051E30085F00D75F017EBA4250D12537C7003A306
:1051F300E0F460D712535A65087004A3E0650960B0
:10520300CA12535A6E7003A3E06F60BF12535A65FC
:105213000A7004A3E0650B60B2E8FAE9FBEA75F0F3
:1052230017A4FA75F017EBA4250DFB743A2AF5823F
:10523300740C12533B509474016D050C608DE50C96
:10524300C39C4087E875F017A4F8AAF075F017E936
:10525300A42AF9742C28F582740C39F58312484575
:105263000253387800790080031253441253AD403F
:105273000302531FE8FAE9FBEA75F012A4FA85F07A
:105283000D12538C64FE7003A3E0F460DC125382AE
:1052930065087004A3E0650960CF1253826E700342
:1052A300A3E06F60C4125382650A7004A3E0650B28
:1052B30060B7E8FAE9FBEA75F012A4FA75F012EBAD
:1052C300A4250DFB74BB2AF582740A12533B509933
:1052D300E8FAE9FBEA75F012A4FA75F012EBA425DB
:1052E3000D12534D64016081E06402700302526C3D
:1052F30074016D050C700302526CE50CC39C5003E2
:1053030002526CE875F012A4F8AAF075F012E9A441
:105313002AF974B228F582740A02525DE50C601111
:10532300EC700E7401650C60030251B87C010251EC
:10533300C37AFE7BFF0222313BF583E014C394065C
:1053430022E8240108E93400F922FB74B62AF58225
:10535300740A3BF583E022E8FAE9FBEA75F017A447
:10536300FA75F017EBA4250D12536F22FB742C2A48
:10537300F582740C3BF583E02212536F64FE22E83E
:10538300FAE9FBEA75F012A4FA75F012EBA4250D05
:10539300FB74B22AF582740A3BF583E022901DE781
:1053A300E493FAC3E89AE9940022901DDBE493FAAC
:1053B300740193FBC3E89AE99B2274F512035E8A96
:1053C300088B09ECFEEDFF750A008002050A901DAB
:1053D300E7E493F8E50AC3985028EEFCEFFDE50AED
:1053E30075F017A4F8A9F012540760E0E50A75F008
:1053F30017A4F8A9F0742C28F582740C39F58312DC
:10540300341A8010742E28FA740C39FB1218E2E94E
:10541300221208237F030205BF74F012035E8A0879
:105423008B098C0A8D0B890C120DF08A0E8B0FAE33
:105433000EAF0FEE4F60551250A6E508F0A3E50935
:105443001254AB1254A3E50C600AEE240F12280D7C
:10545300E50C8006EE240F12549BF09003D0124407
:1054630096601A9003AAE064017008EE240E1251AC
:105473007F8010EE240E12280D74078006EE240E92
:1054830012549B122D6012020D125492024C03EE21
:10549300240D123662E8F022123662740122A3A3AD
:1054A300E50AF0A3E50BF022123291A32274F51260
:1054B300035E8A088B09ECFEEDFF750A00800F126C
:1054C30055107003A3E06F6003125560050A901D29
:1054D300E7E493F8E50AC3985025E50A75F017A4A5
:1054E300F8A9F012550565087004A3E0650970CFAB
:1054F300743628F582740C39F583124DB480CD02CD
:105503005417743628F582740C12517A2274362893
:10551300F582740C12517A6E2274F712035EEAFE5E
:10552300EBFF7508008019E5081251686E7003A33C
:10553300E06F700A12554B7005E5081255590508BE
:105543001250E240E2024A8B742E28FA740C39FBA3
:10555300120AD8E922EE75F017A4F8A9F0125073D5
:10556300120DFC22124FB0123A0FE84922C082C03A
:105573008374F8120887851882851983AC82AD83FA
:1055830075838075822274081207568518828519DF
:1055930083AC82AD831247156401700479008002E5
:1055A300790174080239EE126923F9EA22E0F50859
:1055B300E4F509F50AF50B2274091208237F0402A6
:1055C30005BFEE2412FAEF3400FB120FA6E922798D
:1055D30005120FB2740422E024F5C39412221216AA
:1055E300548A0C8B0D8C0E8D0F2212108A900A7C1C
:1055F3001270BF7A147B0022FB125606E8F0A3E96F
:10560300F0EE2212560E8A828B83228A828B83E0EB
:1056130024FFF8A3E034FFF922EE240E127315746D
:1056230001221256661208237F080205BF12566034
:10563300A2E522127318E4F0227F050205BFE508F4
:10564300126C5EE509125660227AD57B031211C8EB
:1056530074022212565A22EE2410F582EF3400F51A
:1056630083E02212107E740422F582EF125660F852
:1056730022EE240DF582EF125660640122E0FEA3B0
:10568300E0FFEE4F22F582EF12566022FAEF34006C
:10569300FB79E112174A22F0EEFAEFFB22EE240E19
:1056A300F582EF12731822F0A3F0025DF5F582EB99
:1056B300125660FA22120823026250C082C0837419
:1056C300FE12088780077AD57B031256FC9003D518
:1056D3001266C970F19003D71266C960097AD77B45
:1056E300031256FC80EF9003D5E4F0A3F09003DBA4
:1056F300F0A3F0A3F0740280161211C285188285FC
:105703001983EAF0A3EB1278B8120F9422741112E2
:105713000823025DF574F612035EE9FF8F0874A98E
:105723001267E8741D1267EDFE8E08FA7B001211F2
:105733009EEA4B6017EA2508F8EB3400F98A828B5E
:10574300831271A8A3A3A3A3E4F080227A027B00AF
:1057530012119EEA4B60138F08747D1267E8741D63
:10576300125ADFF0A3741A125AF47A007B00027201
:1057730063E9FDEAFC74062DFAECA2E0501EEA751B
:10578300F00A84A8F0E86014740A2AC398FAE8C3FC
:1057930094054004740A2AFA740B2AFAEDC394138D
:1057A3004004781480027806E82A2409F8E43400D7
:1057B300F97A0A7B0012020DE8F90207BBC082C026
:1057C30083900405E05402600A12193CE9600479ED
:1057D3000180027900025DF5C082C083900405E078
:1057E300540260149003DBE0700A1266C66009126B
:1057F30058005004790180027900025DF59003DEC0
:10580300E02410125CCFA2E722C082C083908042C2
:10581300E0F89003DDE0C398500512119E80047AEE
:10582300007B00025DF5C082C083120F94790002F1
:105833005DF5C082C08374FE1208878518828519BE
:105843008312599B600D14606524FE70030258D5C2
:1058530002595F900A5CE0640F6018120F6AE970E6
:105863001285188285198312691E900EA6125D5641
:10587300121A97900A84E0C0E08518828519831272
:1058830063F8D0E0125981F812596F7414125981D8
:10589300FCA3E0FD7AD77B031211BCE5A8F8C2AFE5
:1058A3009003DD1259927920120F580256F8120F05
:1058B30064E98518828519836011125D56740D128F
:1058C3005981FAA3E0FB12193680E0125D56741574
:1058D30080BB125CD5700302595F851882851983DA
:1058E300127239C0E0125974D0E01259812402F8BF
:1058F300125BC62401FAA3E03400FB888289831279
:10590300599B14C394095020125CD5FA85188285DB
:105913001983A3127ADFA3A3A3E0F874C728F5823F
:10592300741D1267ED6A600F125974E06408702CDD
:10593300125CD564087025851882851983E0F812F6
:105943005CDB1412599F240AC0E0851882851983F1
:1059530012596FD0E012599F04025890851882851E
:105963001983AA82AB83120F940258AEA3125D610E
:1059730022851882851983127AECA3A3A3221259D4
:1059830085221279A8E022E5A8F8C2AF9003DCE0F3
:1059930004F0E8A2E792AF22EAF0A3EB125985F8EC
:1059A300125CE0A3E022C082C0839003E01266C9C8
:1059B3006008125970121A9780027900025DF5741B
:1059C300F712035EEAFEEBFFEE240D12561FF0EE14
:1059D300242F125688C0E01256A0D0E0F0EE2430F7
:1059E300125688C0E0EE24121256A3D0E0126F6F55
:1059F300C0E0EE24131256A3D0E0F0EE242B12568F
:105A0300A312068CEE2422FCEF3400FDEE242D12AB
:105A13005688F9126D66120823E97007EEFAEFFB58
:105A2300120E9E026250C082C083120F6AE96004A4
:105A3300792080027901025DF5C082C083EA126C8D
:105A430055E0D2E00256ACC082C083126C4E1256AF
:105A53007A7011125AE9400C8A828B83A3E0F912FF
:105A63000F5E8069125AD312568BA2E650128A82B5
:105A73008B83A3E0F9900EA8125D56121A97804DFE
:105A8300126C4E12567A700D125AE950088A828BA4
:105A930083743080358A828B83A3E0641B8A828B74
:105AA30083700474228023A3E0700F126C4E12568D
:105AB3006F749E28F582741D800D126C4E12566F02
:105AC300747D28F582741D125ADF125AF4025DF5B3
:105AD300EA125ADAEB22EE240FF58222127318E44B
:105AE300938A828B8322EA125ADAEB125660A2E37C
:105AF30022F0900400E0F91211AA2274F712035E57
:105B0300E9FE1266C6602EEE702E9003DE12730657
:105B1300E4F09003DE12691E120E8C9003DEE02483
:105B23000E12580650031273CB9003DEE4F0A3F079
